{
  "contractName": "AddressRegistry",
  "abi": [
    {
      "constant": true,
      "inputs": [],
      "name": "AaveEthAddress",
      "outputs": [
        {
          "internalType": "address",
          "name": "",
          "type": "address"
        }
      ],
      "payable": false,
      "stateMutability": "view",
      "type": "function"
    },
    {
      "constant": true,
      "inputs": [],
      "name": "AaveLendingPoolAddressProviderAddress",
      "outputs": [
        {
          "internalType": "address",
          "name": "",
          "type": "address"
        }
      ],
      "payable": false,
      "stateMutability": "view",
      "type": "function"
    },
    {
      "constant": true,
      "inputs": [],
      "name": "BatAddress",
      "outputs": [
        {
          "internalType": "address",
          "name": "",
          "type": "address"
        }
      ],
      "payable": false,
      "stateMutability": "view",
      "type": "function"
    },
    {
      "constant": true,
      "inputs": [],
      "name": "BatJoinAddress",
      "outputs": [
        {
          "internalType": "address",
          "name": "",
          "type": "address"
        }
      ],
      "payable": false,
      "stateMutability": "view",
      "type": "function"
    },
    {
      "constant": true,
      "inputs": [],
      "name": "CDaiAddress",
      "outputs": [
        {
          "internalType": "address",
          "name": "",
          "type": "address"
        }
      ],
      "payable": false,
      "stateMutability": "view",
      "type": "function"
    },
    {
      "constant": true,
      "inputs": [],
      "name": "CEtherAddress",
      "outputs": [
        {
          "internalType": "address",
          "name": "",
          "type": "address"
        }
      ],
      "payable": false,
      "stateMutability": "view",
      "type": "function"
    },
    {
      "constant": true,
      "inputs": [],
      "name": "CSaiAddress",
      "outputs": [
        {
          "internalType": "address",
          "name": "",
          "type": "address"
        }
      ],
      "payable": false,
      "stateMutability": "view",
      "type": "function"
    },
    {
      "constant": true,
      "inputs": [],
      "name": "CUSDCAddress",
      "outputs": [
        {
          "internalType": "address",
          "name": "",
          "type": "address"
        }
      ],
      "payable": false,
      "stateMutability": "view",
      "type": "function"
    },
    {
      "constant": true,
      "inputs": [],
      "name": "CompoundComptrollerAddress",
      "outputs": [
        {
          "internalType": "address",
          "name": "",
          "type": "address"
        }
      ],
      "payable": false,
      "stateMutability": "view",
      "type": "function"
    },
    {
      "constant": true,
      "inputs": [],
      "name": "CompoundPriceOracleAddress",
      "outputs": [
        {
          "internalType": "address",
          "name": "",
          "type": "address"
        }
      ],
      "payable": false,
      "stateMutability": "view",
      "type": "function"
    },
    {
      "constant": true,
      "inputs": [],
      "name": "DaiAddress",
      "outputs": [
        {
          "internalType": "address",
          "name": "",
          "type": "address"
        }
      ],
      "payable": false,
      "stateMutability": "view",
      "type": "function"
    },
    {
      "constant": true,
      "inputs": [],
      "name": "DaiJoinAddress",
      "outputs": [
        {
          "internalType": "address",
          "name": "",
          "type": "address"
        }
      ],
      "payable": false,
      "stateMutability": "view",
      "type": "function"
    },
    {
      "constant": true,
      "inputs": [],
      "name": "DssCdpManagerAddress",
      "outputs": [
        {
          "internalType": "address",
          "name": "",
          "type": "address"
        }
      ],
      "payable": false,
      "stateMutability": "view",
      "type": "function"
    },
    {
      "constant": true,
      "inputs": [],
      "name": "DssProxyActionsAddress",
      "outputs": [
        {
          "internalType": "address",
          "name": "",
          "type": "address"
        }
      ],
      "payable": false,
      "stateMutability": "view",
      "type": "function"
    },
    {
      "constant": true,
      "inputs": [],
      "name": "EthJoinAddress",
      "outputs": [
        {
          "internalType": "address",
          "name": "",
          "type": "address"
        }
      ],
      "payable": false,
      "stateMutability": "view",
      "type": "function"
    },
    {
      "constant": true,
      "inputs": [],
      "name": "JugAddress",
      "outputs": [
        {
          "internalType": "address",
          "name": "",
          "type": "address"
        }
      ],
      "payable": false,
      "stateMutability": "view",
      "type": "function"
    },
    {
      "constant": true,
      "inputs": [],
      "name": "UniswapFactoryAddress",
      "outputs": [
        {
          "internalType": "address",
          "name": "",
          "type": "address"
        }
      ],
      "payable": false,
      "stateMutability": "view",
      "type": "function"
    },
    {
      "constant": true,
      "inputs": [],
      "name": "UsdcAddress",
      "outputs": [
        {
          "internalType": "address",
          "name": "",
          "type": "address"
        }
      ],
      "payable": false,
      "stateMutability": "view",
      "type": "function"
    },
    {
      "constant": true,
      "inputs": [],
      "name": "UsdcJoinAddress",
      "outputs": [
        {
          "internalType": "address",
          "name": "",
          "type": "address"
        }
      ],
      "payable": false,
      "stateMutability": "view",
      "type": "function"
    }
  ],
  "bytecode": "0x6080604052600080546001600160a01b03199081167324a42fd28c976a61df5d00d0599c34c4f90748c81790915560018054821673eeeeeeeeeeeeeeeeeeeeeeeeeeeeeeeeeeeeeeee17905560028054821673c0a47dfe034b400b47bdad5fecda2621de6c4d95179055600380548216731d8aedc9e924730dd3f9641cdb4d1b92b848b4bd179055600480548216733d9819210a31b4961b30ef54be2aed79b9c9cd3b179055600580548216734ddc2d193948926d02f9b1fe9e1daa0718270ed51790556006805482167339aa39c021dfbae8fac545936693ac917d5e7563179055600780548216735d3a536e4d6dbd6114cc1ead35777bab948e364317905560088054821673f5dce57282a584d2746faf1593d3121fcac444dc179055600980548216736b175474e89094c44da98b954eedeac495271d0f179055600a80548216730d8775f648430679a709e98d2b0cb6250d2887ef179055600b8054821673a0b86991c6218b36c1d19d4a2e9eb0ce3606eb48179055600c80548216732f0b23f53734252bda2277357e97e1517d6b042a179055600d8054821673a191e578a6736167326d05c119ce0c90849e84b7179055600e80548216733d0b1912b66114d4096f48a8cee3a56c231772ca179055600f80548216739759a6ac90977b93b58547b4a71c78317f391a281790556010805482167319c0976f590d67707e62397c87829d896dc0f1f11790556011805482167382ecd135dce65fbc6dbdd0e4237e0af93ffd503817905560128054909116735ef30b9986345249bc32d8928b7ee64de9435e3917905534801561025657600080fd5b5061032c806102666000396000f3fe608060405234801561001057600080fd5b50600436106101215760003560e01c8063744d2712116100ad578063b29ced0611610071578063b29ced06146101b2578063bd020fbc146101ba578063beea14ce146101c2578063ee2a9411146101ca578063f5315b14146101d257610121565b8063744d27121461018a57806379fa686b146101925780638ec9f15f1461019a578063a303fcdb146101a2578063ac92d52b146101aa57610121565b806356cc94a2116100f457806356cc94a2146101625780635ed75a2f1461016a5780635f1726c71461017257806365276bdb1461017a578063730779801461018257610121565b80630f1eb85b146101265780633f6dc33b1461014a57806348665b0214610152578063515cb0e11461015a575b600080fd5b61012e6101da565b604080516001600160a01b039092168252519081900360200190f35b61012e6101e9565b61012e6101f8565b61012e610207565b61012e610216565b61012e610225565b61012e610234565b61012e610243565b61012e610252565b61012e610261565b61012e610270565b61012e61027f565b61012e61028e565b61012e61029d565b61012e6102ac565b61012e6102bb565b61012e6102ca565b61012e6102d9565b61012e6102e8565b600d546001600160a01b031681565b6000546001600160a01b031681565b600e546001600160a01b031681565b6002546001600160a01b031681565b6001546001600160a01b031681565b6012546001600160a01b031681565b6008546001600160a01b031681565b6003546001600160a01b031681565b600b546001600160a01b031681565b6005546001600160a01b031681565b6011546001600160a01b031681565b600c546001600160a01b031681565b6010546001600160a01b031681565b600f546001600160a01b031681565b6007546001600160a01b031681565b6004546001600160a01b031681565b600a546001600160a01b031681565b6009546001600160a01b031681565b6006546001600160a01b03168156fea265627a7a72315820a7cdef12261a021df3e113d82e4d60f8c9ec54256252388bf970a639e64ab11364736f6c63430005100032",
  "source": "pragma solidity 0.5.16;\n\ncontract AddressRegistry {\n    // Aave\n    address public AaveLendingPoolAddressProviderAddress = 0x24a42fD28C976A61Df5D00D0599C34c4f90748c8;\n    address public AaveEthAddress = 0xEeeeeEeeeEeEeeEeEeEeeEEEeeeeEeeeeeeeEEeE;\n\n    // Uniswap\n    address public UniswapFactoryAddress = 0xc0a47dFe034B400B47bDaD5FecDa2621de6c4d95;\n\n    // Compound\n    address public CompoundPriceOracleAddress = 0x1D8aEdc9E924730DD3f9641CDb4D1B92B848b4bd;\n    address public CompoundComptrollerAddress = 0x3d9819210A31b4961b30EF54bE2aeD79B9c9Cd3B;\n    address public CEtherAddress = 0x4Ddc2D193948926D02f9B1fE9e1daa0718270ED5;\n    address public CUSDCAddress = 0x39AA39c021dfbaE8faC545936693aC917d5E7563;\n    address public CDaiAddress = 0x5d3a536E4D6DbD6114cc1Ead35777bAB948E3643;\n    address public CSaiAddress = 0xF5DCe57282A584D2746FaF1593d3121Fcac444dC;\n\n    // Token(s)\n    address public DaiAddress = 0x6B175474E89094C44Da98b954EedeAC495271d0F;\n    address public BatAddress = 0x0D8775F648430679A709E98d2b0Cb6250d2887EF;\n    address public UsdcAddress = 0xA0b86991c6218b36c1d19D4a2e9Eb0cE3606eB48;\n\n    // MakerDAO\n    // https://changelog.makerdao.com/\n    // https://changelog.makerdao.com/releases/mainnet/1.0.4/contracts.json\n    address public EthJoinAddress = 0x2F0b23f53734252Bda2277357e97e1517d6B042A;\n    address public UsdcJoinAddress = 0xA191e578a6736167326d05c119CE0c90849E84B7;\n    address public BatJoinAddress = 0x3D0B1912B66114d4096F48A8CEe3A56C231772cA;\n    address public DaiJoinAddress = 0x9759A6Ac90977b93B58547b4A71c78317f391A28;\n    address public JugAddress = 0x19c0976f590D67707E62397C87829d896Dc0f1F1;\n    address public DssProxyActionsAddress = 0x82ecD135Dce65Fbc6DbdD0e4237E0AF93FFD5038;\n    address public DssCdpManagerAddress = 0x5ef30b9986345249bc32d8928B7ee64DE9435E39;\n}\n",
  "sourcePath": "/home/kendrick/Development/Ethereum/dedge/packages/smart-contracts/src/registries/AddressRegistry.sol",
  "compiler": {
    "name": "solc",
    "version": "0.5.16+commit.9c3226ce.Emscripten.clang"
  },
  "schemaVersion": "3.0.23",
  "updatedAt": "2020-04-08T12:22:38.660Z",
  "networkType": "ethereum",
  "devdoc": {
    "methods": {}
  },
  "userdoc": {
    "methods": {}
  }
}