{
  "contractName": "CompoundBase",
  "abi": [
    {
      "constant": true,
      "inputs": [
        {
          "internalType": "address",
          "name": "cToken",
          "type": "address"
        },
        {
          "internalType": "address",
          "name": "owner",
          "type": "address"
        }
      ],
      "name": "getBorrowBalanceUnderlying",
      "outputs": [
        {
          "internalType": "uint256",
          "name": "",
          "type": "uint256"
        }
      ],
      "payable": false,
      "stateMutability": "view",
      "type": "function"
    },
    {
      "constant": false,
      "inputs": [
        {
          "internalType": "address[]",
          "name": "cTokens",
          "type": "address[]"
        }
      ],
      "name": "enterMarkets",
      "outputs": [],
      "payable": false,
      "stateMutability": "nonpayable",
      "type": "function"
    },
    {
      "constant": false,
      "inputs": [
        {
          "internalType": "address",
          "name": "cToken",
          "type": "address"
        },
        {
          "internalType": "uint256",
          "name": "amount",
          "type": "uint256"
        }
      ],
      "name": "approveCToken",
      "outputs": [],
      "payable": false,
      "stateMutability": "nonpayable",
      "type": "function"
    },
    {
      "constant": false,
      "inputs": [
        {
          "internalType": "address[]",
          "name": "cTokens",
          "type": "address[]"
        }
      ],
      "name": "approveCTokens",
      "outputs": [],
      "payable": false,
      "stateMutability": "nonpayable",
      "type": "function"
    },
    {
      "constant": false,
      "inputs": [
        {
          "internalType": "address[]",
          "name": "cTokens",
          "type": "address[]"
        }
      ],
      "name": "enterMarketsAndApproveCTokens",
      "outputs": [],
      "payable": false,
      "stateMutability": "nonpayable",
      "type": "function"
    },
    {
      "constant": false,
      "inputs": [],
      "name": "supplyETH",
      "outputs": [],
      "payable": true,
      "stateMutability": "payable",
      "type": "function"
    },
    {
      "constant": false,
      "inputs": [
        {
          "internalType": "address",
          "name": "cToken",
          "type": "address"
        },
        {
          "internalType": "uint256",
          "name": "amount",
          "type": "uint256"
        }
      ],
      "name": "supply",
      "outputs": [],
      "payable": true,
      "stateMutability": "payable",
      "type": "function"
    },
    {
      "constant": false,
      "inputs": [
        {
          "internalType": "address",
          "name": "cToken",
          "type": "address"
        },
        {
          "internalType": "uint256",
          "name": "borrowAmount",
          "type": "uint256"
        }
      ],
      "name": "borrow",
      "outputs": [],
      "payable": false,
      "stateMutability": "nonpayable",
      "type": "function"
    },
    {
      "constant": false,
      "inputs": [
        {
          "internalType": "address",
          "name": "supplyCToken",
          "type": "address"
        },
        {
          "internalType": "uint256",
          "name": "supplyAmount",
          "type": "uint256"
        },
        {
          "internalType": "address",
          "name": "borrowCToken",
          "type": "address"
        },
        {
          "internalType": "uint256",
          "name": "borrowAmount",
          "type": "uint256"
        }
      ],
      "name": "supplyAndBorrow",
      "outputs": [],
      "payable": true,
      "stateMutability": "payable",
      "type": "function"
    },
    {
      "constant": false,
      "inputs": [
        {
          "internalType": "address",
          "name": "cToken",
          "type": "address"
        },
        {
          "internalType": "uint256",
          "name": "borrowAmount",
          "type": "uint256"
        }
      ],
      "name": "supplyETHAndBorrow",
      "outputs": [],
      "payable": true,
      "stateMutability": "payable",
      "type": "function"
    },
    {
      "constant": false,
      "inputs": [
        {
          "internalType": "address",
          "name": "cToken",
          "type": "address"
        },
        {
          "internalType": "uint256",
          "name": "amount",
          "type": "uint256"
        }
      ],
      "name": "repayBorrow",
      "outputs": [],
      "payable": true,
      "stateMutability": "payable",
      "type": "function"
    },
    {
      "constant": false,
      "inputs": [
        {
          "internalType": "address",
          "name": "recipient",
          "type": "address"
        },
        {
          "internalType": "address",
          "name": "cToken",
          "type": "address"
        },
        {
          "internalType": "uint256",
          "name": "amount",
          "type": "uint256"
        }
      ],
      "name": "repayBorrowBehalf",
      "outputs": [],
      "payable": true,
      "stateMutability": "payable",
      "type": "function"
    },
    {
      "constant": false,
      "inputs": [
        {
          "internalType": "address",
          "name": "cToken",
          "type": "address"
        },
        {
          "internalType": "uint256",
          "name": "redeemTokens",
          "type": "uint256"
        }
      ],
      "name": "redeem",
      "outputs": [],
      "payable": true,
      "stateMutability": "payable",
      "type": "function"
    },
    {
      "constant": false,
      "inputs": [
        {
          "internalType": "address",
          "name": "cToken",
          "type": "address"
        },
        {
          "internalType": "uint256",
          "name": "redeemTokens",
          "type": "uint256"
        }
      ],
      "name": "redeemUnderlying",
      "outputs": [],
      "payable": true,
      "stateMutability": "payable",
      "type": "function"
    },
    {
      "constant": false,
      "inputs": [
        {
          "internalType": "address",
          "name": "cToken",
          "type": "address"
        },
        {
          "internalType": "uint256",
          "name": "amount",
          "type": "uint256"
        }
      ],
      "name": "supplyThroughProxy",
      "outputs": [],
      "payable": true,
      "stateMutability": "payable",
      "type": "function"
    },
    {
      "constant": false,
      "inputs": [
        {
          "internalType": "address",
          "name": "cToken",
          "type": "address"
        },
        {
          "internalType": "uint256",
          "name": "amount",
          "type": "uint256"
        }
      ],
      "name": "repayBorrowThroughProxy",
      "outputs": [],
      "payable": true,
      "stateMutability": "payable",
      "type": "function"
    },
    {
      "constant": false,
      "inputs": [
        {
          "internalType": "address",
          "name": "recipient",
          "type": "address"
        },
        {
          "internalType": "address",
          "name": "cToken",
          "type": "address"
        },
        {
          "internalType": "uint256",
          "name": "amount",
          "type": "uint256"
        }
      ],
      "name": "repayBorrowBehalfThroughProxy",
      "outputs": [],
      "payable": true,
      "stateMutability": "payable",
      "type": "function"
    },
    {
      "constant": false,
      "inputs": [
        {
          "internalType": "address",
          "name": "cToken",
          "type": "address"
        },
        {
          "internalType": "uint256",
          "name": "amount",
          "type": "uint256"
        }
      ],
      "name": "borrowThroughProxy",
      "outputs": [],
      "payable": false,
      "stateMutability": "nonpayable",
      "type": "function"
    },
    {
      "constant": false,
      "inputs": [
        {
          "internalType": "address",
          "name": "cToken",
          "type": "address"
        },
        {
          "internalType": "uint256",
          "name": "amount",
          "type": "uint256"
        }
      ],
      "name": "redeemThroughProxy",
      "outputs": [],
      "payable": true,
      "stateMutability": "payable",
      "type": "function"
    },
    {
      "constant": false,
      "inputs": [
        {
          "internalType": "address",
          "name": "cToken",
          "type": "address"
        },
        {
          "internalType": "uint256",
          "name": "amount",
          "type": "uint256"
        }
      ],
      "name": "redeemUnderlyingThroughProxy",
      "outputs": [],
      "payable": true,
      "stateMutability": "payable",
      "type": "function"
    }
  ],
  "bytecode": "0x608060405234801561001057600080fd5b50611778806100206000396000f3fe60806040526004361061011f5760003560e01c80637720cc87116100a0578063c299823811610064578063c2998238146104d6578063d2f70c4014610584578063d882dc6c146105bd578063dc08fa9d146105e9578063f2b9fdb8146106365761011f565b80637720cc87146103e357806396294178146104195780639a22a1b914610445578063abdb5ea81461047e578063ba59154f146104aa5761011f565b80634907b8fc116100e75780634907b8fc146103065780634b8a35291461030e57806359086a5e1461034757806367600cc21461037d57806375d40945146103a95761011f565b80630b4e0630146101245780631e9a6950146101525780632d8af5431461017e5780633dc4d99a1461022c57806341ec5cc4146102da575b600080fd5b6101506004803603604081101561013a57600080fd5b506001600160a01b038135169060200135610662565b005b6101506004803603604081101561016857600080fd5b506001600160a01b0381351690602001356106a0565b34801561018a57600080fd5b50610150600480360360208110156101a157600080fd5b810190602081018135600160201b8111156101bb57600080fd5b8201836020820111156101cd57600080fd5b803590602001918460208302840111600160201b831117156101ee57600080fd5b919080806020026020016040519081016040528093929190818152602001838360200280828437600092019190915250929550610764945050505050565b34801561023857600080fd5b506101506004803603602081101561024f57600080fd5b810190602081018135600160201b81111561026957600080fd5b82018360208201111561027b57600080fd5b803590602001918460208302840111600160201b8311171561029c57600080fd5b919080806020026020016040519081016040528093929190818152602001838360200280828437600092019190915250929550610779945050505050565b610150600480360360408110156102f057600080fd5b506001600160a01b0381351690602001356107ec565b6101506107fe565b34801561031a57600080fd5b506101506004803603604081101561033157600080fd5b506001600160a01b038135169060200135610868565b6101506004803603606081101561035d57600080fd5b506001600160a01b0381358116916020810135909116906040013561092c565b6101506004803603604081101561039357600080fd5b506001600160a01b038135169060200135610a9e565b610150600480360360808110156103bf57600080fd5b506001600160a01b0381358116916020810135916040820135169060600135610ab3565b610150600480360360608110156103f957600080fd5b506001600160a01b03813581169160208101359091169060400135610acd565b6101506004803603604081101561042f57600080fd5b506001600160a01b038135169060200135610b08565b34801561045157600080fd5b506101506004803603604081101561046857600080fd5b506001600160a01b038135169060200135610bb6565b6101506004803603604081101561049457600080fd5b506001600160a01b038135169060200135610bc0565b610150600480360360408110156104c057600080fd5b506001600160a01b038135169060200135610d0c565b3480156104e257600080fd5b50610150600480360360208110156104f957600080fd5b810190602081018135600160201b81111561051357600080fd5b82018360208201111561052557600080fd5b803590602001918460208302840111600160201b8311171561054657600080fd5b919080806020026020016040519081016040528093929190818152602001838360200280828437600092019190915250929550610d46945050505050565b34801561059057600080fd5b50610150600480360360408110156105a757600080fd5b506001600160a01b038135169060200135610f20565b610150600480360360408110156105d357600080fd5b506001600160a01b03813516906020013561105f565b3480156105f557600080fd5b506106246004803603604081101561060c57600080fd5b506001600160a01b0381358116916020013516611069565b60408051918252519081900360200190f35b6101506004803603604081101561064c57600080fd5b506001600160a01b038135169060200135611143565b6001600160a01b038216734ddc2d193948926d02f9b1fe9e1daa0718270ed5146106925761069233308484611285565b61069c8282611143565b5050565b816001600160a01b031663db006a75826040518263ffffffff1660e01b815260040180828152602001915050602060405180830381600087803b1580156106e657600080fd5b505af11580156106fa573d6000803e3d6000fd5b505050506040513d602081101561071057600080fd5b50511561069c576040805162461bcd60e51b815260206004820152601e60248201527f636d706e642d6d67722d63746f6b656e2d72656465656d2d6661696c65640000604482015290519081900360640190fd5b61076d81610d46565b61077681610779565b50565b60005b815181101561069c57734ddc2d193948926d02f9b1fe9e1daa0718270ed56001600160a01b03168282815181106107af57fe5b60200260200101516001600160a01b0316146107e4576107e48282815181106107d457fe5b6020026020010151600019610f20565b60010161077c565b6107f46107fe565b61069c8282610868565b734ddc2d193948926d02f9b1fe9e1daa0718270ed56001600160a01b0316631249c58b346040518263ffffffff1660e01b81526004016000604051808303818588803b15801561084d57600080fd5b505af1158015610861573d6000803e3d6000fd5b5050505050565b816001600160a01b031663c5ebeaec826040518263ffffffff1660e01b815260040180828152602001915050602060405180830381600087803b1580156108ae57600080fd5b505af11580156108c2573d6000803e3d6000fd5b505050506040513d60208110156108d857600080fd5b50511561069c576040805162461bcd60e51b815260206004820152601e60248201527f636d706e642d6d67722d63746f6b656e2d626f72726f772d6661696c65640000604482015290519081900360640190fd5b6001600160a01b038216734ddc2d193948926d02f9b1fe9e1daa0718270ed514156109c757816001600160a01b031663e597461982856040518363ffffffff1660e01b815260040180826001600160a01b03166001600160a01b031681526020019150506000604051808303818588803b1580156109a957600080fd5b505af11580156109bd573d6000803e3d6000fd5b5050505050610a99565b6109d18282610f20565b816001600160a01b0316632608f81884836040518363ffffffff1660e01b815260040180836001600160a01b03166001600160a01b0316815260200182815260200192505050602060405180830381600087803b158015610a3157600080fd5b505af1158015610a45573d6000803e3d6000fd5b505050506040513d6020811015610a5b57600080fd5b505115610a995760405162461bcd60e51b81526004018080602001828103825260238152602001806116fd6023913960400191505060405180910390fd5b505050565b610aa88282610b08565b61069c8233836113b1565b610abd8484611143565b610ac78282610868565b50505050565b6001600160a01b038216734ddc2d193948926d02f9b1fe9e1daa0718270ed514610afd57610afd33308484611285565b610a9983838361092c565b816001600160a01b031663852a12e3826040518263ffffffff1660e01b815260040180828152602001915050602060405180830381600087803b158015610b4e57600080fd5b505af1158015610b62573d6000803e3d6000fd5b505050506040513d6020811015610b7857600080fd5b50511561069c5760405162461bcd60e51b815260040180806020018281038252602981526020018061168b6029913960400191505060405180910390fd5b610aa88282610868565b6001600160a01b038216734ddc2d193948926d02f9b1fe9e1daa0718270ed51415610c3e57816001600160a01b0316634e4d9fea826040518263ffffffff1660e01b81526004016000604051808303818588803b158015610c2057600080fd5b505af1158015610c34573d6000803e3d6000fd5b505050505061069c565b610c488282610f20565b816001600160a01b0316630e752702826040518263ffffffff1660e01b815260040180828152602001915050602060405180830381600087803b158015610c8e57600080fd5b505af1158015610ca2573d6000803e3d6000fd5b505050506040513d6020811015610cb857600080fd5b50511561069c576040805162461bcd60e51b815260206004820152601d60248201527f636d706e642d6d67722d63746f6b656e2d72657061792d6661696c6564000000604482015290519081900360640190fd5b6001600160a01b038216734ddc2d193948926d02f9b1fe9e1daa0718270ed514610d3c57610d3c33308484611285565b61069c8282610bc0565b604051631853304760e31b8152602060048201818152835160248401528351606093733d9819210a31b4961b30ef54be2aed79b9c9cd3b9363c299823893879390928392604490910191818601910280838360005b83811015610db3578181015183820152602001610d9b565b5050505090500192505050600060405180830381600087803b158015610dd857600080fd5b505af1158015610dec573d6000803e3d6000fd5b505050506040513d6000823e601f3d908101601f191682016040526020811015610e1557600080fd5b8101908080516040519392919084600160201b821115610e3457600080fd5b908301906020820185811115610e4957600080fd5b82518660208202830111600160201b82111715610e6557600080fd5b82525081516020918201928201910280838360005b83811015610e92578181015183820152602001610e7a565b50505050905001604052505050905060008090505b8151811015610a9957818181518110610ebc57fe5b6020026020010151600014610f18576040805162461bcd60e51b815260206004820152601e60248201527f636d706e642d6d67722d656e7465722d6d61726b6574732d6661696c65640000604482015290519081900360640190fd5b600101610ea7565b6000826001600160a01b0316636f307dc36040518163ffffffff1660e01b815260040160206040518083038186803b158015610f5b57600080fd5b505afa158015610f6f573d6000803e3d6000fd5b505050506040513d6020811015610f8557600080fd5b50516040805163095ea7b360e01b81526001600160a01b0386811660048301526024820186905291519293509083169163095ea7b3916044808201926020929091908290030181600087803b158015610fdd57600080fd5b505af1158015610ff1573d6000803e3d6000fd5b505050506040513d602081101561100757600080fd5b50511515600114610a99576040805162461bcd60e51b815260206004820181905260248201527f636d706e642d6d67722d63746f6b656e2d617070726f7665642d6661696c6564604482015290519081900360640190fd5b610aa882826106a0565b6000806000806000866001600160a01b031663c37f68e2876040518263ffffffff1660e01b815260040180826001600160a01b03166001600160a01b0316815260200191505060806040518083038186803b1580156110c757600080fd5b505afa1580156110db573d6000803e3d6000fd5b505050506040513d60808110156110f157600080fd5b5080516020820151604083015160609093015191965094509092509050611136670de0b6b3a764000061112a858463ffffffff61154b16565b9063ffffffff6115ab16565b9450505050505b92915050565b6001600160a01b038216734ddc2d193948926d02f9b1fe9e1daa0718270ed514156111b757734ddc2d193948926d02f9b1fe9e1daa0718270ed56001600160a01b0316631249c58b826040518263ffffffff1660e01b81526004016000604051808303818588803b158015610c2057600080fd5b6111c18282610f20565b816001600160a01b031663a0712d68826040518263ffffffff1660e01b815260040180828152602001915050602060405180830381600087803b15801561120757600080fd5b505af115801561121b573d6000803e3d6000fd5b505050506040513d602081101561123157600080fd5b50511561069c576040805162461bcd60e51b815260206004820152601e60248201527f636d706e642d6d67722d63746f6b656e2d737570706c792d6661696c65640000604482015290519081900360640190fd5b6000826001600160a01b0316636f307dc36040518163ffffffff1660e01b815260040160206040518083038186803b1580156112c057600080fd5b505afa1580156112d4573d6000803e3d6000fd5b505050506040513d60208110156112ea57600080fd5b5051604080516323b872dd60e01b81526001600160a01b0388811660048301528781166024830152604482018690529151929350908316916323b872dd916064808201926020929091908290030181600087803b15801561134a57600080fd5b505af115801561135e573d6000803e3d6000fd5b505050506040513d602081101561137457600080fd5b50516108615760405162461bcd60e51b81526004018080602001828103825260288152602001806116b46028913960400191505060405180910390fd5b6001600160a01b038316734ddc2d193948926d02f9b1fe9e1daa0718270ed5141561142c576040516001600160a01b038316908290600081818185875af1925050503d806000811461141f576040519150601f19603f3d011682016040523d82523d6000602084013e611424565b606091505b505050610a99565b826001600160a01b0316636f307dc36040518163ffffffff1660e01b815260040160206040518083038186803b15801561146557600080fd5b505afa158015611479573d6000803e3d6000fd5b505050506040513d602081101561148f57600080fd5b50516040805163a9059cbb60e01b81526001600160a01b038581166004830152602482018590529151919092169163a9059cbb9160448083019260209291908290030181600087803b1580156114e457600080fd5b505af11580156114f8573d6000803e3d6000fd5b505050506040513d602081101561150e57600080fd5b5051610a995760405162461bcd60e51b81526004018080602001828103825260248152602001806117206024913960400191505060405180910390fd5b60008261155a5750600061113d565b8282028284828161156757fe5b04146115a45760405162461bcd60e51b81526004018080602001828103825260218152602001806116dc6021913960400191505060405180910390fd5b9392505050565b60006115a483836040518060400160405280601a81526020017f536166654d6174683a206469766973696f6e206279207a65726f000000000000815250600081836116745760405162461bcd60e51b81526004018080602001828103825283818151815260200191508051906020019080838360005b83811015611639578181015183820152602001611621565b50505050905090810190601f1680156116665780820380516001836020036101000a031916815260200191505b509250505060405180910390fd5b50600083858161168057fe5b049594505050505056fe636d706e642d6d67722d63746f6b656e2d72656465656d2d756e6465726c79696e672d6661696c6564636d706e642d6d67722d7472616e7366657246726f6d2d756e6465726c79696e672d6661696c6564536166654d6174683a206d756c7469706c69636174696f6e206f766572666c6f77636d706e642d6d67722d63746f6b656e2d7265706179626568616c662d6661696c6564636d706e642d6d67722d7472616e736665722d756e6465726c79696e672d6661696c6564a265627a7a72315820f5a751b7469e1a0a83dbb6bb565ab1b010bcb49751469d05eaf2dc1688ad523664736f6c63430005100032",
  "source": "/*  Mostly functions from https://compound.finance/developers/ctokens\n    and https://compound.finance/developers/comptroller\n*/\npragma solidity 0.5.16;\n\nimport \"../../interfaces/compound/IComptroller.sol\";\nimport \"../../interfaces/compound/ICEther.sol\";\nimport \"../../interfaces/compound/ICToken.sol\";\n\nimport \"../../interfaces/IERC20.sol\";\n\nimport \"@openzeppelin/contracts/math/SafeMath.sol\";\n\ncontract CompoundBase {\n    using SafeMath for uint256;\n\n    address constant CompoundComptrollerAddress = 0x3d9819210A31b4961b30EF54bE2aeD79B9c9Cd3B;\n    address constant CEtherAddress = 0x4Ddc2D193948926D02f9B1fE9e1daa0718270ED5;\n\n    function sub(uint256 a, uint256 b) internal pure returns (uint256) {\n        require(b <= a, \"safe-math-sub-failed\");\n        uint256 c = a - b;\n\n        return c;\n    }\n\n    function getBorrowBalanceUnderlying(\n        address cToken,\n        address owner\n    )\n        public\n        view\n        returns (uint256)\n    {\n        (\n            uint256 err,\n            uint256 cTokenBalance,\n            uint256 borrowBalance,\n            uint256 exchangeRateMantissa\n        ) = ICToken(cToken).getAccountSnapshot(owner);\n\n        // Source: balanceOfUnderlying from any ctoken\n        return cTokenBalance.mul(exchangeRateMantissa).div(1e18);\n    }\n\n    function _transferFromUnderlying(\n        address sender,\n        address recipient,\n        address cToken,\n        uint256 amount\n    ) internal {\n        address underlying = ICToken(cToken).underlying();\n        require(\n            IERC20(underlying).transferFrom(sender, recipient, amount),\n            \"cmpnd-mgr-transferFrom-underlying-failed\"\n        );\n    }\n\n    function _transferUnderlying(\n        address cToken,\n        address recipient,\n        uint256 amount\n    ) internal {\n        if (cToken == CEtherAddress) {\n            recipient.call.value(amount)(\"\");\n        } else {\n            require(\n                IERC20(ICToken(cToken).underlying()).transfer(\n                    recipient,\n                    amount\n                ),\n                \"cmpnd-mgr-transfer-underlying-failed\"\n            );\n        }\n    }\n\n    function _transfer(address token, address recipient, uint256 amount)\n        internal\n    {\n        require(\n            IERC20(token).transfer(recipient, amount),\n            \"cmpnd-mgr-transfer-failed\"\n        );\n    }\n\n    function enterMarkets(\n        address[] memory cTokens // Address of the Compound derivation token (e.g. cDAI)\n    ) public {\n        // Enter the compound markets for all the specified tokens\n        uint256[] memory errors = IComptroller(CompoundComptrollerAddress)\n            .enterMarkets(cTokens);\n\n        for (uint256 i = 0; i < errors.length; i++) {\n            require(errors[i] == 0, \"cmpnd-mgr-enter-markets-failed\");\n        }\n    }\n\n    function approveCToken(address cToken, uint256 amount) public {\n        // Approves CToken contract to call `transferFrom`\n        address underlying = ICToken(cToken).underlying();\n        require(\n            IERC20(underlying).approve(cToken, amount) == true,\n            \"cmpnd-mgr-ctoken-approved-failed\"\n        );\n    }\n\n    function approveCTokens(\n        address[] memory cTokens // Tokens to approve\n    ) public {\n        for (uint256 i = 0; i < cTokens.length; i++) {\n            // Don't need to approve ICEther\n            if (cTokens[i] != CEtherAddress) {\n                approveCToken(cTokens[i], uint256(-1));\n            }\n        }\n    }\n\n    function enterMarketsAndApproveCTokens(address[] memory cTokens) public {\n        enterMarkets(cTokens);\n        approveCTokens(cTokens);\n    }\n\n    function supplyETH() public payable {\n        ICEther(CEtherAddress).mint.value(msg.value)();\n    }\n\n    function supply(address cToken, uint256 amount) public payable {\n        if (cToken == CEtherAddress) {\n            ICEther(CEtherAddress).mint.value(amount)();\n        } else {\n            // Approves CToken contract to call `transferFrom`\n            approveCToken(cToken, amount);\n\n            require(\n                ICToken(cToken).mint(amount) == 0,\n                \"cmpnd-mgr-ctoken-supply-failed\"\n            );\n        }\n    }\n\n    function borrow(address cToken, uint256 borrowAmount) public {\n        require(\n            ICToken(cToken).borrow(borrowAmount) == 0,\n            \"cmpnd-mgr-ctoken-borrow-failed\"\n        );\n    }\n\n    function supplyAndBorrow(\n        address supplyCToken,\n        uint256 supplyAmount,\n        address borrowCToken,\n        uint256 borrowAmount\n    ) public payable {\n        supply(supplyCToken, supplyAmount);\n        borrow(borrowCToken, borrowAmount);\n    }\n\n    function supplyETHAndBorrow(address cToken, uint256 borrowAmount)\n        public\n        payable\n    {\n        // Supply some Ether\n        supplyETH();\n\n        // Borrow some CTokens\n        borrow(cToken, borrowAmount);\n    }\n\n    function repayBorrow(address cToken, uint256 amount) public payable {\n        if (cToken == CEtherAddress) {\n            ICEther(cToken).repayBorrow.value(amount)();\n        } else {\n            approveCToken(cToken, amount);\n            require(\n                ICToken(cToken).repayBorrow(amount) == 0,\n                \"cmpnd-mgr-ctoken-repay-failed\"\n            );\n        }\n    }\n\n    function repayBorrowBehalf(\n        address recipient,\n        address cToken,\n        uint256 amount\n    ) public payable {\n        if (cToken == CEtherAddress) {\n            ICEther(cToken).repayBorrowBehalf.value(amount)(recipient);\n        } else {\n            approveCToken(cToken, amount);\n            require(\n                ICToken(cToken).repayBorrowBehalf(recipient, amount) == 0,\n                \"cmpnd-mgr-ctoken-repaybehalf-failed\"\n            );\n        }\n    }\n\n    function redeem(address cToken, uint256 redeemTokens) public payable {\n        require(\n            ICToken(cToken).redeem(redeemTokens) == 0,\n            \"cmpnd-mgr-ctoken-redeem-failed\"\n        );\n    }\n\n    function redeemUnderlying(address cToken, uint256 redeemTokens)\n        public\n        payable\n    {\n        require(\n            ICToken(cToken).redeemUnderlying(redeemTokens) == 0,\n            \"cmpnd-mgr-ctoken-redeem-underlying-failed\"\n        );\n    }\n\n    // -- Helper functions so proxy doesn't hold any funds, all funds borrowed\n    // or redeemed gets sent to user\n    // User needs to `approve(spender, amount)` before through proxy functions work\n\n    function supplyThroughProxy(address cToken, uint256 amount) public payable {\n        if (cToken != CEtherAddress) {\n            _transferFromUnderlying(msg.sender, address(this), cToken, amount);\n        }\n        supply(cToken, amount);\n    }\n\n    function repayBorrowThroughProxy(address cToken, uint256 amount)\n        public\n        payable\n    {\n        if (cToken != CEtherAddress) {\n            _transferFromUnderlying(msg.sender, address(this), cToken, amount);\n        }\n        repayBorrow(cToken, amount);\n    }\n\n    function repayBorrowBehalfThroughProxy(\n        address recipient,\n        address cToken,\n        uint256 amount\n    ) public payable {\n        if (cToken != CEtherAddress) {\n            _transferFromUnderlying(msg.sender, address(this), cToken, amount);\n        }\n        repayBorrowBehalf(recipient, cToken, amount);\n    }\n\n    function borrowThroughProxy(address cToken, uint256 amount) public {\n        borrow(cToken, amount);\n        _transferUnderlying(cToken, msg.sender, amount);\n    }\n\n    function redeemThroughProxy(address cToken, uint256 amount) public payable {\n        redeem(cToken, amount);\n        _transferUnderlying(cToken, msg.sender, amount);\n    }\n\n    function redeemUnderlyingThroughProxy(address cToken, uint256 amount)\n        public\n        payable\n    {\n        redeemUnderlying(cToken, amount);\n        _transferUnderlying(cToken, msg.sender, amount);\n    }\n}\n",
  "sourcePath": "/home/kendrick/Development/Ethereum/dedge/packages/smart-contracts/src/lib/compound/CompoundBase.sol",
  "compiler": {
    "name": "solc",
    "version": "0.5.16+commit.9c3226ce.Emscripten.clang"
  },
  "schemaVersion": "3.0.23",
  "updatedAt": "2020-04-08T12:21:13.707Z",
  "devdoc": {
    "methods": {}
  },
  "userdoc": {
    "methods": {}
  }
}