{
  "contractName": "CompoundBase",
  "abi": [
    {
      "constant": false,
      "inputs": [
        {
          "internalType": "address[]",
          "name": "cTokens",
          "type": "address[]"
        }
      ],
      "name": "enterMarkets",
      "outputs": [],
      "payable": false,
      "stateMutability": "nonpayable",
      "type": "function"
    },
    {
      "constant": false,
      "inputs": [
        {
          "internalType": "address[]",
          "name": "cTokens",
          "type": "address[]"
        }
      ],
      "name": "approveCTokens",
      "outputs": [],
      "payable": false,
      "stateMutability": "nonpayable",
      "type": "function"
    },
    {
      "constant": false,
      "inputs": [
        {
          "internalType": "address[]",
          "name": "cTokens",
          "type": "address[]"
        }
      ],
      "name": "enterMarketsAndApproveCTokens",
      "outputs": [],
      "payable": false,
      "stateMutability": "nonpayable",
      "type": "function"
    },
    {
      "constant": false,
      "inputs": [],
      "name": "supplyETH",
      "outputs": [],
      "payable": true,
      "stateMutability": "payable",
      "type": "function"
    },
    {
      "constant": false,
      "inputs": [
        {
          "internalType": "address",
          "name": "cToken",
          "type": "address"
        },
        {
          "internalType": "uint256",
          "name": "amount",
          "type": "uint256"
        }
      ],
      "name": "supply",
      "outputs": [],
      "payable": true,
      "stateMutability": "payable",
      "type": "function"
    },
    {
      "constant": false,
      "inputs": [
        {
          "internalType": "address",
          "name": "cToken",
          "type": "address"
        },
        {
          "internalType": "uint256",
          "name": "borrowAmount",
          "type": "uint256"
        }
      ],
      "name": "borrow",
      "outputs": [],
      "payable": false,
      "stateMutability": "nonpayable",
      "type": "function"
    },
    {
      "constant": false,
      "inputs": [
        {
          "internalType": "address",
          "name": "supplyCToken",
          "type": "address"
        },
        {
          "internalType": "uint256",
          "name": "supplyAmount",
          "type": "uint256"
        },
        {
          "internalType": "address",
          "name": "borrowCToken",
          "type": "address"
        },
        {
          "internalType": "uint256",
          "name": "borrowAmount",
          "type": "uint256"
        }
      ],
      "name": "supplyAndBorrow",
      "outputs": [],
      "payable": true,
      "stateMutability": "payable",
      "type": "function"
    },
    {
      "constant": false,
      "inputs": [
        {
          "internalType": "address",
          "name": "cToken",
          "type": "address"
        },
        {
          "internalType": "uint256",
          "name": "borrowAmount",
          "type": "uint256"
        }
      ],
      "name": "supplyETHAndBorrow",
      "outputs": [],
      "payable": true,
      "stateMutability": "payable",
      "type": "function"
    },
    {
      "constant": false,
      "inputs": [
        {
          "internalType": "address",
          "name": "cToken",
          "type": "address"
        },
        {
          "internalType": "uint256",
          "name": "amount",
          "type": "uint256"
        }
      ],
      "name": "repayBorrow",
      "outputs": [],
      "payable": true,
      "stateMutability": "payable",
      "type": "function"
    },
    {
      "constant": false,
      "inputs": [
        {
          "internalType": "address",
          "name": "recipient",
          "type": "address"
        },
        {
          "internalType": "address",
          "name": "cToken",
          "type": "address"
        },
        {
          "internalType": "uint256",
          "name": "amount",
          "type": "uint256"
        }
      ],
      "name": "repayBorrowBehalf",
      "outputs": [],
      "payable": true,
      "stateMutability": "payable",
      "type": "function"
    },
    {
      "constant": false,
      "inputs": [
        {
          "internalType": "address",
          "name": "cToken",
          "type": "address"
        },
        {
          "internalType": "uint256",
          "name": "redeemTokens",
          "type": "uint256"
        }
      ],
      "name": "redeem",
      "outputs": [],
      "payable": true,
      "stateMutability": "payable",
      "type": "function"
    },
    {
      "constant": false,
      "inputs": [
        {
          "internalType": "address",
          "name": "cToken",
          "type": "address"
        },
        {
          "internalType": "uint256",
          "name": "redeemTokens",
          "type": "uint256"
        }
      ],
      "name": "redeemUnderlying",
      "outputs": [],
      "payable": true,
      "stateMutability": "payable",
      "type": "function"
    }
  ],
  "bytecode": "0x608060405234801561001057600080fd5b50611433806100206000396000f3fe6080604052600436106100a75760003560e01c806359086a5e1161006457806359086a5e1461033757806375d40945146103a5578063962941781461041d578063abdb5ea81461046b578063c2998238146104b9578063f2b9fdb81461057e576100a7565b80631e9a6950146100ac5780632d8af543146100fa5780633dc4d99a146101bf57806341ec5cc4146102845780634907b8fc146102d25780634b8a3529146102dc575b600080fd5b6100f8600480360360408110156100c257600080fd5b81019080803573ffffffffffffffffffffffffffffffffffffffff169060200190929190803590602001909291905050506105cc565b005b34801561010657600080fd5b506101bd6004803603602081101561011d57600080fd5b810190808035906020019064010000000081111561013a57600080fd5b82018360208201111561014c57600080fd5b8035906020019184602083028401116401000000008311171561016e57600080fd5b919080806020026020016040519081016040528093929190818152602001838360200280828437600081840152601f19601f8201169050808301925050505050505091929192905050506106d3565b005b3480156101cb57600080fd5b50610282600480360360208110156101e257600080fd5b81019080803590602001906401000000008111156101ff57600080fd5b82018360208201111561021157600080fd5b8035906020019184602083028401116401000000008311171561023357600080fd5b919080806020026020016040519081016040528093929190818152602001838360200280828437600081840152601f19601f8201169050808301925050505050505091929192905050506106e8565b005b6102d06004803603604081101561029a57600080fd5b81019080803573ffffffffffffffffffffffffffffffffffffffff1690602001909291908035906020019092919050505061096a565b005b6102da610980565b005b3480156102e857600080fd5b50610335600480360360408110156102ff57600080fd5b81019080803573ffffffffffffffffffffffffffffffffffffffff169060200190929190803590602001909291905050506109f7565b005b6103a36004803603606081101561034d57600080fd5b81019080803573ffffffffffffffffffffffffffffffffffffffff169060200190929190803573ffffffffffffffffffffffffffffffffffffffff16906020019092919080359060200190929190505050610afe565b005b61041b600480360360808110156103bb57600080fd5b81019080803573ffffffffffffffffffffffffffffffffffffffff16906020019092919080359060200190929190803573ffffffffffffffffffffffffffffffffffffffff16906020019092919080359060200190929190505050610d03565b005b6104696004803603604081101561043357600080fd5b81019080803573ffffffffffffffffffffffffffffffffffffffff16906020019092919080359060200190929190505050610d1d565b005b6104b76004803603604081101561048157600080fd5b81019080803573ffffffffffffffffffffffffffffffffffffffff16906020019092919080359060200190929190505050610e07565b005b3480156104c557600080fd5b5061057c600480360360208110156104dc57600080fd5b81019080803590602001906401000000008111156104f957600080fd5b82018360208201111561050b57600080fd5b8035906020019184602083028401116401000000008311171561052d57600080fd5b919080806020026020016040519081016040528093929190818152602001838360200280828437600081840152601f19601f820116905080830192505050505050509192919290505050610fbd565b005b6105ca6004803603604081101561059457600080fd5b81019080803573ffffffffffffffffffffffffffffffffffffffff169060200190929190803590602001909291905050506111e8565b005b60008273ffffffffffffffffffffffffffffffffffffffff1663db006a75836040518263ffffffff1660e01b815260040180828152602001915050602060405180830381600087803b15801561062157600080fd5b505af1158015610635573d6000803e3d6000fd5b505050506040513d602081101561064b57600080fd5b8101908080519060200190929190505050146106cf576040517f08c379a000000000000000000000000000000000000000000000000000000000815260040180806020018281038252601e8152602001807f636d706e642d6d67722d63746f6b656e2d72656465656d2d6661696c6564000081525060200191505060405180910390fd5b5050565b6106dc81610fbd565b6106e5816106e8565b50565b60008090505b815181101561096657734ddc2d193948926d02f9b1fe9e1daa0718270ed573ffffffffffffffffffffffffffffffffffffffff1682828151811061072e57fe5b602002602001015173ffffffffffffffffffffffffffffffffffffffff161461095957600082828151811061075f57fe5b602002602001015173ffffffffffffffffffffffffffffffffffffffff16636f307dc36040518163ffffffff1660e01b815260040160206040518083038186803b1580156107ac57600080fd5b505afa1580156107c0573d6000803e3d6000fd5b505050506040513d60208110156107d657600080fd5b81019080805190602001909291905050509050600115158173ffffffffffffffffffffffffffffffffffffffff1663095ea7b385858151811061081557fe5b60200260200101517fffffffffffffffffffffffffffffffffffffffffffffffffffffffffffffffff6040518363ffffffff1660e01b8152600401808373ffffffffffffffffffffffffffffffffffffffff1673ffffffffffffffffffffffffffffffffffffffff16815260200182815260200192505050602060405180830381600087803b1580156108a757600080fd5b505af11580156108bb573d6000803e3d6000fd5b505050506040513d60208110156108d157600080fd5b8101908080519060200190929190505050151514610957576040517f08c379a00000000000000000000000000000000000000000000000000000000081526004018080602001828103825260208152602001807f636d706e642d6d67722d63746f6b656e2d617070726f7665642d6661696c656481525060200191505060405180910390fd5b505b80806001019150506106ee565b5050565b610972610980565b61097c82826109f7565b5050565b734ddc2d193948926d02f9b1fe9e1daa0718270ed573ffffffffffffffffffffffffffffffffffffffff16631249c58b346040518263ffffffff1660e01b81526004016000604051808303818588803b1580156109dc57600080fd5b505af11580156109f0573d6000803e3d6000fd5b5050505050565b60008273ffffffffffffffffffffffffffffffffffffffff1663c5ebeaec836040518263ffffffff1660e01b815260040180828152602001915050602060405180830381600087803b158015610a4c57600080fd5b505af1158015610a60573d6000803e3d6000fd5b505050506040513d6020811015610a7657600080fd5b810190808051906020019092919050505014610afa576040517f08c379a000000000000000000000000000000000000000000000000000000000815260040180806020018281038252601e8152602001807f636d706e642d6d67722d63746f6b656e2d626f72726f772d6661696c6564000081525060200191505060405180910390fd5b5050565b734ddc2d193948926d02f9b1fe9e1daa0718270ed573ffffffffffffffffffffffffffffffffffffffff168273ffffffffffffffffffffffffffffffffffffffff161415610be3578173ffffffffffffffffffffffffffffffffffffffff1663e597461982856040518363ffffffff1660e01b8152600401808273ffffffffffffffffffffffffffffffffffffffff1673ffffffffffffffffffffffffffffffffffffffff1681526020019150506000604051808303818588803b158015610bc557600080fd5b505af1158015610bd9573d6000803e3d6000fd5b5050505050610cfe565b60008273ffffffffffffffffffffffffffffffffffffffff16632608f81885846040518363ffffffff1660e01b8152600401808373ffffffffffffffffffffffffffffffffffffffff1673ffffffffffffffffffffffffffffffffffffffff16815260200182815260200192505050602060405180830381600087803b158015610c6c57600080fd5b505af1158015610c80573d6000803e3d6000fd5b505050506040513d6020811015610c9657600080fd5b810190808051906020019092919050505014610cfd576040517f08c379a00000000000000000000000000000000000000000000000000000000081526004018080602001828103825260238152602001806113dc6023913960400191505060405180910390fd5b5b505050565b610d0d84846111e8565b610d1782826109f7565b50505050565b60008273ffffffffffffffffffffffffffffffffffffffff1663852a12e3836040518263ffffffff1660e01b815260040180828152602001915050602060405180830381600087803b158015610d7257600080fd5b505af1158015610d86573d6000803e3d6000fd5b505050506040513d6020811015610d9c57600080fd5b810190808051906020019092919050505014610e03576040517f08c379a00000000000000000000000000000000000000000000000000000000081526004018080602001828103825260298152602001806113b36029913960400191505060405180910390fd5b5050565b734ddc2d193948926d02f9b1fe9e1daa0718270ed573ffffffffffffffffffffffffffffffffffffffff168273ffffffffffffffffffffffffffffffffffffffff161415610eb5578173ffffffffffffffffffffffffffffffffffffffff16634e4d9fea826040518263ffffffff1660e01b81526004016000604051808303818588803b158015610e9757600080fd5b505af1158015610eab573d6000803e3d6000fd5b5050505050610fb9565b60008273ffffffffffffffffffffffffffffffffffffffff16630e752702836040518263ffffffff1660e01b815260040180828152602001915050602060405180830381600087803b158015610f0a57600080fd5b505af1158015610f1e573d6000803e3d6000fd5b505050506040513d6020811015610f3457600080fd5b810190808051906020019092919050505014610fb8576040517f08c379a000000000000000000000000000000000000000000000000000000000815260040180806020018281038252601d8152602001807f636d706e642d6d67722d63746f6b656e2d72657061792d6661696c656400000081525060200191505060405180910390fd5b5b5050565b6060733d9819210a31b4961b30ef54be2aed79b9c9cd3b73ffffffffffffffffffffffffffffffffffffffff1663c2998238836040518263ffffffff1660e01b81526004018080602001828103825283818151815260200191508051906020019060200280838360005b83811015611042578082015181840152602081019050611027565b5050505090500192505050600060405180830381600087803b15801561106757600080fd5b505af115801561107b573d6000803e3d6000fd5b505050506040513d6000823e3d601f19601f8201168201806040525060208110156110a557600080fd5b81019080805160405193929190846401000000008211156110c557600080fd5b838201915060208201858111156110db57600080fd5b82518660208202830111640100000000821117156110f857600080fd5b8083526020830192505050908051906020019060200280838360005b8381101561112f578082015181840152602081019050611114565b50505050905001604052505050905060008090505b81518110156111e357600082828151811061115b57fe5b6020026020010151146111d6576040517f08c379a000000000000000000000000000000000000000000000000000000000815260040180806020018281038252601e8152602001807f636d706e642d6d67722d656e7465722d6d61726b6574732d6661696c6564000081525060200191505060405180910390fd5b8080600101915050611144565b505050565b734ddc2d193948926d02f9b1fe9e1daa0718270ed573ffffffffffffffffffffffffffffffffffffffff168273ffffffffffffffffffffffffffffffffffffffff1614156112aa57734ddc2d193948926d02f9b1fe9e1daa0718270ed573ffffffffffffffffffffffffffffffffffffffff16631249c58b826040518263ffffffff1660e01b81526004016000604051808303818588803b15801561128c57600080fd5b505af11580156112a0573d6000803e3d6000fd5b50505050506113ae565b60008273ffffffffffffffffffffffffffffffffffffffff1663a0712d68836040518263ffffffff1660e01b815260040180828152602001915050602060405180830381600087803b1580156112ff57600080fd5b505af1158015611313573d6000803e3d6000fd5b505050506040513d602081101561132957600080fd5b8101908080519060200190929190505050146113ad576040517f08c379a000000000000000000000000000000000000000000000000000000000815260040180806020018281038252601e8152602001807f636d706e642d6d67722d63746f6b656e2d737570706c792d6661696c6564000081525060200191505060405180910390fd5b5b505056fe636d706e642d6d67722d63746f6b656e2d72656465656d2d756e6465726c79696e672d6661696c6564636d706e642d6d67722d63746f6b656e2d7265706179626568616c662d6661696c6564a265627a7a72315820670d9aa6a26859a2752a1c6eab8cc78da0fe3a5560c789aa3dfc7ff40184043164736f6c63430005100032",
  "source": "/*  Mostly functions from https://compound.finance/developers/ctokens\n    and https://compound.finance/developers/comptroller\n*/\npragma solidity 0.5.16;\n\nimport \"../../interfaces/compound/IComptroller.sol\";\nimport \"../../interfaces/compound/ICEther.sol\";\nimport \"../../interfaces/compound/ICToken.sol\";\n\nimport \"../../interfaces/IERC20.sol\";\n\ncontract CompoundBase {\n    address constant CompoundComptrollerAddress = 0x3d9819210A31b4961b30EF54bE2aeD79B9c9Cd3B;\n    address constant CEtherAddress = 0x4Ddc2D193948926D02f9B1fE9e1daa0718270ED5;\n\n    function enterMarkets(\n        address[] memory cTokens   // Address of the Compound derivation token (e.g. cDAI)\n    ) public {\n        // Enter the compound markets for all the specified tokens\n        uint[] memory errors = IComptroller(CompoundComptrollerAddress).enterMarkets(cTokens);\n\n        for (uint i = 0; i < errors.length; i++) {\n            require(errors[i] == 0, \"cmpnd-mgr-enter-markets-failed\");\n        }\n    }\n\n    function approveCTokens(\n        address[] memory cTokens    // Tokens to approve\n    ) public {\n        for (uint i = 0; i < cTokens.length; i++) {\n            // Don't need to approve ICEther\n            if (cTokens[i] != CEtherAddress) {\n                address underlying = ICToken(cTokens[i]).underlying();\n\n                // Approves Compound CTokens\n                require(IERC20(underlying).approve(cTokens[i], uint256(-1)) == true, \"cmpnd-mgr-ctoken-approved-failed\");\n            }\n        }\n    }\n\n    function enterMarketsAndApproveCTokens(\n        address[] memory cTokens\n    ) public {\n        enterMarkets(cTokens);\n        approveCTokens(cTokens);\n    }\n\n    function supplyETH() public payable {\n        ICEther(CEtherAddress).mint.value(msg.value)();\n    }\n\n    function supply(address cToken, uint amount) public payable {\n        if (cToken == CEtherAddress) {\n            ICEther(CEtherAddress).mint.value(amount)();\n        } else {\n            require(\n              ICToken(cToken).mint(amount) == 0,\n              \"cmpnd-mgr-ctoken-supply-failed\"\n            );\n        }\n    }\n\n    function borrow(address cToken, uint borrowAmount) public {\n        require(ICToken(cToken).borrow(borrowAmount) == 0, \"cmpnd-mgr-ctoken-borrow-failed\");\n    }\n\n    function supplyAndBorrow(\n        address supplyCToken,\n        uint supplyAmount,\n        address borrowCToken,\n        uint borrowAmount\n    ) public payable {\n        supply(supplyCToken, supplyAmount);\n        borrow(borrowCToken, borrowAmount);\n    }\n\n    function supplyETHAndBorrow(\n        address cToken,\n        uint borrowAmount\n    ) public payable {\n        // Supply some Ether\n        supplyETH();\n\n        // Borrow some CTokens\n        borrow(cToken, borrowAmount);\n    }\n\n    function repayBorrow(address cToken, uint amount) public payable {\n        if (cToken == CEtherAddress) {\n            ICEther(cToken).repayBorrow.value(amount)();\n        } else {\n            require(ICToken(cToken).repayBorrow(amount) == 0, \"cmpnd-mgr-ctoken-repay-failed\");\n        }\n    }\n\n    function repayBorrowBehalf(address recipient, address cToken, uint amount) public payable {\n        if (cToken == CEtherAddress) {\n            ICEther(cToken).repayBorrowBehalf.value(amount)(recipient);\n        } else {\n            require(ICToken(cToken).repayBorrowBehalf(recipient, amount) == 0, \"cmpnd-mgr-ctoken-repaybehalf-failed\");\n        }\n    }\n\n    function redeem(address cToken, uint redeemTokens) public payable {\n        require(ICToken(cToken).redeem(redeemTokens) == 0, \"cmpnd-mgr-ctoken-redeem-failed\");\n    }\n\n    function redeemUnderlying(address cToken, uint redeemTokens) public payable {\n        require(ICToken(cToken).redeemUnderlying(redeemTokens) == 0, \"cmpnd-mgr-ctoken-redeem-underlying-failed\");\n    }\n}\n",
  "sourcePath": "/home/kendrick/Development/Ethereum/dedge/packages/smart-contracts/src/lib/compound/CompoundBase.sol",
  "compiler": {
    "name": "solc",
    "version": "0.5.16+commit.9c3226ce.Emscripten.clang"
  },
  "schemaVersion": "3.0.23",
  "updatedAt": "2020-03-29T06:38:08.070Z",
  "devdoc": {
    "methods": {}
  },
  "userdoc": {
    "methods": {}
  }
}