{
  "contractName": "CompoundBase",
  "abi": [
    {
      "constant": false,
      "inputs": [
        {
          "internalType": "address[]",
          "name": "cTokens",
          "type": "address[]"
        }
      ],
      "name": "enterMarkets",
      "outputs": [],
      "payable": false,
      "stateMutability": "nonpayable",
      "type": "function"
    },
    {
      "constant": false,
      "inputs": [
        {
          "internalType": "address",
          "name": "cToken",
          "type": "address"
        },
        {
          "internalType": "uint256",
          "name": "amount",
          "type": "uint256"
        }
      ],
      "name": "approveCToken",
      "outputs": [],
      "payable": false,
      "stateMutability": "nonpayable",
      "type": "function"
    },
    {
      "constant": false,
      "inputs": [
        {
          "internalType": "address[]",
          "name": "cTokens",
          "type": "address[]"
        }
      ],
      "name": "approveCTokens",
      "outputs": [],
      "payable": false,
      "stateMutability": "nonpayable",
      "type": "function"
    },
    {
      "constant": false,
      "inputs": [
        {
          "internalType": "address[]",
          "name": "cTokens",
          "type": "address[]"
        }
      ],
      "name": "enterMarketsAndApproveCTokens",
      "outputs": [],
      "payable": false,
      "stateMutability": "nonpayable",
      "type": "function"
    },
    {
      "constant": false,
      "inputs": [],
      "name": "supplyETH",
      "outputs": [],
      "payable": true,
      "stateMutability": "payable",
      "type": "function"
    },
    {
      "constant": false,
      "inputs": [
        {
          "internalType": "address",
          "name": "cToken",
          "type": "address"
        },
        {
          "internalType": "uint256",
          "name": "amount",
          "type": "uint256"
        }
      ],
      "name": "supply",
      "outputs": [],
      "payable": true,
      "stateMutability": "payable",
      "type": "function"
    },
    {
      "constant": false,
      "inputs": [
        {
          "internalType": "address",
          "name": "cToken",
          "type": "address"
        },
        {
          "internalType": "uint256",
          "name": "borrowAmount",
          "type": "uint256"
        }
      ],
      "name": "borrow",
      "outputs": [],
      "payable": false,
      "stateMutability": "nonpayable",
      "type": "function"
    },
    {
      "constant": false,
      "inputs": [
        {
          "internalType": "address",
          "name": "supplyCToken",
          "type": "address"
        },
        {
          "internalType": "uint256",
          "name": "supplyAmount",
          "type": "uint256"
        },
        {
          "internalType": "address",
          "name": "borrowCToken",
          "type": "address"
        },
        {
          "internalType": "uint256",
          "name": "borrowAmount",
          "type": "uint256"
        }
      ],
      "name": "supplyAndBorrow",
      "outputs": [],
      "payable": true,
      "stateMutability": "payable",
      "type": "function"
    },
    {
      "constant": false,
      "inputs": [
        {
          "internalType": "address",
          "name": "cToken",
          "type": "address"
        },
        {
          "internalType": "uint256",
          "name": "borrowAmount",
          "type": "uint256"
        }
      ],
      "name": "supplyETHAndBorrow",
      "outputs": [],
      "payable": true,
      "stateMutability": "payable",
      "type": "function"
    },
    {
      "constant": false,
      "inputs": [
        {
          "internalType": "address",
          "name": "cToken",
          "type": "address"
        },
        {
          "internalType": "uint256",
          "name": "amount",
          "type": "uint256"
        }
      ],
      "name": "repayBorrow",
      "outputs": [],
      "payable": true,
      "stateMutability": "payable",
      "type": "function"
    },
    {
      "constant": false,
      "inputs": [
        {
          "internalType": "address",
          "name": "recipient",
          "type": "address"
        },
        {
          "internalType": "address",
          "name": "cToken",
          "type": "address"
        },
        {
          "internalType": "uint256",
          "name": "amount",
          "type": "uint256"
        }
      ],
      "name": "repayBorrowBehalf",
      "outputs": [],
      "payable": true,
      "stateMutability": "payable",
      "type": "function"
    },
    {
      "constant": false,
      "inputs": [
        {
          "internalType": "address",
          "name": "cToken",
          "type": "address"
        },
        {
          "internalType": "uint256",
          "name": "redeemTokens",
          "type": "uint256"
        }
      ],
      "name": "redeem",
      "outputs": [],
      "payable": true,
      "stateMutability": "payable",
      "type": "function"
    },
    {
      "constant": false,
      "inputs": [
        {
          "internalType": "address",
          "name": "cToken",
          "type": "address"
        },
        {
          "internalType": "uint256",
          "name": "redeemTokens",
          "type": "uint256"
        }
      ],
      "name": "redeemUnderlying",
      "outputs": [],
      "payable": true,
      "stateMutability": "payable",
      "type": "function"
    },
    {
      "constant": false,
      "inputs": [
        {
          "internalType": "address",
          "name": "cToken",
          "type": "address"
        },
        {
          "internalType": "uint256",
          "name": "amount",
          "type": "uint256"
        }
      ],
      "name": "supplyThroughProxy",
      "outputs": [],
      "payable": true,
      "stateMutability": "payable",
      "type": "function"
    },
    {
      "constant": false,
      "inputs": [
        {
          "internalType": "address",
          "name": "cToken",
          "type": "address"
        },
        {
          "internalType": "uint256",
          "name": "amount",
          "type": "uint256"
        }
      ],
      "name": "repayBorrowThroughProxy",
      "outputs": [],
      "payable": true,
      "stateMutability": "payable",
      "type": "function"
    },
    {
      "constant": false,
      "inputs": [
        {
          "internalType": "address",
          "name": "recipient",
          "type": "address"
        },
        {
          "internalType": "address",
          "name": "cToken",
          "type": "address"
        },
        {
          "internalType": "uint256",
          "name": "amount",
          "type": "uint256"
        }
      ],
      "name": "repayBorrowBehalfThroughProxy",
      "outputs": [],
      "payable": true,
      "stateMutability": "payable",
      "type": "function"
    },
    {
      "constant": false,
      "inputs": [
        {
          "internalType": "address",
          "name": "cToken",
          "type": "address"
        },
        {
          "internalType": "uint256",
          "name": "amount",
          "type": "uint256"
        }
      ],
      "name": "borrowThroughProxy",
      "outputs": [],
      "payable": false,
      "stateMutability": "nonpayable",
      "type": "function"
    },
    {
      "constant": false,
      "inputs": [
        {
          "internalType": "address",
          "name": "cToken",
          "type": "address"
        },
        {
          "internalType": "uint256",
          "name": "amount",
          "type": "uint256"
        }
      ],
      "name": "redeemThroughProxy",
      "outputs": [],
      "payable": true,
      "stateMutability": "payable",
      "type": "function"
    },
    {
      "constant": false,
      "inputs": [
        {
          "internalType": "address",
          "name": "cToken",
          "type": "address"
        },
        {
          "internalType": "uint256",
          "name": "amount",
          "type": "uint256"
        }
      ],
      "name": "redeemUnderlyingThroughProxy",
      "outputs": [],
      "payable": true,
      "stateMutability": "payable",
      "type": "function"
    }
  ],
  "bytecode": "0x608060405234801561001057600080fd5b5061161e806100206000396000f3fe6080604052600436106101145760003560e01c806375d40945116100a0578063ba59154f11610064578063ba59154f1461049f578063c2998238146104cb578063d2f70c4014610579578063d882dc6c146105b2578063f2b9fdb8146105de57610114565b806375d409451461039e5780637720cc87146103d8578063962941781461040e5780639a22a1b91461043a578063abdb5ea81461047357610114565b806341ec5cc4116100e757806341ec5cc4146102cf5780634907b8fc146102fb5780634b8a35291461030357806359086a5e1461033c57806367600cc21461037257610114565b80630b4e0630146101195780631e9a6950146101475780632d8af543146101735780633dc4d99a14610221575b600080fd5b6101456004803603604081101561012f57600080fd5b506001600160a01b03813516906020013561060a565b005b6101456004803603604081101561015d57600080fd5b506001600160a01b03813516906020013561074e565b34801561017f57600080fd5b506101456004803603602081101561019657600080fd5b810190602081018135600160201b8111156101b057600080fd5b8201836020820111156101c257600080fd5b803590602001918460208302840111600160201b831117156101e357600080fd5b919080806020026020016040519081016040528093929190818152602001838360200280828437600092019190915250929550610816945050505050565b34801561022d57600080fd5b506101456004803603602081101561024457600080fd5b810190602081018135600160201b81111561025e57600080fd5b82018360208201111561027057600080fd5b803590602001918460208302840111600160201b8311171561029157600080fd5b91908080602002602001604051908101604052809392919081815260200183836020028082843760009201919091525092955061082b945050505050565b610145600480360360408110156102e557600080fd5b506001600160a01b03813516906020013561089e565b6101456108b0565b34801561030f57600080fd5b506101456004803603604081101561032657600080fd5b506001600160a01b03813516906020013561091a565b6101456004803603606081101561035257600080fd5b506001600160a01b038135811691602081013590911690604001356109de565b6101456004803603604081101561038857600080fd5b506001600160a01b038135169060200135610b50565b610145600480360360808110156103b457600080fd5b506001600160a01b0381358116916020810135916040820135169060600135610b65565b610145600480360360608110156103ee57600080fd5b506001600160a01b03813581169160208101359091169060400135610b79565b6101456004803603604081101561042457600080fd5b506001600160a01b038135169060200135610bb4565b34801561044657600080fd5b506101456004803603604081101561045d57600080fd5b506001600160a01b038135169060200135610c62565b6101456004803603604081101561048957600080fd5b506001600160a01b038135169060200135610c6c565b610145600480360360408110156104b557600080fd5b506001600160a01b038135169060200135610db8565b3480156104d757600080fd5b50610145600480360360208110156104ee57600080fd5b810190602081018135600160201b81111561050857600080fd5b82018360208201111561051a57600080fd5b803590602001918460208302840111600160201b8311171561053b57600080fd5b919080806020026020016040519081016040528093929190818152602001838360200280828437600092019190915250929550610df2945050505050565b34801561058557600080fd5b506101456004803603604081101561059c57600080fd5b506001600160a01b038135169060200135610fcc565b610145600480360360408110156105c857600080fd5b506001600160a01b03813516906020013561110b565b610145600480360360408110156105f457600080fd5b506001600160a01b038135169060200135611115565b604080516370a0823160e01b815230600482015290516000916001600160a01b038516916370a0823191602480820192602092909190829003018186803b15801561065457600080fd5b505afa158015610668573d6000803e3d6000fd5b505050506040513d602081101561067e57600080fd5b505190506001600160a01b038316734ddc2d193948926d02f9b1fe9e1daa0718270ed5146106b2576106b233308585611257565b6106bc8383611115565b604080516370a0823160e01b815230600482015290516000916001600160a01b038616916370a0823191602480820192602092909190829003018186803b15801561070657600080fd5b505afa15801561071a573d6000803e3d6000fd5b505050506040513d602081101561073057600080fd5b5051905061074884336107438486611399565b6113ed565b50505050565b816001600160a01b031663db006a75826040518263ffffffff1660e01b815260040180828152602001915050602060405180830381600087803b15801561079457600080fd5b505af11580156107a8573d6000803e3d6000fd5b505050506040513d60208110156107be57600080fd5b505115610812576040805162461bcd60e51b815260206004820152601e60248201527f636d706e642d6d67722d63746f6b656e2d72656465656d2d6661696c65640000604482015290519081900360640190fd5b5050565b61081f81610df2565b6108288161082b565b50565b60005b815181101561081257734ddc2d193948926d02f9b1fe9e1daa0718270ed56001600160a01b031682828151811061086157fe5b60200260200101516001600160a01b0316146108965761089682828151811061088657fe5b6020026020010151600019610fcc565b60010161082e565b6108a66108b0565b610812828261091a565b734ddc2d193948926d02f9b1fe9e1daa0718270ed56001600160a01b0316631249c58b346040518263ffffffff1660e01b81526004016000604051808303818588803b1580156108ff57600080fd5b505af1158015610913573d6000803e3d6000fd5b5050505050565b816001600160a01b031663c5ebeaec826040518263ffffffff1660e01b815260040180828152602001915050602060405180830381600087803b15801561096057600080fd5b505af1158015610974573d6000803e3d6000fd5b505050506040513d602081101561098a57600080fd5b505115610812576040805162461bcd60e51b815260206004820152601e60248201527f636d706e642d6d67722d63746f6b656e2d626f72726f772d6661696c65640000604482015290519081900360640190fd5b6001600160a01b038216734ddc2d193948926d02f9b1fe9e1daa0718270ed51415610a7957816001600160a01b031663e597461982856040518363ffffffff1660e01b815260040180826001600160a01b03166001600160a01b031681526020019150506000604051808303818588803b158015610a5b57600080fd5b505af1158015610a6f573d6000803e3d6000fd5b5050505050610b4b565b610a838282610fcc565b816001600160a01b0316632608f81884836040518363ffffffff1660e01b815260040180836001600160a01b03166001600160a01b0316815260200182815260200192505050602060405180830381600087803b158015610ae357600080fd5b505af1158015610af7573d6000803e3d6000fd5b505050506040513d6020811015610b0d57600080fd5b505115610b4b5760405162461bcd60e51b81526004018080602001828103825260238152602001806115c76023913960400191505060405180910390fd5b505050565b610b5a8282610bb4565b6108128233836113ed565b610b6f8484611115565b610748828261091a565b6001600160a01b038216734ddc2d193948926d02f9b1fe9e1daa0718270ed514610ba957610ba933308484611257565b610b4b8383836109de565b816001600160a01b031663852a12e3826040518263ffffffff1660e01b815260040180828152602001915050602060405180830381600087803b158015610bfa57600080fd5b505af1158015610c0e573d6000803e3d6000fd5b505050506040513d6020811015610c2457600080fd5b5051156108125760405162461bcd60e51b815260040180806020018281038252602981526020018061159e6029913960400191505060405180910390fd5b610b5a828261091a565b6001600160a01b038216734ddc2d193948926d02f9b1fe9e1daa0718270ed51415610cea57816001600160a01b0316634e4d9fea826040518263ffffffff1660e01b81526004016000604051808303818588803b158015610ccc57600080fd5b505af1158015610ce0573d6000803e3d6000fd5b5050505050610812565b610cf48282610fcc565b816001600160a01b0316630e752702826040518263ffffffff1660e01b815260040180828152602001915050602060405180830381600087803b158015610d3a57600080fd5b505af1158015610d4e573d6000803e3d6000fd5b505050506040513d6020811015610d6457600080fd5b505115610812576040805162461bcd60e51b815260206004820152601d60248201527f636d706e642d6d67722d63746f6b656e2d72657061792d6661696c6564000000604482015290519081900360640190fd5b6001600160a01b038216734ddc2d193948926d02f9b1fe9e1daa0718270ed514610de857610de833308484611257565b6108128282610c6c565b604051631853304760e31b8152602060048201818152835160248401528351606093733d9819210a31b4961b30ef54be2aed79b9c9cd3b9363c299823893879390928392604490910191818601910280838360005b83811015610e5f578181015183820152602001610e47565b5050505090500192505050600060405180830381600087803b158015610e8457600080fd5b505af1158015610e98573d6000803e3d6000fd5b505050506040513d6000823e601f3d908101601f191682016040526020811015610ec157600080fd5b8101908080516040519392919084600160201b821115610ee057600080fd5b908301906020820185811115610ef557600080fd5b82518660208202830111600160201b82111715610f1157600080fd5b82525081516020918201928201910280838360005b83811015610f3e578181015183820152602001610f26565b50505050905001604052505050905060008090505b8151811015610b4b57818181518110610f6857fe5b6020026020010151600014610fc4576040805162461bcd60e51b815260206004820152601e60248201527f636d706e642d6d67722d656e7465722d6d61726b6574732d6661696c65640000604482015290519081900360640190fd5b600101610f53565b6000826001600160a01b0316636f307dc36040518163ffffffff1660e01b815260040160206040518083038186803b15801561100757600080fd5b505afa15801561101b573d6000803e3d6000fd5b505050506040513d602081101561103157600080fd5b50516040805163095ea7b360e01b81526001600160a01b0386811660048301526024820186905291519293509083169163095ea7b3916044808201926020929091908290030181600087803b15801561108957600080fd5b505af115801561109d573d6000803e3d6000fd5b505050506040513d60208110156110b357600080fd5b50511515600114610b4b576040805162461bcd60e51b815260206004820181905260248201527f636d706e642d6d67722d63746f6b656e2d617070726f7665642d6661696c6564604482015290519081900360640190fd5b610b5a828261074e565b6001600160a01b038216734ddc2d193948926d02f9b1fe9e1daa0718270ed5141561118957734ddc2d193948926d02f9b1fe9e1daa0718270ed56001600160a01b0316631249c58b826040518263ffffffff1660e01b81526004016000604051808303818588803b158015610ccc57600080fd5b6111938282610fcc565b816001600160a01b031663a0712d68826040518263ffffffff1660e01b815260040180828152602001915050602060405180830381600087803b1580156111d957600080fd5b505af11580156111ed573d6000803e3d6000fd5b505050506040513d602081101561120357600080fd5b505115610812576040805162461bcd60e51b815260206004820152601e60248201527f636d706e642d6d67722d63746f6b656e2d737570706c792d6661696c65640000604482015290519081900360640190fd5b6000826001600160a01b0316636f307dc36040518163ffffffff1660e01b815260040160206040518083038186803b15801561129257600080fd5b505afa1580156112a6573d6000803e3d6000fd5b505050506040513d60208110156112bc57600080fd5b5051604080516323b872dd60e01b81526001600160a01b0388811660048301528781166024830152604482018690529151929350908316916323b872dd916064808201926020929091908290030181600087803b15801561131c57600080fd5b505af1158015611330573d6000803e3d6000fd5b505050506040513d602081101561134657600080fd5b5051610913576040805162461bcd60e51b815260206004820152601e60248201527f636d706e642d6d67722d7472616e736665722d66726f6d2d6661696c65640000604482015290519081900360640190fd5b6000828211156113e7576040805162461bcd60e51b81526020600482015260146024820152731cd859994b5b585d1a0b5cdd588b59985a5b195960621b604482015290519081900360640190fd5b50900390565b6001600160a01b038316734ddc2d193948926d02f9b1fe9e1daa0718270ed51415611468576040516001600160a01b038316908290600081818185875af1925050503d806000811461145b576040519150601f19603f3d011682016040523d82523d6000602084013e611460565b606091505b505050610b4b565b826001600160a01b0316636f307dc36040518163ffffffff1660e01b815260040160206040518083038186803b1580156114a157600080fd5b505afa1580156114b5573d6000803e3d6000fd5b505050506040513d60208110156114cb57600080fd5b50516040805163a9059cbb60e01b81526001600160a01b038581166004830152602482018590529151919092169163a9059cbb9160448083019260209291908290030181600087803b15801561152057600080fd5b505af1158015611534573d6000803e3d6000fd5b505050506040513d602081101561154a57600080fd5b5051610b4b576040805162461bcd60e51b815260206004820152601960248201527f636d706e642d6d67722d7472616e736665722d6661696c656400000000000000604482015290519081900360640190fdfe636d706e642d6d67722d63746f6b656e2d72656465656d2d756e6465726c79696e672d6661696c6564636d706e642d6d67722d63746f6b656e2d7265706179626568616c662d6661696c6564a265627a7a723158203217e4f53f5e7c7d8d094eeccc556c9eb1c0e5f63f3de1d1294da92934e4467b64736f6c63430005100032",
  "source": "/*  Mostly functions from https://compound.finance/developers/ctokens\n    and https://compound.finance/developers/comptroller\n*/\npragma solidity 0.5.16;\n\nimport \"../../interfaces/compound/IComptroller.sol\";\nimport \"../../interfaces/compound/ICEther.sol\";\nimport \"../../interfaces/compound/ICToken.sol\";\n\nimport \"../../interfaces/IERC20.sol\";\n\ncontract CompoundBase {\n    address constant CompoundComptrollerAddress = 0x3d9819210A31b4961b30EF54bE2aeD79B9c9Cd3B;\n    address constant CEtherAddress = 0x4Ddc2D193948926D02f9B1fE9e1daa0718270ED5;\n\n    function sub(uint256 a, uint256 b) internal pure returns (uint256) {\n        require(b <= a, \"safe-math-sub-failed\");\n        uint256 c = a - b;\n\n        return c;\n    }\n\n    function _transferFrom(\n        address sender,\n        address recipient,\n        address cToken,\n        uint amount\n    ) internal {\n        address underlying = ICToken(cToken).underlying();\n        require(\n            IERC20(underlying).transferFrom(sender, recipient, amount),\n            \"cmpnd-mgr-transfer-from-failed\"\n        );\n    }\n\n    function _transfer(\n        address cToken,\n        address recipient,\n        uint amount\n    ) internal {\n        if (cToken == CEtherAddress) {\n            recipient.call.value(amount)(\"\");\n        } else {\n            require(\n                IERC20(ICToken(cToken).underlying()).transfer(recipient, amount),\n                \"cmpnd-mgr-transfer-failed\"\n            );\n        }\n    }\n\n    function enterMarkets(\n        address[] memory cTokens   // Address of the Compound derivation token (e.g. cDAI)\n    ) public {\n        // Enter the compound markets for all the specified tokens\n        uint[] memory errors = IComptroller(CompoundComptrollerAddress).enterMarkets(cTokens);\n\n        for (uint i = 0; i < errors.length; i++) {\n            require(errors[i] == 0, \"cmpnd-mgr-enter-markets-failed\");\n        }\n    }\n\n    function approveCToken(\n        address cToken,\n        uint amount\n    ) public {\n        // Approves CToken contract to call `transferFrom`\n        address underlying = ICToken(cToken).underlying();\n        require(\n            IERC20(underlying).approve(cToken, amount) == true,\n            \"cmpnd-mgr-ctoken-approved-failed\"\n        );\n    }\n\n    function approveCTokens(\n        address[] memory cTokens    // Tokens to approve\n    ) public {\n        for (uint i = 0; i < cTokens.length; i++) {\n            // Don't need to approve ICEther\n            if (cTokens[i] != CEtherAddress) {\n                approveCToken(cTokens[i], uint(-1));\n            }\n        }\n    }\n\n    function enterMarketsAndApproveCTokens(\n        address[] memory cTokens\n    ) public {\n        enterMarkets(cTokens);\n        approveCTokens(cTokens);\n    }\n\n    function supplyETH() public payable {\n        ICEther(CEtherAddress).mint.value(msg.value)();\n    }\n\n    function supply(address cToken, uint amount) public payable {\n        if (cToken == CEtherAddress) {\n            ICEther(CEtherAddress).mint.value(amount)();\n        } else {\n            // Approves CToken contract to call `transferFrom`\n            approveCToken(cToken, amount);\n\n            require(\n              ICToken(cToken).mint(amount) == 0,\n              \"cmpnd-mgr-ctoken-supply-failed\"\n            );\n        }\n    }\n\n    function borrow(address cToken, uint borrowAmount) public {\n        require(ICToken(cToken).borrow(borrowAmount) == 0, \"cmpnd-mgr-ctoken-borrow-failed\");\n    }\n\n    function supplyAndBorrow(\n        address supplyCToken,\n        uint supplyAmount,\n        address borrowCToken,\n        uint borrowAmount\n    ) public payable {\n        supply(supplyCToken, supplyAmount);\n        borrow(borrowCToken, borrowAmount);\n    }\n\n    function supplyETHAndBorrow(\n        address cToken,\n        uint borrowAmount\n    ) public payable {\n        // Supply some Ether\n        supplyETH();\n\n        // Borrow some CTokens\n        borrow(cToken, borrowAmount);\n    }\n\n    function repayBorrow(address cToken, uint amount) public payable {\n        if (cToken == CEtherAddress) {\n            ICEther(cToken).repayBorrow.value(amount)();\n        } else {\n            approveCToken(cToken, amount);\n            require(ICToken(cToken).repayBorrow(amount) == 0, \"cmpnd-mgr-ctoken-repay-failed\");\n        }\n    }\n\n    function repayBorrowBehalf(address recipient, address cToken, uint amount) public payable {\n        if (cToken == CEtherAddress) {\n            ICEther(cToken).repayBorrowBehalf.value(amount)(recipient);\n        } else {\n            approveCToken(cToken, amount);\n            require(ICToken(cToken).repayBorrowBehalf(recipient, amount) == 0, \"cmpnd-mgr-ctoken-repaybehalf-failed\");\n        }\n    }\n\n    function redeem(address cToken, uint redeemTokens) public payable {\n        require(ICToken(cToken).redeem(redeemTokens) == 0, \"cmpnd-mgr-ctoken-redeem-failed\");\n    }\n\n    function redeemUnderlying(address cToken, uint redeemTokens) public payable {\n        require(ICToken(cToken).redeemUnderlying(redeemTokens) == 0, \"cmpnd-mgr-ctoken-redeem-underlying-failed\");\n    }\n\n    // -- Helper functions so proxy doesn't hold any funds, all funds borrowed\n    // or redeemed gets sent to user\n    // User needs to `approve(spender, amount)` before through proxy functions work\n\n    function supplyThroughProxy(\n        address cToken,\n        uint amount\n    ) public payable {\n        // Gets initial CToken balance\n        uint initialBal = ICToken(cToken).balanceOf(address(this));\n\n        // If cToken isn't an ether address, we need to transferFrom\n        // If this fails, users needs to execute `approve(spender, amount)` to this proxy\n        if (cToken != CEtherAddress) {\n            _transferFrom(msg.sender, address(this), cToken, amount);\n        }\n        supply(cToken, amount);\n\n        // Sends CToken back to user\n        uint finalBal = ICToken(cToken).balanceOf(address(this));\n\n        _transfer(cToken, msg.sender, sub(finalBal, initialBal));\n    }\n\n    function repayBorrowThroughProxy(address cToken, uint amount) public payable {\n        if (cToken != CEtherAddress) {\n            _transferFrom(msg.sender, address(this), cToken, amount);\n        }\n        repayBorrow(cToken, amount);\n    }\n\n    function repayBorrowBehalfThroughProxy(address recipient, address cToken, uint amount) public payable {\n        if (cToken != CEtherAddress) {\n            _transferFrom(msg.sender, address(this), cToken, amount);\n        }\n        repayBorrowBehalf(recipient, cToken, amount);\n    }\n\n    function borrowThroughProxy(address cToken, uint amount) public {\n        borrow(cToken, amount);\n        _transfer(cToken, msg.sender, amount);\n    }\n\n    function redeemThroughProxy(\n        address cToken,\n        uint amount\n    ) public payable {\n        redeem(cToken, amount);\n        _transfer(cToken, msg.sender, amount);\n    }\n\n    function redeemUnderlyingThroughProxy(\n        address cToken,\n        uint amount\n    ) public payable {\n        redeemUnderlying(cToken, amount);\n        _transfer(cToken, msg.sender, amount);\n    }\n}\n",
  "sourcePath": "/home/kendrick/Development/Ethereum/dedge/packages/smart-contracts/src/lib/compound/CompoundBase.sol",
  "compiler": {
    "name": "solc",
    "version": "0.5.16+commit.9c3226ce.Emscripten.clang"
  },
  "schemaVersion": "3.0.23",
  "updatedAt": "2020-04-03T06:25:13.482Z",
  "devdoc": {
    "methods": {}
  },
  "userdoc": {
    "methods": {}
  }
}