{
  "contractName": "CompoundBase",
  "abi": [
    {
      "constant": false,
      "inputs": [
        {
          "internalType": "address[]",
          "name": "cTokens",
          "type": "address[]"
        }
      ],
      "name": "enterMarkets",
      "outputs": [],
      "payable": false,
      "stateMutability": "nonpayable",
      "type": "function"
    },
    {
      "constant": false,
      "inputs": [
        {
          "internalType": "address",
          "name": "cToken",
          "type": "address"
        },
        {
          "internalType": "uint256",
          "name": "amount",
          "type": "uint256"
        }
      ],
      "name": "approveCToken",
      "outputs": [],
      "payable": false,
      "stateMutability": "nonpayable",
      "type": "function"
    },
    {
      "constant": false,
      "inputs": [
        {
          "internalType": "address[]",
          "name": "cTokens",
          "type": "address[]"
        }
      ],
      "name": "approveCTokens",
      "outputs": [],
      "payable": false,
      "stateMutability": "nonpayable",
      "type": "function"
    },
    {
      "constant": false,
      "inputs": [
        {
          "internalType": "address[]",
          "name": "cTokens",
          "type": "address[]"
        }
      ],
      "name": "enterMarketsAndApproveCTokens",
      "outputs": [],
      "payable": false,
      "stateMutability": "nonpayable",
      "type": "function"
    },
    {
      "constant": false,
      "inputs": [],
      "name": "supplyETH",
      "outputs": [],
      "payable": true,
      "stateMutability": "payable",
      "type": "function"
    },
    {
      "constant": false,
      "inputs": [
        {
          "internalType": "address",
          "name": "cToken",
          "type": "address"
        },
        {
          "internalType": "uint256",
          "name": "amount",
          "type": "uint256"
        }
      ],
      "name": "supply",
      "outputs": [],
      "payable": true,
      "stateMutability": "payable",
      "type": "function"
    },
    {
      "constant": false,
      "inputs": [
        {
          "internalType": "address",
          "name": "cToken",
          "type": "address"
        },
        {
          "internalType": "uint256",
          "name": "borrowAmount",
          "type": "uint256"
        }
      ],
      "name": "borrow",
      "outputs": [],
      "payable": false,
      "stateMutability": "nonpayable",
      "type": "function"
    },
    {
      "constant": false,
      "inputs": [
        {
          "internalType": "address",
          "name": "supplyCToken",
          "type": "address"
        },
        {
          "internalType": "uint256",
          "name": "supplyAmount",
          "type": "uint256"
        },
        {
          "internalType": "address",
          "name": "borrowCToken",
          "type": "address"
        },
        {
          "internalType": "uint256",
          "name": "borrowAmount",
          "type": "uint256"
        }
      ],
      "name": "supplyAndBorrow",
      "outputs": [],
      "payable": true,
      "stateMutability": "payable",
      "type": "function"
    },
    {
      "constant": false,
      "inputs": [
        {
          "internalType": "address",
          "name": "cToken",
          "type": "address"
        },
        {
          "internalType": "uint256",
          "name": "borrowAmount",
          "type": "uint256"
        }
      ],
      "name": "supplyETHAndBorrow",
      "outputs": [],
      "payable": true,
      "stateMutability": "payable",
      "type": "function"
    },
    {
      "constant": false,
      "inputs": [
        {
          "internalType": "address",
          "name": "cToken",
          "type": "address"
        },
        {
          "internalType": "uint256",
          "name": "amount",
          "type": "uint256"
        }
      ],
      "name": "repayBorrow",
      "outputs": [],
      "payable": true,
      "stateMutability": "payable",
      "type": "function"
    },
    {
      "constant": false,
      "inputs": [
        {
          "internalType": "address",
          "name": "recipient",
          "type": "address"
        },
        {
          "internalType": "address",
          "name": "cToken",
          "type": "address"
        },
        {
          "internalType": "uint256",
          "name": "amount",
          "type": "uint256"
        }
      ],
      "name": "repayBorrowBehalf",
      "outputs": [],
      "payable": true,
      "stateMutability": "payable",
      "type": "function"
    },
    {
      "constant": false,
      "inputs": [
        {
          "internalType": "address",
          "name": "cToken",
          "type": "address"
        },
        {
          "internalType": "uint256",
          "name": "redeemTokens",
          "type": "uint256"
        }
      ],
      "name": "redeem",
      "outputs": [],
      "payable": true,
      "stateMutability": "payable",
      "type": "function"
    },
    {
      "constant": false,
      "inputs": [
        {
          "internalType": "address",
          "name": "cToken",
          "type": "address"
        },
        {
          "internalType": "uint256",
          "name": "redeemTokens",
          "type": "uint256"
        }
      ],
      "name": "redeemUnderlying",
      "outputs": [],
      "payable": true,
      "stateMutability": "payable",
      "type": "function"
    },
    {
      "constant": false,
      "inputs": [
        {
          "internalType": "address",
          "name": "cToken",
          "type": "address"
        },
        {
          "internalType": "uint256",
          "name": "amount",
          "type": "uint256"
        }
      ],
      "name": "supplyThroughProxy",
      "outputs": [],
      "payable": true,
      "stateMutability": "payable",
      "type": "function"
    },
    {
      "constant": false,
      "inputs": [
        {
          "internalType": "address",
          "name": "cToken",
          "type": "address"
        },
        {
          "internalType": "uint256",
          "name": "amount",
          "type": "uint256"
        }
      ],
      "name": "repayBorrowThroughProxy",
      "outputs": [],
      "payable": true,
      "stateMutability": "payable",
      "type": "function"
    },
    {
      "constant": false,
      "inputs": [
        {
          "internalType": "address",
          "name": "recipient",
          "type": "address"
        },
        {
          "internalType": "address",
          "name": "cToken",
          "type": "address"
        },
        {
          "internalType": "uint256",
          "name": "amount",
          "type": "uint256"
        }
      ],
      "name": "repayBorrowBehalfThroughProxy",
      "outputs": [],
      "payable": true,
      "stateMutability": "payable",
      "type": "function"
    },
    {
      "constant": false,
      "inputs": [
        {
          "internalType": "address",
          "name": "cToken",
          "type": "address"
        },
        {
          "internalType": "uint256",
          "name": "amount",
          "type": "uint256"
        }
      ],
      "name": "borrowThroughProxy",
      "outputs": [],
      "payable": false,
      "stateMutability": "nonpayable",
      "type": "function"
    },
    {
      "constant": false,
      "inputs": [
        {
          "internalType": "address",
          "name": "cToken",
          "type": "address"
        },
        {
          "internalType": "uint256",
          "name": "amount",
          "type": "uint256"
        }
      ],
      "name": "redeemThroughProxy",
      "outputs": [],
      "payable": true,
      "stateMutability": "payable",
      "type": "function"
    },
    {
      "constant": false,
      "inputs": [
        {
          "internalType": "address",
          "name": "cToken",
          "type": "address"
        },
        {
          "internalType": "uint256",
          "name": "amount",
          "type": "uint256"
        }
      ],
      "name": "redeemUnderlyingThroughProxy",
      "outputs": [],
      "payable": true,
      "stateMutability": "payable",
      "type": "function"
    }
  ],
  "bytecode": "0x608060405234801561001057600080fd5b50611f00806100206000396000f3fe6080604052600436106101145760003560e01c806375d40945116100a0578063ba59154f11610064578063ba59154f1461068b578063c2998238146106d9578063d2f70c401461079e578063d882dc6c146107f9578063f2b9fdb81461084757610114565b806375d40945146104ae5780637720cc871461052657806396294178146105945780639a22a1b9146105e2578063abdb5ea81461063d57610114565b806341ec5cc4116100e757806341ec5cc41461033f5780634907b8fc1461038d5780634b8a35291461039757806359086a5e146103f257806367600cc21461046057610114565b80630b4e0630146101195780631e9a6950146101675780632d8af543146101b55780633dc4d99a1461027a575b600080fd5b6101656004803603604081101561012f57600080fd5b81019080803573ffffffffffffffffffffffffffffffffffffffff16906020019092919080359060200190929190505050610895565b005b6101b36004803603604081101561017d57600080fd5b81019080803573ffffffffffffffffffffffffffffffffffffffff16906020019092919080359060200190929190505050610a85565b005b3480156101c157600080fd5b50610278600480360360208110156101d857600080fd5b81019080803590602001906401000000008111156101f557600080fd5b82018360208201111561020757600080fd5b8035906020019184602083028401116401000000008311171561022957600080fd5b919080806020026020016040519081016040528093929190818152602001838360200280828437600081840152601f19601f820116905080830192505050505050509192919290505050610b8c565b005b34801561028657600080fd5b5061033d6004803603602081101561029d57600080fd5b81019080803590602001906401000000008111156102ba57600080fd5b8201836020820111156102cc57600080fd5b803590602001918460208302840111640100000000831117156102ee57600080fd5b919080806020026020016040519081016040528093929190818152602001838360200280828437600081840152601f19601f820116905080830192505050505050509192919290505050610ba1565b005b61038b6004803603604081101561035557600080fd5b81019080803573ffffffffffffffffffffffffffffffffffffffff16906020019092919080359060200190929190505050610c59565b005b610395610c6f565b005b3480156103a357600080fd5b506103f0600480360360408110156103ba57600080fd5b81019080803573ffffffffffffffffffffffffffffffffffffffff16906020019092919080359060200190929190505050610ce6565b005b61045e6004803603606081101561040857600080fd5b81019080803573ffffffffffffffffffffffffffffffffffffffff169060200190929190803573ffffffffffffffffffffffffffffffffffffffff16906020019092919080359060200190929190505050610ded565b005b6104ac6004803603604081101561047657600080fd5b81019080803573ffffffffffffffffffffffffffffffffffffffff16906020019092919080359060200190929190505050610ffc565b005b610524600480360360808110156104c457600080fd5b81019080803573ffffffffffffffffffffffffffffffffffffffff16906020019092919080359060200190929190803573ffffffffffffffffffffffffffffffffffffffff16906020019092919080359060200190929190505050611015565b005b6105926004803603606081101561053c57600080fd5b81019080803573ffffffffffffffffffffffffffffffffffffffff169060200190929190803573ffffffffffffffffffffffffffffffffffffffff1690602001909291908035906020019092919050505061102f565b005b6105e0600480360360408110156105aa57600080fd5b81019080803573ffffffffffffffffffffffffffffffffffffffff16906020019092919080359060200190929190505050611093565b005b3480156105ee57600080fd5b5061063b6004803603604081101561060557600080fd5b81019080803573ffffffffffffffffffffffffffffffffffffffff1690602001909291908035906020019092919050505061117d565b005b6106896004803603604081101561065357600080fd5b81019080803573ffffffffffffffffffffffffffffffffffffffff16906020019092919080359060200190929190505050611196565b005b6106d7600480360360408110156106a157600080fd5b81019080803573ffffffffffffffffffffffffffffffffffffffff16906020019092919080359060200190929190505050611356565b005b3480156106e557600080fd5b5061079c600480360360208110156106fc57600080fd5b810190808035906020019064010000000081111561071957600080fd5b82018360208201111561072b57600080fd5b8035906020019184602083028401116401000000008311171561074d57600080fd5b919080806020026020016040519081016040528093929190818152602001838360200280828437600081840152601f19601f8201169050808301925050505050505091929192905050506113b8565b005b3480156107aa57600080fd5b506107f7600480360360408110156107c157600080fd5b81019080803573ffffffffffffffffffffffffffffffffffffffff169060200190929190803590602001909291905050506115e3565b005b6108456004803603604081101561080f57600080fd5b81019080803573ffffffffffffffffffffffffffffffffffffffff169060200190929190803590602001909291905050506117a8565b005b6108936004803603604081101561085d57600080fd5b81019080803573ffffffffffffffffffffffffffffffffffffffff169060200190929190803590602001909291905050506117c1565b005b60008273ffffffffffffffffffffffffffffffffffffffff166370a08231306040518263ffffffff1660e01b8152600401808273ffffffffffffffffffffffffffffffffffffffff1673ffffffffffffffffffffffffffffffffffffffff16815260200191505060206040518083038186803b15801561091457600080fd5b505afa158015610928573d6000803e3d6000fd5b505050506040513d602081101561093e57600080fd5b81019080805190602001909291905050509050734ddc2d193948926d02f9b1fe9e1daa0718270ed573ffffffffffffffffffffffffffffffffffffffff168373ffffffffffffffffffffffffffffffffffffffff16146109a5576109a433308585611995565b5b6109af83836117c1565b60008373ffffffffffffffffffffffffffffffffffffffff166370a08231306040518263ffffffff1660e01b8152600401808273ffffffffffffffffffffffffffffffffffffffff1673ffffffffffffffffffffffffffffffffffffffff16815260200191505060206040518083038186803b158015610a2e57600080fd5b505afa158015610a42573d6000803e3d6000fd5b505050506040513d6020811015610a5857600080fd5b81019080805190602001909291905050509050610a7f8433610a7a8486611b89565b611c12565b50505050565b60008273ffffffffffffffffffffffffffffffffffffffff1663db006a75836040518263ffffffff1660e01b815260040180828152602001915050602060405180830381600087803b158015610ada57600080fd5b505af1158015610aee573d6000803e3d6000fd5b505050506040513d6020811015610b0457600080fd5b810190808051906020019092919050505014610b88576040517f08c379a000000000000000000000000000000000000000000000000000000000815260040180806020018281038252601e8152602001807f636d706e642d6d67722d63746f6b656e2d72656465656d2d6661696c6564000081525060200191505060405180910390fd5b5050565b610b95816113b8565b610b9e81610ba1565b50565b60008090505b8151811015610c5557734ddc2d193948926d02f9b1fe9e1daa0718270ed573ffffffffffffffffffffffffffffffffffffffff16828281518110610be757fe5b602002602001015173ffffffffffffffffffffffffffffffffffffffff1614610c4857610c47828281518110610c1957fe5b60200260200101517fffffffffffffffffffffffffffffffffffffffffffffffffffffffffffffffff6115e3565b5b8080600101915050610ba7565b5050565b610c61610c6f565b610c6b8282610ce6565b5050565b734ddc2d193948926d02f9b1fe9e1daa0718270ed573ffffffffffffffffffffffffffffffffffffffff16631249c58b346040518263ffffffff1660e01b81526004016000604051808303818588803b158015610ccb57600080fd5b505af1158015610cdf573d6000803e3d6000fd5b5050505050565b60008273ffffffffffffffffffffffffffffffffffffffff1663c5ebeaec836040518263ffffffff1660e01b815260040180828152602001915050602060405180830381600087803b158015610d3b57600080fd5b505af1158015610d4f573d6000803e3d6000fd5b505050506040513d6020811015610d6557600080fd5b810190808051906020019092919050505014610de9576040517f08c379a000000000000000000000000000000000000000000000000000000000815260040180806020018281038252601e8152602001807f636d706e642d6d67722d63746f6b656e2d626f72726f772d6661696c6564000081525060200191505060405180910390fd5b5050565b734ddc2d193948926d02f9b1fe9e1daa0718270ed573ffffffffffffffffffffffffffffffffffffffff168273ffffffffffffffffffffffffffffffffffffffff161415610ed2578173ffffffffffffffffffffffffffffffffffffffff1663e597461982856040518363ffffffff1660e01b8152600401808273ffffffffffffffffffffffffffffffffffffffff1673ffffffffffffffffffffffffffffffffffffffff1681526020019150506000604051808303818588803b158015610eb457600080fd5b505af1158015610ec8573d6000803e3d6000fd5b5050505050610ff7565b610edc82826115e3565b60008273ffffffffffffffffffffffffffffffffffffffff16632608f81885846040518363ffffffff1660e01b8152600401808373ffffffffffffffffffffffffffffffffffffffff1673ffffffffffffffffffffffffffffffffffffffff16815260200182815260200192505050602060405180830381600087803b158015610f6557600080fd5b505af1158015610f79573d6000803e3d6000fd5b505050506040513d6020811015610f8f57600080fd5b810190808051906020019092919050505014610ff6576040517f08c379a0000000000000000000000000000000000000000000000000000000008152600401808060200182810382526023815260200180611ea96023913960400191505060405180910390fd5b5b505050565b6110068282611093565b611011823383611c12565b5050565b61101f84846117c1565b6110298282610ce6565b50505050565b734ddc2d193948926d02f9b1fe9e1daa0718270ed573ffffffffffffffffffffffffffffffffffffffff168273ffffffffffffffffffffffffffffffffffffffff16146110835761108233308484611995565b5b61108e838383610ded565b505050565b60008273ffffffffffffffffffffffffffffffffffffffff1663852a12e3836040518263ffffffff1660e01b815260040180828152602001915050602060405180830381600087803b1580156110e857600080fd5b505af11580156110fc573d6000803e3d6000fd5b505050506040513d602081101561111257600080fd5b810190808051906020019092919050505014611179576040517f08c379a0000000000000000000000000000000000000000000000000000000008152600401808060200182810382526029815260200180611e806029913960400191505060405180910390fd5b5050565b6111878282610ce6565b611192823383611c12565b5050565b734ddc2d193948926d02f9b1fe9e1daa0718270ed573ffffffffffffffffffffffffffffffffffffffff168273ffffffffffffffffffffffffffffffffffffffff161415611244578173ffffffffffffffffffffffffffffffffffffffff16634e4d9fea826040518263ffffffff1660e01b81526004016000604051808303818588803b15801561122657600080fd5b505af115801561123a573d6000803e3d6000fd5b5050505050611352565b61124e82826115e3565b60008273ffffffffffffffffffffffffffffffffffffffff16630e752702836040518263ffffffff1660e01b815260040180828152602001915050602060405180830381600087803b1580156112a357600080fd5b505af11580156112b7573d6000803e3d6000fd5b505050506040513d60208110156112cd57600080fd5b810190808051906020019092919050505014611351576040517f08c379a000000000000000000000000000000000000000000000000000000000815260040180806020018281038252601d8152602001807f636d706e642d6d67722d63746f6b656e2d72657061792d6661696c656400000081525060200191505060405180910390fd5b5b5050565b734ddc2d193948926d02f9b1fe9e1daa0718270ed573ffffffffffffffffffffffffffffffffffffffff168273ffffffffffffffffffffffffffffffffffffffff16146113aa576113a933308484611995565b5b6113b48282611196565b5050565b6060733d9819210a31b4961b30ef54be2aed79b9c9cd3b73ffffffffffffffffffffffffffffffffffffffff1663c2998238836040518263ffffffff1660e01b81526004018080602001828103825283818151815260200191508051906020019060200280838360005b8381101561143d578082015181840152602081019050611422565b5050505090500192505050600060405180830381600087803b15801561146257600080fd5b505af1158015611476573d6000803e3d6000fd5b505050506040513d6000823e3d601f19601f8201168201806040525060208110156114a057600080fd5b81019080805160405193929190846401000000008211156114c057600080fd5b838201915060208201858111156114d657600080fd5b82518660208202830111640100000000821117156114f357600080fd5b8083526020830192505050908051906020019060200280838360005b8381101561152a57808201518184015260208101905061150f565b50505050905001604052505050905060008090505b81518110156115de57600082828151811061155657fe5b6020026020010151146115d1576040517f08c379a000000000000000000000000000000000000000000000000000000000815260040180806020018281038252601e8152602001807f636d706e642d6d67722d656e7465722d6d61726b6574732d6661696c6564000081525060200191505060405180910390fd5b808060010191505061153f565b505050565b60008273ffffffffffffffffffffffffffffffffffffffff16636f307dc36040518163ffffffff1660e01b815260040160206040518083038186803b15801561162b57600080fd5b505afa15801561163f573d6000803e3d6000fd5b505050506040513d602081101561165557600080fd5b81019080805190602001909291905050509050600115158173ffffffffffffffffffffffffffffffffffffffff1663095ea7b385856040518363ffffffff1660e01b8152600401808373ffffffffffffffffffffffffffffffffffffffff1673ffffffffffffffffffffffffffffffffffffffff16815260200182815260200192505050602060405180830381600087803b1580156116f357600080fd5b505af1158015611707573d6000803e3d6000fd5b505050506040513d602081101561171d57600080fd5b81019080805190602001909291905050501515146117a3576040517f08c379a00000000000000000000000000000000000000000000000000000000081526004018080602001828103825260208152602001807f636d706e642d6d67722d63746f6b656e2d617070726f7665642d6661696c656481525060200191505060405180910390fd5b505050565b6117b28282610a85565b6117bd823383611c12565b5050565b734ddc2d193948926d02f9b1fe9e1daa0718270ed573ffffffffffffffffffffffffffffffffffffffff168273ffffffffffffffffffffffffffffffffffffffff16141561188357734ddc2d193948926d02f9b1fe9e1daa0718270ed573ffffffffffffffffffffffffffffffffffffffff16631249c58b826040518263ffffffff1660e01b81526004016000604051808303818588803b15801561186557600080fd5b505af1158015611879573d6000803e3d6000fd5b5050505050611991565b61188d82826115e3565b60008273ffffffffffffffffffffffffffffffffffffffff1663a0712d68836040518263ffffffff1660e01b815260040180828152602001915050602060405180830381600087803b1580156118e257600080fd5b505af11580156118f6573d6000803e3d6000fd5b505050506040513d602081101561190c57600080fd5b810190808051906020019092919050505014611990576040517f08c379a000000000000000000000000000000000000000000000000000000000815260040180806020018281038252601e8152602001807f636d706e642d6d67722d63746f6b656e2d737570706c792d6661696c6564000081525060200191505060405180910390fd5b5b5050565b60008273ffffffffffffffffffffffffffffffffffffffff16636f307dc36040518163ffffffff1660e01b815260040160206040518083038186803b1580156119dd57600080fd5b505afa1580156119f1573d6000803e3d6000fd5b505050506040513d6020811015611a0757600080fd5b810190808051906020019092919050505090508073ffffffffffffffffffffffffffffffffffffffff166323b872dd8686856040518463ffffffff1660e01b8152600401808473ffffffffffffffffffffffffffffffffffffffff1673ffffffffffffffffffffffffffffffffffffffff1681526020018373ffffffffffffffffffffffffffffffffffffffff1673ffffffffffffffffffffffffffffffffffffffff1681526020018281526020019350505050602060405180830381600087803b158015611ad557600080fd5b505af1158015611ae9573d6000803e3d6000fd5b505050506040513d6020811015611aff57600080fd5b8101908080519060200190929190505050611b82576040517f08c379a000000000000000000000000000000000000000000000000000000000815260040180806020018281038252601e8152602001807f636d706e642d6d67722d7472616e736665722d66726f6d2d6661696c6564000081525060200191505060405180910390fd5b5050505050565b600082821115611c01576040517f08c379a00000000000000000000000000000000000000000000000000000000081526004018080602001828103825260148152602001807f736166652d6d6174682d7375622d6661696c656400000000000000000000000081525060200191505060405180910390fd5b600082840390508091505092915050565b734ddc2d193948926d02f9b1fe9e1daa0718270ed573ffffffffffffffffffffffffffffffffffffffff168373ffffffffffffffffffffffffffffffffffffffff161415611cc5578173ffffffffffffffffffffffffffffffffffffffff168160405180600001905060006040518083038185875af1925050503d8060008114611cb8576040519150601f19603f3d011682016040523d82523d6000602084013e611cbd565b606091505b505050611e7a565b8273ffffffffffffffffffffffffffffffffffffffff16636f307dc36040518163ffffffff1660e01b815260040160206040518083038186803b158015611d0b57600080fd5b505afa158015611d1f573d6000803e3d6000fd5b505050506040513d6020811015611d3557600080fd5b810190808051906020019092919050505073ffffffffffffffffffffffffffffffffffffffff1663a9059cbb83836040518363ffffffff1660e01b8152600401808373ffffffffffffffffffffffffffffffffffffffff1673ffffffffffffffffffffffffffffffffffffffff16815260200182815260200192505050602060405180830381600087803b158015611dcc57600080fd5b505af1158015611de0573d6000803e3d6000fd5b505050506040513d6020811015611df657600080fd5b8101908080519060200190929190505050611e79576040517f08c379a00000000000000000000000000000000000000000000000000000000081526004018080602001828103825260198152602001807f636d706e642d6d67722d7472616e736665722d6661696c65640000000000000081525060200191505060405180910390fd5b5b50505056fe636d706e642d6d67722d63746f6b656e2d72656465656d2d756e6465726c79696e672d6661696c6564636d706e642d6d67722d63746f6b656e2d7265706179626568616c662d6661696c6564a265627a7a723158204c075f90a7ad9b820917cd544a898d5afee879a0161e6eef33bb67be8370103064736f6c63430005100032",
  "source": "/*  Mostly functions from https://compound.finance/developers/ctokens\n    and https://compound.finance/developers/comptroller\n*/\npragma solidity 0.5.16;\n\nimport \"../../interfaces/compound/IComptroller.sol\";\nimport \"../../interfaces/compound/ICEther.sol\";\nimport \"../../interfaces/compound/ICToken.sol\";\n\nimport \"../../interfaces/IERC20.sol\";\n\ncontract CompoundBase {\n    address constant CompoundComptrollerAddress = 0x3d9819210A31b4961b30EF54bE2aeD79B9c9Cd3B;\n    address constant CEtherAddress = 0x4Ddc2D193948926D02f9B1fE9e1daa0718270ED5;\n\n    function sub(uint256 a, uint256 b) internal pure returns (uint256) {\n        require(b <= a, \"safe-math-sub-failed\");\n        uint256 c = a - b;\n\n        return c;\n    }\n\n    function _transferFrom(\n        address sender,\n        address recipient,\n        address cToken,\n        uint amount\n    ) internal {\n        address underlying = ICToken(cToken).underlying();\n        require(\n            IERC20(underlying).transferFrom(sender, recipient, amount),\n            \"cmpnd-mgr-transfer-from-failed\"\n        );\n    }\n\n    function _transfer(\n        address cToken,\n        address recipient,\n        uint amount\n    ) internal {\n        if (cToken == CEtherAddress) {\n            recipient.call.value(amount)(\"\");\n        } else {\n            require(\n                IERC20(ICToken(cToken).underlying()).transfer(recipient, amount),\n                \"cmpnd-mgr-transfer-failed\"\n            );\n        }\n    }\n\n    function enterMarkets(\n        address[] memory cTokens   // Address of the Compound derivation token (e.g. cDAI)\n    ) public {\n        // Enter the compound markets for all the specified tokens\n        uint[] memory errors = IComptroller(CompoundComptrollerAddress).enterMarkets(cTokens);\n\n        for (uint i = 0; i < errors.length; i++) {\n            require(errors[i] == 0, \"cmpnd-mgr-enter-markets-failed\");\n        }\n    }\n\n    function approveCToken(\n        address cToken,\n        uint amount\n    ) public {\n        // Approves CToken contract to call `transferFrom`\n        address underlying = ICToken(cToken).underlying();\n        require(\n            IERC20(underlying).approve(cToken, amount) == true,\n            \"cmpnd-mgr-ctoken-approved-failed\"\n        );\n    }\n\n    function approveCTokens(\n        address[] memory cTokens    // Tokens to approve\n    ) public {\n        for (uint i = 0; i < cTokens.length; i++) {\n            // Don't need to approve ICEther\n            if (cTokens[i] != CEtherAddress) {\n                approveCToken(cTokens[i], uint(-1));\n            }\n        }\n    }\n\n    function enterMarketsAndApproveCTokens(\n        address[] memory cTokens\n    ) public {\n        enterMarkets(cTokens);\n        approveCTokens(cTokens);\n    }\n\n    function supplyETH() public payable {\n        ICEther(CEtherAddress).mint.value(msg.value)();\n    }\n\n    function supply(address cToken, uint amount) public payable {\n        if (cToken == CEtherAddress) {\n            ICEther(CEtherAddress).mint.value(amount)();\n        } else {\n            // Approves CToken contract to call `transferFrom`\n            approveCToken(cToken, amount);\n\n            require(\n              ICToken(cToken).mint(amount) == 0,\n              \"cmpnd-mgr-ctoken-supply-failed\"\n            );\n        }\n    }\n\n    function borrow(address cToken, uint borrowAmount) public {\n        require(ICToken(cToken).borrow(borrowAmount) == 0, \"cmpnd-mgr-ctoken-borrow-failed\");\n    }\n\n    function supplyAndBorrow(\n        address supplyCToken,\n        uint supplyAmount,\n        address borrowCToken,\n        uint borrowAmount\n    ) public payable {\n        supply(supplyCToken, supplyAmount);\n        borrow(borrowCToken, borrowAmount);\n    }\n\n    function supplyETHAndBorrow(\n        address cToken,\n        uint borrowAmount\n    ) public payable {\n        // Supply some Ether\n        supplyETH();\n\n        // Borrow some CTokens\n        borrow(cToken, borrowAmount);\n    }\n\n    function repayBorrow(address cToken, uint amount) public payable {\n        if (cToken == CEtherAddress) {\n            ICEther(cToken).repayBorrow.value(amount)();\n        } else {\n            approveCToken(cToken, amount);\n            require(ICToken(cToken).repayBorrow(amount) == 0, \"cmpnd-mgr-ctoken-repay-failed\");\n        }\n    }\n\n    function repayBorrowBehalf(address recipient, address cToken, uint amount) public payable {\n        if (cToken == CEtherAddress) {\n            ICEther(cToken).repayBorrowBehalf.value(amount)(recipient);\n        } else {\n            approveCToken(cToken, amount);\n            require(ICToken(cToken).repayBorrowBehalf(recipient, amount) == 0, \"cmpnd-mgr-ctoken-repaybehalf-failed\");\n        }\n    }\n\n    function redeem(address cToken, uint redeemTokens) public payable {\n        require(ICToken(cToken).redeem(redeemTokens) == 0, \"cmpnd-mgr-ctoken-redeem-failed\");\n    }\n\n    function redeemUnderlying(address cToken, uint redeemTokens) public payable {\n        require(ICToken(cToken).redeemUnderlying(redeemTokens) == 0, \"cmpnd-mgr-ctoken-redeem-underlying-failed\");\n    }\n\n    // -- Helper functions so proxy doesn't hold any funds, all funds borrowed\n    // or redeemed gets sent to user\n    // User needs to `approve(spender, amount)` before through proxy functions work\n\n    function supplyThroughProxy(\n        address cToken,\n        uint amount\n    ) public payable {\n        // Gets initial CToken balance\n        uint initialBal = ICToken(cToken).balanceOf(address(this));\n\n        // If cToken isn't an ether address, we need to transferFrom\n        // If this fails, users needs to execute `approve(spender, amount)` to this proxy\n        if (cToken != CEtherAddress) {\n            _transferFrom(msg.sender, address(this), cToken, amount);\n        }\n        supply(cToken, amount);\n\n        // Sends CToken back to user\n        uint finalBal = ICToken(cToken).balanceOf(address(this));\n\n        _transfer(cToken, msg.sender, sub(finalBal, initialBal));\n    }\n\n    function repayBorrowThroughProxy(address cToken, uint amount) public payable {\n        if (cToken != CEtherAddress) {\n            _transferFrom(msg.sender, address(this), cToken, amount);\n        }\n        repayBorrow(cToken, amount);\n    }\n\n    function repayBorrowBehalfThroughProxy(address recipient, address cToken, uint amount) public payable {\n        if (cToken != CEtherAddress) {\n            _transferFrom(msg.sender, address(this), cToken, amount);\n        }\n        repayBorrowBehalf(recipient, cToken, amount);\n    }\n\n    function borrowThroughProxy(address cToken, uint amount) public {\n        borrow(cToken, amount);\n        _transfer(cToken, msg.sender, amount);\n    }\n\n    function redeemThroughProxy(\n        address cToken,\n        uint amount\n    ) public payable {\n        redeem(cToken, amount);\n        _transfer(cToken, msg.sender, amount);\n    }\n\n    function redeemUnderlyingThroughProxy(\n        address cToken,\n        uint amount\n    ) public payable {\n        redeemUnderlying(cToken, amount);\n        _transfer(cToken, msg.sender, amount);\n    }\n}\n",
  "sourcePath": "/home/kendrick/Development/Ethereum/dedge/packages/smart-contracts/src/lib/compound/CompoundBase.sol",
  "compiler": {
    "name": "solc",
    "version": "0.5.16+commit.9c3226ce.Emscripten.clang"
  },
  "schemaVersion": "3.0.23",
  "updatedAt": "2020-04-01T11:18:01.799Z",
  "devdoc": {
    "methods": {}
  },
  "userdoc": {
    "methods": {}
  }
}