{
  "contractName": "DACProxyFactory",
  "abi": [
    {
      "inputs": [],
      "payable": false,
      "stateMutability": "nonpayable",
      "type": "constructor"
    },
    {
      "anonymous": false,
      "inputs": [
        {
          "indexed": true,
          "internalType": "address",
          "name": "sender",
          "type": "address"
        },
        {
          "indexed": true,
          "internalType": "address",
          "name": "owner",
          "type": "address"
        },
        {
          "indexed": false,
          "internalType": "address",
          "name": "proxy",
          "type": "address"
        },
        {
          "indexed": false,
          "internalType": "address",
          "name": "cache",
          "type": "address"
        }
      ],
      "name": "Created",
      "type": "event"
    },
    {
      "constant": true,
      "inputs": [],
      "name": "cache",
      "outputs": [
        {
          "internalType": "contract DSProxyCache",
          "name": "",
          "type": "address"
        }
      ],
      "payable": false,
      "stateMutability": "view",
      "type": "function"
    },
    {
      "constant": true,
      "inputs": [],
      "name": "dsGuardFactory",
      "outputs": [
        {
          "internalType": "contract DSGuardFactory",
          "name": "",
          "type": "address"
        }
      ],
      "payable": false,
      "stateMutability": "view",
      "type": "function"
    },
    {
      "constant": true,
      "inputs": [
        {
          "internalType": "address",
          "name": "",
          "type": "address"
        }
      ],
      "name": "proxies",
      "outputs": [
        {
          "internalType": "address",
          "name": "",
          "type": "address"
        }
      ],
      "payable": false,
      "stateMutability": "view",
      "type": "function"
    },
    {
      "constant": false,
      "inputs": [],
      "name": "build",
      "outputs": [
        {
          "internalType": "address payable",
          "name": "proxy",
          "type": "address"
        }
      ],
      "payable": false,
      "stateMutability": "nonpayable",
      "type": "function"
    },
    {
      "constant": false,
      "inputs": [
        {
          "internalType": "address",
          "name": "owner",
          "type": "address"
        }
      ],
      "name": "build",
      "outputs": [
        {
          "internalType": "address payable",
          "name": "",
          "type": "address"
        }
      ],
      "payable": false,
      "stateMutability": "nonpayable",
      "type": "function"
    },
    {
      "constant": false,
      "inputs": [
        {
          "internalType": "address",
          "name": "owner",
          "type": "address"
        },
        {
          "internalType": "address",
          "name": "dedgeCompoundManager",
          "type": "address"
        },
        {
          "internalType": "bytes",
          "name": "enterMarketCalldata",
          "type": "bytes"
        }
      ],
      "name": "buildAndEnterMarkets",
      "outputs": [
        {
          "internalType": "address payable",
          "name": "",
          "type": "address"
        }
      ],
      "payable": false,
      "stateMutability": "nonpayable",
      "type": "function"
    },
    {
      "constant": false,
      "inputs": [
        {
          "internalType": "address",
          "name": "dedgeCompoundManager",
          "type": "address"
        },
        {
          "internalType": "bytes",
          "name": "enterMarketCalldata",
          "type": "bytes"
        }
      ],
      "name": "buildAndEnterMarkets",
      "outputs": [
        {
          "internalType": "address payable",
          "name": "",
          "type": "address"
        }
      ],
      "payable": false,
      "stateMutability": "nonpayable",
      "type": "function"
    }
  ],
  "bytecode": "0x608060405234801561001057600080fd5b5060405161001d906100a8565b604051809103906000f080158015610039573d6000803e3d6000fd5b50600180546001600160a01b0319166001600160a01b0392909216919091179055604051610066906100b5565b604051809103906000f080158015610082573d6000803e3d6000fd5b50600280546001600160a01b0319166001600160a01b03929092169190911790556100c2565b6102658061264083390190565b610aca806128a583390190565b61256f806100d16000396000f3fe60806040523480156200001157600080fd5b5060043610620000885760003560e01c80638e1a55fc11620000635780638e1a55fc1462000182578063c4552791146200018c578063ddd2d6ac14620001b5578063f3701da214620002715762000088565b80632e5c9848146200008d57806360c7d29514620000b35780636456568b14620000bd575b600080fd5b620000976200029a565b604080516001600160a01b039092168252519081900360200190f35b62000097620002a9565b6200009760048036036060811015620000d557600080fd5b6001600160a01b0382358116926020810135909116918101906060810160408201356401000000008111156200010a57600080fd5b8201836020820111156200011d57600080fd5b803590602001918460018302840111640100000000831117156200014057600080fd5b91908080601f016020809104026020016040519081016040528093929190818152602001838380828437600092019190915250929550620002b8945050505050565b6200009762000740565b6200009760048036036020811015620001a457600080fd5b50356001600160a01b031662000752565b6200009760048036036040811015620001cd57600080fd5b6001600160a01b038235169190810190604081016020820135640100000000811115620001f957600080fd5b8201836020820111156200020c57600080fd5b803590602001918460018302840111640100000000831117156200022f57600080fd5b91908080601f0160208091040260200160405190810160405280939291908181526020018383808284376000920191909152509295506200076d945050505050565b62000097600480360360208110156200028957600080fd5b50356001600160a01b03166200077c565b6002546001600160a01b031681565b6001546001600160a01b031681565b6001600160a01b0383811660009081526020819052604081205490911615620002fd57506001600160a01b038084166000908152602081905260409020541662000739565b6001546040516000916001600160a01b0316906200031b9062000a56565b6001600160a01b03909116815260405190819003602001906000f08015801562000349573d6000803e3d6000fd5b50600154604080516001600160a01b038085168252928316602082015281519394509188169233927f259b30ca39885c6d801a0b5dbc988640f3c25e2f37531fe138c5c5af8955d41b92908290030190a3600254604080516365688cc960e01b815290516000926001600160a01b0316916365688cc991600480830192602092919082900301818787803b158015620003e157600080fd5b505af1158015620003f6573d6000803e3d6000fd5b505050506040513d60208110156200040d57600080fd5b5051604080516313af403560e01b81526001600160a01b0385811660048301529151929350908316916313af40359160248082019260009290919082900301818387803b1580156200045e57600080fd5b505af115801562000473573d6000803e3d6000fd5b50505050816001600160a01b0316631cff79cd86866040518363ffffffff1660e01b815260040180836001600160a01b03166001600160a01b0316815260200180602001828103825283818151815260200191508051906020019080838360005b83811015620004ee578181015183820152602001620004d4565b50505050905090810190601f1680156200051c5780820380516001836020036101000a031916815260200191505b509350505050600060405180830381600087803b1580156200053d57600080fd5b505af115801562000552573d6000803e3d6000fd5b505050506040513d6000823e601f3d908101601f1916820160405260208110156200057c57600080fd5b81019080805160405193929190846401000000008211156200059d57600080fd5b908301906020820185811115620005b357600080fd5b8251640100000000811182820188101715620005ce57600080fd5b82525081516020918201929091019080838360005b83811015620005fd578181015183820152602001620005e3565b50505050905090810190601f1680156200062b5780820380516001836020036101000a031916815260200191505b506040818152637a9e5e4b60e01b82526001600160a01b03878116600484015290519088169550637a9e5e4b94506024808301945060009350909182900301818387803b1580156200067c57600080fd5b505af115801562000691573d6000803e3d6000fd5b50505050816001600160a01b03166313af4035876040518263ffffffff1660e01b815260040180826001600160a01b03166001600160a01b03168152602001915050600060405180830381600087803b158015620006ee57600080fd5b505af115801562000703573d6000803e3d6000fd5b505050506001600160a01b03868116600090815260208190526040902080546001600160a01b0319169184169190911790555090505b9392505050565b60006200074d336200077c565b905090565b6000602081905290815260409020546001600160a01b031681565b600062000739338484620002b8565b6001600160a01b0381811660009081526020819052604081205490911615620007c157506001600160a01b038082166000908152602081905260409020541662000a51565b6001546040516000916001600160a01b031690620007df9062000a56565b6001600160a01b03909116815260405190819003602001906000f0801580156200080d573d6000803e3d6000fd5b50600154604080516001600160a01b038085168252928316602082015281519394509186169233927f259b30ca39885c6d801a0b5dbc988640f3c25e2f37531fe138c5c5af8955d41b92908290030190a3600254604080516365688cc960e01b815290516000926001600160a01b0316916365688cc991600480830192602092919082900301818787803b158015620008a557600080fd5b505af1158015620008ba573d6000803e3d6000fd5b505050506040513d6020811015620008d157600080fd5b5051604080516313af403560e01b81526001600160a01b0385811660048301529151929350908316916313af40359160248082019260009290919082900301818387803b1580156200092257600080fd5b505af115801562000937573d6000803e3d6000fd5b50505050816001600160a01b0316637a9e5e4b826040518263ffffffff1660e01b815260040180826001600160a01b03166001600160a01b03168152602001915050600060405180830381600087803b1580156200099457600080fd5b505af1158015620009a9573d6000803e3d6000fd5b50505050816001600160a01b03166313af4035856040518263ffffffff1660e01b815260040180826001600160a01b03166001600160a01b03168152602001915050600060405180830381600087803b15801562000a0657600080fd5b505af115801562000a1b573d6000803e3d6000fd5b505050506001600160a01b03848116600090815260208190526040902080546001600160a01b0319169184169190911790555090505b919050565b611ad68062000a658339019056fe6080604052600380546001600160a01b0319167324a42fd28c976a61df5d00d0599c34c4f90748c81790553480156200003757600080fd5b5060405162001ad638038062001ad68339810160408190526200005a9162000320565b600180546001600160a01b0319163390811782556040517fce241d7ca1f669fee44b6fc00b8eba2df3bb514eed0f6f668f8f89096e81ed9490600090a2620000ab816001600160e01b03620000ca16565b50620000c29050816001600160e01b03620000ca16565b505062000543565b600062000104337fffffffff000000000000000000000000000000000000000000000000000000008335166001600160e01b036200020316565b62000146576040517f08c379a00000000000000000000000000000000000000000000000000000000081526004016200013d9062000467565b60405180910390fd5b60405160043590602435903490829084903390600080357fffffffff0000000000000000000000000000000000000000000000000000000016916200018f91879136906200048b565b60405180910390a46001600160a01b038516620001da576040517f08c379a00000000000000000000000000000000000000000000000000000000081526004016200013d9062000479565b600280546001600160a01b0387166001600160a01b031990911617905560019350505050919050565b60006001600160a01b038316301415620002205750600162000300565b6001546001600160a01b0384811691161415620002405750600162000300565b6000546001600160a01b03166200025a5750600062000300565b6000546040517fb70096130000000000000000000000000000000000000000000000000000000081526001600160a01b039091169063b700961390620002a99086903090879060040162000439565b60206040518083038186803b158015620002c257600080fd5b505afa158015620002d7573d6000803e3d6000fd5b505050506040513d601f19601f82011682018060405250620002fd919081019062000349565b90505b92915050565b805162000300816200051e565b8051620003008162000538565b6000602082840312156200033357600080fd5b600062000341848462000306565b949350505050565b6000602082840312156200035c57600080fd5b600062000341848462000313565b6200037581620004c2565b82525050565b6200037581620004d4565b6000620003948385620004b9565b9350620003a383858462000508565b620003ae8362000514565b9093019392505050565b6000620003c7601483620004b9565b7f64732d617574682d756e617574686f72697a6564000000000000000000000000815260200192915050565b600062000402601f83620004b9565b7f64732d70726f78792d63616368652d616464726573732d726571756972656400815260200192915050565b620003758162000505565b606081016200044982866200036a565b6200045860208301856200036a565b6200034160408301846200037b565b602080825281016200030081620003b8565b602080825281016200030081620003f3565b604081016200049b82866200042e565b8181036020830152620004b081848662000386565b95945050505050565b90815260200190565b60006200030082620004f9565b151590565b7fffffffff000000000000000000000000000000000000000000000000000000001690565b6001600160a01b031690565b90565b82818337506000910152565b601f01601f191690565b6200052981620004c2565b81146200053557600080fd5b50565b6200052981620004cf565b61158380620005536000396000f3fe6080604052600436106100915760003560e01c80638da5cb5b116100595780638da5cb5b1461013f578063948f507614610161578063bf7e214f1461018e578063c72c4d10146101a3578063ee872558146101b857610091565b806313af4035146100935780631cff79cd146100b35780631f6a1eb9146100dc57806360c7d295146100fd5780637a9e5e4b1461011f575b005b34801561009f57600080fd5b506100916100ae366004610f07565b6101d8565b6100c66100c1366004610f4b565b610263565b6040516100d39190611372565b60405180910390f35b6100ef6100ea366004611039565b610347565b6040516100d3929190611344565b34801561010957600080fd5b50610112610475565b6040516100d39190611383565b34801561012b57600080fd5b5061009161013a36600461106f565b610484565b34801561014b57600080fd5b50610154610502565b6040516100d391906112f3565b34801561016d57600080fd5b5061018161017c366004610f07565b610511565b6040516100d39190611364565b34801561019a57600080fd5b506101126105cb565b3480156101af57600080fd5b506101126105da565b3480156101c457600080fd5b506100916101d3366004610f9d565b6105e9565b6101ee336000356001600160e01b031916610a21565b6102135760405162461bcd60e51b815260040161020a90611391565b60405180910390fd5b600180546001600160a01b0319166001600160a01b0383811691909117918290556040519116907fce241d7ca1f669fee44b6fc00b8eba2df3bb514eed0f6f668f8f89096e81ed9490600090a250565b606061027b336000356001600160e01b031916610a21565b6102975760405162461bcd60e51b815260040161020a90611391565b60405160043590602435903490829084903390600080356001600160e01b031916916102c691879136906113ff565b60405180910390a46001600160a01b0386166102f45760405162461bcd60e51b815260040161020a906113c1565b600080865160208801896113885a03f43d6040519550601f19601f6020830101168601604052808652806000602088013e8115600181146103345761033b565b8160208801fd5b50505050505092915050565b6002546040516322fd145760e21b81526000916060916001600160a01b0390911690638bf4515c9061037d908790600401611372565b60206040518083038186803b15801561039557600080fd5b505afa1580156103a9573d6000803e3d6000fd5b505050506040513d601f19601f820116820180604052506103cd9190810190610f2d565b91506001600160a01b03821661046257600254604051633f6861d960e11b81526001600160a01b0390911690637ed0c3b29061040d908790600401611372565b602060405180830381600087803b15801561042757600080fd5b505af115801561043b573d6000803e3d6000fd5b505050506040513d601f19601f8201168201806040525061045f9190810190610f2d565b91505b61046c8284610263565b90509250929050565b6002546001600160a01b031681565b61049a336000356001600160e01b031916610a21565b6104b65760405162461bcd60e51b815260040161020a90611391565b600080546001600160a01b0319166001600160a01b03838116919091178083556040519116917f1abebea81bfa2637f28358c371278fb15ede7ea8dd28d2e03b112ff6d936ada491a250565b6001546001600160a01b031681565b6000610529336000356001600160e01b031916610a21565b6105455760405162461bcd60e51b815260040161020a90611391565b60405160043590602435903490829084903390600080356001600160e01b0319169161057491879136906113ff565b60405180910390a46001600160a01b0385166105a25760405162461bcd60e51b815260040161020a906113e1565b600280546001600160a01b0387166001600160a01b031990911617905560019350505050919050565b6000546001600160a01b031681565b6003546001600160a01b031681565b6105ff336000356001600160e01b031916610a21565b61061b5760405162461bcd60e51b815260040161020a90611391565b600061062e84600263ffffffff610aff16565b9050600061067484848080601f016020809104026020016040519081016040528093929190818152602001838380828437600092019190915250600c9250610b41915050565b905060606106bd85858080601f0160208091040260200160405190810160405280939291908181526020018383808284376000920191909152506020925060049150610b779050565b9050606061070386868080601f01602080910402602001604051908101604052809392919081815260200183838082843760009201919091525060849250610c0c915050565b90506060828960405160200161071991906113f1565b6040516020818303038152906040528960405160200161073991906113f1565b6040516020818303038152906040528760405160200161075991906113f1565b60408051601f198184030181529082905261077b9493929187906020016112a1565b60405160208183030381529060405290506107968482610263565b5073eeeeeeeeeeeeeeeeeeeeeeeeeeeeeeeeeeeeeeee6001600160a01b038b1614156108b15773773ccbfb422850617a5680d40b1260422d072f416107e286600263ffffffff610aff16565b6040516107ee906112e8565b60006040518083038185875af1925050503d806000811461082b576040519150601f19603f3d011682016040523d82523d6000602084013e610830565b606091505b5073abccb8f0a3c206bb0468c52ccc20f3b81077417b915061085b905086600263ffffffff610aff16565b604051610867906112e8565b60006040518083038185875af1925050503d80600081146108a4576040519150601f19603f3d011682016040523d82523d6000602084013e6108a9565b606091505b5050506109fc565b6001600160a01b038a1663a9059cbb73773ccbfb422850617a5680d40b1260422d072f416108e688600263ffffffff610aff16565b6040518363ffffffff1660e01b8152600401610903929190611301565b602060405180830381600087803b15801561091d57600080fd5b505af1158015610931573d6000803e3d6000fd5b505050506040513d601f19601f82011682018060405250610955919081019061101b565b506001600160a01b038a1663a9059cbb73abccb8f0a3c206bb0468c52ccc20f3b81077417b61098b88600263ffffffff610aff16565b6040518363ffffffff1660e01b81526004016109a8929190611301565b602060405180830381600087803b1580156109c257600080fd5b505af11580156109d6573d6000803e3d6000fd5b505050506040513d601f19601f820116820180604052506109fa919081019061101b565b505b610a158a610a108b8b63ffffffff610c3c16565b610c61565b50505050505050505050565b60006001600160a01b038316301415610a3c57506001610af9565b6001546001600160a01b0384811691161415610a5a57506001610af9565b6000546001600160a01b0316610a7257506000610af9565b60005460405163b700961360e01b81526001600160a01b039091169063b700961390610aa69086903090879060040161131c565b60206040518083038186803b158015610abe57600080fd5b505afa158015610ad2573d6000803e3d6000fd5b505050506040513d601f19601f82011682018060405250610af6919081019061101b565b90505b92915050565b6000610af683836040518060400160405280601a81526020017f536166654d6174683a206469766973696f6e206279207a65726f000000000000815250610cf0565b60008160140183511015610b675760405162461bcd60e51b815260040161020a906113b1565b500160200151600160601b900490565b606081830184511015610b9c5760405162461bcd60e51b815260040161020a906113d1565b606082158015610bb757604051915060208201604052610c01565b6040519150601f8416801560200281840101858101878315602002848b0101015b81831015610bf0578051835260209283019201610bd8565b5050858452601f01601f1916604052505b5090505b9392505050565b606082518210610c2e5760405162461bcd60e51b815260040161020a906113d1565b610af6838384865103610b77565b600082820183811015610af65760405162461bcd60e51b815260040161020a906113a1565b6003546040805163076b7fbb60e51b815290516000926001600160a01b03169163ed6ff760916004808301926020929190829003018186803b158015610ca657600080fd5b505afa158015610cba573d6000803e3d6000fd5b505050506040513d601f19601f82011682018060405250610cde9190810190610f2d565b9050610ceb818484610d27565b505050565b60008183610d115760405162461bcd60e51b815260040161020a9190611372565b506000838581610d1d57fe5b0495945050505050565b6001600160a01b03821673eeeeeeeeeeeeeeeeeeeeeeeeeeeeeeeeeeeeeeee1415610dad57826001600160a01b031681604051610d63906112e8565b60006040518083038185875af1925050503d8060008114610da0576040519150601f19603f3d011682016040523d82523d6000602084013e610da5565b606091505b505050610ceb565b60405163a9059cbb60e01b81526001600160a01b0383169063a9059cbb90610ddb9086908590600401611301565b602060405180830381600087803b158015610df557600080fd5b505af1158015610e09573d6000803e3d6000fd5b505050506040513d601f19601f82011682018060405250610e2d919081019061101b565b50505050565b8035610af98161150e565b8051610af98161150e565b8051610af981611525565b60008083601f840112610e6657600080fd5b50813567ffffffffffffffff811115610e7e57600080fd5b602083019150836001820283011115610e9657600080fd5b9250929050565b600082601f830112610eae57600080fd5b8135610ec1610ebc82611450565b611429565b91508082526020830160208301858383011115610edd57600080fd5b610ee88382846114cc565b50505092915050565b8035610af98161152e565b8035610af981611537565b600060208284031215610f1957600080fd5b6000610f258484610e33565b949350505050565b600060208284031215610f3f57600080fd5b6000610f258484610e3e565b60008060408385031215610f5e57600080fd5b6000610f6a8585610e33565b925050602083013567ffffffffffffffff811115610f8757600080fd5b610f9385828601610e9d565b9150509250929050565b600080600080600060808688031215610fb557600080fd5b6000610fc18888610e33565b9550506020610fd288828901610efc565b9450506040610fe388828901610efc565b935050606086013567ffffffffffffffff81111561100057600080fd5b61100c88828901610e54565b92509250509295509295909350565b60006020828403121561102d57600080fd5b6000610f258484610e49565b6000806040838503121561104c57600080fd5b823567ffffffffffffffff81111561106357600080fd5b610f6a85828601610e9d565b60006020828403121561108157600080fd5b6000610f258484610ef1565b611096816114c1565b82525050565b6110968161148a565b61109681611495565b6110968161149a565b60006110c3838561147c565b93506110d08385846114cc565b6110d983611504565b9093019392505050565b60006110ee82611478565b6110f8818561147c565b93506111088185602086016114d8565b6110d981611504565b600061111c82611478565b6111268185611485565b93506111368185602086016114d8565b9290920192915050565b611096816114a7565b600061115660148361147c565b73191ccb585d5d1a0b5d5b985d5d1a1bdc9a5e995960621b815260200192915050565b6000611186601b8361147c565b7f536166654d6174683a206164646974696f6e206f766572666c6f770000000000815260200192915050565b60006111bf60128361147c565b7152656164206f7574206f6620626f756e647360701b815260200192915050565b60006111ed60208361147c565b7f64732d70726f78792d7461726765742d616464726573732d7265717569726564815260200192915050565b6000610af9600083611485565b600061123360188361147c565b7f62797465732d726561642d6f75742d6f662d626f756e64730000000000000000815260200192915050565b600061126c601f8361147c565b7f64732d70726f78792d63616368652d616464726573732d726571756972656400815260200192915050565b611096816114be565b60006112ad8288611111565b91506112b98287611111565b91506112c58286611111565b91506112d18285611111565b91506112dd8284611111565b979650505050505050565b6000610af982611219565b60208101610af9828461109c565b6040810161130f828561108d565b610c056020830184611298565b6060810161132a828661109c565b611337602083018561109c565b610f2560408301846110ae565b60408101611352828561109c565b8181036020830152610f2581846110e3565b60208101610af982846110a5565b60208082528101610af681846110e3565b60208101610af98284611140565b60208082528101610af981611149565b60208082528101610af981611179565b60208082528101610af9816111b2565b60208082528101610af9816111e0565b60208082528101610af981611226565b60208082528101610af98161125f565b60208101610af98284611298565b6040810161140d8286611298565b81810360208301526114208184866110b7565b95945050505050565b60405181810167ffffffffffffffff8111828210171561144857600080fd5b604052919050565b600067ffffffffffffffff82111561146757600080fd5b506020601f91909101601f19160190565b5190565b90815260200190565b919050565b6000610af9826114b2565b151590565b6001600160e01b03191690565b6000610af98261148a565b6001600160a01b031690565b90565b6000610af9826114a7565b82818337506000910152565b60005b838110156114f35781810151838201526020016114db565b83811115610e2d5750506000910152565b601f01601f191690565b6115178161148a565b811461152257600080fd5b50565b61151781611495565b611517816114a7565b611517816114be56fea365627a7a72315820ca2aaf531ed3d692639fd8240fdf5db1c3918dc58f88e738d42af9ed907877fd6c6578706572696d656e74616cf564736f6c63430005100040a265627a7a7231582043f1a50ec1e4e2ef45a34295bf027a6c3d74f923722dfa14858f73dcf0dfd23164736f6c63430005100032608060405234801561001057600080fd5b50610245806100206000396000f3fe608060405234801561001057600080fd5b50600436106100365760003560e01c80637ed0c3b21461003b5780638bf4515c146100fd575b600080fd5b6100e16004803603602081101561005157600080fd5b81019060208101813564010000000081111561006c57600080fd5b82018360208201111561007e57600080fd5b803590602001918460018302840111640100000000831117156100a057600080fd5b91908080601f0160208091040260200160405190810160405280939291908181526020018383808284376000920191909152509295506101a3945050505050565b604080516001600160a01b039092168252519081900360200190f35b6100e16004803603602081101561011357600080fd5b81019060208101813564010000000081111561012e57600080fd5b82018360208201111561014057600080fd5b8035906020019184600183028401116401000000008311171561016257600080fd5b91908080601f0160208091040260200160405190810160405280939291908181526020018383808284376000920191909152509295506101ee945050505050565b60008151602083016000f09050803b156001811461003657508151602092830120600090815291829052604090912080546001600160a01b0319166001600160a01b03831617905590565b805160209182012060009081529081905260409020546001600160a01b03169056fea265627a7a72315820a463b0981db8e6a179d563cefded0ff7df019aaf804d14d24bb7b25be7d3dd6f64736f6c63430005100032608060405234801561001057600080fd5b50610aaa806100206000396000f3fe608060405234801561001057600080fd5b50600436106100365760003560e01c8063489c12021461003b57806365688cc914610075575b600080fd5b6100616004803603602081101561005157600080fd5b50356001600160a01b0316610099565b604080519115158252519081900360200190f35b61007d6100ae565b604080516001600160a01b039092168252519081900360200190f35b60006020819052908152604090205460ff1681565b60006040516100bc90610162565b604051809103906000f0801580156100d8573d6000803e3d6000fd5b50604080516313af403560e01b815233600482015290519192506001600160a01b038316916313af40359160248082019260009290919082900301818387803b15801561012457600080fd5b505af1158015610138573d6000803e3d6000fd5b5050506001600160a01b0382166000908152602081905260409020805460ff191660011790555090565b610906806101708339019056fe60806040819052600180546001600160a01b03191633908117909155907fce241d7ca1f669fee44b6fc00b8eba2df3bb514eed0f6f668f8f89096e81ed9490600090a26108b5806100516000396000f3fe608060405234801561001057600080fd5b506004361061009e5760003560e01c8063a8542f6611610066578063a8542f6614610174578063b70096131461018e578063bf7e214f146101e3578063cbeea68c146101eb578063f0217ce5146102215761009e565b806313af4035146100a35780632bc3217d146100cb57806379d88d87146101015780637a9e5e4b1461012a5780638da5cb5b14610150575b600080fd5b6100c9600480360360208110156100b957600080fd5b50356001600160a01b031661024a565b005b6100c9600480360360608110156100e157600080fd5b506001600160a01b038135811691602081013590911690604001356102f8565b6100c96004803603606081101561011757600080fd5b5080359060208101359060400135610322565b6100c96004803603602081101561014057600080fd5b50356001600160a01b03166103d9565b610158610483565b604080516001600160a01b039092168252519081900360200190f35b61017c610492565b60408051918252519081900360200190f35b6101cf600480360360608110156101a457600080fd5b5080356001600160a01b0390811691602081013590911690604001356001600160e01b031916610498565b604080519115158252519081900360200190f35b6101586106ad565b6100c96004803603606081101561020157600080fd5b506001600160a01b038135811691602081013590911690604001356106bc565b6100c96004803603606081101561023757600080fd5b50803590602081013590604001356106dd565b610260336000356001600160e01b031916610797565b6102a8576040805162461bcd60e51b8152602060048201526014602482015273191ccb585d5d1a0b5d5b985d5d1a1bdc9a5e995960621b604482015290519081900360640190fd5b600180546001600160a01b0319166001600160a01b0383811691909117918290556040519116907fce241d7ca1f669fee44b6fc00b8eba2df3bb514eed0f6f668f8f89096e81ed9490600090a250565b61031d8360601b6001600160601b0319168360601b6001600160601b03191683610322565b505050565b610338336000356001600160e01b031916610797565b610380576040805162461bcd60e51b8152602060048201526014602482015273191ccb585d5d1a0b5d5b985d5d1a1bdc9a5e995960621b604482015290519081900360640190fd5b60008381526002602090815260408083208584528252808320848452909152808220805460ff19169055518291849186917f95ba64c95d85e67ac83a0476c4a62ac2cf8ab2d0407545b8c9d79c3eefa6282991a4505050565b6103ef336000356001600160e01b031916610797565b610437576040805162461bcd60e51b8152602060048201526014602482015273191ccb585d5d1a0b5d5b985d5d1a1bdc9a5e995960621b604482015290519081900360640190fd5b600080546001600160a01b0319166001600160a01b03838116919091178083556040519116917f1abebea81bfa2637f28358c371278fb15ede7ea8dd28d2e03b112ff6d936ada491a250565b6001546001600160a01b031681565b60001981565b6bffffffffffffffffffffffff19606084811b821660008181526002602090815260408083209488901b9095168083529381528482206001600160e01b03198716835290529283205490919060ff1680610515575060008281526002602090815260408083208484528252808320600019845290915290205460ff165b8061054d57506000828152600260209081526040808320600019845282528083206001600160e01b03198816845290915290205460ff165b80610578575060008281526002602090815260408083206000198452825280832090915290205460ff165b806105c5575060008181527f38b5b2ceac7637132d27514ffcf440b705287635075af7b8bd5adcaa6a4cc5bb602090815260408083206001600160e01b03198816845290915290205460ff165b8061060a575060008181527f38b5b2ceac7637132d27514ffcf440b705287635075af7b8bd5adcaa6a4cc5bb60209081526040808320600019845290915290205460ff165b8061064d57506001600160e01b0319841660009081527f47fa60fbc027ac3984ea309688a33182f4193c478b40ba8d294eb2cd3ddc4d97602052604090205460ff165b806106a357506000196000527f47fa60fbc027ac3984ea309688a33182f4193c478b40ba8d294eb2cd3ddc4d976020527ff423d1317b37667cd26005728bffa7c8b0499e133951fcf8e814d4fc5f4c98f65460ff165b9695505050505050565b6000546001600160a01b031681565b61031d8360601b6001600160601b0319168360601b6001600160601b031916835b6106f3336000356001600160e01b031916610797565b61073b576040805162461bcd60e51b8152602060048201526014602482015273191ccb585d5d1a0b5d5b985d5d1a1bdc9a5e995960621b604482015290519081900360640190fd5b60008381526002602090815260408083208584528252808320848452909152808220805460ff19166001179055518291849186917f6f50375045128971c5469d343039ba7b8e30a5b190453737b28bda6f7a30677191a4505050565b60006001600160a01b0383163014156107b25750600161087a565b6001546001600160a01b03848116911614156107d05750600161087a565b6000546001600160a01b03166107e85750600061087a565b6000546040805163b700961360e01b81526001600160a01b0386811660048301523060248301526001600160e01b0319861660448301529151919092169163b7009613916064808301926020929190829003018186803b15801561084b57600080fd5b505afa15801561085f573d6000803e3d6000fd5b505050506040513d602081101561087557600080fd5b505190505b9291505056fea265627a7a7231582002f13cb32032449838808dd8f202e7345ece3907f6e1ea30707f04c2b7b30b2764736f6c63430005100032a265627a7a72315820d678cbdfcf20396599f1aaece9d90f67e09d88474e21bc810c1c6f4bd1f40fc964736f6c63430005100032",
  "source": "pragma solidity 0.5.16;\n\nimport \"./DACProxy.sol\";\n\nimport \"../lib/dapphub/Guard.sol\";\n\nimport \"../interfaces/compound/IComptroller.sol\";\n\ncontract DACProxyFactory {\n    event Created(address indexed sender, address indexed owner, address proxy, address cache);\n\n    mapping(address=>address) public proxies;\n\n    DSProxyCache public cache;\n    DSGuardFactory public dsGuardFactory;\n\n    constructor() public {\n        cache = new DSProxyCache();\n        dsGuardFactory = new DSGuardFactory();\n    }\n\n    // deploys a new proxy instance\n    // sets owner of proxy to caller\n    function build() public returns (address payable proxy) {\n        proxy = build(msg.sender);\n    }\n\n    // deploys a new proxy instance\n    // creates a new guard\n    // sets custom owner of proxy\n    function build(address owner) public returns (address payable) {\n        // If user already has a proxy build, return that instead\n        if (proxies[owner] != address(0)) {\n            return address(uint160(proxies[owner]));\n        }\n\n        address payable proxy = address(new DACProxy(address(cache)));\n        emit Created(msg.sender, owner, address(proxy), address(cache));\n\n        DSGuard guard = dsGuardFactory.newGuard();\n        guard.setOwner(proxy);  // Guard belongs to proxy\n\n        DACProxy(proxy).setAuthority(guard);\n        DACProxy(proxy).setOwner(owner);\n\n        proxies[owner] = proxy;\n\n        return proxy;\n    }\n\n    // Compound-specific code to enter markets upon proxy creation\n    // So user has to perform less TX\n    function buildAndEnterMarkets(\n        address dedgeCompoundManager,\n        bytes memory enterMarketCalldata\n    ) public returns (address payable) {\n        return buildAndEnterMarkets(msg.sender, dedgeCompoundManager, enterMarketCalldata);\n    }\n\n    function buildAndEnterMarkets(\n        address owner,\n        address dedgeCompoundManager,\n        bytes memory enterMarketCalldata\n    ) public returns (address payable) {\n        // If user already has a proxy build, return that instead\n        if (proxies[owner] != address(0)) {\n            return address(uint160(proxies[owner]));\n        }\n\n        address payable proxy = address(new DACProxy(address(cache)));\n        emit Created(msg.sender, owner, address(proxy), address(cache));\n\n        DSGuard guard = dsGuardFactory.newGuard();\n        guard.setOwner(proxy);  // Guard belongs to proxy\n\n        // Enter markets via proxy\n        DACProxy(proxy).execute(\n            dedgeCompoundManager,\n            enterMarketCalldata\n        );\n\n        DACProxy(proxy).setAuthority(guard);\n        DACProxy(proxy).setOwner(owner);\n\n        proxies[owner] = proxy;\n\n        return proxy;\n    }\n}",
  "sourcePath": "/home/kendrick/Development/Ethereum/dedge/packages/smart-contracts/src/proxies/DACProxyFactory.sol",
  "compiler": {
    "name": "solc",
    "version": "0.5.16+commit.9c3226ce.Emscripten.clang"
  },
  "schemaVersion": "3.0.23",
  "updatedAt": "2020-04-03T06:28:59.247Z",
  "networkType": "ethereum",
  "devdoc": {
    "methods": {}
  },
  "userdoc": {
    "methods": {}
  }
}