{
  "contractName": "DACProxyFactory",
  "abi": [
    {
      "inputs": [],
      "payable": false,
      "stateMutability": "nonpayable",
      "type": "constructor"
    },
    {
      "anonymous": false,
      "inputs": [
        {
          "indexed": true,
          "internalType": "address",
          "name": "sender",
          "type": "address"
        },
        {
          "indexed": true,
          "internalType": "address",
          "name": "owner",
          "type": "address"
        },
        {
          "indexed": false,
          "internalType": "address",
          "name": "proxy",
          "type": "address"
        },
        {
          "indexed": false,
          "internalType": "address",
          "name": "cache",
          "type": "address"
        }
      ],
      "name": "Created",
      "type": "event"
    },
    {
      "constant": true,
      "inputs": [],
      "name": "cache",
      "outputs": [
        {
          "internalType": "contract DSProxyCache",
          "name": "",
          "type": "address"
        }
      ],
      "payable": false,
      "stateMutability": "view",
      "type": "function"
    },
    {
      "constant": true,
      "inputs": [],
      "name": "dsGuardFactory",
      "outputs": [
        {
          "internalType": "contract DSGuardFactory",
          "name": "",
          "type": "address"
        }
      ],
      "payable": false,
      "stateMutability": "view",
      "type": "function"
    },
    {
      "constant": true,
      "inputs": [
        {
          "internalType": "address",
          "name": "",
          "type": "address"
        }
      ],
      "name": "proxies",
      "outputs": [
        {
          "internalType": "address",
          "name": "",
          "type": "address"
        }
      ],
      "payable": false,
      "stateMutability": "view",
      "type": "function"
    },
    {
      "constant": false,
      "inputs": [],
      "name": "build",
      "outputs": [
        {
          "internalType": "address payable",
          "name": "proxy",
          "type": "address"
        }
      ],
      "payable": false,
      "stateMutability": "nonpayable",
      "type": "function"
    },
    {
      "constant": false,
      "inputs": [
        {
          "internalType": "address",
          "name": "owner",
          "type": "address"
        }
      ],
      "name": "build",
      "outputs": [
        {
          "internalType": "address payable",
          "name": "proxy",
          "type": "address"
        }
      ],
      "payable": false,
      "stateMutability": "nonpayable",
      "type": "function"
    }
  ],
  "bytecode": "0x608060405234801561001057600080fd5b5060405161001d906100e8565b604051809103906000f080158015610039573d6000803e3d6000fd5b50600160006101000a81548173ffffffffffffffffffffffffffffffffffffffff021916908373ffffffffffffffffffffffffffffffffffffffff160217905550604051610086906100f5565b604051809103906000f0801580156100a2573d6000803e3d6000fd5b50600260006101000a81548173ffffffffffffffffffffffffffffffffffffffff021916908373ffffffffffffffffffffffffffffffffffffffff160217905550610102565b6103548061305683390190565b6113d9806133aa83390190565b612f45806101116000396000f3fe60806040523480156200001157600080fd5b50600436106200005e5760003560e01c80632e5c9848146200006357806360c7d29514620000af5780638e1a55fc14620000fb578063c45527911462000147578063f3701da214620001ce575b600080fd5b6200006d62000255565b604051808273ffffffffffffffffffffffffffffffffffffffff1673ffffffffffffffffffffffffffffffffffffffff16815260200191505060405180910390f35b620000b96200027b565b604051808273ffffffffffffffffffffffffffffffffffffffff1673ffffffffffffffffffffffffffffffffffffffff16815260200191505060405180910390f35b62000105620002a1565b604051808273ffffffffffffffffffffffffffffffffffffffff1673ffffffffffffffffffffffffffffffffffffffff16815260200191505060405180910390f35b6200018c600480360360208110156200015f57600080fd5b81019080803573ffffffffffffffffffffffffffffffffffffffff169060200190929190505050620002b3565b604051808273ffffffffffffffffffffffffffffffffffffffff1673ffffffffffffffffffffffffffffffffffffffff16815260200191505060405180910390f35b6200021360048036036020811015620001e657600080fd5b81019080803573ffffffffffffffffffffffffffffffffffffffff169060200190929190505050620002e6565b604051808273ffffffffffffffffffffffffffffffffffffffff1673ffffffffffffffffffffffffffffffffffffffff16815260200191505060405180910390f35b600260009054906101000a900473ffffffffffffffffffffffffffffffffffffffff1681565b600160009054906101000a900473ffffffffffffffffffffffffffffffffffffffff1681565b6000620002ae33620002e6565b905090565b60006020528060005260406000206000915054906101000a900473ffffffffffffffffffffffffffffffffffffffff1681565b6000600160009054906101000a900473ffffffffffffffffffffffffffffffffffffffff16604051620003199062000750565b808273ffffffffffffffffffffffffffffffffffffffff1673ffffffffffffffffffffffffffffffffffffffff168152602001915050604051809103906000f0801580156200036c573d6000803e3d6000fd5b5090508173ffffffffffffffffffffffffffffffffffffffff163373ffffffffffffffffffffffffffffffffffffffff167f259b30ca39885c6d801a0b5dbc988640f3c25e2f37531fe138c5c5af8955d41b83600160009054906101000a900473ffffffffffffffffffffffffffffffffffffffff16604051808373ffffffffffffffffffffffffffffffffffffffff1673ffffffffffffffffffffffffffffffffffffffff1681526020018273ffffffffffffffffffffffffffffffffffffffff1673ffffffffffffffffffffffffffffffffffffffff1681526020019250505060405180910390a36000600260009054906101000a900473ffffffffffffffffffffffffffffffffffffffff1673ffffffffffffffffffffffffffffffffffffffff166365688cc96040518163ffffffff1660e01b8152600401602060405180830381600087803b158015620004c357600080fd5b505af1158015620004d8573d6000803e3d6000fd5b505050506040513d6020811015620004ef57600080fd5b810190808051906020019092919050505090508073ffffffffffffffffffffffffffffffffffffffff166313af4035836040518263ffffffff1660e01b8152600401808273ffffffffffffffffffffffffffffffffffffffff1673ffffffffffffffffffffffffffffffffffffffff168152602001915050600060405180830381600087803b1580156200058257600080fd5b505af115801562000597573d6000803e3d6000fd5b505050508173ffffffffffffffffffffffffffffffffffffffff16637a9e5e4b826040518263ffffffff1660e01b8152600401808273ffffffffffffffffffffffffffffffffffffffff1673ffffffffffffffffffffffffffffffffffffffff168152602001915050600060405180830381600087803b1580156200061b57600080fd5b505af115801562000630573d6000803e3d6000fd5b505050508173ffffffffffffffffffffffffffffffffffffffff166313af4035846040518263ffffffff1660e01b8152600401808273ffffffffffffffffffffffffffffffffffffffff1673ffffffffffffffffffffffffffffffffffffffff168152602001915050600060405180830381600087803b158015620006b457600080fd5b505af1158015620006c9573d6000803e3d6000fd5b50505050816000808573ffffffffffffffffffffffffffffffffffffffff1673ffffffffffffffffffffffffffffffffffffffff16815260200190815260200160002060006101000a81548173ffffffffffffffffffffffffffffffffffffffff021916908373ffffffffffffffffffffffffffffffffffffffff16021790555050919050565b6127b2806200075f8339019056fe60806040527324a42fd28c976a61df5d00d0599c34c4f90748c8600360006101000a81548173ffffffffffffffffffffffffffffffffffffffff021916908373ffffffffffffffffffffffffffffffffffffffff1602179055503480156200006657600080fd5b50604051620027b2380380620027b283398181016040526200008c9190810190620004f2565b600133600160006101000a81548173ffffffffffffffffffffffffffffffffffffffff021916908373ffffffffffffffffffffffffffffffffffffffff1602179055503373ffffffffffffffffffffffffffffffffffffffff167fce241d7ca1f669fee44b6fc00b8eba2df3bb514eed0f6f668f8f89096e81ed9460405160405180910390a262000123816200013e60201b60201c565b505062000136816200013e60201b60201c565b5050620007d7565b600062000176336000357fffffffff00000000000000000000000000000000000000000000000000000000166200030460201b60201c565b620001b8576040517f08c379a0000000000000000000000000000000000000000000000000000000008152600401620001af9062000671565b60405180910390fd5b60008060006004359250602435915034905081833373ffffffffffffffffffffffffffffffffffffffff166000357fffffffff00000000000000000000000000000000000000000000000000000000167bffffffffffffffffffffffffffffffffffffffffffffffffffffffff1916846000366040516200023c93929190620006b5565b60405180910390a4600073ffffffffffffffffffffffffffffffffffffffff168573ffffffffffffffffffffffffffffffffffffffff161415620002b7576040517f08c379a0000000000000000000000000000000000000000000000000000000008152600401620002ae9062000693565b60405180910390fd5b84600260006101000a81548173ffffffffffffffffffffffffffffffffffffffff021916908373ffffffffffffffffffffffffffffffffffffffff16021790555060019350505050919050565b60003073ffffffffffffffffffffffffffffffffffffffff168373ffffffffffffffffffffffffffffffffffffffff161415620003455760019050620004be565b600160009054906101000a900473ffffffffffffffffffffffffffffffffffffffff1673ffffffffffffffffffffffffffffffffffffffff168373ffffffffffffffffffffffffffffffffffffffff161415620003a65760019050620004be565b600073ffffffffffffffffffffffffffffffffffffffff166000809054906101000a900473ffffffffffffffffffffffffffffffffffffffff1673ffffffffffffffffffffffffffffffffffffffff161415620004075760009050620004be565b6000809054906101000a900473ffffffffffffffffffffffffffffffffffffffff1673ffffffffffffffffffffffffffffffffffffffff1663b70096138430856040518463ffffffff1660e01b8152600401620004679392919062000634565b60206040518083038186803b1580156200048057600080fd5b505afa15801562000495573d6000803e3d6000fd5b505050506040513d601f19601f82011682018060405250620004bb91908101906200051e565b90505b92915050565b600081519050620004d581620007a3565b92915050565b600081519050620004ec81620007bd565b92915050565b6000602082840312156200050557600080fd5b60006200051584828501620004c4565b91505092915050565b6000602082840312156200053157600080fd5b60006200054184828501620004db565b91505092915050565b62000555816200070d565b82525050565b62000566816200072d565b82525050565b60006200057a8385620006eb565b93506200058983858462000783565b620005948362000792565b840190509392505050565b6000620005ae601483620006fc565b91507f64732d617574682d756e617574686f72697a65640000000000000000000000006000830152602082019050919050565b6000620005f0601f83620006fc565b91507f64732d70726f78792d63616368652d616464726573732d7265717569726564006000830152602082019050919050565b6200062e8162000779565b82525050565b60006060820190506200064b60008301866200054a565b6200065a60208301856200054a565b6200066960408301846200055b565b949350505050565b600060208201905081810360008301526200068c816200059f565b9050919050565b60006020820190508181036000830152620006ae81620005e1565b9050919050565b6000604082019050620006cc600083018662000623565b8181036020830152620006e18184866200056c565b9050949350505050565b600082825260208201905092915050565b600082825260208201905092915050565b60006200071a8262000759565b9050919050565b60008115159050919050565b60007fffffffff0000000000000000000000000000000000000000000000000000000082169050919050565b600073ffffffffffffffffffffffffffffffffffffffff82169050919050565b6000819050919050565b82818337600083830152505050565b6000601f19601f8301169050919050565b620007ae816200070d565b8114620007ba57600080fd5b50565b620007c88162000721565b8114620007d457600080fd5b50565b611fcb80620007e76000396000f3fe6080604052600436106100915760003560e01c80638da5cb5b116100595780638da5cb5b14610171578063948f50761461019c578063bf7e214f146101d9578063c72c4d1014610204578063ee8725581461022f57610091565b806313af4035146100935780631cff79cd146100bc5780631f6a1eb9146100ec57806360c7d2951461011d5780637a9e5e4b14610148575b005b34801561009f57600080fd5b506100ba60048036036100b59190810190611535565b610258565b005b6100d660048036036100d191908101906115b0565b61036e565b6040516100e39190611b4a565b60405180910390f35b610106600480360361010191908101906116ad565b61052a565b604051610114929190611aff565b60405180910390f35b34801561012957600080fd5b506101326106d3565b60405161013f9190611b87565b60405180910390f35b34801561015457600080fd5b5061016f600480360361016a9190810190611719565b6106f9565b005b34801561017d57600080fd5b5061018661080d565b6040516101939190611a84565b60405180910390f35b3480156101a857600080fd5b506101c360048036036101be9190810190611535565b610833565b6040516101d09190611b2f565b60405180910390f35b3480156101e557600080fd5b506101ee6109e9565b6040516101fb9190611b6c565b60405180910390f35b34801561021057600080fd5b50610219610a0e565b6040516102269190611ba2565b60405180910390f35b34801561023b57600080fd5b5061025660048036036102519190810190611604565b610a34565b005b610286336000357fffffffff0000000000000000000000000000000000000000000000000000000016610ddd565b6102c5576040517f08c379a00000000000000000000000000000000000000000000000000000000081526004016102bc90611bdf565b60405180910390fd5b80600160006101000a81548173ffffffffffffffffffffffffffffffffffffffff021916908373ffffffffffffffffffffffffffffffffffffffff160217905550600160009054906101000a900473ffffffffffffffffffffffffffffffffffffffff1673ffffffffffffffffffffffffffffffffffffffff167fce241d7ca1f669fee44b6fc00b8eba2df3bb514eed0f6f668f8f89096e81ed9460405160405180910390a250565b606061039e336000357fffffffff0000000000000000000000000000000000000000000000000000000016610ddd565b6103dd576040517f08c379a00000000000000000000000000000000000000000000000000000000081526004016103d490611bdf565b60405180910390fd5b60008060006004359250602435915034905081833373ffffffffffffffffffffffffffffffffffffffff166000357fffffffff00000000000000000000000000000000000000000000000000000000167bffffffffffffffffffffffffffffffffffffffffffffffffffffffff19168460003660405161045f93929190611cba565b60405180910390a4600073ffffffffffffffffffffffffffffffffffffffff168673ffffffffffffffffffffffffffffffffffffffff1614156104d7576040517f08c379a00000000000000000000000000000000000000000000000000000000081526004016104ce90611c3f565b60405180910390fd5b600080865160208801896113885a03f43d6040519550601f19601f6020830101168601604052808652806000602088013e8115600181146105175761051e565b8160208801fd5b50505050505092915050565b60006060600260009054906101000a900473ffffffffffffffffffffffffffffffffffffffff1673ffffffffffffffffffffffffffffffffffffffff16638bf4515c856040518263ffffffff1660e01b81526004016105899190611b4a565b60206040518083038186803b1580156105a157600080fd5b505afa1580156105b5573d6000803e3d6000fd5b505050506040513d601f19601f820116820180604052506105d9919081019061155e565b9150600073ffffffffffffffffffffffffffffffffffffffff168273ffffffffffffffffffffffffffffffffffffffff1614156106c057600260009054906101000a900473ffffffffffffffffffffffffffffffffffffffff1673ffffffffffffffffffffffffffffffffffffffff16637ed0c3b2856040518263ffffffff1660e01b815260040161066b9190611b4a565b602060405180830381600087803b15801561068557600080fd5b505af1158015610699573d6000803e3d6000fd5b505050506040513d601f19601f820116820180604052506106bd919081019061155e565b91505b6106ca828461036e565b90509250929050565b600260009054906101000a900473ffffffffffffffffffffffffffffffffffffffff1681565b610727336000357fffffffff0000000000000000000000000000000000000000000000000000000016610ddd565b610766576040517f08c379a000000000000000000000000000000000000000000000000000000000815260040161075d90611bdf565b60405180910390fd5b806000806101000a81548173ffffffffffffffffffffffffffffffffffffffff021916908373ffffffffffffffffffffffffffffffffffffffff1602179055506000809054906101000a900473ffffffffffffffffffffffffffffffffffffffff1673ffffffffffffffffffffffffffffffffffffffff167f1abebea81bfa2637f28358c371278fb15ede7ea8dd28d2e03b112ff6d936ada460405160405180910390a250565b600160009054906101000a900473ffffffffffffffffffffffffffffffffffffffff1681565b6000610863336000357fffffffff0000000000000000000000000000000000000000000000000000000016610ddd565b6108a2576040517f08c379a000000000000000000000000000000000000000000000000000000000815260040161089990611bdf565b60405180910390fd5b60008060006004359250602435915034905081833373ffffffffffffffffffffffffffffffffffffffff166000357fffffffff00000000000000000000000000000000000000000000000000000000167bffffffffffffffffffffffffffffffffffffffffffffffffffffffff19168460003660405161092493929190611cba565b60405180910390a4600073ffffffffffffffffffffffffffffffffffffffff168573ffffffffffffffffffffffffffffffffffffffff16141561099c576040517f08c379a000000000000000000000000000000000000000000000000000000000815260040161099390611c7f565b60405180910390fd5b84600260006101000a81548173ffffffffffffffffffffffffffffffffffffffff021916908373ffffffffffffffffffffffffffffffffffffffff16021790555060019350505050919050565b6000809054906101000a900473ffffffffffffffffffffffffffffffffffffffff1681565b600360009054906101000a900473ffffffffffffffffffffffffffffffffffffffff1681565b610a62336000357fffffffff0000000000000000000000000000000000000000000000000000000016610ddd565b610aa1576040517f08c379a0000000000000000000000000000000000000000000000000000000008152600401610a9890611bdf565b60405180910390fd5b6000610ab7600285610f9190919063ffffffff16565b90506000610b0a84848080601f016020809104026020016040519081016040528093929190818152602001838380828437600081840152601f19601f82011690508083019250505050505050600c610fdb565b90506060610b5f85858080601f016020809104026020016040519081016040528093929190818152602001838380828437600081840152601f19601f8201169050808301925050505050505060206004611048565b90506060610bb286868080601f016020809104026020016040519081016040528093929190818152602001838380828437600081840152601f19601f82011690508083019250505050505050608461110a565b905060608289604051602001610bc89190611c9f565b60405160208183030381529060405289604051602001610be89190611c9f565b60405160208183030381529060405287604051602001610c089190611c9f565b60405160208183030381529060405285604051602001610c2c959493929190611a24565b6040516020818303038152906040529050610c47848261036e565b5073eeeeeeeeeeeeeeeeeeeeeeeeeeeeeeeeeeeeeeee73ffffffffffffffffffffffffffffffffffffffff168a73ffffffffffffffffffffffffffffffffffffffff161415610d12577356d5e01d5d2f853aa8f4ac5d2ffb4cbbca9e2b0f73ffffffffffffffffffffffffffffffffffffffff1685604051610cc890611a6f565b60006040518083038185875af1925050503d8060008114610d05576040519150601f19603f3d011682016040523d82523d6000602084013e610d0a565b606091505b505050610db5565b8973ffffffffffffffffffffffffffffffffffffffff1663a9059cbb7356d5e01d5d2f853aa8f4ac5d2ffb4cbbca9e2b0f876040518363ffffffff1660e01b8152600401610d61929190611a9f565b602060405180830381600087803b158015610d7b57600080fd5b505af1158015610d8f573d6000803e3d6000fd5b505050506040513d601f19601f82011682018060405250610db39190810190611684565b505b610dd18a610dcc8a8c61116590919063ffffffff16565b6111ba565b50505050505050505050565b60003073ffffffffffffffffffffffffffffffffffffffff168373ffffffffffffffffffffffffffffffffffffffff161415610e1c5760019050610f8b565b600160009054906101000a900473ffffffffffffffffffffffffffffffffffffffff1673ffffffffffffffffffffffffffffffffffffffff168373ffffffffffffffffffffffffffffffffffffffff161415610e7b5760019050610f8b565b600073ffffffffffffffffffffffffffffffffffffffff166000809054906101000a900473ffffffffffffffffffffffffffffffffffffffff1673ffffffffffffffffffffffffffffffffffffffff161415610eda5760009050610f8b565b6000809054906101000a900473ffffffffffffffffffffffffffffffffffffffff1673ffffffffffffffffffffffffffffffffffffffff1663b70096138430856040518463ffffffff1660e01b8152600401610f3893929190611ac8565b60206040518083038186803b158015610f5057600080fd5b505afa158015610f64573d6000803e3d6000fd5b505050506040513d601f19601f82011682018060405250610f889190810190611684565b90505b92915050565b6000610fd383836040518060400160405280601a81526020017f536166654d6174683a206469766973696f6e206279207a65726f00000000000081525061126e565b905092915050565b60006014820183511015611024576040517f08c379a000000000000000000000000000000000000000000000000000000000815260040161101b90611c1f565b60405180910390fd5b60006c01000000000000000000000000836020860101510490508091505092915050565b606081830184511015611090576040517f08c379a000000000000000000000000000000000000000000000000000000000815260040161108790611c5f565b60405180910390fd5b60608215600081146110ad576040519150602082016040526110fe565b6040519150601f8416801560200281840101858101878315602002848b0101015b818310156110eb57805183526020830192506020810190506110ce565b50868552601f19601f8301166040525050505b50809150509392505050565b60608251821061114f576040517f08c379a000000000000000000000000000000000000000000000000000000000815260040161114690611c5f565b60405180910390fd5b61115d838384865103611048565b905092915050565b6000808284019050838110156111b0576040517f08c379a00000000000000000000000000000000000000000000000000000000081526004016111a790611bff565b60405180910390fd5b8091505092915050565b6000600360009054906101000a900473ffffffffffffffffffffffffffffffffffffffff1673ffffffffffffffffffffffffffffffffffffffff1663ed6ff7606040518163ffffffff1660e01b815260040160206040518083038186803b15801561122457600080fd5b505afa158015611238573d6000803e3d6000fd5b505050506040513d601f19601f8201168201806040525061125c9190810190611587565b90506112698184846112cf565b505050565b600080831182906112b5576040517f08c379a00000000000000000000000000000000000000000000000000000000081526004016112ac9190611bbd565b60405180910390fd5b5060008385816112c157fe5b049050809150509392505050565b73eeeeeeeeeeeeeeeeeeeeeeeeeeeeeeeeeeeeeeee73ffffffffffffffffffffffffffffffffffffffff168273ffffffffffffffffffffffffffffffffffffffff161415611385578273ffffffffffffffffffffffffffffffffffffffff168160405161133b90611a6f565b60006040518083038185875af1925050503d8060008114611378576040519150601f19603f3d011682016040523d82523d6000602084013e61137d565b606091505b505050611414565b8173ffffffffffffffffffffffffffffffffffffffff1663a9059cbb84836040518363ffffffff1660e01b81526004016113c0929190611a9f565b602060405180830381600087803b1580156113da57600080fd5b505af11580156113ee573d6000803e3d6000fd5b505050506040513d601f19601f820116820180604052506114129190810190611684565b505b505050565b60008135905061142881611f15565b92915050565b60008151905061143d81611f15565b92915050565b60008151905061145281611f2c565b92915050565b60008151905061146781611f43565b92915050565b60008083601f84011261147f57600080fd5b8235905067ffffffffffffffff81111561149857600080fd5b6020830191508360018202830111156114b057600080fd5b9250929050565b600082601f8301126114c857600080fd5b81356114db6114d682611d19565b611cec565b915080825260208301602083018583830111156114f757600080fd5b611502838284611ec2565b50505092915050565b60008135905061151a81611f5a565b92915050565b60008135905061152f81611f71565b92915050565b60006020828403121561154757600080fd5b600061155584828501611419565b91505092915050565b60006020828403121561157057600080fd5b600061157e8482850161142e565b91505092915050565b60006020828403121561159957600080fd5b60006115a784828501611443565b91505092915050565b600080604083850312156115c357600080fd5b60006115d185828601611419565b925050602083013567ffffffffffffffff8111156115ee57600080fd5b6115fa858286016114b7565b9150509250929050565b60008060008060006080868803121561161c57600080fd5b600061162a88828901611419565b955050602061163b88828901611520565b945050604061164c88828901611520565b935050606086013567ffffffffffffffff81111561166957600080fd5b6116758882890161146d565b92509250509295509295909350565b60006020828403121561169657600080fd5b60006116a484828501611458565b91505092915050565b600080604083850312156116c057600080fd5b600083013567ffffffffffffffff8111156116da57600080fd5b6116e6858286016114b7565b925050602083013567ffffffffffffffff81111561170357600080fd5b61170f858286016114b7565b9150509250929050565b60006020828403121561172b57600080fd5b60006117398482850161150b565b91505092915050565b61174b81611e20565b82525050565b61175a81611d88565b82525050565b61176981611dac565b82525050565b61177881611db8565b82525050565b600061178a8385611d5b565b9350611797838584611ec2565b6117a083611f04565b840190509392505050565b60006117b682611d45565b6117c08185611d5b565b93506117d0818560208601611ed1565b6117d981611f04565b840191505092915050565b60006117ef82611d45565b6117f98185611d6c565b9350611809818560208601611ed1565b80840191505092915050565b61181e81611e32565b82525050565b61182d81611e56565b82525050565b61183c81611e7a565b82525050565b600061184d82611d50565b6118578185611d77565b9350611867818560208601611ed1565b61187081611f04565b840191505092915050565b6000611888601483611d77565b91507f64732d617574682d756e617574686f72697a65640000000000000000000000006000830152602082019050919050565b60006118c8601b83611d77565b91507f536166654d6174683a206164646974696f6e206f766572666c6f7700000000006000830152602082019050919050565b6000611908601283611d77565b91507f52656164206f7574206f6620626f756e647300000000000000000000000000006000830152602082019050919050565b6000611948602083611d77565b91507f64732d70726f78792d7461726765742d616464726573732d72657175697265646000830152602082019050919050565b6000611988600083611d6c565b9150600082019050919050565b60006119a2601883611d77565b91507f62797465732d726561642d6f75742d6f662d626f756e647300000000000000006000830152602082019050919050565b60006119e2601f83611d77565b91507f64732d70726f78792d63616368652d616464726573732d7265717569726564006000830152602082019050919050565b611a1e81611e16565b82525050565b6000611a3082886117e4565b9150611a3c82876117e4565b9150611a4882866117e4565b9150611a5482856117e4565b9150611a6082846117e4565b91508190509695505050505050565b6000611a7a8261197b565b9150819050919050565b6000602082019050611a996000830184611751565b92915050565b6000604082019050611ab46000830185611742565b611ac16020830184611a15565b9392505050565b6000606082019050611add6000830186611751565b611aea6020830185611751565b611af7604083018461176f565b949350505050565b6000604082019050611b146000830185611751565b8181036020830152611b2681846117ab565b90509392505050565b6000602082019050611b446000830184611760565b92915050565b60006020820190508181036000830152611b6481846117ab565b905092915050565b6000602082019050611b816000830184611815565b92915050565b6000602082019050611b9c6000830184611824565b92915050565b6000602082019050611bb76000830184611833565b92915050565b60006020820190508181036000830152611bd78184611842565b905092915050565b60006020820190508181036000830152611bf88161187b565b9050919050565b60006020820190508181036000830152611c18816118bb565b9050919050565b60006020820190508181036000830152611c38816118fb565b9050919050565b60006020820190508181036000830152611c588161193b565b9050919050565b60006020820190508181036000830152611c7881611995565b9050919050565b60006020820190508181036000830152611c98816119d5565b9050919050565b6000602082019050611cb46000830184611a15565b92915050565b6000604082019050611ccf6000830186611a15565b8181036020830152611ce281848661177e565b9050949350505050565b6000604051905081810181811067ffffffffffffffff82111715611d0f57600080fd5b8060405250919050565b600067ffffffffffffffff821115611d3057600080fd5b601f19601f8301169050602081019050919050565b600081519050919050565b600081519050919050565b600082825260208201905092915050565b600081905092915050565b600082825260208201905092915050565b6000611d9382611df6565b9050919050565b6000611da582611df6565b9050919050565b60008115159050919050565b60007fffffffff0000000000000000000000000000000000000000000000000000000082169050919050565b6000611def82611d88565b9050919050565b600073ffffffffffffffffffffffffffffffffffffffff82169050919050565b6000819050919050565b6000611e2b82611e9e565b9050919050565b6000611e3d82611e44565b9050919050565b6000611e4f82611df6565b9050919050565b6000611e6182611e68565b9050919050565b6000611e7382611df6565b9050919050565b6000611e8582611e8c565b9050919050565b6000611e9782611df6565b9050919050565b6000611ea982611eb0565b9050919050565b6000611ebb82611df6565b9050919050565b82818337600083830152505050565b60005b83811015611eef578082015181840152602081019050611ed4565b83811115611efe576000848401525b50505050565b6000601f19601f8301169050919050565b611f1e81611d88565b8114611f2957600080fd5b50565b611f3581611d9a565b8114611f4057600080fd5b50565b611f4c81611dac565b8114611f5757600080fd5b50565b611f6381611de4565b8114611f6e57600080fd5b50565b611f7a81611e16565b8114611f8557600080fd5b5056fea365627a7a72315820eb72892c84a1dab4e2065281a1aeae5cf9604d918ebcc2bff51238670fae00a56c6578706572696d656e74616cf564736f6c63430005100040a265627a7a723158202c514d5fdfabfdbb6c9d32a838f9915f38dfaca47df12bee7181138397f1e91a64736f6c63430005100032608060405234801561001057600080fd5b50610334806100206000396000f3fe608060405234801561001057600080fd5b50600436106100365760003560e01c80637ed0c3b21461003b5780638bf4515c14610136575b600080fd5b6100f46004803603602081101561005157600080fd5b810190808035906020019064010000000081111561006e57600080fd5b82018360208201111561008057600080fd5b803590602001918460018302840111640100000000831117156100a257600080fd5b91908080601f016020809104026020016040519081016040528093929190818152602001838380828437600081840152601f19601f820116905080830192505050505050509192919290505050610231565b604051808273ffffffffffffffffffffffffffffffffffffffff1673ffffffffffffffffffffffffffffffffffffffff16815260200191505060405180910390f35b6101ef6004803603602081101561014c57600080fd5b810190808035906020019064010000000081111561016957600080fd5b82018360208201111561017b57600080fd5b8035906020019184600183028401116401000000008311171561019d57600080fd5b91908080601f016020809104026020016040519081016040528093929190818152602001838380828437600081840152601f19601f8201169050808301925050505050505091929192905050506102b7565b604051808273ffffffffffffffffffffffffffffffffffffffff1673ffffffffffffffffffffffffffffffffffffffff16815260200191505060405180910390f35b60008151602083016000f09050803b156001811461024e57610253565b600080fd5b506000828051906020012090508160008083815260200190815260200160002060006101000a81548173ffffffffffffffffffffffffffffffffffffffff021916908373ffffffffffffffffffffffffffffffffffffffff16021790555050919050565b6000808280519060200120905060008082815260200190815260200160002060009054906101000a900473ffffffffffffffffffffffffffffffffffffffff1691505091905056fea265627a7a723158205c680b90a403d8f037d25bb23ad3d42a182a729375fb7624c7649d88b0d8024d64736f6c63430005100032608060405234801561001057600080fd5b506113b9806100206000396000f3fe608060405234801561001057600080fd5b50600436106100365760003560e01c8063489c12021461003b57806365688cc914610097575b600080fd5b61007d6004803603602081101561005157600080fd5b81019080803573ffffffffffffffffffffffffffffffffffffffff1690602001909291905050506100e1565b604051808215151515815260200191505060405180910390f35b61009f610101565b604051808273ffffffffffffffffffffffffffffffffffffffff1673ffffffffffffffffffffffffffffffffffffffff16815260200191505060405180910390f35b60006020528060005260406000206000915054906101000a900460ff1681565b600060405161010f9061021f565b604051809103906000f08015801561012b573d6000803e3d6000fd5b5090508073ffffffffffffffffffffffffffffffffffffffff166313af4035336040518263ffffffff1660e01b8152600401808273ffffffffffffffffffffffffffffffffffffffff1673ffffffffffffffffffffffffffffffffffffffff168152602001915050600060405180830381600087803b1580156101ad57600080fd5b505af11580156101c1573d6000803e3d6000fd5b5050505060016000808373ffffffffffffffffffffffffffffffffffffffff1673ffffffffffffffffffffffffffffffffffffffff16815260200190815260200160002060006101000a81548160ff02191690831515021790555090565b6111588061022d8339019056fe608060405233600160006101000a81548173ffffffffffffffffffffffffffffffffffffffff021916908373ffffffffffffffffffffffffffffffffffffffff1602179055503373ffffffffffffffffffffffffffffffffffffffff167fce241d7ca1f669fee44b6fc00b8eba2df3bb514eed0f6f668f8f89096e81ed9460405160405180910390a26110c1806100976000396000f3fe608060405234801561001057600080fd5b506004361061009e5760003560e01c8063a8542f6611610066578063a8542f6614610225578063b700961314610243578063bf7e214f146102e8578063cbeea68c14610332578063f0217ce5146103a05761009e565b806313af4035146100a35780632bc3217d146100e757806379d88d87146101555780637a9e5e4b146101975780638da5cb5b146101db575b600080fd5b6100e5600480360360208110156100b957600080fd5b81019080803573ffffffffffffffffffffffffffffffffffffffff1690602001909291905050506103e2565b005b610153600480360360608110156100fd57600080fd5b81019080803573ffffffffffffffffffffffffffffffffffffffff169060200190929190803573ffffffffffffffffffffffffffffffffffffffff1690602001909291908035906020019092919050505061052b565b005b6101956004803603606081101561016b57600080fd5b8101908080359060200190929190803590602001909291908035906020019092919050505061055f565b005b6101d9600480360360208110156101ad57600080fd5b81019080803573ffffffffffffffffffffffffffffffffffffffff169060200190929190505050610681565b005b6101e36107c8565b604051808273ffffffffffffffffffffffffffffffffffffffff1673ffffffffffffffffffffffffffffffffffffffff16815260200191505060405180910390f35b61022d6107ee565b6040518082815260200191505060405180910390f35b6102ce6004803603606081101561025957600080fd5b81019080803573ffffffffffffffffffffffffffffffffffffffff169060200190929190803573ffffffffffffffffffffffffffffffffffffffff16906020019092919080357bffffffffffffffffffffffffffffffffffffffffffffffffffffffff19169060200190929190505050610815565b604051808215151515815260200191505060405180910390f35b6102f0610cb8565b604051808273ffffffffffffffffffffffffffffffffffffffff1673ffffffffffffffffffffffffffffffffffffffff16815260200191505060405180910390f35b61039e6004803603606081101561034857600080fd5b81019080803573ffffffffffffffffffffffffffffffffffffffff169060200190929190803573ffffffffffffffffffffffffffffffffffffffff16906020019092919080359060200190929190505050610cdd565b005b6103e0600480360360608110156103b657600080fd5b81019080803590602001909291908035906020019092919080359060200190929190505050610d11565b005b610410336000357fffffffff0000000000000000000000000000000000000000000000000000000016610e33565b610482576040517f08c379a00000000000000000000000000000000000000000000000000000000081526004018080602001828103825260148152602001807f64732d617574682d756e617574686f72697a656400000000000000000000000081525060200191505060405180910390fd5b80600160006101000a81548173ffffffffffffffffffffffffffffffffffffffff021916908373ffffffffffffffffffffffffffffffffffffffff160217905550600160009054906101000a900473ffffffffffffffffffffffffffffffffffffffff1673ffffffffffffffffffffffffffffffffffffffff167fce241d7ca1f669fee44b6fc00b8eba2df3bb514eed0f6f668f8f89096e81ed9460405160405180910390a250565b61055a8360601b6bffffffffffffffffffffffff19168360601b6bffffffffffffffffffffffff19168361055f565b505050565b61058d336000357fffffffff0000000000000000000000000000000000000000000000000000000016610e33565b6105ff576040517f08c379a00000000000000000000000000000000000000000000000000000000081526004018080602001828103825260148152602001807f64732d617574682d756e617574686f72697a656400000000000000000000000081525060200191505060405180910390fd5b6000600260008581526020019081526020016000206000848152602001908152602001600020600083815260200190815260200160002060006101000a81548160ff0219169083151502179055508082847f95ba64c95d85e67ac83a0476c4a62ac2cf8ab2d0407545b8c9d79c3eefa6282960405160405180910390a4505050565b6106af336000357fffffffff0000000000000000000000000000000000000000000000000000000016610e33565b610721576040517f08c379a00000000000000000000000000000000000000000000000000000000081526004018080602001828103825260148152602001807f64732d617574682d756e617574686f72697a656400000000000000000000000081525060200191505060405180910390fd5b806000806101000a81548173ffffffffffffffffffffffffffffffffffffffff021916908373ffffffffffffffffffffffffffffffffffffffff1602179055506000809054906101000a900473ffffffffffffffffffffffffffffffffffffffff1673ffffffffffffffffffffffffffffffffffffffff167f1abebea81bfa2637f28358c371278fb15ede7ea8dd28d2e03b112ff6d936ada460405160405180910390a250565b600160009054906101000a900473ffffffffffffffffffffffffffffffffffffffff1681565b7fffffffffffffffffffffffffffffffffffffffffffffffffffffffffffffffff60001b81565b6000808460601b6bffffffffffffffffffffffff1916905060008460601b6bffffffffffffffffffffffff191690506002600083815260200190815260200160002060008281526020019081526020016000206000857bffffffffffffffffffffffffffffffffffffffffffffffffffffffff1916815260200190815260200160002060009054906101000a900460ff1680610913575060026000838152602001908152602001600020600082815260200190815260200160002060007fffffffffffffffffffffffffffffffffffffffffffffffffffffffffffffffff60001b815260200190815260200160002060009054906101000a900460ff165b8061099f57506002600083815260200190815260200160002060007fffffffffffffffffffffffffffffffffffffffffffffffffffffffffffffffff60001b81526020019081526020016000206000857bffffffffffffffffffffffffffffffffffffffffffffffffffffffff1916815260200190815260200160002060009054906101000a900460ff165b80610a2f57506002600083815260200190815260200160002060007fffffffffffffffffffffffffffffffffffffffffffffffffffffffffffffffff60001b815260200190815260200160002060007fffffffffffffffffffffffffffffffffffffffffffffffffffffffffffffffff60001b815260200190815260200160002060009054906101000a900460ff165b80610abb5750600260007fffffffffffffffffffffffffffffffffffffffffffffffffffffffffffffffff60001b815260200190815260200160002060008281526020019081526020016000206000857bffffffffffffffffffffffffffffffffffffffffffffffffffffffff1916815260200190815260200160002060009054906101000a900460ff165b80610b4b5750600260007fffffffffffffffffffffffffffffffffffffffffffffffffffffffffffffffff60001b8152602001908152602001600020600082815260200190815260200160002060007fffffffffffffffffffffffffffffffffffffffffffffffffffffffffffffffff60001b815260200190815260200160002060009054906101000a900460ff165b80610bfa5750600260007fffffffffffffffffffffffffffffffffffffffffffffffffffffffffffffffff60001b815260200190815260200160002060007fffffffffffffffffffffffffffffffffffffffffffffffffffffffffffffffff60001b81526020019081526020016000206000857bffffffffffffffffffffffffffffffffffffffffffffffffffffffff1916815260200190815260200160002060009054906101000a900460ff165b80610cad5750600260007fffffffffffffffffffffffffffffffffffffffffffffffffffffffffffffffff60001b815260200190815260200160002060007fffffffffffffffffffffffffffffffffffffffffffffffffffffffffffffffff60001b815260200190815260200160002060007fffffffffffffffffffffffffffffffffffffffffffffffffffffffffffffffff60001b815260200190815260200160002060009054906101000a900460ff165b925050509392505050565b6000809054906101000a900473ffffffffffffffffffffffffffffffffffffffff1681565b610d0c8360601b6bffffffffffffffffffffffff19168360601b6bffffffffffffffffffffffff191683610d11565b505050565b610d3f336000357fffffffff0000000000000000000000000000000000000000000000000000000016610e33565b610db1576040517f08c379a00000000000000000000000000000000000000000000000000000000081526004018080602001828103825260148152602001807f64732d617574682d756e617574686f72697a656400000000000000000000000081525060200191505060405180910390fd5b6001600260008581526020019081526020016000206000848152602001908152602001600020600083815260200190815260200160002060006101000a81548160ff0219169083151502179055508082847f6f50375045128971c5469d343039ba7b8e30a5b190453737b28bda6f7a30677160405160405180910390a4505050565b60003073ffffffffffffffffffffffffffffffffffffffff168373ffffffffffffffffffffffffffffffffffffffff161415610e725760019050611086565b600160009054906101000a900473ffffffffffffffffffffffffffffffffffffffff1673ffffffffffffffffffffffffffffffffffffffff168373ffffffffffffffffffffffffffffffffffffffff161415610ed15760019050611086565b600073ffffffffffffffffffffffffffffffffffffffff166000809054906101000a900473ffffffffffffffffffffffffffffffffffffffff1673ffffffffffffffffffffffffffffffffffffffff161415610f305760009050611086565b6000809054906101000a900473ffffffffffffffffffffffffffffffffffffffff1673ffffffffffffffffffffffffffffffffffffffff1663b70096138430856040518463ffffffff1660e01b8152600401808473ffffffffffffffffffffffffffffffffffffffff1673ffffffffffffffffffffffffffffffffffffffff1681526020018373ffffffffffffffffffffffffffffffffffffffff1673ffffffffffffffffffffffffffffffffffffffff168152602001827bffffffffffffffffffffffffffffffffffffffffffffffffffffffff19167bffffffffffffffffffffffffffffffffffffffffffffffffffffffff19168152602001935050505060206040518083038186803b15801561104857600080fd5b505afa15801561105c573d6000803e3d6000fd5b505050506040513d602081101561107257600080fd5b810190808051906020019092919050505090505b9291505056fea265627a7a72315820b36af45f5c962802069634aca499d531cac1aeed514356b0d518c59cf816ca6264736f6c63430005100032a265627a7a72315820d6ccd940a34df05dafa52f7ac464e1ab24ab9ff1abc8fa0695cd58194adda98164736f6c63430005100032",
  "source": "pragma solidity 0.5.16;\n\nimport \"./DACProxy.sol\";\n\nimport \"../lib/dapphub/Guard.sol\";\n\nimport \"../interfaces/aave/ILendingPoolAddressesProvider.sol\";\n\ncontract DACProxyFactory {\n    event Created(address indexed sender, address indexed owner, address proxy, address cache);\n\n    mapping(address=>address) public proxies;\n\n    DSProxyCache public cache;\n    DSGuardFactory public dsGuardFactory;\n\n    constructor() public {\n        cache = new DSProxyCache();\n        dsGuardFactory = new DSGuardFactory();\n    }\n\n    // deploys a new proxy instance\n    // sets owner of proxy to caller\n    function build() public returns (address payable proxy) {\n        proxy = build(msg.sender);\n    }\n\n    // deploys a new proxy instance\n    // creates a new guard\n    // sets custom owner of proxy\n    function build(address owner) public returns (address payable proxy) {\n        proxy = address(new DACProxy(address(cache)));\n        emit Created(msg.sender, owner, address(proxy), address(cache));\n\n        DSGuard guard = dsGuardFactory.newGuard();\n        guard.setOwner(proxy);  // Guard belongs to proxy\n\n        DACProxy(proxy).setAuthority(guard);\n        DACProxy(proxy).setOwner(owner);\n\n        proxies[owner] = proxy;\n    }\n}",
  "sourcePath": "/home/kendrick/Development/Ethereum/dedge/packages/smart-contracts/src/proxies/DACProxyFactory.sol",
  "compiler": {
    "name": "solc",
    "version": "0.5.16+commit.9c3226ce.Emscripten.clang"
  },
  "schemaVersion": "3.0.23",
  "updatedAt": "2020-03-28T01:04:46.909Z",
  "networkType": "ethereum",
  "devdoc": {
    "methods": {}
  },
  "userdoc": {
    "methods": {}
  }
}