{
  "contractName": "DACProxy",
  "abi": [
    {
      "inputs": [
        {
          "internalType": "address",
          "name": "_cacheAddr",
          "type": "address"
        }
      ],
      "payable": false,
      "stateMutability": "nonpayable",
      "type": "constructor"
    },
    {
      "anonymous": true,
      "inputs": [
        {
          "indexed": true,
          "internalType": "bytes4",
          "name": "sig",
          "type": "bytes4"
        },
        {
          "indexed": true,
          "internalType": "address",
          "name": "guy",
          "type": "address"
        },
        {
          "indexed": true,
          "internalType": "bytes32",
          "name": "foo",
          "type": "bytes32"
        },
        {
          "indexed": true,
          "internalType": "bytes32",
          "name": "bar",
          "type": "bytes32"
        },
        {
          "indexed": false,
          "internalType": "uint256",
          "name": "wad",
          "type": "uint256"
        },
        {
          "indexed": false,
          "internalType": "bytes",
          "name": "fax",
          "type": "bytes"
        }
      ],
      "name": "LogNote",
      "type": "event"
    },
    {
      "anonymous": false,
      "inputs": [
        {
          "indexed": true,
          "internalType": "address",
          "name": "authority",
          "type": "address"
        }
      ],
      "name": "LogSetAuthority",
      "type": "event"
    },
    {
      "anonymous": false,
      "inputs": [
        {
          "indexed": true,
          "internalType": "address",
          "name": "owner",
          "type": "address"
        }
      ],
      "name": "LogSetOwner",
      "type": "event"
    },
    {
      "payable": true,
      "stateMutability": "payable",
      "type": "fallback"
    },
    {
      "constant": true,
      "inputs": [],
      "name": "addressesProvider",
      "outputs": [
        {
          "internalType": "contract ILendingPoolAddressesProvider",
          "name": "",
          "type": "address"
        }
      ],
      "payable": false,
      "stateMutability": "view",
      "type": "function"
    },
    {
      "constant": true,
      "inputs": [],
      "name": "authority",
      "outputs": [
        {
          "internalType": "contract DSAuthority",
          "name": "",
          "type": "address"
        }
      ],
      "payable": false,
      "stateMutability": "view",
      "type": "function"
    },
    {
      "constant": true,
      "inputs": [],
      "name": "cache",
      "outputs": [
        {
          "internalType": "contract DSProxyCache",
          "name": "",
          "type": "address"
        }
      ],
      "payable": false,
      "stateMutability": "view",
      "type": "function"
    },
    {
      "constant": false,
      "inputs": [
        {
          "internalType": "address",
          "name": "_target",
          "type": "address"
        },
        {
          "internalType": "bytes",
          "name": "_data",
          "type": "bytes"
        }
      ],
      "name": "execute",
      "outputs": [
        {
          "internalType": "bytes",
          "name": "response",
          "type": "bytes"
        }
      ],
      "payable": true,
      "stateMutability": "payable",
      "type": "function"
    },
    {
      "constant": false,
      "inputs": [
        {
          "internalType": "bytes",
          "name": "_code",
          "type": "bytes"
        },
        {
          "internalType": "bytes",
          "name": "_data",
          "type": "bytes"
        }
      ],
      "name": "execute",
      "outputs": [
        {
          "internalType": "address",
          "name": "target",
          "type": "address"
        },
        {
          "internalType": "bytes",
          "name": "response",
          "type": "bytes"
        }
      ],
      "payable": true,
      "stateMutability": "payable",
      "type": "function"
    },
    {
      "constant": true,
      "inputs": [],
      "name": "owner",
      "outputs": [
        {
          "internalType": "address",
          "name": "",
          "type": "address"
        }
      ],
      "payable": false,
      "stateMutability": "view",
      "type": "function"
    },
    {
      "constant": false,
      "inputs": [
        {
          "internalType": "contract DSAuthority",
          "name": "authority_",
          "type": "address"
        }
      ],
      "name": "setAuthority",
      "outputs": [],
      "payable": false,
      "stateMutability": "nonpayable",
      "type": "function"
    },
    {
      "constant": false,
      "inputs": [
        {
          "internalType": "address",
          "name": "_cacheAddr",
          "type": "address"
        }
      ],
      "name": "setCache",
      "outputs": [
        {
          "internalType": "bool",
          "name": "",
          "type": "bool"
        }
      ],
      "payable": false,
      "stateMutability": "nonpayable",
      "type": "function"
    },
    {
      "constant": false,
      "inputs": [
        {
          "internalType": "address",
          "name": "owner_",
          "type": "address"
        }
      ],
      "name": "setOwner",
      "outputs": [],
      "payable": false,
      "stateMutability": "nonpayable",
      "type": "function"
    },
    {
      "constant": false,
      "inputs": [
        {
          "internalType": "address",
          "name": "_reserve",
          "type": "address"
        },
        {
          "internalType": "uint256",
          "name": "_amount",
          "type": "uint256"
        },
        {
          "internalType": "uint256",
          "name": "_fee",
          "type": "uint256"
        },
        {
          "internalType": "bytes",
          "name": "_params",
          "type": "bytes"
        }
      ],
      "name": "executeOperation",
      "outputs": [],
      "payable": false,
      "stateMutability": "nonpayable",
      "type": "function"
    }
  ],
  "bytecode": "0x6080604052600380546001600160a01b0319167324a42fd28c976a61df5d00d0599c34c4f90748c81790553480156200003757600080fd5b5060405162001ad638038062001ad68339810160408190526200005a9162000320565b600180546001600160a01b0319163390811782556040517fce241d7ca1f669fee44b6fc00b8eba2df3bb514eed0f6f668f8f89096e81ed9490600090a2620000ab816001600160e01b03620000ca16565b50620000c29050816001600160e01b03620000ca16565b505062000543565b600062000104337fffffffff000000000000000000000000000000000000000000000000000000008335166001600160e01b036200020316565b62000146576040517f08c379a00000000000000000000000000000000000000000000000000000000081526004016200013d9062000467565b60405180910390fd5b60405160043590602435903490829084903390600080357fffffffff0000000000000000000000000000000000000000000000000000000016916200018f91879136906200048b565b60405180910390a46001600160a01b038516620001da576040517f08c379a00000000000000000000000000000000000000000000000000000000081526004016200013d9062000479565b600280546001600160a01b0387166001600160a01b031990911617905560019350505050919050565b60006001600160a01b038316301415620002205750600162000300565b6001546001600160a01b0384811691161415620002405750600162000300565b6000546001600160a01b03166200025a5750600062000300565b6000546040517fb70096130000000000000000000000000000000000000000000000000000000081526001600160a01b039091169063b700961390620002a99086903090879060040162000439565b60206040518083038186803b158015620002c257600080fd5b505afa158015620002d7573d6000803e3d6000fd5b505050506040513d601f19601f82011682018060405250620002fd919081019062000349565b90505b92915050565b805162000300816200051e565b8051620003008162000538565b6000602082840312156200033357600080fd5b600062000341848462000306565b949350505050565b6000602082840312156200035c57600080fd5b600062000341848462000313565b6200037581620004c2565b82525050565b6200037581620004d4565b6000620003948385620004b9565b9350620003a383858462000508565b620003ae8362000514565b9093019392505050565b6000620003c7601483620004b9565b7f64732d617574682d756e617574686f72697a6564000000000000000000000000815260200192915050565b600062000402601f83620004b9565b7f64732d70726f78792d63616368652d616464726573732d726571756972656400815260200192915050565b620003758162000505565b606081016200044982866200036a565b6200045860208301856200036a565b6200034160408301846200037b565b602080825281016200030081620003b8565b602080825281016200030081620003f3565b604081016200049b82866200042e565b8181036020830152620004b081848662000386565b95945050505050565b90815260200190565b60006200030082620004f9565b151590565b7fffffffff000000000000000000000000000000000000000000000000000000001690565b6001600160a01b031690565b90565b82818337506000910152565b601f01601f191690565b6200052981620004c2565b81146200053557600080fd5b50565b6200052981620004cf565b61158380620005536000396000f3fe6080604052600436106100915760003560e01c80638da5cb5b116100595780638da5cb5b1461013f578063948f507614610161578063bf7e214f1461018e578063c72c4d10146101a3578063ee872558146101b857610091565b806313af4035146100935780631cff79cd146100b35780631f6a1eb9146100dc57806360c7d295146100fd5780637a9e5e4b1461011f575b005b34801561009f57600080fd5b506100916100ae366004610f07565b6101d8565b6100c66100c1366004610f4b565b610263565b6040516100d39190611372565b60405180910390f35b6100ef6100ea366004611039565b610347565b6040516100d3929190611344565b34801561010957600080fd5b50610112610475565b6040516100d39190611383565b34801561012b57600080fd5b5061009161013a36600461106f565b610484565b34801561014b57600080fd5b50610154610502565b6040516100d391906112f3565b34801561016d57600080fd5b5061018161017c366004610f07565b610511565b6040516100d39190611364565b34801561019a57600080fd5b506101126105cb565b3480156101af57600080fd5b506101126105da565b3480156101c457600080fd5b506100916101d3366004610f9d565b6105e9565b6101ee336000356001600160e01b031916610a21565b6102135760405162461bcd60e51b815260040161020a90611391565b60405180910390fd5b600180546001600160a01b0319166001600160a01b0383811691909117918290556040519116907fce241d7ca1f669fee44b6fc00b8eba2df3bb514eed0f6f668f8f89096e81ed9490600090a250565b606061027b336000356001600160e01b031916610a21565b6102975760405162461bcd60e51b815260040161020a90611391565b60405160043590602435903490829084903390600080356001600160e01b031916916102c691879136906113ff565b60405180910390a46001600160a01b0386166102f45760405162461bcd60e51b815260040161020a906113c1565b600080865160208801896113885a03f43d6040519550601f19601f6020830101168601604052808652806000602088013e8115600181146103345761033b565b8160208801fd5b50505050505092915050565b6002546040516322fd145760e21b81526000916060916001600160a01b0390911690638bf4515c9061037d908790600401611372565b60206040518083038186803b15801561039557600080fd5b505afa1580156103a9573d6000803e3d6000fd5b505050506040513d601f19601f820116820180604052506103cd9190810190610f2d565b91506001600160a01b03821661046257600254604051633f6861d960e11b81526001600160a01b0390911690637ed0c3b29061040d908790600401611372565b602060405180830381600087803b15801561042757600080fd5b505af115801561043b573d6000803e3d6000fd5b505050506040513d601f19601f8201168201806040525061045f9190810190610f2d565b91505b61046c8284610263565b90509250929050565b6002546001600160a01b031681565b61049a336000356001600160e01b031916610a21565b6104b65760405162461bcd60e51b815260040161020a90611391565b600080546001600160a01b0319166001600160a01b03838116919091178083556040519116917f1abebea81bfa2637f28358c371278fb15ede7ea8dd28d2e03b112ff6d936ada491a250565b6001546001600160a01b031681565b6000610529336000356001600160e01b031916610a21565b6105455760405162461bcd60e51b815260040161020a90611391565b60405160043590602435903490829084903390600080356001600160e01b0319169161057491879136906113ff565b60405180910390a46001600160a01b0385166105a25760405162461bcd60e51b815260040161020a906113e1565b600280546001600160a01b0387166001600160a01b031990911617905560019350505050919050565b6000546001600160a01b031681565b6003546001600160a01b031681565b6105ff336000356001600160e01b031916610a21565b61061b5760405162461bcd60e51b815260040161020a90611391565b600061062e84600263ffffffff610aff16565b9050600061067484848080601f016020809104026020016040519081016040528093929190818152602001838380828437600092019190915250600c9250610b41915050565b905060606106bd85858080601f0160208091040260200160405190810160405280939291908181526020018383808284376000920191909152506020925060049150610b779050565b9050606061070386868080601f01602080910402602001604051908101604052809392919081815260200183838082843760009201919091525060849250610c0c915050565b90506060828960405160200161071991906113f1565b6040516020818303038152906040528960405160200161073991906113f1565b6040516020818303038152906040528760405160200161075991906113f1565b60408051601f198184030181529082905261077b9493929187906020016112a1565b60405160208183030381529060405290506107968482610263565b5073eeeeeeeeeeeeeeeeeeeeeeeeeeeeeeeeeeeeeeee6001600160a01b038b1614156108b15773773ccbfb422850617a5680d40b1260422d072f416107e286600263ffffffff610aff16565b6040516107ee906112e8565b60006040518083038185875af1925050503d806000811461082b576040519150601f19603f3d011682016040523d82523d6000602084013e610830565b606091505b5073abccb8f0a3c206bb0468c52ccc20f3b81077417b915061085b905086600263ffffffff610aff16565b604051610867906112e8565b60006040518083038185875af1925050503d80600081146108a4576040519150601f19603f3d011682016040523d82523d6000602084013e6108a9565b606091505b5050506109fc565b6001600160a01b038a1663a9059cbb73773ccbfb422850617a5680d40b1260422d072f416108e688600263ffffffff610aff16565b6040518363ffffffff1660e01b8152600401610903929190611301565b602060405180830381600087803b15801561091d57600080fd5b505af1158015610931573d6000803e3d6000fd5b505050506040513d601f19601f82011682018060405250610955919081019061101b565b506001600160a01b038a1663a9059cbb73abccb8f0a3c206bb0468c52ccc20f3b81077417b61098b88600263ffffffff610aff16565b6040518363ffffffff1660e01b81526004016109a8929190611301565b602060405180830381600087803b1580156109c257600080fd5b505af11580156109d6573d6000803e3d6000fd5b505050506040513d601f19601f820116820180604052506109fa919081019061101b565b505b610a158a610a108b8b63ffffffff610c3c16565b610c61565b50505050505050505050565b60006001600160a01b038316301415610a3c57506001610af9565b6001546001600160a01b0384811691161415610a5a57506001610af9565b6000546001600160a01b0316610a7257506000610af9565b60005460405163b700961360e01b81526001600160a01b039091169063b700961390610aa69086903090879060040161131c565b60206040518083038186803b158015610abe57600080fd5b505afa158015610ad2573d6000803e3d6000fd5b505050506040513d601f19601f82011682018060405250610af6919081019061101b565b90505b92915050565b6000610af683836040518060400160405280601a81526020017f536166654d6174683a206469766973696f6e206279207a65726f000000000000815250610cf0565b60008160140183511015610b675760405162461bcd60e51b815260040161020a906113b1565b500160200151600160601b900490565b606081830184511015610b9c5760405162461bcd60e51b815260040161020a906113d1565b606082158015610bb757604051915060208201604052610c01565b6040519150601f8416801560200281840101858101878315602002848b0101015b81831015610bf0578051835260209283019201610bd8565b5050858452601f01601f1916604052505b5090505b9392505050565b606082518210610c2e5760405162461bcd60e51b815260040161020a906113d1565b610af6838384865103610b77565b600082820183811015610af65760405162461bcd60e51b815260040161020a906113a1565b6003546040805163076b7fbb60e51b815290516000926001600160a01b03169163ed6ff760916004808301926020929190829003018186803b158015610ca657600080fd5b505afa158015610cba573d6000803e3d6000fd5b505050506040513d601f19601f82011682018060405250610cde9190810190610f2d565b9050610ceb818484610d27565b505050565b60008183610d115760405162461bcd60e51b815260040161020a9190611372565b506000838581610d1d57fe5b0495945050505050565b6001600160a01b03821673eeeeeeeeeeeeeeeeeeeeeeeeeeeeeeeeeeeeeeee1415610dad57826001600160a01b031681604051610d63906112e8565b60006040518083038185875af1925050503d8060008114610da0576040519150601f19603f3d011682016040523d82523d6000602084013e610da5565b606091505b505050610ceb565b60405163a9059cbb60e01b81526001600160a01b0383169063a9059cbb90610ddb9086908590600401611301565b602060405180830381600087803b158015610df557600080fd5b505af1158015610e09573d6000803e3d6000fd5b505050506040513d601f19601f82011682018060405250610e2d919081019061101b565b50505050565b8035610af98161150e565b8051610af98161150e565b8051610af981611525565b60008083601f840112610e6657600080fd5b50813567ffffffffffffffff811115610e7e57600080fd5b602083019150836001820283011115610e9657600080fd5b9250929050565b600082601f830112610eae57600080fd5b8135610ec1610ebc82611450565b611429565b91508082526020830160208301858383011115610edd57600080fd5b610ee88382846114cc565b50505092915050565b8035610af98161152e565b8035610af981611537565b600060208284031215610f1957600080fd5b6000610f258484610e33565b949350505050565b600060208284031215610f3f57600080fd5b6000610f258484610e3e565b60008060408385031215610f5e57600080fd5b6000610f6a8585610e33565b925050602083013567ffffffffffffffff811115610f8757600080fd5b610f9385828601610e9d565b9150509250929050565b600080600080600060808688031215610fb557600080fd5b6000610fc18888610e33565b9550506020610fd288828901610efc565b9450506040610fe388828901610efc565b935050606086013567ffffffffffffffff81111561100057600080fd5b61100c88828901610e54565b92509250509295509295909350565b60006020828403121561102d57600080fd5b6000610f258484610e49565b6000806040838503121561104c57600080fd5b823567ffffffffffffffff81111561106357600080fd5b610f6a85828601610e9d565b60006020828403121561108157600080fd5b6000610f258484610ef1565b611096816114c1565b82525050565b6110968161148a565b61109681611495565b6110968161149a565b60006110c3838561147c565b93506110d08385846114cc565b6110d983611504565b9093019392505050565b60006110ee82611478565b6110f8818561147c565b93506111088185602086016114d8565b6110d981611504565b600061111c82611478565b6111268185611485565b93506111368185602086016114d8565b9290920192915050565b611096816114a7565b600061115660148361147c565b73191ccb585d5d1a0b5d5b985d5d1a1bdc9a5e995960621b815260200192915050565b6000611186601b8361147c565b7f536166654d6174683a206164646974696f6e206f766572666c6f770000000000815260200192915050565b60006111bf60128361147c565b7152656164206f7574206f6620626f756e647360701b815260200192915050565b60006111ed60208361147c565b7f64732d70726f78792d7461726765742d616464726573732d7265717569726564815260200192915050565b6000610af9600083611485565b600061123360188361147c565b7f62797465732d726561642d6f75742d6f662d626f756e64730000000000000000815260200192915050565b600061126c601f8361147c565b7f64732d70726f78792d63616368652d616464726573732d726571756972656400815260200192915050565b611096816114be565b60006112ad8288611111565b91506112b98287611111565b91506112c58286611111565b91506112d18285611111565b91506112dd8284611111565b979650505050505050565b6000610af982611219565b60208101610af9828461109c565b6040810161130f828561108d565b610c056020830184611298565b6060810161132a828661109c565b611337602083018561109c565b610f2560408301846110ae565b60408101611352828561109c565b8181036020830152610f2581846110e3565b60208101610af982846110a5565b60208082528101610af681846110e3565b60208101610af98284611140565b60208082528101610af981611149565b60208082528101610af981611179565b60208082528101610af9816111b2565b60208082528101610af9816111e0565b60208082528101610af981611226565b60208082528101610af98161125f565b60208101610af98284611298565b6040810161140d8286611298565b81810360208301526114208184866110b7565b95945050505050565b60405181810167ffffffffffffffff8111828210171561144857600080fd5b604052919050565b600067ffffffffffffffff82111561146757600080fd5b506020601f91909101601f19160190565b5190565b90815260200190565b919050565b6000610af9826114b2565b151590565b6001600160e01b03191690565b6000610af98261148a565b6001600160a01b031690565b90565b6000610af9826114a7565b82818337506000910152565b60005b838110156114f35781810151838201526020016114db565b83811115610e2d5750506000910152565b601f01601f191690565b6115178161148a565b811461152257600080fd5b50565b61151781611495565b611517816114a7565b611517816114be56fea365627a7a72315820ca2aaf531ed3d692639fd8240fdf5db1c3918dc58f88e738d42af9ed907877fd6c6578706572696d656e74616cf564736f6c63430005100040",
  "source": "/*\n    Main contract to handle Aave flashloans on Compound Finance.\n    (D)edge's (A)ave (C)ommon Proxy.\n*/\n\npragma solidity 0.5.16;\npragma experimental ABIEncoderV2;\n\nimport \"../lib/BytesLib.sol\";\nimport \"../lib/aave/FlashLoanReceiverBase.sol\";\nimport \"../lib/dapphub/Proxy.sol\";\n\nimport \"../interfaces/IERC20.sol\";\n\ncontract DACProxy is\n    DSProxy(address(1)),\n    FlashLoanReceiverBase,\n    BytesLibLite\n{\n    // TODO: Change this value\n    address payable constant protocolFeePayoutAddress1 = 0x773CCbFB422850617A5680D40B1260422d072f41;\n    address payable constant protocolFeePayoutAddress2 = 0xAbcCB8f0a3c206Bb0468C52CCc20f3b81077417B;\n\n    constructor(address _cacheAddr) public {\n        setCache(_cacheAddr);\n    }\n\n    function() external payable {}\n\n    // This is for Aave flashloans\n    function executeOperation(\n        address _reserve,\n        uint256 _amount,\n        uint256 _fee,\n        bytes calldata _params\n    ) external\n        auth\n    {\n        // Assumes that once the action(s) are performed\n        // we will have totalDebt would of _reserve to repay\n        // aave and the protocol\n        uint protocolFee = _fee.div(2);\n\n        // Re-encodes new data \n        // Function signature should conform to:\n        /* (\n                // Note: for address, as abiEncoder pads it to 32 bytes our starting position is 12\n                // due to addresses having 20 bytes in length\n                address     - Address to call        | start: 12;  (20 bytes)\n                bytes       - Function sig           | start: 32;  (4 bytes)\n                uint        - Data of _amount        | start: 36;  (32 bytes)\n                uint        - Data of _aaveFee       | start: 68;  (32 bytes)\n                uint        - Data of _protocolFee   | start: 100; (32 bytes)\n                bytes       - Data of _data          | start: 132; (dynamic length)\n            )\n\n            i.e.\n\n            function myFunction(\n                uint amount,\n                uint aaveFee,\n                uint protocolFee,\n                bytes memory _data\n            ) { ... }\n        */\n        address targetAddress = bytesToAddress(_params, 12);\n        bytes memory fSig     = slice(_params, 32, 4);\n        bytes memory data     = sliceToEnd(_params, 132);\n\n        // Re-encodes function signature and injects new\n        // _amount, _fee, and _protocolFee into _data\n        bytes memory newData = abi.encodePacked(\n            fSig,\n            abi.encode(_amount),\n            abi.encode(_fee),\n            abi.encode(protocolFee),\n            data\n        );\n\n        // Executes new target\n        execute(targetAddress, newData);\n\n        // Repays protocol fee\n        if (_reserve == 0xEeeeeEeeeEeEeeEeEeEeeEEEeeeeEeeeeeeeEEeE) {\n            protocolFeePayoutAddress1.call.value(protocolFee.div(2))(\"\");\n            protocolFeePayoutAddress2.call.value(protocolFee.div(2))(\"\");\n        } else {\n            IERC20(_reserve).transfer(protocolFeePayoutAddress1, protocolFee.div(2));\n            IERC20(_reserve).transfer(protocolFeePayoutAddress2, protocolFee.div(2));\n        }\n\n        // Repays aave\n        transferFundsBackToPoolInternal(_reserve, _amount.add(_fee));\n    }\n}",
  "sourcePath": "/home/kendrick/Development/Ethereum/dedge/packages/smart-contracts/src/proxies/DACProxy.sol",
  "compiler": {
    "name": "solc",
    "version": "0.5.16+commit.9c3226ce.Emscripten.clang"
  },
  "schemaVersion": "3.0.23",
  "updatedAt": "2020-04-03T06:25:13.645Z",
  "devdoc": {
    "methods": {}
  },
  "userdoc": {
    "methods": {}
  }
}