{
  "contractName": "DACProxy",
  "abi": [
    {
      "inputs": [
        {
          "internalType": "address",
          "name": "_cacheAddr",
          "type": "address"
        }
      ],
      "payable": false,
      "stateMutability": "nonpayable",
      "type": "constructor"
    },
    {
      "anonymous": true,
      "inputs": [
        {
          "indexed": true,
          "internalType": "bytes4",
          "name": "sig",
          "type": "bytes4"
        },
        {
          "indexed": true,
          "internalType": "address",
          "name": "guy",
          "type": "address"
        },
        {
          "indexed": true,
          "internalType": "bytes32",
          "name": "foo",
          "type": "bytes32"
        },
        {
          "indexed": true,
          "internalType": "bytes32",
          "name": "bar",
          "type": "bytes32"
        },
        {
          "indexed": false,
          "internalType": "uint256",
          "name": "wad",
          "type": "uint256"
        },
        {
          "indexed": false,
          "internalType": "bytes",
          "name": "fax",
          "type": "bytes"
        }
      ],
      "name": "LogNote",
      "type": "event"
    },
    {
      "anonymous": false,
      "inputs": [
        {
          "indexed": true,
          "internalType": "address",
          "name": "authority",
          "type": "address"
        }
      ],
      "name": "LogSetAuthority",
      "type": "event"
    },
    {
      "anonymous": false,
      "inputs": [
        {
          "indexed": true,
          "internalType": "address",
          "name": "owner",
          "type": "address"
        }
      ],
      "name": "LogSetOwner",
      "type": "event"
    },
    {
      "payable": true,
      "stateMutability": "payable",
      "type": "fallback"
    },
    {
      "constant": true,
      "inputs": [],
      "name": "addressesProvider",
      "outputs": [
        {
          "internalType": "contract ILendingPoolAddressesProvider",
          "name": "",
          "type": "address"
        }
      ],
      "payable": false,
      "stateMutability": "view",
      "type": "function"
    },
    {
      "constant": true,
      "inputs": [],
      "name": "authority",
      "outputs": [
        {
          "internalType": "contract DSAuthority",
          "name": "",
          "type": "address"
        }
      ],
      "payable": false,
      "stateMutability": "view",
      "type": "function"
    },
    {
      "constant": true,
      "inputs": [],
      "name": "cache",
      "outputs": [
        {
          "internalType": "contract DSProxyCache",
          "name": "",
          "type": "address"
        }
      ],
      "payable": false,
      "stateMutability": "view",
      "type": "function"
    },
    {
      "constant": false,
      "inputs": [
        {
          "internalType": "address",
          "name": "_target",
          "type": "address"
        },
        {
          "internalType": "bytes",
          "name": "_data",
          "type": "bytes"
        }
      ],
      "name": "execute",
      "outputs": [
        {
          "internalType": "bytes",
          "name": "response",
          "type": "bytes"
        }
      ],
      "payable": true,
      "stateMutability": "payable",
      "type": "function"
    },
    {
      "constant": false,
      "inputs": [
        {
          "internalType": "bytes",
          "name": "_code",
          "type": "bytes"
        },
        {
          "internalType": "bytes",
          "name": "_data",
          "type": "bytes"
        }
      ],
      "name": "execute",
      "outputs": [
        {
          "internalType": "address",
          "name": "target",
          "type": "address"
        },
        {
          "internalType": "bytes",
          "name": "response",
          "type": "bytes"
        }
      ],
      "payable": true,
      "stateMutability": "payable",
      "type": "function"
    },
    {
      "constant": true,
      "inputs": [],
      "name": "owner",
      "outputs": [
        {
          "internalType": "address",
          "name": "",
          "type": "address"
        }
      ],
      "payable": false,
      "stateMutability": "view",
      "type": "function"
    },
    {
      "constant": false,
      "inputs": [
        {
          "internalType": "contract DSAuthority",
          "name": "authority_",
          "type": "address"
        }
      ],
      "name": "setAuthority",
      "outputs": [],
      "payable": false,
      "stateMutability": "nonpayable",
      "type": "function"
    },
    {
      "constant": false,
      "inputs": [
        {
          "internalType": "address",
          "name": "_cacheAddr",
          "type": "address"
        }
      ],
      "name": "setCache",
      "outputs": [
        {
          "internalType": "bool",
          "name": "",
          "type": "bool"
        }
      ],
      "payable": false,
      "stateMutability": "nonpayable",
      "type": "function"
    },
    {
      "constant": false,
      "inputs": [
        {
          "internalType": "address",
          "name": "owner_",
          "type": "address"
        }
      ],
      "name": "setOwner",
      "outputs": [],
      "payable": false,
      "stateMutability": "nonpayable",
      "type": "function"
    },
    {
      "constant": false,
      "inputs": [
        {
          "internalType": "address",
          "name": "_reserve",
          "type": "address"
        },
        {
          "internalType": "uint256",
          "name": "_amount",
          "type": "uint256"
        },
        {
          "internalType": "uint256",
          "name": "_fee",
          "type": "uint256"
        },
        {
          "internalType": "bytes",
          "name": "_params",
          "type": "bytes"
        }
      ],
      "name": "executeOperation",
      "outputs": [],
      "payable": false,
      "stateMutability": "nonpayable",
      "type": "function"
    }
  ],
  "bytecode": "0x60806040527324a42fd28c976a61df5d00d0599c34c4f90748c8600360006101000a81548173ffffffffffffffffffffffffffffffffffffffff021916908373ffffffffffffffffffffffffffffffffffffffff1602179055503480156200006657600080fd5b50604051620027b2380380620027b283398181016040526200008c9190810190620004f2565b600133600160006101000a81548173ffffffffffffffffffffffffffffffffffffffff021916908373ffffffffffffffffffffffffffffffffffffffff1602179055503373ffffffffffffffffffffffffffffffffffffffff167fce241d7ca1f669fee44b6fc00b8eba2df3bb514eed0f6f668f8f89096e81ed9460405160405180910390a262000123816200013e60201b60201c565b505062000136816200013e60201b60201c565b5050620007d7565b600062000176336000357fffffffff00000000000000000000000000000000000000000000000000000000166200030460201b60201c565b620001b8576040517f08c379a0000000000000000000000000000000000000000000000000000000008152600401620001af9062000671565b60405180910390fd5b60008060006004359250602435915034905081833373ffffffffffffffffffffffffffffffffffffffff166000357fffffffff00000000000000000000000000000000000000000000000000000000167bffffffffffffffffffffffffffffffffffffffffffffffffffffffff1916846000366040516200023c93929190620006b5565b60405180910390a4600073ffffffffffffffffffffffffffffffffffffffff168573ffffffffffffffffffffffffffffffffffffffff161415620002b7576040517f08c379a0000000000000000000000000000000000000000000000000000000008152600401620002ae9062000693565b60405180910390fd5b84600260006101000a81548173ffffffffffffffffffffffffffffffffffffffff021916908373ffffffffffffffffffffffffffffffffffffffff16021790555060019350505050919050565b60003073ffffffffffffffffffffffffffffffffffffffff168373ffffffffffffffffffffffffffffffffffffffff161415620003455760019050620004be565b600160009054906101000a900473ffffffffffffffffffffffffffffffffffffffff1673ffffffffffffffffffffffffffffffffffffffff168373ffffffffffffffffffffffffffffffffffffffff161415620003a65760019050620004be565b600073ffffffffffffffffffffffffffffffffffffffff166000809054906101000a900473ffffffffffffffffffffffffffffffffffffffff1673ffffffffffffffffffffffffffffffffffffffff161415620004075760009050620004be565b6000809054906101000a900473ffffffffffffffffffffffffffffffffffffffff1673ffffffffffffffffffffffffffffffffffffffff1663b70096138430856040518463ffffffff1660e01b8152600401620004679392919062000634565b60206040518083038186803b1580156200048057600080fd5b505afa15801562000495573d6000803e3d6000fd5b505050506040513d601f19601f82011682018060405250620004bb91908101906200051e565b90505b92915050565b600081519050620004d581620007a3565b92915050565b600081519050620004ec81620007bd565b92915050565b6000602082840312156200050557600080fd5b60006200051584828501620004c4565b91505092915050565b6000602082840312156200053157600080fd5b60006200054184828501620004db565b91505092915050565b62000555816200070d565b82525050565b62000566816200072d565b82525050565b60006200057a8385620006eb565b93506200058983858462000783565b620005948362000792565b840190509392505050565b6000620005ae601483620006fc565b91507f64732d617574682d756e617574686f72697a65640000000000000000000000006000830152602082019050919050565b6000620005f0601f83620006fc565b91507f64732d70726f78792d63616368652d616464726573732d7265717569726564006000830152602082019050919050565b6200062e8162000779565b82525050565b60006060820190506200064b60008301866200054a565b6200065a60208301856200054a565b6200066960408301846200055b565b949350505050565b600060208201905081810360008301526200068c816200059f565b9050919050565b60006020820190508181036000830152620006ae81620005e1565b9050919050565b6000604082019050620006cc600083018662000623565b8181036020830152620006e18184866200056c565b9050949350505050565b600082825260208201905092915050565b600082825260208201905092915050565b60006200071a8262000759565b9050919050565b60008115159050919050565b60007fffffffff0000000000000000000000000000000000000000000000000000000082169050919050565b600073ffffffffffffffffffffffffffffffffffffffff82169050919050565b6000819050919050565b82818337600083830152505050565b6000601f19601f8301169050919050565b620007ae816200070d565b8114620007ba57600080fd5b50565b620007c88162000721565b8114620007d457600080fd5b50565b611fcb80620007e76000396000f3fe6080604052600436106100915760003560e01c80638da5cb5b116100595780638da5cb5b14610171578063948f50761461019c578063bf7e214f146101d9578063c72c4d1014610204578063ee8725581461022f57610091565b806313af4035146100935780631cff79cd146100bc5780631f6a1eb9146100ec57806360c7d2951461011d5780637a9e5e4b14610148575b005b34801561009f57600080fd5b506100ba60048036036100b59190810190611535565b610258565b005b6100d660048036036100d191908101906115b0565b61036e565b6040516100e39190611b4a565b60405180910390f35b610106600480360361010191908101906116ad565b61052a565b604051610114929190611aff565b60405180910390f35b34801561012957600080fd5b506101326106d3565b60405161013f9190611b87565b60405180910390f35b34801561015457600080fd5b5061016f600480360361016a9190810190611719565b6106f9565b005b34801561017d57600080fd5b5061018661080d565b6040516101939190611a84565b60405180910390f35b3480156101a857600080fd5b506101c360048036036101be9190810190611535565b610833565b6040516101d09190611b2f565b60405180910390f35b3480156101e557600080fd5b506101ee6109e9565b6040516101fb9190611b6c565b60405180910390f35b34801561021057600080fd5b50610219610a0e565b6040516102269190611ba2565b60405180910390f35b34801561023b57600080fd5b5061025660048036036102519190810190611604565b610a34565b005b610286336000357fffffffff0000000000000000000000000000000000000000000000000000000016610ddd565b6102c5576040517f08c379a00000000000000000000000000000000000000000000000000000000081526004016102bc90611bdf565b60405180910390fd5b80600160006101000a81548173ffffffffffffffffffffffffffffffffffffffff021916908373ffffffffffffffffffffffffffffffffffffffff160217905550600160009054906101000a900473ffffffffffffffffffffffffffffffffffffffff1673ffffffffffffffffffffffffffffffffffffffff167fce241d7ca1f669fee44b6fc00b8eba2df3bb514eed0f6f668f8f89096e81ed9460405160405180910390a250565b606061039e336000357fffffffff0000000000000000000000000000000000000000000000000000000016610ddd565b6103dd576040517f08c379a00000000000000000000000000000000000000000000000000000000081526004016103d490611bdf565b60405180910390fd5b60008060006004359250602435915034905081833373ffffffffffffffffffffffffffffffffffffffff166000357fffffffff00000000000000000000000000000000000000000000000000000000167bffffffffffffffffffffffffffffffffffffffffffffffffffffffff19168460003660405161045f93929190611cba565b60405180910390a4600073ffffffffffffffffffffffffffffffffffffffff168673ffffffffffffffffffffffffffffffffffffffff1614156104d7576040517f08c379a00000000000000000000000000000000000000000000000000000000081526004016104ce90611c3f565b60405180910390fd5b600080865160208801896113885a03f43d6040519550601f19601f6020830101168601604052808652806000602088013e8115600181146105175761051e565b8160208801fd5b50505050505092915050565b60006060600260009054906101000a900473ffffffffffffffffffffffffffffffffffffffff1673ffffffffffffffffffffffffffffffffffffffff16638bf4515c856040518263ffffffff1660e01b81526004016105899190611b4a565b60206040518083038186803b1580156105a157600080fd5b505afa1580156105b5573d6000803e3d6000fd5b505050506040513d601f19601f820116820180604052506105d9919081019061155e565b9150600073ffffffffffffffffffffffffffffffffffffffff168273ffffffffffffffffffffffffffffffffffffffff1614156106c057600260009054906101000a900473ffffffffffffffffffffffffffffffffffffffff1673ffffffffffffffffffffffffffffffffffffffff16637ed0c3b2856040518263ffffffff1660e01b815260040161066b9190611b4a565b602060405180830381600087803b15801561068557600080fd5b505af1158015610699573d6000803e3d6000fd5b505050506040513d601f19601f820116820180604052506106bd919081019061155e565b91505b6106ca828461036e565b90509250929050565b600260009054906101000a900473ffffffffffffffffffffffffffffffffffffffff1681565b610727336000357fffffffff0000000000000000000000000000000000000000000000000000000016610ddd565b610766576040517f08c379a000000000000000000000000000000000000000000000000000000000815260040161075d90611bdf565b60405180910390fd5b806000806101000a81548173ffffffffffffffffffffffffffffffffffffffff021916908373ffffffffffffffffffffffffffffffffffffffff1602179055506000809054906101000a900473ffffffffffffffffffffffffffffffffffffffff1673ffffffffffffffffffffffffffffffffffffffff167f1abebea81bfa2637f28358c371278fb15ede7ea8dd28d2e03b112ff6d936ada460405160405180910390a250565b600160009054906101000a900473ffffffffffffffffffffffffffffffffffffffff1681565b6000610863336000357fffffffff0000000000000000000000000000000000000000000000000000000016610ddd565b6108a2576040517f08c379a000000000000000000000000000000000000000000000000000000000815260040161089990611bdf565b60405180910390fd5b60008060006004359250602435915034905081833373ffffffffffffffffffffffffffffffffffffffff166000357fffffffff00000000000000000000000000000000000000000000000000000000167bffffffffffffffffffffffffffffffffffffffffffffffffffffffff19168460003660405161092493929190611cba565b60405180910390a4600073ffffffffffffffffffffffffffffffffffffffff168573ffffffffffffffffffffffffffffffffffffffff16141561099c576040517f08c379a000000000000000000000000000000000000000000000000000000000815260040161099390611c7f565b60405180910390fd5b84600260006101000a81548173ffffffffffffffffffffffffffffffffffffffff021916908373ffffffffffffffffffffffffffffffffffffffff16021790555060019350505050919050565b6000809054906101000a900473ffffffffffffffffffffffffffffffffffffffff1681565b600360009054906101000a900473ffffffffffffffffffffffffffffffffffffffff1681565b610a62336000357fffffffff0000000000000000000000000000000000000000000000000000000016610ddd565b610aa1576040517f08c379a0000000000000000000000000000000000000000000000000000000008152600401610a9890611bdf565b60405180910390fd5b6000610ab7600285610f9190919063ffffffff16565b90506000610b0a84848080601f016020809104026020016040519081016040528093929190818152602001838380828437600081840152601f19601f82011690508083019250505050505050600c610fdb565b90506060610b5f85858080601f016020809104026020016040519081016040528093929190818152602001838380828437600081840152601f19601f8201169050808301925050505050505060206004611048565b90506060610bb286868080601f016020809104026020016040519081016040528093929190818152602001838380828437600081840152601f19601f82011690508083019250505050505050608461110a565b905060608289604051602001610bc89190611c9f565b60405160208183030381529060405289604051602001610be89190611c9f565b60405160208183030381529060405287604051602001610c089190611c9f565b60405160208183030381529060405285604051602001610c2c959493929190611a24565b6040516020818303038152906040529050610c47848261036e565b5073eeeeeeeeeeeeeeeeeeeeeeeeeeeeeeeeeeeeeeee73ffffffffffffffffffffffffffffffffffffffff168a73ffffffffffffffffffffffffffffffffffffffff161415610d12577356d5e01d5d2f853aa8f4ac5d2ffb4cbbca9e2b0f73ffffffffffffffffffffffffffffffffffffffff1685604051610cc890611a6f565b60006040518083038185875af1925050503d8060008114610d05576040519150601f19603f3d011682016040523d82523d6000602084013e610d0a565b606091505b505050610db5565b8973ffffffffffffffffffffffffffffffffffffffff1663a9059cbb7356d5e01d5d2f853aa8f4ac5d2ffb4cbbca9e2b0f876040518363ffffffff1660e01b8152600401610d61929190611a9f565b602060405180830381600087803b158015610d7b57600080fd5b505af1158015610d8f573d6000803e3d6000fd5b505050506040513d601f19601f82011682018060405250610db39190810190611684565b505b610dd18a610dcc8a8c61116590919063ffffffff16565b6111ba565b50505050505050505050565b60003073ffffffffffffffffffffffffffffffffffffffff168373ffffffffffffffffffffffffffffffffffffffff161415610e1c5760019050610f8b565b600160009054906101000a900473ffffffffffffffffffffffffffffffffffffffff1673ffffffffffffffffffffffffffffffffffffffff168373ffffffffffffffffffffffffffffffffffffffff161415610e7b5760019050610f8b565b600073ffffffffffffffffffffffffffffffffffffffff166000809054906101000a900473ffffffffffffffffffffffffffffffffffffffff1673ffffffffffffffffffffffffffffffffffffffff161415610eda5760009050610f8b565b6000809054906101000a900473ffffffffffffffffffffffffffffffffffffffff1673ffffffffffffffffffffffffffffffffffffffff1663b70096138430856040518463ffffffff1660e01b8152600401610f3893929190611ac8565b60206040518083038186803b158015610f5057600080fd5b505afa158015610f64573d6000803e3d6000fd5b505050506040513d601f19601f82011682018060405250610f889190810190611684565b90505b92915050565b6000610fd383836040518060400160405280601a81526020017f536166654d6174683a206469766973696f6e206279207a65726f00000000000081525061126e565b905092915050565b60006014820183511015611024576040517f08c379a000000000000000000000000000000000000000000000000000000000815260040161101b90611c1f565b60405180910390fd5b60006c01000000000000000000000000836020860101510490508091505092915050565b606081830184511015611090576040517f08c379a000000000000000000000000000000000000000000000000000000000815260040161108790611c5f565b60405180910390fd5b60608215600081146110ad576040519150602082016040526110fe565b6040519150601f8416801560200281840101858101878315602002848b0101015b818310156110eb57805183526020830192506020810190506110ce565b50868552601f19601f8301166040525050505b50809150509392505050565b60608251821061114f576040517f08c379a000000000000000000000000000000000000000000000000000000000815260040161114690611c5f565b60405180910390fd5b61115d838384865103611048565b905092915050565b6000808284019050838110156111b0576040517f08c379a00000000000000000000000000000000000000000000000000000000081526004016111a790611bff565b60405180910390fd5b8091505092915050565b6000600360009054906101000a900473ffffffffffffffffffffffffffffffffffffffff1673ffffffffffffffffffffffffffffffffffffffff1663ed6ff7606040518163ffffffff1660e01b815260040160206040518083038186803b15801561122457600080fd5b505afa158015611238573d6000803e3d6000fd5b505050506040513d601f19601f8201168201806040525061125c9190810190611587565b90506112698184846112cf565b505050565b600080831182906112b5576040517f08c379a00000000000000000000000000000000000000000000000000000000081526004016112ac9190611bbd565b60405180910390fd5b5060008385816112c157fe5b049050809150509392505050565b73eeeeeeeeeeeeeeeeeeeeeeeeeeeeeeeeeeeeeeee73ffffffffffffffffffffffffffffffffffffffff168273ffffffffffffffffffffffffffffffffffffffff161415611385578273ffffffffffffffffffffffffffffffffffffffff168160405161133b90611a6f565b60006040518083038185875af1925050503d8060008114611378576040519150601f19603f3d011682016040523d82523d6000602084013e61137d565b606091505b505050611414565b8173ffffffffffffffffffffffffffffffffffffffff1663a9059cbb84836040518363ffffffff1660e01b81526004016113c0929190611a9f565b602060405180830381600087803b1580156113da57600080fd5b505af11580156113ee573d6000803e3d6000fd5b505050506040513d601f19601f820116820180604052506114129190810190611684565b505b505050565b60008135905061142881611f15565b92915050565b60008151905061143d81611f15565b92915050565b60008151905061145281611f2c565b92915050565b60008151905061146781611f43565b92915050565b60008083601f84011261147f57600080fd5b8235905067ffffffffffffffff81111561149857600080fd5b6020830191508360018202830111156114b057600080fd5b9250929050565b600082601f8301126114c857600080fd5b81356114db6114d682611d19565b611cec565b915080825260208301602083018583830111156114f757600080fd5b611502838284611ec2565b50505092915050565b60008135905061151a81611f5a565b92915050565b60008135905061152f81611f71565b92915050565b60006020828403121561154757600080fd5b600061155584828501611419565b91505092915050565b60006020828403121561157057600080fd5b600061157e8482850161142e565b91505092915050565b60006020828403121561159957600080fd5b60006115a784828501611443565b91505092915050565b600080604083850312156115c357600080fd5b60006115d185828601611419565b925050602083013567ffffffffffffffff8111156115ee57600080fd5b6115fa858286016114b7565b9150509250929050565b60008060008060006080868803121561161c57600080fd5b600061162a88828901611419565b955050602061163b88828901611520565b945050604061164c88828901611520565b935050606086013567ffffffffffffffff81111561166957600080fd5b6116758882890161146d565b92509250509295509295909350565b60006020828403121561169657600080fd5b60006116a484828501611458565b91505092915050565b600080604083850312156116c057600080fd5b600083013567ffffffffffffffff8111156116da57600080fd5b6116e6858286016114b7565b925050602083013567ffffffffffffffff81111561170357600080fd5b61170f858286016114b7565b9150509250929050565b60006020828403121561172b57600080fd5b60006117398482850161150b565b91505092915050565b61174b81611e20565b82525050565b61175a81611d88565b82525050565b61176981611dac565b82525050565b61177881611db8565b82525050565b600061178a8385611d5b565b9350611797838584611ec2565b6117a083611f04565b840190509392505050565b60006117b682611d45565b6117c08185611d5b565b93506117d0818560208601611ed1565b6117d981611f04565b840191505092915050565b60006117ef82611d45565b6117f98185611d6c565b9350611809818560208601611ed1565b80840191505092915050565b61181e81611e32565b82525050565b61182d81611e56565b82525050565b61183c81611e7a565b82525050565b600061184d82611d50565b6118578185611d77565b9350611867818560208601611ed1565b61187081611f04565b840191505092915050565b6000611888601483611d77565b91507f64732d617574682d756e617574686f72697a65640000000000000000000000006000830152602082019050919050565b60006118c8601b83611d77565b91507f536166654d6174683a206164646974696f6e206f766572666c6f7700000000006000830152602082019050919050565b6000611908601283611d77565b91507f52656164206f7574206f6620626f756e647300000000000000000000000000006000830152602082019050919050565b6000611948602083611d77565b91507f64732d70726f78792d7461726765742d616464726573732d72657175697265646000830152602082019050919050565b6000611988600083611d6c565b9150600082019050919050565b60006119a2601883611d77565b91507f62797465732d726561642d6f75742d6f662d626f756e647300000000000000006000830152602082019050919050565b60006119e2601f83611d77565b91507f64732d70726f78792d63616368652d616464726573732d7265717569726564006000830152602082019050919050565b611a1e81611e16565b82525050565b6000611a3082886117e4565b9150611a3c82876117e4565b9150611a4882866117e4565b9150611a5482856117e4565b9150611a6082846117e4565b91508190509695505050505050565b6000611a7a8261197b565b9150819050919050565b6000602082019050611a996000830184611751565b92915050565b6000604082019050611ab46000830185611742565b611ac16020830184611a15565b9392505050565b6000606082019050611add6000830186611751565b611aea6020830185611751565b611af7604083018461176f565b949350505050565b6000604082019050611b146000830185611751565b8181036020830152611b2681846117ab565b90509392505050565b6000602082019050611b446000830184611760565b92915050565b60006020820190508181036000830152611b6481846117ab565b905092915050565b6000602082019050611b816000830184611815565b92915050565b6000602082019050611b9c6000830184611824565b92915050565b6000602082019050611bb76000830184611833565b92915050565b60006020820190508181036000830152611bd78184611842565b905092915050565b60006020820190508181036000830152611bf88161187b565b9050919050565b60006020820190508181036000830152611c18816118bb565b9050919050565b60006020820190508181036000830152611c38816118fb565b9050919050565b60006020820190508181036000830152611c588161193b565b9050919050565b60006020820190508181036000830152611c7881611995565b9050919050565b60006020820190508181036000830152611c98816119d5565b9050919050565b6000602082019050611cb46000830184611a15565b92915050565b6000604082019050611ccf6000830186611a15565b8181036020830152611ce281848661177e565b9050949350505050565b6000604051905081810181811067ffffffffffffffff82111715611d0f57600080fd5b8060405250919050565b600067ffffffffffffffff821115611d3057600080fd5b601f19601f8301169050602081019050919050565b600081519050919050565b600081519050919050565b600082825260208201905092915050565b600081905092915050565b600082825260208201905092915050565b6000611d9382611df6565b9050919050565b6000611da582611df6565b9050919050565b60008115159050919050565b60007fffffffff0000000000000000000000000000000000000000000000000000000082169050919050565b6000611def82611d88565b9050919050565b600073ffffffffffffffffffffffffffffffffffffffff82169050919050565b6000819050919050565b6000611e2b82611e9e565b9050919050565b6000611e3d82611e44565b9050919050565b6000611e4f82611df6565b9050919050565b6000611e6182611e68565b9050919050565b6000611e7382611df6565b9050919050565b6000611e8582611e8c565b9050919050565b6000611e9782611df6565b9050919050565b6000611ea982611eb0565b9050919050565b6000611ebb82611df6565b9050919050565b82818337600083830152505050565b60005b83811015611eef578082015181840152602081019050611ed4565b83811115611efe576000848401525b50505050565b6000601f19601f8301169050919050565b611f1e81611d88565b8114611f2957600080fd5b50565b611f3581611d9a565b8114611f4057600080fd5b50565b611f4c81611dac565b8114611f5757600080fd5b50565b611f6381611de4565b8114611f6e57600080fd5b50565b611f7a81611e16565b8114611f8557600080fd5b5056fea365627a7a72315820eb72892c84a1dab4e2065281a1aeae5cf9604d918ebcc2bff51238670fae00a56c6578706572696d656e74616cf564736f6c63430005100040",
  "source": "/*\n    Main contract to handle Aave flashloans on Compound Finance.\n    (D)edge's (A)ave (C)ommon Proxy.\n*/\n\npragma solidity 0.5.16;\npragma experimental ABIEncoderV2;\n\nimport \"../lib/BytesLib.sol\";\nimport \"../lib/aave/FlashLoanReceiverBase.sol\";\nimport \"../lib/dapphub/Proxy.sol\";\n\nimport \"../interfaces/IERC20.sol\";\n\ncontract DACProxy is\n    DSProxy(address(1)),\n    FlashLoanReceiverBase,\n    BytesLibLite\n{\n    // TODO: Change this value\n    address payable constant protocolFeePayoutAddress = 0x56D5e01D5D2F853aA8f4ac5d2FfB4cBBCa9e2b0f;\n\n    constructor(address _cacheAddr) public {\n        setCache(_cacheAddr);\n    }\n\n    function() external payable {}\n\n    // This is for Aave flashloans\n    function executeOperation(\n        address _reserve,\n        uint256 _amount,\n        uint256 _fee,\n        bytes calldata _params\n    ) external\n        auth\n    {\n        // Assumes that once the action(s) are performed\n        // we will have totalDebt would of _reserve to repay\n        // aave and the protocol\n        uint protocolFee = _fee.div(2);\n\n        // Re-encodes new data \n        // Function signature should conform to:\n        /* (\n                // Note: for address, as abiEncoder pads it to 32 bytes our starting position is 12\n                // due to addresses having 20 bytes in length\n                address     - Address to call        | start: 12;  (20 bytes)\n                bytes       - Function sig           | start: 32;  (4 bytes)\n                uint        - Data of _amount        | start: 36;  (32 bytes)\n                uint        - Data of _aaveFee       | start: 68;  (32 bytes)\n                uint        - Data of _protocolFee   | start: 100; (32 bytes)\n                bytes       - Data of _data          | start: 132; (dynamic length)\n            )\n\n            i.e.\n\n            function myFunction(\n                uint amount,\n                uint aaveFee,\n                uint protocolFee,\n                bytes memory _data\n            ) { ... }\n        */\n        address targetAddress = bytesToAddress(_params, 12);\n        bytes memory fSig     = slice(_params, 32, 4);\n        bytes memory data     = sliceToEnd(_params, 132);\n\n        // Re-encodes function signature and injects new\n        // _amount, _fee, and _protocolFee into _data\n        bytes memory newData = abi.encodePacked(\n            fSig,\n            abi.encode(_amount),\n            abi.encode(_fee),\n            abi.encode(protocolFee),\n            data\n        );\n\n        // Executes new target\n        execute(targetAddress, newData);\n\n        // Repays protocol fee\n        if (_reserve == 0xEeeeeEeeeEeEeeEeEeEeeEEEeeeeEeeeeeeeEEeE) {\n            protocolFeePayoutAddress.call.value(protocolFee)(\"\");\n        } else {\n            IERC20(_reserve).transfer(protocolFeePayoutAddress, protocolFee);\n        }\n\n        // Repays aave\n        transferFundsBackToPoolInternal(_reserve, _amount.add(_fee));\n    }\n}",
  "sourcePath": "/home/kendrick/Development/Ethereum/dedge/packages/smart-contracts/src/proxies/DACProxy.sol",
  "compiler": {
    "name": "solc",
    "version": "0.5.16+commit.9c3226ce.Emscripten.clang"
  },
  "schemaVersion": "3.0.23",
  "updatedAt": "2020-03-31T21:20:40.526Z",
  "devdoc": {
    "methods": {}
  },
  "userdoc": {
    "methods": {}
  }
}