{
  "contractName": "DACProxyFactory",
  "abi": [
    {
      "inputs": [],
      "payable": false,
      "stateMutability": "nonpayable",
      "type": "constructor"
    },
    {
      "anonymous": false,
      "inputs": [
        {
          "indexed": true,
          "internalType": "address",
          "name": "sender",
          "type": "address"
        },
        {
          "indexed": true,
          "internalType": "address",
          "name": "owner",
          "type": "address"
        },
        {
          "indexed": false,
          "internalType": "address",
          "name": "proxy",
          "type": "address"
        },
        {
          "indexed": false,
          "internalType": "address",
          "name": "cache",
          "type": "address"
        }
      ],
      "name": "Created",
      "type": "event"
    },
    {
      "constant": true,
      "inputs": [],
      "name": "cache",
      "outputs": [
        {
          "internalType": "contract DSProxyCache",
          "name": "",
          "type": "address"
        }
      ],
      "payable": false,
      "stateMutability": "view",
      "type": "function"
    },
    {
      "constant": true,
      "inputs": [],
      "name": "dsGuardFactory",
      "outputs": [
        {
          "internalType": "contract DSGuardFactory",
          "name": "",
          "type": "address"
        }
      ],
      "payable": false,
      "stateMutability": "view",
      "type": "function"
    },
    {
      "constant": true,
      "inputs": [
        {
          "internalType": "address",
          "name": "",
          "type": "address"
        }
      ],
      "name": "proxies",
      "outputs": [
        {
          "internalType": "address",
          "name": "",
          "type": "address"
        }
      ],
      "payable": false,
      "stateMutability": "view",
      "type": "function"
    },
    {
      "constant": false,
      "inputs": [],
      "name": "build",
      "outputs": [
        {
          "internalType": "address payable",
          "name": "proxy",
          "type": "address"
        }
      ],
      "payable": false,
      "stateMutability": "nonpayable",
      "type": "function"
    },
    {
      "constant": false,
      "inputs": [
        {
          "internalType": "address",
          "name": "owner",
          "type": "address"
        }
      ],
      "name": "build",
      "outputs": [
        {
          "internalType": "address payable",
          "name": "",
          "type": "address"
        }
      ],
      "payable": false,
      "stateMutability": "nonpayable",
      "type": "function"
    },
    {
      "constant": false,
      "inputs": [
        {
          "internalType": "address",
          "name": "owner",
          "type": "address"
        },
        {
          "internalType": "address",
          "name": "dedgeCompoundManager",
          "type": "address"
        },
        {
          "internalType": "bytes",
          "name": "enterMarketCalldata",
          "type": "bytes"
        }
      ],
      "name": "buildAndEnterMarkets",
      "outputs": [
        {
          "internalType": "address payable",
          "name": "",
          "type": "address"
        }
      ],
      "payable": false,
      "stateMutability": "nonpayable",
      "type": "function"
    },
    {
      "constant": false,
      "inputs": [
        {
          "internalType": "address",
          "name": "dedgeCompoundManager",
          "type": "address"
        },
        {
          "internalType": "bytes",
          "name": "enterMarketCalldata",
          "type": "bytes"
        }
      ],
      "name": "buildAndEnterMarkets",
      "outputs": [
        {
          "internalType": "address payable",
          "name": "",
          "type": "address"
        }
      ],
      "payable": false,
      "stateMutability": "nonpayable",
      "type": "function"
    }
  ],
  "bytecode": "0x608060405234801561001057600080fd5b5060405161001d906100e8565b604051809103906000f080158015610039573d6000803e3d6000fd5b50600160006101000a81548173ffffffffffffffffffffffffffffffffffffffff021916908373ffffffffffffffffffffffffffffffffffffffff160217905550604051610086906100f6565b604051809103906000f0801580156100a2573d6000803e3d6000fd5b50600260006101000a81548173ffffffffffffffffffffffffffffffffffffffff021916908373ffffffffffffffffffffffffffffffffffffffff160217905550610104565b6103548062003cc583390190565b6113d9806200401983390190565b613bb180620001146000396000f3fe60806040523480156200001157600080fd5b5060043610620000885760003560e01c80638e1a55fc11620000635780638e1a55fc1462000266578063c455279114620002b2578063ddd2d6ac1462000339578063f3701da2146200045a5762000088565b80632e5c9848146200008d57806360c7d29514620000d95780636456568b1462000125575b600080fd5b62000097620004e1565b604051808273ffffffffffffffffffffffffffffffffffffffff1673ffffffffffffffffffffffffffffffffffffffff16815260200191505060405180910390f35b620000e362000507565b604051808273ffffffffffffffffffffffffffffffffffffffff1673ffffffffffffffffffffffffffffffffffffffff16815260200191505060405180910390f35b62000224600480360360608110156200013d57600080fd5b81019080803573ffffffffffffffffffffffffffffffffffffffff169060200190929190803573ffffffffffffffffffffffffffffffffffffffff169060200190929190803590602001906401000000008111156200019b57600080fd5b820183602082011115620001ae57600080fd5b80359060200191846001830284011164010000000083111715620001d157600080fd5b91908080601f016020809104026020016040519081016040528093929190818152602001838380828437600081840152601f19601f8201169050808301925050505050505091929192905050506200052d565b604051808273ffffffffffffffffffffffffffffffffffffffff1673ffffffffffffffffffffffffffffffffffffffff16815260200191505060405180910390f35b6200027062000c8b565b604051808273ffffffffffffffffffffffffffffffffffffffff1673ffffffffffffffffffffffffffffffffffffffff16815260200191505060405180910390f35b620002f760048036036020811015620002ca57600080fd5b81019080803573ffffffffffffffffffffffffffffffffffffffff16906020019092919050505062000c9d565b604051808273ffffffffffffffffffffffffffffffffffffffff1673ffffffffffffffffffffffffffffffffffffffff16815260200191505060405180910390f35b62000418600480360360408110156200035157600080fd5b81019080803573ffffffffffffffffffffffffffffffffffffffff169060200190929190803590602001906401000000008111156200038f57600080fd5b820183602082011115620003a257600080fd5b80359060200191846001830284011164010000000083111715620003c557600080fd5b91908080601f016020809104026020016040519081016040528093929190818152602001838380828437600081840152601f19601f82011690508083019250505050505050919291929050505062000cd0565b604051808273ffffffffffffffffffffffffffffffffffffffff1673ffffffffffffffffffffffffffffffffffffffff16815260200191505060405180910390f35b6200049f600480360360208110156200047257600080fd5b81019080803573ffffffffffffffffffffffffffffffffffffffff16906020019092919050505062000ce7565b604051808273ffffffffffffffffffffffffffffffffffffffff1673ffffffffffffffffffffffffffffffffffffffff16815260200191505060405180910390f35b600260009054906101000a900473ffffffffffffffffffffffffffffffffffffffff1681565b600160009054906101000a900473ffffffffffffffffffffffffffffffffffffffff1681565b60008073ffffffffffffffffffffffffffffffffffffffff166000808673ffffffffffffffffffffffffffffffffffffffff1673ffffffffffffffffffffffffffffffffffffffff16815260200190815260200160002060009054906101000a900473ffffffffffffffffffffffffffffffffffffffff1673ffffffffffffffffffffffffffffffffffffffff161462000628576000808573ffffffffffffffffffffffffffffffffffffffff1673ffffffffffffffffffffffffffffffffffffffff16815260200190815260200160002060009054906101000a900473ffffffffffffffffffffffffffffffffffffffff16905062000c84565b6000600160009054906101000a900473ffffffffffffffffffffffffffffffffffffffff166040516200065b9062001251565b808273ffffffffffffffffffffffffffffffffffffffff1673ffffffffffffffffffffffffffffffffffffffff168152602001915050604051809103906000f080158015620006ae573d6000803e3d6000fd5b5090508473ffffffffffffffffffffffffffffffffffffffff163373ffffffffffffffffffffffffffffffffffffffff167f259b30ca39885c6d801a0b5dbc988640f3c25e2f37531fe138c5c5af8955d41b83600160009054906101000a900473ffffffffffffffffffffffffffffffffffffffff16604051808373ffffffffffffffffffffffffffffffffffffffff1673ffffffffffffffffffffffffffffffffffffffff1681526020018273ffffffffffffffffffffffffffffffffffffffff1673ffffffffffffffffffffffffffffffffffffffff1681526020019250505060405180910390a36000600260009054906101000a900473ffffffffffffffffffffffffffffffffffffffff1673ffffffffffffffffffffffffffffffffffffffff166365688cc96040518163ffffffff1660e01b8152600401602060405180830381600087803b1580156200080557600080fd5b505af11580156200081a573d6000803e3d6000fd5b505050506040513d60208110156200083157600080fd5b810190808051906020019092919050505090508073ffffffffffffffffffffffffffffffffffffffff166313af4035836040518263ffffffff1660e01b8152600401808273ffffffffffffffffffffffffffffffffffffffff1673ffffffffffffffffffffffffffffffffffffffff168152602001915050600060405180830381600087803b158015620008c457600080fd5b505af1158015620008d9573d6000803e3d6000fd5b505050508173ffffffffffffffffffffffffffffffffffffffff16631cff79cd86866040518363ffffffff1660e01b8152600401808373ffffffffffffffffffffffffffffffffffffffff1673ffffffffffffffffffffffffffffffffffffffff16815260200180602001828103825283818151815260200191508051906020019080838360005b838110156200097e57808201518184015260208101905062000961565b50505050905090810190601f168015620009ac5780820380516001836020036101000a031916815260200191505b509350505050600060405180830381600087803b158015620009cd57600080fd5b505af1158015620009e2573d6000803e3d6000fd5b505050506040513d6000823e3d601f19601f82011682018060405250602081101562000a0d57600080fd5b810190808051604051939291908464010000000082111562000a2e57600080fd5b8382019150602082018581111562000a4557600080fd5b825186600182028301116401000000008211171562000a6357600080fd5b8083526020830192505050908051906020019080838360005b8381101562000a9957808201518184015260208101905062000a7c565b50505050905090810190601f16801562000ac75780820380516001836020036101000a031916815260200191505b50604052505050508173ffffffffffffffffffffffffffffffffffffffff16637a9e5e4b826040518263ffffffff1660e01b8152600401808273ffffffffffffffffffffffffffffffffffffffff1673ffffffffffffffffffffffffffffffffffffffff168152602001915050600060405180830381600087803b15801562000b4f57600080fd5b505af115801562000b64573d6000803e3d6000fd5b505050508173ffffffffffffffffffffffffffffffffffffffff166313af4035876040518263ffffffff1660e01b8152600401808273ffffffffffffffffffffffffffffffffffffffff1673ffffffffffffffffffffffffffffffffffffffff168152602001915050600060405180830381600087803b15801562000be857600080fd5b505af115801562000bfd573d6000803e3d6000fd5b50505050816000808873ffffffffffffffffffffffffffffffffffffffff1673ffffffffffffffffffffffffffffffffffffffff16815260200190815260200160002060006101000a81548173ffffffffffffffffffffffffffffffffffffffff021916908373ffffffffffffffffffffffffffffffffffffffff16021790555081925050505b9392505050565b600062000c983362000ce7565b905090565b60006020528060005260406000206000915054906101000a900473ffffffffffffffffffffffffffffffffffffffff1681565b600062000cdf3384846200052d565b905092915050565b60008073ffffffffffffffffffffffffffffffffffffffff166000808473ffffffffffffffffffffffffffffffffffffffff1673ffffffffffffffffffffffffffffffffffffffff16815260200190815260200160002060009054906101000a900473ffffffffffffffffffffffffffffffffffffffff1673ffffffffffffffffffffffffffffffffffffffff161462000de2576000808373ffffffffffffffffffffffffffffffffffffffff1673ffffffffffffffffffffffffffffffffffffffff16815260200190815260200160002060009054906101000a900473ffffffffffffffffffffffffffffffffffffffff1690506200124c565b6000600160009054906101000a900473ffffffffffffffffffffffffffffffffffffffff1660405162000e159062001251565b808273ffffffffffffffffffffffffffffffffffffffff1673ffffffffffffffffffffffffffffffffffffffff168152602001915050604051809103906000f08015801562000e68573d6000803e3d6000fd5b5090508273ffffffffffffffffffffffffffffffffffffffff163373ffffffffffffffffffffffffffffffffffffffff167f259b30ca39885c6d801a0b5dbc988640f3c25e2f37531fe138c5c5af8955d41b83600160009054906101000a900473ffffffffffffffffffffffffffffffffffffffff16604051808373ffffffffffffffffffffffffffffffffffffffff1673ffffffffffffffffffffffffffffffffffffffff1681526020018273ffffffffffffffffffffffffffffffffffffffff1673ffffffffffffffffffffffffffffffffffffffff1681526020019250505060405180910390a36000600260009054906101000a900473ffffffffffffffffffffffffffffffffffffffff1673ffffffffffffffffffffffffffffffffffffffff166365688cc96040518163ffffffff1660e01b8152600401602060405180830381600087803b15801562000fbf57600080fd5b505af115801562000fd4573d6000803e3d6000fd5b505050506040513d602081101562000feb57600080fd5b810190808051906020019092919050505090508073ffffffffffffffffffffffffffffffffffffffff166313af4035836040518263ffffffff1660e01b8152600401808273ffffffffffffffffffffffffffffffffffffffff1673ffffffffffffffffffffffffffffffffffffffff168152602001915050600060405180830381600087803b1580156200107e57600080fd5b505af115801562001093573d6000803e3d6000fd5b505050508173ffffffffffffffffffffffffffffffffffffffff16637a9e5e4b826040518263ffffffff1660e01b8152600401808273ffffffffffffffffffffffffffffffffffffffff1673ffffffffffffffffffffffffffffffffffffffff168152602001915050600060405180830381600087803b1580156200111757600080fd5b505af11580156200112c573d6000803e3d6000fd5b505050508173ffffffffffffffffffffffffffffffffffffffff166313af4035856040518263ffffffff1660e01b8152600401808273ffffffffffffffffffffffffffffffffffffffff1673ffffffffffffffffffffffffffffffffffffffff168152602001915050600060405180830381600087803b158015620011b057600080fd5b505af1158015620011c5573d6000803e3d6000fd5b50505050816000808673ffffffffffffffffffffffffffffffffffffffff1673ffffffffffffffffffffffffffffffffffffffff16815260200190815260200160002060006101000a81548173ffffffffffffffffffffffffffffffffffffffff021916908373ffffffffffffffffffffffffffffffffffffffff16021790555081925050505b919050565b61291d80620012608339019056fe60806040527324a42fd28c976a61df5d00d0599c34c4f90748c8600360006101000a81548173ffffffffffffffffffffffffffffffffffffffff021916908373ffffffffffffffffffffffffffffffffffffffff1602179055503480156200006657600080fd5b506040516200291d3803806200291d83398181016040526200008c9190810190620004f2565b600133600160006101000a81548173ffffffffffffffffffffffffffffffffffffffff021916908373ffffffffffffffffffffffffffffffffffffffff1602179055503373ffffffffffffffffffffffffffffffffffffffff167fce241d7ca1f669fee44b6fc00b8eba2df3bb514eed0f6f668f8f89096e81ed9460405160405180910390a262000123816200013e60201b60201c565b505062000136816200013e60201b60201c565b5050620007d7565b600062000176336000357fffffffff00000000000000000000000000000000000000000000000000000000166200030460201b60201c565b620001b8576040517f08c379a0000000000000000000000000000000000000000000000000000000008152600401620001af9062000671565b60405180910390fd5b60008060006004359250602435915034905081833373ffffffffffffffffffffffffffffffffffffffff166000357fffffffff00000000000000000000000000000000000000000000000000000000167bffffffffffffffffffffffffffffffffffffffffffffffffffffffff1916846000366040516200023c93929190620006b5565b60405180910390a4600073ffffffffffffffffffffffffffffffffffffffff168573ffffffffffffffffffffffffffffffffffffffff161415620002b7576040517f08c379a0000000000000000000000000000000000000000000000000000000008152600401620002ae9062000693565b60405180910390fd5b84600260006101000a81548173ffffffffffffffffffffffffffffffffffffffff021916908373ffffffffffffffffffffffffffffffffffffffff16021790555060019350505050919050565b60003073ffffffffffffffffffffffffffffffffffffffff168373ffffffffffffffffffffffffffffffffffffffff161415620003455760019050620004be565b600160009054906101000a900473ffffffffffffffffffffffffffffffffffffffff1673ffffffffffffffffffffffffffffffffffffffff168373ffffffffffffffffffffffffffffffffffffffff161415620003a65760019050620004be565b600073ffffffffffffffffffffffffffffffffffffffff166000809054906101000a900473ffffffffffffffffffffffffffffffffffffffff1673ffffffffffffffffffffffffffffffffffffffff161415620004075760009050620004be565b6000809054906101000a900473ffffffffffffffffffffffffffffffffffffffff1673ffffffffffffffffffffffffffffffffffffffff1663b70096138430856040518463ffffffff1660e01b8152600401620004679392919062000634565b60206040518083038186803b1580156200048057600080fd5b505afa15801562000495573d6000803e3d6000fd5b505050506040513d601f19601f82011682018060405250620004bb91908101906200051e565b90505b92915050565b600081519050620004d581620007a3565b92915050565b600081519050620004ec81620007bd565b92915050565b6000602082840312156200050557600080fd5b60006200051584828501620004c4565b91505092915050565b6000602082840312156200053157600080fd5b60006200054184828501620004db565b91505092915050565b62000555816200070d565b82525050565b62000566816200072d565b82525050565b60006200057a8385620006eb565b93506200058983858462000783565b620005948362000792565b840190509392505050565b6000620005ae601483620006fc565b91507f64732d617574682d756e617574686f72697a65640000000000000000000000006000830152602082019050919050565b6000620005f0601f83620006fc565b91507f64732d70726f78792d63616368652d616464726573732d7265717569726564006000830152602082019050919050565b6200062e8162000779565b82525050565b60006060820190506200064b60008301866200054a565b6200065a60208301856200054a565b6200066960408301846200055b565b949350505050565b600060208201905081810360008301526200068c816200059f565b9050919050565b60006020820190508181036000830152620006ae81620005e1565b9050919050565b6000604082019050620006cc600083018662000623565b8181036020830152620006e18184866200056c565b9050949350505050565b600082825260208201905092915050565b600082825260208201905092915050565b60006200071a8262000759565b9050919050565b60008115159050919050565b60007fffffffff0000000000000000000000000000000000000000000000000000000082169050919050565b600073ffffffffffffffffffffffffffffffffffffffff82169050919050565b6000819050919050565b82818337600083830152505050565b6000601f19601f8301169050919050565b620007ae816200070d565b8114620007ba57600080fd5b50565b620007c88162000721565b8114620007d457600080fd5b50565b61213680620007e76000396000f3fe6080604052600436106100915760003560e01c80638da5cb5b116100595780638da5cb5b14610171578063948f50761461019c578063bf7e214f146101d9578063c72c4d1014610204578063ee8725581461022f57610091565b806313af4035146100935780631cff79cd146100bc5780631f6a1eb9146100ec57806360c7d2951461011d5780637a9e5e4b14610148575b005b34801561009f57600080fd5b506100ba60048036036100b591908101906116a0565b610258565b005b6100d660048036036100d1919081019061171b565b61036e565b6040516100e39190611cb5565b60405180910390f35b61010660048036036101019190810190611818565b61052a565b604051610114929190611c6a565b60405180910390f35b34801561012957600080fd5b506101326106d3565b60405161013f9190611cf2565b60405180910390f35b34801561015457600080fd5b5061016f600480360361016a9190810190611884565b6106f9565b005b34801561017d57600080fd5b5061018661080d565b6040516101939190611bef565b60405180910390f35b3480156101a857600080fd5b506101c360048036036101be91908101906116a0565b610833565b6040516101d09190611c9a565b60405180910390f35b3480156101e557600080fd5b506101ee6109e9565b6040516101fb9190611cd7565b60405180910390f35b34801561021057600080fd5b50610219610a0e565b6040516102269190611d0d565b60405180910390f35b34801561023b57600080fd5b506102566004803603610251919081019061176f565b610a34565b005b610286336000357fffffffff0000000000000000000000000000000000000000000000000000000016610f48565b6102c5576040517f08c379a00000000000000000000000000000000000000000000000000000000081526004016102bc90611d4a565b60405180910390fd5b80600160006101000a81548173ffffffffffffffffffffffffffffffffffffffff021916908373ffffffffffffffffffffffffffffffffffffffff160217905550600160009054906101000a900473ffffffffffffffffffffffffffffffffffffffff1673ffffffffffffffffffffffffffffffffffffffff167fce241d7ca1f669fee44b6fc00b8eba2df3bb514eed0f6f668f8f89096e81ed9460405160405180910390a250565b606061039e336000357fffffffff0000000000000000000000000000000000000000000000000000000016610f48565b6103dd576040517f08c379a00000000000000000000000000000000000000000000000000000000081526004016103d490611d4a565b60405180910390fd5b60008060006004359250602435915034905081833373ffffffffffffffffffffffffffffffffffffffff166000357fffffffff00000000000000000000000000000000000000000000000000000000167bffffffffffffffffffffffffffffffffffffffffffffffffffffffff19168460003660405161045f93929190611e25565b60405180910390a4600073ffffffffffffffffffffffffffffffffffffffff168673ffffffffffffffffffffffffffffffffffffffff1614156104d7576040517f08c379a00000000000000000000000000000000000000000000000000000000081526004016104ce90611daa565b60405180910390fd5b600080865160208801896113885a03f43d6040519550601f19601f6020830101168601604052808652806000602088013e8115600181146105175761051e565b8160208801fd5b50505050505092915050565b60006060600260009054906101000a900473ffffffffffffffffffffffffffffffffffffffff1673ffffffffffffffffffffffffffffffffffffffff16638bf4515c856040518263ffffffff1660e01b81526004016105899190611cb5565b60206040518083038186803b1580156105a157600080fd5b505afa1580156105b5573d6000803e3d6000fd5b505050506040513d601f19601f820116820180604052506105d991908101906116c9565b9150600073ffffffffffffffffffffffffffffffffffffffff168273ffffffffffffffffffffffffffffffffffffffff1614156106c057600260009054906101000a900473ffffffffffffffffffffffffffffffffffffffff1673ffffffffffffffffffffffffffffffffffffffff16637ed0c3b2856040518263ffffffff1660e01b815260040161066b9190611cb5565b602060405180830381600087803b15801561068557600080fd5b505af1158015610699573d6000803e3d6000fd5b505050506040513d601f19601f820116820180604052506106bd91908101906116c9565b91505b6106ca828461036e565b90509250929050565b600260009054906101000a900473ffffffffffffffffffffffffffffffffffffffff1681565b610727336000357fffffffff0000000000000000000000000000000000000000000000000000000016610f48565b610766576040517f08c379a000000000000000000000000000000000000000000000000000000000815260040161075d90611d4a565b60405180910390fd5b806000806101000a81548173ffffffffffffffffffffffffffffffffffffffff021916908373ffffffffffffffffffffffffffffffffffffffff1602179055506000809054906101000a900473ffffffffffffffffffffffffffffffffffffffff1673ffffffffffffffffffffffffffffffffffffffff167f1abebea81bfa2637f28358c371278fb15ede7ea8dd28d2e03b112ff6d936ada460405160405180910390a250565b600160009054906101000a900473ffffffffffffffffffffffffffffffffffffffff1681565b6000610863336000357fffffffff0000000000000000000000000000000000000000000000000000000016610f48565b6108a2576040517f08c379a000000000000000000000000000000000000000000000000000000000815260040161089990611d4a565b60405180910390fd5b60008060006004359250602435915034905081833373ffffffffffffffffffffffffffffffffffffffff166000357fffffffff00000000000000000000000000000000000000000000000000000000167bffffffffffffffffffffffffffffffffffffffffffffffffffffffff19168460003660405161092493929190611e25565b60405180910390a4600073ffffffffffffffffffffffffffffffffffffffff168573ffffffffffffffffffffffffffffffffffffffff16141561099c576040517f08c379a000000000000000000000000000000000000000000000000000000000815260040161099390611dea565b60405180910390fd5b84600260006101000a81548173ffffffffffffffffffffffffffffffffffffffff021916908373ffffffffffffffffffffffffffffffffffffffff16021790555060019350505050919050565b6000809054906101000a900473ffffffffffffffffffffffffffffffffffffffff1681565b600360009054906101000a900473ffffffffffffffffffffffffffffffffffffffff1681565b610a62336000357fffffffff0000000000000000000000000000000000000000000000000000000016610f48565b610aa1576040517f08c379a0000000000000000000000000000000000000000000000000000000008152600401610a9890611d4a565b60405180910390fd5b6000610ab76002856110fc90919063ffffffff16565b90506000610b0a84848080601f016020809104026020016040519081016040528093929190818152602001838380828437600081840152601f19601f82011690508083019250505050505050600c611146565b90506060610b5f85858080601f016020809104026020016040519081016040528093929190818152602001838380828437600081840152601f19601f82011690508083019250505050505050602060046111b3565b90506060610bb286868080601f016020809104026020016040519081016040528093929190818152602001838380828437600081840152601f19601f820116905080830192505050505050506084611275565b905060608289604051602001610bc89190611e0a565b60405160208183030381529060405289604051602001610be89190611e0a565b60405160208183030381529060405287604051602001610c089190611e0a565b60405160208183030381529060405285604051602001610c2c959493929190611b8f565b6040516020818303038152906040529050610c47848261036e565b5073eeeeeeeeeeeeeeeeeeeeeeeeeeeeeeeeeeeeeeee73ffffffffffffffffffffffffffffffffffffffff168a73ffffffffffffffffffffffffffffffffffffffff161415610db55773773ccbfb422850617a5680d40b1260422d072f4173ffffffffffffffffffffffffffffffffffffffff16610ccf6002876110fc90919063ffffffff16565b604051610cdb90611bda565b60006040518083038185875af1925050503d8060008114610d18576040519150601f19603f3d011682016040523d82523d6000602084013e610d1d565b606091505b50505073abccb8f0a3c206bb0468c52ccc20f3b81077417b73ffffffffffffffffffffffffffffffffffffffff16610d5f6002876110fc90919063ffffffff16565b604051610d6b90611bda565b60006040518083038185875af1925050503d8060008114610da8576040519150601f19603f3d011682016040523d82523d6000602084013e610dad565b606091505b505050610f20565b8973ffffffffffffffffffffffffffffffffffffffff1663a9059cbb73773ccbfb422850617a5680d40b1260422d072f41610dfa6002896110fc90919063ffffffff16565b6040518363ffffffff1660e01b8152600401610e17929190611c0a565b602060405180830381600087803b158015610e3157600080fd5b505af1158015610e45573d6000803e3d6000fd5b505050506040513d601f19601f82011682018060405250610e6991908101906117ef565b508973ffffffffffffffffffffffffffffffffffffffff1663a9059cbb73abccb8f0a3c206bb0468c52ccc20f3b81077417b610eaf6002896110fc90919063ffffffff16565b6040518363ffffffff1660e01b8152600401610ecc929190611c0a565b602060405180830381600087803b158015610ee657600080fd5b505af1158015610efa573d6000803e3d6000fd5b505050506040513d601f19601f82011682018060405250610f1e91908101906117ef565b505b610f3c8a610f378a8c6112d090919063ffffffff16565b611325565b50505050505050505050565b60003073ffffffffffffffffffffffffffffffffffffffff168373ffffffffffffffffffffffffffffffffffffffff161415610f8757600190506110f6565b600160009054906101000a900473ffffffffffffffffffffffffffffffffffffffff1673ffffffffffffffffffffffffffffffffffffffff168373ffffffffffffffffffffffffffffffffffffffff161415610fe657600190506110f6565b600073ffffffffffffffffffffffffffffffffffffffff166000809054906101000a900473ffffffffffffffffffffffffffffffffffffffff1673ffffffffffffffffffffffffffffffffffffffff16141561104557600090506110f6565b6000809054906101000a900473ffffffffffffffffffffffffffffffffffffffff1673ffffffffffffffffffffffffffffffffffffffff1663b70096138430856040518463ffffffff1660e01b81526004016110a393929190611c33565b60206040518083038186803b1580156110bb57600080fd5b505afa1580156110cf573d6000803e3d6000fd5b505050506040513d601f19601f820116820180604052506110f391908101906117ef565b90505b92915050565b600061113e83836040518060400160405280601a81526020017f536166654d6174683a206469766973696f6e206279207a65726f0000000000008152506113d9565b905092915050565b6000601482018351101561118f576040517f08c379a000000000000000000000000000000000000000000000000000000000815260040161118690611d8a565b60405180910390fd5b60006c01000000000000000000000000836020860101510490508091505092915050565b6060818301845110156111fb576040517f08c379a00000000000000000000000000000000000000000000000000000000081526004016111f290611dca565b60405180910390fd5b606082156000811461121857604051915060208201604052611269565b6040519150601f8416801560200281840101858101878315602002848b0101015b818310156112565780518352602083019250602081019050611239565b50868552601f19601f8301166040525050505b50809150509392505050565b6060825182106112ba576040517f08c379a00000000000000000000000000000000000000000000000000000000081526004016112b190611dca565b60405180910390fd5b6112c88383848651036111b3565b905092915050565b60008082840190508381101561131b576040517f08c379a000000000000000000000000000000000000000000000000000000000815260040161131290611d6a565b60405180910390fd5b8091505092915050565b6000600360009054906101000a900473ffffffffffffffffffffffffffffffffffffffff1673ffffffffffffffffffffffffffffffffffffffff1663ed6ff7606040518163ffffffff1660e01b815260040160206040518083038186803b15801561138f57600080fd5b505afa1580156113a3573d6000803e3d6000fd5b505050506040513d601f19601f820116820180604052506113c791908101906116f2565b90506113d481848461143a565b505050565b60008083118290611420576040517f08c379a00000000000000000000000000000000000000000000000000000000081526004016114179190611d28565b60405180910390fd5b50600083858161142c57fe5b049050809150509392505050565b73eeeeeeeeeeeeeeeeeeeeeeeeeeeeeeeeeeeeeeee73ffffffffffffffffffffffffffffffffffffffff168273ffffffffffffffffffffffffffffffffffffffff1614156114f0578273ffffffffffffffffffffffffffffffffffffffff16816040516114a690611bda565b60006040518083038185875af1925050503d80600081146114e3576040519150601f19603f3d011682016040523d82523d6000602084013e6114e8565b606091505b50505061157f565b8173ffffffffffffffffffffffffffffffffffffffff1663a9059cbb84836040518363ffffffff1660e01b815260040161152b929190611c0a565b602060405180830381600087803b15801561154557600080fd5b505af1158015611559573d6000803e3d6000fd5b505050506040513d601f19601f8201168201806040525061157d91908101906117ef565b505b505050565b60008135905061159381612080565b92915050565b6000815190506115a881612080565b92915050565b6000815190506115bd81612097565b92915050565b6000815190506115d2816120ae565b92915050565b60008083601f8401126115ea57600080fd5b8235905067ffffffffffffffff81111561160357600080fd5b60208301915083600182028301111561161b57600080fd5b9250929050565b600082601f83011261163357600080fd5b813561164661164182611e84565b611e57565b9150808252602083016020830185838301111561166257600080fd5b61166d83828461202d565b50505092915050565b600081359050611685816120c5565b92915050565b60008135905061169a816120dc565b92915050565b6000602082840312156116b257600080fd5b60006116c084828501611584565b91505092915050565b6000602082840312156116db57600080fd5b60006116e984828501611599565b91505092915050565b60006020828403121561170457600080fd5b6000611712848285016115ae565b91505092915050565b6000806040838503121561172e57600080fd5b600061173c85828601611584565b925050602083013567ffffffffffffffff81111561175957600080fd5b61176585828601611622565b9150509250929050565b60008060008060006080868803121561178757600080fd5b600061179588828901611584565b95505060206117a68882890161168b565b94505060406117b78882890161168b565b935050606086013567ffffffffffffffff8111156117d457600080fd5b6117e0888289016115d8565b92509250509295509295909350565b60006020828403121561180157600080fd5b600061180f848285016115c3565b91505092915050565b6000806040838503121561182b57600080fd5b600083013567ffffffffffffffff81111561184557600080fd5b61185185828601611622565b925050602083013567ffffffffffffffff81111561186e57600080fd5b61187a85828601611622565b9150509250929050565b60006020828403121561189657600080fd5b60006118a484828501611676565b91505092915050565b6118b681611f8b565b82525050565b6118c581611ef3565b82525050565b6118d481611f17565b82525050565b6118e381611f23565b82525050565b60006118f58385611ec6565b935061190283858461202d565b61190b8361206f565b840190509392505050565b600061192182611eb0565b61192b8185611ec6565b935061193b81856020860161203c565b6119448161206f565b840191505092915050565b600061195a82611eb0565b6119648185611ed7565b935061197481856020860161203c565b80840191505092915050565b61198981611f9d565b82525050565b61199881611fc1565b82525050565b6119a781611fe5565b82525050565b60006119b882611ebb565b6119c28185611ee2565b93506119d281856020860161203c565b6119db8161206f565b840191505092915050565b60006119f3601483611ee2565b91507f64732d617574682d756e617574686f72697a65640000000000000000000000006000830152602082019050919050565b6000611a33601b83611ee2565b91507f536166654d6174683a206164646974696f6e206f766572666c6f7700000000006000830152602082019050919050565b6000611a73601283611ee2565b91507f52656164206f7574206f6620626f756e647300000000000000000000000000006000830152602082019050919050565b6000611ab3602083611ee2565b91507f64732d70726f78792d7461726765742d616464726573732d72657175697265646000830152602082019050919050565b6000611af3600083611ed7565b9150600082019050919050565b6000611b0d601883611ee2565b91507f62797465732d726561642d6f75742d6f662d626f756e647300000000000000006000830152602082019050919050565b6000611b4d601f83611ee2565b91507f64732d70726f78792d63616368652d616464726573732d7265717569726564006000830152602082019050919050565b611b8981611f81565b82525050565b6000611b9b828861194f565b9150611ba7828761194f565b9150611bb3828661194f565b9150611bbf828561194f565b9150611bcb828461194f565b91508190509695505050505050565b6000611be582611ae6565b9150819050919050565b6000602082019050611c0460008301846118bc565b92915050565b6000604082019050611c1f60008301856118ad565b611c2c6020830184611b80565b9392505050565b6000606082019050611c4860008301866118bc565b611c5560208301856118bc565b611c6260408301846118da565b949350505050565b6000604082019050611c7f60008301856118bc565b8181036020830152611c918184611916565b90509392505050565b6000602082019050611caf60008301846118cb565b92915050565b60006020820190508181036000830152611ccf8184611916565b905092915050565b6000602082019050611cec6000830184611980565b92915050565b6000602082019050611d07600083018461198f565b92915050565b6000602082019050611d22600083018461199e565b92915050565b60006020820190508181036000830152611d4281846119ad565b905092915050565b60006020820190508181036000830152611d63816119e6565b9050919050565b60006020820190508181036000830152611d8381611a26565b9050919050565b60006020820190508181036000830152611da381611a66565b9050919050565b60006020820190508181036000830152611dc381611aa6565b9050919050565b60006020820190508181036000830152611de381611b00565b9050919050565b60006020820190508181036000830152611e0381611b40565b9050919050565b6000602082019050611e1f6000830184611b80565b92915050565b6000604082019050611e3a6000830186611b80565b8181036020830152611e4d8184866118e9565b9050949350505050565b6000604051905081810181811067ffffffffffffffff82111715611e7a57600080fd5b8060405250919050565b600067ffffffffffffffff821115611e9b57600080fd5b601f19601f8301169050602081019050919050565b600081519050919050565b600081519050919050565b600082825260208201905092915050565b600081905092915050565b600082825260208201905092915050565b6000611efe82611f61565b9050919050565b6000611f1082611f61565b9050919050565b60008115159050919050565b60007fffffffff0000000000000000000000000000000000000000000000000000000082169050919050565b6000611f5a82611ef3565b9050919050565b600073ffffffffffffffffffffffffffffffffffffffff82169050919050565b6000819050919050565b6000611f9682612009565b9050919050565b6000611fa882611faf565b9050919050565b6000611fba82611f61565b9050919050565b6000611fcc82611fd3565b9050919050565b6000611fde82611f61565b9050919050565b6000611ff082611ff7565b9050919050565b600061200282611f61565b9050919050565b60006120148261201b565b9050919050565b600061202682611f61565b9050919050565b82818337600083830152505050565b60005b8381101561205a57808201518184015260208101905061203f565b83811115612069576000848401525b50505050565b6000601f19601f8301169050919050565b61208981611ef3565b811461209457600080fd5b50565b6120a081611f05565b81146120ab57600080fd5b50565b6120b781611f17565b81146120c257600080fd5b50565b6120ce81611f4f565b81146120d957600080fd5b50565b6120e581611f81565b81146120f057600080fd5b5056fea365627a7a72315820a7e949e4f7bad72e45825d8ae15370f38f5f0a3f0755fc55d0f5833c02f1aa736c6578706572696d656e74616cf564736f6c63430005100040a265627a7a723158209e84e9dd3f6235e0625e94e4ffdac73a8ed158770886313cb62353a9ba1b6ca964736f6c63430005100032608060405234801561001057600080fd5b50610334806100206000396000f3fe608060405234801561001057600080fd5b50600436106100365760003560e01c80637ed0c3b21461003b5780638bf4515c14610136575b600080fd5b6100f46004803603602081101561005157600080fd5b810190808035906020019064010000000081111561006e57600080fd5b82018360208201111561008057600080fd5b803590602001918460018302840111640100000000831117156100a257600080fd5b91908080601f016020809104026020016040519081016040528093929190818152602001838380828437600081840152601f19601f820116905080830192505050505050509192919290505050610231565b604051808273ffffffffffffffffffffffffffffffffffffffff1673ffffffffffffffffffffffffffffffffffffffff16815260200191505060405180910390f35b6101ef6004803603602081101561014c57600080fd5b810190808035906020019064010000000081111561016957600080fd5b82018360208201111561017b57600080fd5b8035906020019184600183028401116401000000008311171561019d57600080fd5b91908080601f016020809104026020016040519081016040528093929190818152602001838380828437600081840152601f19601f8201169050808301925050505050505091929192905050506102b7565b604051808273ffffffffffffffffffffffffffffffffffffffff1673ffffffffffffffffffffffffffffffffffffffff16815260200191505060405180910390f35b60008151602083016000f09050803b156001811461024e57610253565b600080fd5b506000828051906020012090508160008083815260200190815260200160002060006101000a81548173ffffffffffffffffffffffffffffffffffffffff021916908373ffffffffffffffffffffffffffffffffffffffff16021790555050919050565b6000808280519060200120905060008082815260200190815260200160002060009054906101000a900473ffffffffffffffffffffffffffffffffffffffff1691505091905056fea265627a7a723158205c680b90a403d8f037d25bb23ad3d42a182a729375fb7624c7649d88b0d8024d64736f6c63430005100032608060405234801561001057600080fd5b506113b9806100206000396000f3fe608060405234801561001057600080fd5b50600436106100365760003560e01c8063489c12021461003b57806365688cc914610097575b600080fd5b61007d6004803603602081101561005157600080fd5b81019080803573ffffffffffffffffffffffffffffffffffffffff1690602001909291905050506100e1565b604051808215151515815260200191505060405180910390f35b61009f610101565b604051808273ffffffffffffffffffffffffffffffffffffffff1673ffffffffffffffffffffffffffffffffffffffff16815260200191505060405180910390f35b60006020528060005260406000206000915054906101000a900460ff1681565b600060405161010f9061021f565b604051809103906000f08015801561012b573d6000803e3d6000fd5b5090508073ffffffffffffffffffffffffffffffffffffffff166313af4035336040518263ffffffff1660e01b8152600401808273ffffffffffffffffffffffffffffffffffffffff1673ffffffffffffffffffffffffffffffffffffffff168152602001915050600060405180830381600087803b1580156101ad57600080fd5b505af11580156101c1573d6000803e3d6000fd5b5050505060016000808373ffffffffffffffffffffffffffffffffffffffff1673ffffffffffffffffffffffffffffffffffffffff16815260200190815260200160002060006101000a81548160ff02191690831515021790555090565b6111588061022d8339019056fe608060405233600160006101000a81548173ffffffffffffffffffffffffffffffffffffffff021916908373ffffffffffffffffffffffffffffffffffffffff1602179055503373ffffffffffffffffffffffffffffffffffffffff167fce241d7ca1f669fee44b6fc00b8eba2df3bb514eed0f6f668f8f89096e81ed9460405160405180910390a26110c1806100976000396000f3fe608060405234801561001057600080fd5b506004361061009e5760003560e01c8063a8542f6611610066578063a8542f6614610225578063b700961314610243578063bf7e214f146102e8578063cbeea68c14610332578063f0217ce5146103a05761009e565b806313af4035146100a35780632bc3217d146100e757806379d88d87146101555780637a9e5e4b146101975780638da5cb5b146101db575b600080fd5b6100e5600480360360208110156100b957600080fd5b81019080803573ffffffffffffffffffffffffffffffffffffffff1690602001909291905050506103e2565b005b610153600480360360608110156100fd57600080fd5b81019080803573ffffffffffffffffffffffffffffffffffffffff169060200190929190803573ffffffffffffffffffffffffffffffffffffffff1690602001909291908035906020019092919050505061052b565b005b6101956004803603606081101561016b57600080fd5b8101908080359060200190929190803590602001909291908035906020019092919050505061055f565b005b6101d9600480360360208110156101ad57600080fd5b81019080803573ffffffffffffffffffffffffffffffffffffffff169060200190929190505050610681565b005b6101e36107c8565b604051808273ffffffffffffffffffffffffffffffffffffffff1673ffffffffffffffffffffffffffffffffffffffff16815260200191505060405180910390f35b61022d6107ee565b6040518082815260200191505060405180910390f35b6102ce6004803603606081101561025957600080fd5b81019080803573ffffffffffffffffffffffffffffffffffffffff169060200190929190803573ffffffffffffffffffffffffffffffffffffffff16906020019092919080357bffffffffffffffffffffffffffffffffffffffffffffffffffffffff19169060200190929190505050610815565b604051808215151515815260200191505060405180910390f35b6102f0610cb8565b604051808273ffffffffffffffffffffffffffffffffffffffff1673ffffffffffffffffffffffffffffffffffffffff16815260200191505060405180910390f35b61039e6004803603606081101561034857600080fd5b81019080803573ffffffffffffffffffffffffffffffffffffffff169060200190929190803573ffffffffffffffffffffffffffffffffffffffff16906020019092919080359060200190929190505050610cdd565b005b6103e0600480360360608110156103b657600080fd5b81019080803590602001909291908035906020019092919080359060200190929190505050610d11565b005b610410336000357fffffffff0000000000000000000000000000000000000000000000000000000016610e33565b610482576040517f08c379a00000000000000000000000000000000000000000000000000000000081526004018080602001828103825260148152602001807f64732d617574682d756e617574686f72697a656400000000000000000000000081525060200191505060405180910390fd5b80600160006101000a81548173ffffffffffffffffffffffffffffffffffffffff021916908373ffffffffffffffffffffffffffffffffffffffff160217905550600160009054906101000a900473ffffffffffffffffffffffffffffffffffffffff1673ffffffffffffffffffffffffffffffffffffffff167fce241d7ca1f669fee44b6fc00b8eba2df3bb514eed0f6f668f8f89096e81ed9460405160405180910390a250565b61055a8360601b6bffffffffffffffffffffffff19168360601b6bffffffffffffffffffffffff19168361055f565b505050565b61058d336000357fffffffff0000000000000000000000000000000000000000000000000000000016610e33565b6105ff576040517f08c379a00000000000000000000000000000000000000000000000000000000081526004018080602001828103825260148152602001807f64732d617574682d756e617574686f72697a656400000000000000000000000081525060200191505060405180910390fd5b6000600260008581526020019081526020016000206000848152602001908152602001600020600083815260200190815260200160002060006101000a81548160ff0219169083151502179055508082847f95ba64c95d85e67ac83a0476c4a62ac2cf8ab2d0407545b8c9d79c3eefa6282960405160405180910390a4505050565b6106af336000357fffffffff0000000000000000000000000000000000000000000000000000000016610e33565b610721576040517f08c379a00000000000000000000000000000000000000000000000000000000081526004018080602001828103825260148152602001807f64732d617574682d756e617574686f72697a656400000000000000000000000081525060200191505060405180910390fd5b806000806101000a81548173ffffffffffffffffffffffffffffffffffffffff021916908373ffffffffffffffffffffffffffffffffffffffff1602179055506000809054906101000a900473ffffffffffffffffffffffffffffffffffffffff1673ffffffffffffffffffffffffffffffffffffffff167f1abebea81bfa2637f28358c371278fb15ede7ea8dd28d2e03b112ff6d936ada460405160405180910390a250565b600160009054906101000a900473ffffffffffffffffffffffffffffffffffffffff1681565b7fffffffffffffffffffffffffffffffffffffffffffffffffffffffffffffffff60001b81565b6000808460601b6bffffffffffffffffffffffff1916905060008460601b6bffffffffffffffffffffffff191690506002600083815260200190815260200160002060008281526020019081526020016000206000857bffffffffffffffffffffffffffffffffffffffffffffffffffffffff1916815260200190815260200160002060009054906101000a900460ff1680610913575060026000838152602001908152602001600020600082815260200190815260200160002060007fffffffffffffffffffffffffffffffffffffffffffffffffffffffffffffffff60001b815260200190815260200160002060009054906101000a900460ff165b8061099f57506002600083815260200190815260200160002060007fffffffffffffffffffffffffffffffffffffffffffffffffffffffffffffffff60001b81526020019081526020016000206000857bffffffffffffffffffffffffffffffffffffffffffffffffffffffff1916815260200190815260200160002060009054906101000a900460ff165b80610a2f57506002600083815260200190815260200160002060007fffffffffffffffffffffffffffffffffffffffffffffffffffffffffffffffff60001b815260200190815260200160002060007fffffffffffffffffffffffffffffffffffffffffffffffffffffffffffffffff60001b815260200190815260200160002060009054906101000a900460ff165b80610abb5750600260007fffffffffffffffffffffffffffffffffffffffffffffffffffffffffffffffff60001b815260200190815260200160002060008281526020019081526020016000206000857bffffffffffffffffffffffffffffffffffffffffffffffffffffffff1916815260200190815260200160002060009054906101000a900460ff165b80610b4b5750600260007fffffffffffffffffffffffffffffffffffffffffffffffffffffffffffffffff60001b8152602001908152602001600020600082815260200190815260200160002060007fffffffffffffffffffffffffffffffffffffffffffffffffffffffffffffffff60001b815260200190815260200160002060009054906101000a900460ff165b80610bfa5750600260007fffffffffffffffffffffffffffffffffffffffffffffffffffffffffffffffff60001b815260200190815260200160002060007fffffffffffffffffffffffffffffffffffffffffffffffffffffffffffffffff60001b81526020019081526020016000206000857bffffffffffffffffffffffffffffffffffffffffffffffffffffffff1916815260200190815260200160002060009054906101000a900460ff165b80610cad5750600260007fffffffffffffffffffffffffffffffffffffffffffffffffffffffffffffffff60001b815260200190815260200160002060007fffffffffffffffffffffffffffffffffffffffffffffffffffffffffffffffff60001b815260200190815260200160002060007fffffffffffffffffffffffffffffffffffffffffffffffffffffffffffffffff60001b815260200190815260200160002060009054906101000a900460ff165b925050509392505050565b6000809054906101000a900473ffffffffffffffffffffffffffffffffffffffff1681565b610d0c8360601b6bffffffffffffffffffffffff19168360601b6bffffffffffffffffffffffff191683610d11565b505050565b610d3f336000357fffffffff0000000000000000000000000000000000000000000000000000000016610e33565b610db1576040517f08c379a00000000000000000000000000000000000000000000000000000000081526004018080602001828103825260148152602001807f64732d617574682d756e617574686f72697a656400000000000000000000000081525060200191505060405180910390fd5b6001600260008581526020019081526020016000206000848152602001908152602001600020600083815260200190815260200160002060006101000a81548160ff0219169083151502179055508082847f6f50375045128971c5469d343039ba7b8e30a5b190453737b28bda6f7a30677160405160405180910390a4505050565b60003073ffffffffffffffffffffffffffffffffffffffff168373ffffffffffffffffffffffffffffffffffffffff161415610e725760019050611086565b600160009054906101000a900473ffffffffffffffffffffffffffffffffffffffff1673ffffffffffffffffffffffffffffffffffffffff168373ffffffffffffffffffffffffffffffffffffffff161415610ed15760019050611086565b600073ffffffffffffffffffffffffffffffffffffffff166000809054906101000a900473ffffffffffffffffffffffffffffffffffffffff1673ffffffffffffffffffffffffffffffffffffffff161415610f305760009050611086565b6000809054906101000a900473ffffffffffffffffffffffffffffffffffffffff1673ffffffffffffffffffffffffffffffffffffffff1663b70096138430856040518463ffffffff1660e01b8152600401808473ffffffffffffffffffffffffffffffffffffffff1673ffffffffffffffffffffffffffffffffffffffff1681526020018373ffffffffffffffffffffffffffffffffffffffff1673ffffffffffffffffffffffffffffffffffffffff168152602001827bffffffffffffffffffffffffffffffffffffffffffffffffffffffff19167bffffffffffffffffffffffffffffffffffffffffffffffffffffffff19168152602001935050505060206040518083038186803b15801561104857600080fd5b505afa15801561105c573d6000803e3d6000fd5b505050506040513d602081101561107257600080fd5b810190808051906020019092919050505090505b9291505056fea265627a7a72315820b36af45f5c962802069634aca499d531cac1aeed514356b0d518c59cf816ca6264736f6c63430005100032a265627a7a72315820d6ccd940a34df05dafa52f7ac464e1ab24ab9ff1abc8fa0695cd58194adda98164736f6c63430005100032",
  "source": "pragma solidity 0.5.16;\n\nimport \"./DACProxy.sol\";\n\nimport \"../lib/dapphub/Guard.sol\";\n\nimport \"../interfaces/compound/IComptroller.sol\";\n\ncontract DACProxyFactory {\n    event Created(address indexed sender, address indexed owner, address proxy, address cache);\n\n    mapping(address=>address) public proxies;\n\n    DSProxyCache public cache;\n    DSGuardFactory public dsGuardFactory;\n\n    constructor() public {\n        cache = new DSProxyCache();\n        dsGuardFactory = new DSGuardFactory();\n    }\n\n    // deploys a new proxy instance\n    // sets owner of proxy to caller\n    function build() public returns (address payable proxy) {\n        proxy = build(msg.sender);\n    }\n\n    // deploys a new proxy instance\n    // creates a new guard\n    // sets custom owner of proxy\n    function build(address owner) public returns (address payable) {\n        // If user already has a proxy build, return that instead\n        if (proxies[owner] != address(0)) {\n            return address(uint160(proxies[owner]));\n        }\n\n        address payable proxy = address(new DACProxy(address(cache)));\n        emit Created(msg.sender, owner, address(proxy), address(cache));\n\n        DSGuard guard = dsGuardFactory.newGuard();\n        guard.setOwner(proxy);  // Guard belongs to proxy\n\n        DACProxy(proxy).setAuthority(guard);\n        DACProxy(proxy).setOwner(owner);\n\n        proxies[owner] = proxy;\n\n        return proxy;\n    }\n\n    // Compound-specific code to enter markets upon proxy creation\n    // So user has to perform less TX\n    function buildAndEnterMarkets(\n        address dedgeCompoundManager,\n        bytes memory enterMarketCalldata\n    ) public returns (address payable) {\n        return buildAndEnterMarkets(msg.sender, dedgeCompoundManager, enterMarketCalldata);\n    }\n\n    function buildAndEnterMarkets(\n        address owner,\n        address dedgeCompoundManager,\n        bytes memory enterMarketCalldata\n    ) public returns (address payable) {\n        // If user already has a proxy build, return that instead\n        if (proxies[owner] != address(0)) {\n            return address(uint160(proxies[owner]));\n        }\n\n        address payable proxy = address(new DACProxy(address(cache)));\n        emit Created(msg.sender, owner, address(proxy), address(cache));\n\n        DSGuard guard = dsGuardFactory.newGuard();\n        guard.setOwner(proxy);  // Guard belongs to proxy\n\n        // Enter markets via proxy\n        DACProxy(proxy).execute(\n            dedgeCompoundManager,\n            enterMarketCalldata\n        );\n\n        DACProxy(proxy).setAuthority(guard);\n        DACProxy(proxy).setOwner(owner);\n\n        proxies[owner] = proxy;\n\n        return proxy;\n    }\n}",
  "sourcePath": "/home/kendrick/Development/Ethereum/dedge/packages/smart-contracts/src/proxies/DACProxyFactory.sol",
  "compiler": {
    "name": "solc",
    "version": "0.5.16+commit.9c3226ce.Emscripten.clang"
  },
  "schemaVersion": "3.0.23",
  "updatedAt": "2020-04-03T04:49:15.460Z",
  "networkType": "ethereum",
  "devdoc": {
    "methods": {}
  },
  "userdoc": {
    "methods": {}
  }
}