{
  "contractName": "DedgeCompoundManager",
  "abi": [
    {
      "constant": false,
      "inputs": [
        {
          "internalType": "address",
          "name": "cToken",
          "type": "address"
        },
        {
          "internalType": "uint256",
          "name": "amount",
          "type": "uint256"
        }
      ],
      "name": "approveCToken",
      "outputs": [],
      "payable": false,
      "stateMutability": "nonpayable",
      "type": "function"
    },
    {
      "constant": false,
      "inputs": [
        {
          "internalType": "address[]",
          "name": "cTokens",
          "type": "address[]"
        }
      ],
      "name": "approveCTokens",
      "outputs": [],
      "payable": false,
      "stateMutability": "nonpayable",
      "type": "function"
    },
    {
      "constant": false,
      "inputs": [
        {
          "internalType": "address",
          "name": "cToken",
          "type": "address"
        },
        {
          "internalType": "uint256",
          "name": "borrowAmount",
          "type": "uint256"
        }
      ],
      "name": "borrow",
      "outputs": [],
      "payable": false,
      "stateMutability": "nonpayable",
      "type": "function"
    },
    {
      "constant": false,
      "inputs": [
        {
          "internalType": "address",
          "name": "cToken",
          "type": "address"
        },
        {
          "internalType": "uint256",
          "name": "amount",
          "type": "uint256"
        }
      ],
      "name": "borrowThroughProxy",
      "outputs": [],
      "payable": false,
      "stateMutability": "nonpayable",
      "type": "function"
    },
    {
      "constant": false,
      "inputs": [
        {
          "internalType": "address[]",
          "name": "cTokens",
          "type": "address[]"
        }
      ],
      "name": "enterMarkets",
      "outputs": [],
      "payable": false,
      "stateMutability": "nonpayable",
      "type": "function"
    },
    {
      "constant": false,
      "inputs": [
        {
          "internalType": "address[]",
          "name": "cTokens",
          "type": "address[]"
        }
      ],
      "name": "enterMarketsAndApproveCTokens",
      "outputs": [],
      "payable": false,
      "stateMutability": "nonpayable",
      "type": "function"
    },
    {
      "constant": false,
      "inputs": [
        {
          "internalType": "address",
          "name": "cToken",
          "type": "address"
        },
        {
          "internalType": "uint256",
          "name": "redeemTokens",
          "type": "uint256"
        }
      ],
      "name": "redeem",
      "outputs": [],
      "payable": true,
      "stateMutability": "payable",
      "type": "function"
    },
    {
      "constant": false,
      "inputs": [
        {
          "internalType": "address",
          "name": "cToken",
          "type": "address"
        },
        {
          "internalType": "uint256",
          "name": "amount",
          "type": "uint256"
        }
      ],
      "name": "redeemThroughProxy",
      "outputs": [],
      "payable": true,
      "stateMutability": "payable",
      "type": "function"
    },
    {
      "constant": false,
      "inputs": [
        {
          "internalType": "address",
          "name": "cToken",
          "type": "address"
        },
        {
          "internalType": "uint256",
          "name": "redeemTokens",
          "type": "uint256"
        }
      ],
      "name": "redeemUnderlying",
      "outputs": [],
      "payable": true,
      "stateMutability": "payable",
      "type": "function"
    },
    {
      "constant": false,
      "inputs": [
        {
          "internalType": "address",
          "name": "cToken",
          "type": "address"
        },
        {
          "internalType": "uint256",
          "name": "amount",
          "type": "uint256"
        }
      ],
      "name": "redeemUnderlyingThroughProxy",
      "outputs": [],
      "payable": true,
      "stateMutability": "payable",
      "type": "function"
    },
    {
      "constant": false,
      "inputs": [
        {
          "internalType": "address",
          "name": "cToken",
          "type": "address"
        },
        {
          "internalType": "uint256",
          "name": "amount",
          "type": "uint256"
        }
      ],
      "name": "repayBorrow",
      "outputs": [],
      "payable": true,
      "stateMutability": "payable",
      "type": "function"
    },
    {
      "constant": false,
      "inputs": [
        {
          "internalType": "address",
          "name": "recipient",
          "type": "address"
        },
        {
          "internalType": "address",
          "name": "cToken",
          "type": "address"
        },
        {
          "internalType": "uint256",
          "name": "amount",
          "type": "uint256"
        }
      ],
      "name": "repayBorrowBehalf",
      "outputs": [],
      "payable": true,
      "stateMutability": "payable",
      "type": "function"
    },
    {
      "constant": false,
      "inputs": [
        {
          "internalType": "address",
          "name": "recipient",
          "type": "address"
        },
        {
          "internalType": "address",
          "name": "cToken",
          "type": "address"
        },
        {
          "internalType": "uint256",
          "name": "amount",
          "type": "uint256"
        }
      ],
      "name": "repayBorrowBehalfThroughProxy",
      "outputs": [],
      "payable": true,
      "stateMutability": "payable",
      "type": "function"
    },
    {
      "constant": false,
      "inputs": [
        {
          "internalType": "address",
          "name": "cToken",
          "type": "address"
        },
        {
          "internalType": "uint256",
          "name": "amount",
          "type": "uint256"
        }
      ],
      "name": "repayBorrowThroughProxy",
      "outputs": [],
      "payable": true,
      "stateMutability": "payable",
      "type": "function"
    },
    {
      "constant": false,
      "inputs": [
        {
          "internalType": "address",
          "name": "cToken",
          "type": "address"
        },
        {
          "internalType": "uint256",
          "name": "amount",
          "type": "uint256"
        }
      ],
      "name": "supply",
      "outputs": [],
      "payable": true,
      "stateMutability": "payable",
      "type": "function"
    },
    {
      "constant": false,
      "inputs": [
        {
          "internalType": "address",
          "name": "supplyCToken",
          "type": "address"
        },
        {
          "internalType": "uint256",
          "name": "supplyAmount",
          "type": "uint256"
        },
        {
          "internalType": "address",
          "name": "borrowCToken",
          "type": "address"
        },
        {
          "internalType": "uint256",
          "name": "borrowAmount",
          "type": "uint256"
        }
      ],
      "name": "supplyAndBorrow",
      "outputs": [],
      "payable": true,
      "stateMutability": "payable",
      "type": "function"
    },
    {
      "constant": false,
      "inputs": [],
      "name": "supplyETH",
      "outputs": [],
      "payable": true,
      "stateMutability": "payable",
      "type": "function"
    },
    {
      "constant": false,
      "inputs": [
        {
          "internalType": "address",
          "name": "cToken",
          "type": "address"
        },
        {
          "internalType": "uint256",
          "name": "borrowAmount",
          "type": "uint256"
        }
      ],
      "name": "supplyETHAndBorrow",
      "outputs": [],
      "payable": true,
      "stateMutability": "payable",
      "type": "function"
    },
    {
      "constant": false,
      "inputs": [
        {
          "internalType": "address",
          "name": "cToken",
          "type": "address"
        },
        {
          "internalType": "uint256",
          "name": "amount",
          "type": "uint256"
        }
      ],
      "name": "supplyThroughProxy",
      "outputs": [],
      "payable": true,
      "stateMutability": "payable",
      "type": "function"
    },
    {
      "constant": false,
      "inputs": [
        {
          "internalType": "uint256",
          "name": "_loanAmount",
          "type": "uint256"
        },
        {
          "internalType": "uint256",
          "name": "_aaveFee",
          "type": "uint256"
        },
        {
          "internalType": "uint256",
          "name": "_protocolFee",
          "type": "uint256"
        },
        {
          "internalType": "bytes",
          "name": "_data",
          "type": "bytes"
        }
      ],
      "name": "swapDebtPostLoan",
      "outputs": [],
      "payable": false,
      "stateMutability": "nonpayable",
      "type": "function"
    },
    {
      "constant": false,
      "inputs": [
        {
          "internalType": "uint256",
          "name": "_loanAmount",
          "type": "uint256"
        },
        {
          "internalType": "uint256",
          "name": "_aaveFee",
          "type": "uint256"
        },
        {
          "internalType": "uint256",
          "name": "_protocolFee",
          "type": "uint256"
        },
        {
          "internalType": "bytes",
          "name": "_data",
          "type": "bytes"
        }
      ],
      "name": "swapCollateralPostLoan",
      "outputs": [],
      "payable": false,
      "stateMutability": "nonpayable",
      "type": "function"
    },
    {
      "constant": false,
      "inputs": [
        {
          "internalType": "address",
          "name": "dedgeCompoundManagerAddress",
          "type": "address"
        },
        {
          "internalType": "address payable",
          "name": "dacProxyAddress",
          "type": "address"
        },
        {
          "internalType": "address",
          "name": "addressRegistryAddress",
          "type": "address"
        },
        {
          "internalType": "address",
          "name": "oldCTokenAddress",
          "type": "address"
        },
        {
          "internalType": "uint256",
          "name": "oldTokenUnderlyingDelta",
          "type": "uint256"
        },
        {
          "internalType": "bytes",
          "name": "executeOperationCalldataParams",
          "type": "bytes"
        }
      ],
      "name": "swapOperation",
      "outputs": [],
      "payable": false,
      "stateMutability": "nonpayable",
      "type": "function"
    },
    {
      "constant": false,
      "inputs": [
        {
          "internalType": "address",
          "name": "addressRegistryAddress",
          "type": "address"
        },
        {
          "internalType": "address",
          "name": "oldCTokenAddress",
          "type": "address"
        },
        {
          "internalType": "uint256",
          "name": "oldTokenUnderlyingDustAmount",
          "type": "uint256"
        },
        {
          "internalType": "address",
          "name": "newCTokenAddress",
          "type": "address"
        }
      ],
      "name": "clearDebtDust",
      "outputs": [],
      "payable": true,
      "stateMutability": "payable",
      "type": "function"
    },
    {
      "constant": false,
      "inputs": [
        {
          "internalType": "address",
          "name": "addressRegistryAddress",
          "type": "address"
        },
        {
          "internalType": "address",
          "name": "oldCTokenAddress",
          "type": "address"
        },
        {
          "internalType": "uint256",
          "name": "oldTokenUnderlyingAmount",
          "type": "uint256"
        },
        {
          "internalType": "address",
          "name": "newCTokenAddress",
          "type": "address"
        }
      ],
      "name": "clearCollateralDust",
      "outputs": [],
      "payable": true,
      "stateMutability": "payable",
      "type": "function"
    }
  ],
  "bytecode": "0x608060405234801561001057600080fd5b506145a0806100206000396000f3fe60806040526004361061014b5760003560e01c80637720cc87116100b6578063c04bea9b1161006f578063c04bea9b14610391578063c2998238146103ad578063d13b8c72146103d6578063d2f70c40146103f2578063d882dc6c1461041b578063f2b9fdb8146104375761014b565b80637720cc87146102cf57806396294178146102eb5780639a22a1b914610307578063abdb5ea814610330578063b14886ee1461034c578063ba59154f146103755761014b565b806341ec5cc41161010857806341ec5cc41461022c5780634907b8fc146102485780634b8a35291461025257806359086a5e1461027b57806367600cc21461029757806375d40945146102b35761014b565b80630b4e0630146101505780631e9a69501461016c57806324d1ea12146101885780632d8af543146101b15780632f379b13146101da5780633dc4d99a14610203575b600080fd5b61016a600480360361016591908101906137dd565b610453565b005b610186600480360361018191908101906137dd565b6104b5565b005b34801561019457600080fd5b506101af60048036036101aa91908101906139cb565b610586565b005b3480156101bd57600080fd5b506101d860048036036101d3919081019061387c565b610943565b005b3480156101e657600080fd5b5061020160048036036101fc9190810190613684565b610958565b005b34801561020f57600080fd5b5061022a6004803603610225919081019061387c565b610cf7565b005b610246600480360361024191908101906137dd565b610daf565b005b610250610dc5565b005b34801561025e57600080fd5b50610279600480360361027491908101906137dd565b610e3c565b005b6102956004803603610290919081019061372b565b610f0d565b005b6102b160048036036102ac91908101906137dd565b6110a5565b005b6102cd60048036036102c89190810190613819565b611275565b005b6102e960048036036102e4919081019061372b565b61128f565b005b610305600480360361030091908101906137dd565b6112f3565b005b34801561031357600080fd5b5061032e600480360361032991908101906137dd565b6113c4565b005b61034a600480360361034591908101906137dd565b611594565b005b34801561035857600080fd5b50610373600480360361036e91908101906139cb565b61171e565b005b61038f600480360361038a91908101906137dd565b611a4d565b005b6103ab60048036036103a6919081019061377a565b611aaf565b005b3480156103b957600080fd5b506103d460048036036103cf919081019061387c565b611ec7565b005b6103f060048036036103eb919081019061377a565b611fe6565b005b3480156103fe57600080fd5b50610419600480360361041491908101906137dd565b612462565b005b610435600480360361043091908101906137dd565b6125bc565b005b610451600480360361044c91908101906137dd565b61278c565b005b734ddc2d193948926d02f9b1fe9e1daa0718270ed573ffffffffffffffffffffffffffffffffffffffff168273ffffffffffffffffffffffffffffffffffffffff16146104a7576104a63330848461292a565b5b6104b1828261278c565b5050565b60008273ffffffffffffffffffffffffffffffffffffffff1663db006a75836040518263ffffffff1660e01b81526004016104f09190614260565b602060405180830381600087803b15801561050a57600080fd5b505af115801561051e573d6000803e3d6000fd5b505050506040513d601f19601f8201168201806040525061054291908101906139a2565b14610582576040517f08c379a000000000000000000000000000000000000000000000000000000000815260040161057990614120565b60405180910390fd5b5050565b61058e6133a0565b828261059d9190810190613979565b905060008160000151905060008260200151905060008360400151905060006105e1886105d38b8d612a8190919063ffffffff16565b612a8190919063ffffffff16565b90508373ffffffffffffffffffffffffffffffffffffffff1663744d27126040518163ffffffff1660e01b815260040160206040518083038186803b15801561062957600080fd5b505afa15801561063d573d6000803e3d6000fd5b505050506040513d601f19601f82011682018060405250610661919081019061365b565b73ffffffffffffffffffffffffffffffffffffffff168373ffffffffffffffffffffffffffffffffffffffff1614156106a35761069e838b611594565b6107ce565b60008373ffffffffffffffffffffffffffffffffffffffff16636f307dc36040518163ffffffff1660e01b815260040160206040518083038186803b1580156106eb57600080fd5b505afa1580156106ff573d6000803e3d6000fd5b505050506040513d601f19601f82011682018060405250610723919081019061365b565b90506000610731828d612ad6565b90508173ffffffffffffffffffffffffffffffffffffffff1663095ea7b386836040518363ffffffff1660e01b815260040161076e92919061403c565b602060405180830381600087803b15801561078857600080fd5b505af115801561079c573d6000803e3d6000fd5b505050506040513d601f19601f820116820180604052506107c091908101906138fe565b506107cb8582611594565b50505b8373ffffffffffffffffffffffffffffffffffffffff1663744d27126040518163ffffffff1660e01b815260040160206040518083038186803b15801561081457600080fd5b505afa158015610828573d6000803e3d6000fd5b505050506040513d601f19601f8201168201806040525061084c919081019061365b565b73ffffffffffffffffffffffffffffffffffffffff168273ffffffffffffffffffffffffffffffffffffffff16141561088e576108898282610e3c565b610937565b60008273ffffffffffffffffffffffffffffffffffffffff16636f307dc36040518163ffffffff1660e01b815260040160206040518083038186803b1580156108d657600080fd5b505afa1580156108ea573d6000803e3d6000fd5b505050506040513d601f19601f8201168201806040525061090e919081019061365b565b9050600061091c8284612aec565b90506109288482610e3c565b610933828285612b87565b5050505b50505050505050505050565b61094c81611ec7565b61095581610cf7565b50565b600085905060008173ffffffffffffffffffffffffffffffffffffffff1663744d27126040518163ffffffff1660e01b815260040160206040518083038186803b1580156109a557600080fd5b505afa1580156109b9573d6000803e3d6000fd5b505050506040513d601f19601f820116820180604052506109dd919081019061365b565b73ffffffffffffffffffffffffffffffffffffffff168673ffffffffffffffffffffffffffffffffffffffff161415610a1857849050610aa2565b610a9f8673ffffffffffffffffffffffffffffffffffffffff16636f307dc36040518163ffffffff1660e01b815260040160206040518083038186803b158015610a6157600080fd5b505afa158015610a75573d6000803e3d6000fd5b505050506040513d601f19601f82011682018060405250610a99919081019061365b565b86612cbf565b90505b606089604051602001610ab59190613f75565b6040516020818303038152906040528585604051602001610ad893929190613f3a565b604051602081830303815290604052905060008373ffffffffffffffffffffffffffffffffffffffff16633f6dc33b6040518163ffffffff1660e01b815260040160206040518083038186803b158015610b3157600080fd5b505afa158015610b45573d6000803e3d6000fd5b505050506040513d601f19601f82011682018060405250610b69919081019061365b565b73ffffffffffffffffffffffffffffffffffffffff16630261bf8b6040518163ffffffff1660e01b815260040160206040518083038186803b158015610bae57600080fd5b505afa158015610bc2573d6000803e3d6000fd5b505050506040513d601f19601f82011682018060405250610be6919081019061365b565b9050610bf28a82612d5a565b8073ffffffffffffffffffffffffffffffffffffffff16635cffe9de8b8673ffffffffffffffffffffffffffffffffffffffff166356cc94a26040518163ffffffff1660e01b815260040160206040518083038186803b158015610c5557600080fd5b505afa158015610c69573d6000803e3d6000fd5b505050506040513d601f19601f82011682018060405250610c8d919081019061365b565b86866040518563ffffffff1660e01b8152600401610cae9493929190613f90565b600060405180830381600087803b158015610cc857600080fd5b505af1158015610cdc573d6000803e3d6000fd5b50505050610cea8a82612f5c565b5050505050505050505050565b60008090505b8151811015610dab57734ddc2d193948926d02f9b1fe9e1daa0718270ed573ffffffffffffffffffffffffffffffffffffffff16828281518110610d3d57fe5b602002602001015173ffffffffffffffffffffffffffffffffffffffff1614610d9e57610d9d828281518110610d6f57fe5b60200260200101517fffffffffffffffffffffffffffffffffffffffffffffffffffffffffffffffff612462565b5b8080600101915050610cfd565b5050565b610db7610dc5565b610dc18282610e3c565b5050565b734ddc2d193948926d02f9b1fe9e1daa0718270ed573ffffffffffffffffffffffffffffffffffffffff16631249c58b346040518263ffffffff1660e01b81526004016000604051808303818588803b158015610e2157600080fd5b505af1158015610e35573d6000803e3d6000fd5b5050505050565b60008273ffffffffffffffffffffffffffffffffffffffff1663c5ebeaec836040518263ffffffff1660e01b8152600401610e779190614260565b602060405180830381600087803b158015610e9157600080fd5b505af1158015610ea5573d6000803e3d6000fd5b505050506040513d601f19601f82011682018060405250610ec991908101906139a2565b14610f09576040517f08c379a0000000000000000000000000000000000000000000000000000000008152600401610f0090614100565b60405180910390fd5b5050565b734ddc2d193948926d02f9b1fe9e1daa0718270ed573ffffffffffffffffffffffffffffffffffffffff168273ffffffffffffffffffffffffffffffffffffffff161415610fc6578173ffffffffffffffffffffffffffffffffffffffff1663e597461982856040518363ffffffff1660e01b8152600401610f8f9190613f75565b6000604051808303818588803b158015610fa857600080fd5b505af1158015610fbc573d6000803e3d6000fd5b50505050506110a0565b610fd08282612462565b60008273ffffffffffffffffffffffffffffffffffffffff16632608f81885846040518363ffffffff1660e01b815260040161100d92919061403c565b602060405180830381600087803b15801561102757600080fd5b505af115801561103b573d6000803e3d6000fd5b505050506040513d601f19601f8201168201806040525061105f91908101906139a2565b1461109f576040517f08c379a000000000000000000000000000000000000000000000000000000000815260040161109690614180565b60405180910390fd5b5b505050565b6110af82826112f3565b734ddc2d193948926d02f9b1fe9e1daa0718270ed573ffffffffffffffffffffffffffffffffffffffff168273ffffffffffffffffffffffffffffffffffffffff161415611165573373ffffffffffffffffffffffffffffffffffffffff168160405161111b90613f60565b60006040518083038185875af1925050503d8060008114611158576040519150601f19603f3d011682016040523d82523d6000602084013e61115d565b606091505b505050611271565b8173ffffffffffffffffffffffffffffffffffffffff16636f307dc36040518163ffffffff1660e01b815260040160206040518083038186803b1580156111ab57600080fd5b505afa1580156111bf573d6000803e3d6000fd5b505050506040513d601f19601f820116820180604052506111e3919081019061365b565b73ffffffffffffffffffffffffffffffffffffffff1663a9059cbb33836040518363ffffffff1660e01b815260040161121d929190613fdc565b602060405180830381600087803b15801561123757600080fd5b505af115801561124b573d6000803e3d6000fd5b505050506040513d601f19601f8201168201806040525061126f91908101906138fe565b505b5050565b61127f848461278c565b6112898282610e3c565b50505050565b734ddc2d193948926d02f9b1fe9e1daa0718270ed573ffffffffffffffffffffffffffffffffffffffff168273ffffffffffffffffffffffffffffffffffffffff16146112e3576112e23330848461292a565b5b6112ee838383610f0d565b505050565b60008273ffffffffffffffffffffffffffffffffffffffff1663852a12e3836040518263ffffffff1660e01b815260040161132e9190614260565b602060405180830381600087803b15801561134857600080fd5b505af115801561135c573d6000803e3d6000fd5b505050506040513d601f19601f8201168201806040525061138091908101906139a2565b146113c0576040517f08c379a00000000000000000000000000000000000000000000000000000000081526004016113b790614140565b60405180910390fd5b5050565b6113ce8282610e3c565b734ddc2d193948926d02f9b1fe9e1daa0718270ed573ffffffffffffffffffffffffffffffffffffffff168273ffffffffffffffffffffffffffffffffffffffff161415611484573373ffffffffffffffffffffffffffffffffffffffff168160405161143a90613f60565b60006040518083038185875af1925050503d8060008114611477576040519150601f19603f3d011682016040523d82523d6000602084013e61147c565b606091505b505050611590565b8173ffffffffffffffffffffffffffffffffffffffff16636f307dc36040518163ffffffff1660e01b815260040160206040518083038186803b1580156114ca57600080fd5b505afa1580156114de573d6000803e3d6000fd5b505050506040513d601f19601f82011682018060405250611502919081019061365b565b73ffffffffffffffffffffffffffffffffffffffff1663a9059cbb33836040518363ffffffff1660e01b815260040161153c929190613fdc565b602060405180830381600087803b15801561155657600080fd5b505af115801561156a573d6000803e3d6000fd5b505050506040513d601f19601f8201168201806040525061158e91908101906138fe565b505b5050565b734ddc2d193948926d02f9b1fe9e1daa0718270ed573ffffffffffffffffffffffffffffffffffffffff168273ffffffffffffffffffffffffffffffffffffffff161415611642578173ffffffffffffffffffffffffffffffffffffffff16634e4d9fea826040518263ffffffff1660e01b81526004016000604051808303818588803b15801561162457600080fd5b505af1158015611638573d6000803e3d6000fd5b505050505061171a565b61164c8282612462565b60008273ffffffffffffffffffffffffffffffffffffffff16630e752702836040518263ffffffff1660e01b81526004016116879190614260565b602060405180830381600087803b1580156116a157600080fd5b505af11580156116b5573d6000803e3d6000fd5b505050506040513d601f19601f820116820180604052506116d991908101906139a2565b14611719576040517f08c379a0000000000000000000000000000000000000000000000000000000008152600401611710906141c0565b60405180910390fd5b5b5050565b6117266133a0565b82826117359190810190613979565b905060008160000151905060008260200151905060008360400151905060006117798861176b8b8d61315e90919063ffffffff16565b61315e90919063ffffffff16565b90508373ffffffffffffffffffffffffffffffffffffffff1663744d27126040518163ffffffff1660e01b815260040160206040518083038186803b1580156117c157600080fd5b505afa1580156117d5573d6000803e3d6000fd5b505050506040513d601f19601f820116820180604052506117f9919081019061365b565b73ffffffffffffffffffffffffffffffffffffffff168273ffffffffffffffffffffffffffffffffffffffff16141561183b57611836828261278c565b6118d8565b60008273ffffffffffffffffffffffffffffffffffffffff16636f307dc36040518163ffffffff1660e01b815260040160206040518083038186803b15801561188357600080fd5b505afa158015611897573d6000803e3d6000fd5b505050506040513d601f19601f820116820180604052506118bb919081019061365b565b905060006118c98284612ad6565b90506118d5848261278c565b50505b8373ffffffffffffffffffffffffffffffffffffffff1663744d27126040518163ffffffff1660e01b815260040160206040518083038186803b15801561191e57600080fd5b505afa158015611932573d6000803e3d6000fd5b505050506040513d601f19601f82011682018060405250611956919081019061365b565b73ffffffffffffffffffffffffffffffffffffffff168373ffffffffffffffffffffffffffffffffffffffff16141561199857611993838b6112f3565b611a41565b60008373ffffffffffffffffffffffffffffffffffffffff16636f307dc36040518163ffffffff1660e01b815260040160206040518083038186803b1580156119e057600080fd5b505afa1580156119f4573d6000803e3d6000fd5b505050506040513d601f19601f82011682018060405250611a18919081019061365b565b90506000611a26828d612aec565b9050611a3285826112f3565b611a3d82828e612b87565b5050505b50505050505050505050565b734ddc2d193948926d02f9b1fe9e1daa0718270ed573ffffffffffffffffffffffffffffffffffffffff168273ffffffffffffffffffffffffffffffffffffffff1614611aa157611aa03330848461292a565b5b611aab8282611594565b5050565b8073ffffffffffffffffffffffffffffffffffffffff168373ffffffffffffffffffffffffffffffffffffffff161415611b1e576040517f08c379a0000000000000000000000000000000000000000000000000000000008152600401611b1590614200565b60405180910390fd5b600080859050611b2e85856112f3565b8073ffffffffffffffffffffffffffffffffffffffff1663744d27126040518163ffffffff1660e01b815260040160206040518083038186803b158015611b7457600080fd5b505afa158015611b88573d6000803e3d6000fd5b505050506040513d601f19601f82011682018060405250611bac919081019061365b565b73ffffffffffffffffffffffffffffffffffffffff168573ffffffffffffffffffffffffffffffffffffffff161415611c6d57611c668373ffffffffffffffffffffffffffffffffffffffff16636f307dc36040518163ffffffff1660e01b815260040160206040518083038186803b158015611c2857600080fd5b505afa158015611c3c573d6000803e3d6000fd5b505050506040513d601f19601f82011682018060405250611c60919081019061365b565b85612ad6565b9150611eb5565b8073ffffffffffffffffffffffffffffffffffffffff1663744d27126040518163ffffffff1660e01b815260040160206040518083038186803b158015611cb357600080fd5b505afa158015611cc7573d6000803e3d6000fd5b505050506040513d601f19601f82011682018060405250611ceb919081019061365b565b73ffffffffffffffffffffffffffffffffffffffff168373ffffffffffffffffffffffffffffffffffffffff161415611dac57611da58573ffffffffffffffffffffffffffffffffffffffff16636f307dc36040518163ffffffff1660e01b815260040160206040518083038186803b158015611d6757600080fd5b505afa158015611d7b573d6000803e3d6000fd5b505050506040513d601f19601f82011682018060405250611d9f919081019061365b565b856131a8565b9150611eb4565b611eb18573ffffffffffffffffffffffffffffffffffffffff16636f307dc36040518163ffffffff1660e01b815260040160206040518083038186803b158015611df557600080fd5b505afa158015611e09573d6000803e3d6000fd5b505050506040513d601f19601f82011682018060405250611e2d919081019061365b565b8473ffffffffffffffffffffffffffffffffffffffff16636f307dc36040518163ffffffff1660e01b815260040160206040518083038186803b158015611e7357600080fd5b505afa158015611e87573d6000803e3d6000fd5b505050506040513d601f19601f82011682018060405250611eab919081019061365b565b866131be565b91505b5b611ebf838361278c565b505050505050565b6060733d9819210a31b4961b30ef54be2aed79b9c9cd3b73ffffffffffffffffffffffffffffffffffffffff1663c2998238836040518263ffffffff1660e01b8152600401611f169190614065565b600060405180830381600087803b158015611f3057600080fd5b505af1158015611f44573d6000803e3d6000fd5b505050506040513d6000823e3d601f19601f82011682018060405250611f6d91908101906138bd565b905060008090505b8151811015611fe1576000828281518110611f8c57fe5b602002602001015114611fd4576040517f08c379a0000000000000000000000000000000000000000000000000000000008152600401611fcb90614160565b60405180910390fd5b8080600101915050611f75565b505050565b8073ffffffffffffffffffffffffffffffffffffffff168373ffffffffffffffffffffffffffffffffffffffff161415612055576040517f08c379a000000000000000000000000000000000000000000000000000000000815260040161204c90614240565b60405180910390fd5b600084905060008060008373ffffffffffffffffffffffffffffffffffffffff1663744d27126040518163ffffffff1660e01b815260040160206040518083038186803b1580156120a557600080fd5b505afa1580156120b9573d6000803e3d6000fd5b505050506040513d601f19601f820116820180604052506120dd919081019061365b565b73ffffffffffffffffffffffffffffffffffffffff168773ffffffffffffffffffffffffffffffffffffffff1614156121b7578473ffffffffffffffffffffffffffffffffffffffff16636f307dc36040518163ffffffff1660e01b815260040160206040518083038186803b15801561215657600080fd5b505afa15801561216a573d6000803e3d6000fd5b505050506040513d601f19601f8201168201806040525061218e919081019061365b565b905061219a8187612aec565b92506121a68584610e3c565b6121b1818488612b87565b5061244e565b8373ffffffffffffffffffffffffffffffffffffffff1663744d27126040518163ffffffff1660e01b815260040160206040518083038186803b1580156121fd57600080fd5b505afa158015612211573d6000803e3d6000fd5b505050506040513d601f19601f82011682018060405250612235919081019061365b565b73ffffffffffffffffffffffffffffffffffffffff168573ffffffffffffffffffffffffffffffffffffffff16141561230f578673ffffffffffffffffffffffffffffffffffffffff16636f307dc36040518163ffffffff1660e01b815260040160206040518083038186803b1580156122ae57600080fd5b505afa1580156122c2573d6000803e3d6000fd5b505050506040513d601f19601f820116820180604052506122e6919081019061365b565b91506122f28287612cbf565b92506122fe8584610e3c565b6123098284886131d6565b5061244d565b8673ffffffffffffffffffffffffffffffffffffffff16636f307dc36040518163ffffffff1660e01b815260040160206040518083038186803b15801561235557600080fd5b505afa158015612369573d6000803e3d6000fd5b505050506040513d601f19601f8201168201806040525061238d919081019061365b565b91508473ffffffffffffffffffffffffffffffffffffffff16636f307dc36040518163ffffffff1660e01b815260040160206040518083038186803b1580156123d557600080fd5b505afa1580156123e9573d6000803e3d6000fd5b505050506040513d601f19601f8201168201806040525061240d919081019061365b565b9050600061241b8388612cbf565b90506124278282612aec565b93506124338685610e3c565b61243e828583612b87565b5061244a8382896131d6565b50505b5b6124588787611594565b5050505050505050565b60008273ffffffffffffffffffffffffffffffffffffffff16636f307dc36040518163ffffffff1660e01b815260040160206040518083038186803b1580156124aa57600080fd5b505afa1580156124be573d6000803e3d6000fd5b505050506040513d601f19601f820116820180604052506124e2919081019061365b565b9050600115158173ffffffffffffffffffffffffffffffffffffffff1663095ea7b385856040518363ffffffff1660e01b815260040161252392919061403c565b602060405180830381600087803b15801561253d57600080fd5b505af1158015612551573d6000803e3d6000fd5b505050506040513d601f19601f8201168201806040525061257591908101906138fe565b1515146125b7576040517f08c379a00000000000000000000000000000000000000000000000000000000081526004016125ae906141e0565b60405180910390fd5b505050565b6125c682826104b5565b734ddc2d193948926d02f9b1fe9e1daa0718270ed573ffffffffffffffffffffffffffffffffffffffff168273ffffffffffffffffffffffffffffffffffffffff16141561267c573373ffffffffffffffffffffffffffffffffffffffff168160405161263290613f60565b60006040518083038185875af1925050503d806000811461266f576040519150601f19603f3d011682016040523d82523d6000602084013e612674565b606091505b505050612788565b8173ffffffffffffffffffffffffffffffffffffffff16636f307dc36040518163ffffffff1660e01b815260040160206040518083038186803b1580156126c257600080fd5b505afa1580156126d6573d6000803e3d6000fd5b505050506040513d601f19601f820116820180604052506126fa919081019061365b565b73ffffffffffffffffffffffffffffffffffffffff1663a9059cbb33836040518363ffffffff1660e01b8152600401612734929190613fdc565b602060405180830381600087803b15801561274e57600080fd5b505af1158015612762573d6000803e3d6000fd5b505050506040513d601f19601f8201168201806040525061278691908101906138fe565b505b5050565b734ddc2d193948926d02f9b1fe9e1daa0718270ed573ffffffffffffffffffffffffffffffffffffffff168273ffffffffffffffffffffffffffffffffffffffff16141561284e57734ddc2d193948926d02f9b1fe9e1daa0718270ed573ffffffffffffffffffffffffffffffffffffffff16631249c58b826040518263ffffffff1660e01b81526004016000604051808303818588803b15801561283057600080fd5b505af1158015612844573d6000803e3d6000fd5b5050505050612926565b6128588282612462565b60008273ffffffffffffffffffffffffffffffffffffffff1663a0712d68836040518263ffffffff1660e01b81526004016128939190614260565b602060405180830381600087803b1580156128ad57600080fd5b505af11580156128c1573d6000803e3d6000fd5b505050506040513d601f19601f820116820180604052506128e591908101906139a2565b14612925576040517f08c379a000000000000000000000000000000000000000000000000000000000815260040161291c90614220565b60405180910390fd5b5b5050565b60008273ffffffffffffffffffffffffffffffffffffffff16636f307dc36040518163ffffffff1660e01b815260040160206040518083038186803b15801561297257600080fd5b505afa158015612986573d6000803e3d6000fd5b505050506040513d601f19601f820116820180604052506129aa919081019061365b565b90508073ffffffffffffffffffffffffffffffffffffffff166323b872dd8686856040518463ffffffff1660e01b81526004016129e993929190614005565b602060405180830381600087803b158015612a0357600080fd5b505af1158015612a17573d6000803e3d6000fd5b505050506040513d601f19601f82011682018060405250612a3b91908101906138fe565b612a7a576040517f08c379a0000000000000000000000000000000000000000000000000000000008152600401612a71906141a0565b60405180910390fd5b5050505050565b600080828401905083811015612acc576040517f08c379a0000000000000000000000000000000000000000000000000000000008152600401612ac3906140e0565b60405180910390fd5b8091505092915050565b6000612ae4838360016131d6565b905092915050565b6000612af78361327a565b73ffffffffffffffffffffffffffffffffffffffff16632640f62c836040518263ffffffff1660e01b8152600401612b2f9190614260565b60206040518083038186803b158015612b4757600080fd5b505afa158015612b5b573d6000803e3d6000fd5b505050506040513d601f19601f82011682018060405250612b7f91908101906139a2565b905092915050565b600080612b938561327a565b90508473ffffffffffffffffffffffffffffffffffffffff1663095ea7b382866040518363ffffffff1660e01b8152600401612bd092919061403c565b602060405180830381600087803b158015612bea57600080fd5b505af1158015612bfe573d6000803e3d6000fd5b505050506040513d601f19601f82011682018060405250612c2291908101906138fe565b508073ffffffffffffffffffffffffffffffffffffffff166395e3c50b8585603c42016040518463ffffffff1660e01b8152600401612c63939291906142a4565b602060405180830381600087803b158015612c7d57600080fd5b505af1158015612c91573d6000803e3d6000fd5b505050506040513d601f19601f82011682018060405250612cb591908101906139a2565b9150509392505050565b6000612cca8361327a565b73ffffffffffffffffffffffffffffffffffffffff166359e94862836040518263ffffffff1660e01b8152600401612d029190614260565b60206040518083038186803b158015612d1a57600080fd5b505afa158015612d2e573d6000803e3d6000fd5b505050506040513d601f19601f82011682018060405250612d5291908101906139a2565b905092915050565b60008273ffffffffffffffffffffffffffffffffffffffff1663bf7e214f6040518163ffffffff1660e01b815260040160206040518083038186803b158015612da257600080fd5b505afa158015612db6573d6000803e3d6000fd5b505050506040513d601f19601f82011682018060405250612dda9190810190613950565b90508073ffffffffffffffffffffffffffffffffffffffff1663f0217ce58360601b6bffffffffffffffffffffffff19168373ffffffffffffffffffffffffffffffffffffffff1663a8542f666040518163ffffffff1660e01b815260040160206040518083038186803b158015612e5157600080fd5b505afa158015612e65573d6000803e3d6000fd5b505050506040513d601f19601f82011682018060405250612e899190810190613927565b8473ffffffffffffffffffffffffffffffffffffffff1663a8542f666040518163ffffffff1660e01b815260040160206040518083038186803b158015612ecf57600080fd5b505afa158015612ee3573d6000803e3d6000fd5b505050506040513d601f19601f82011682018060405250612f079190810190613927565b6040518463ffffffff1660e01b8152600401612f2593929190614087565b600060405180830381600087803b158015612f3f57600080fd5b505af1158015612f53573d6000803e3d6000fd5b50505050505050565b60008273ffffffffffffffffffffffffffffffffffffffff1663bf7e214f6040518163ffffffff1660e01b815260040160206040518083038186803b158015612fa457600080fd5b505afa158015612fb8573d6000803e3d6000fd5b505050506040513d601f19601f82011682018060405250612fdc9190810190613950565b90508073ffffffffffffffffffffffffffffffffffffffff166379d88d878360601b6bffffffffffffffffffffffff19168373ffffffffffffffffffffffffffffffffffffffff1663a8542f666040518163ffffffff1660e01b815260040160206040518083038186803b15801561305357600080fd5b505afa158015613067573d6000803e3d6000fd5b505050506040513d601f19601f8201168201806040525061308b9190810190613927565b8473ffffffffffffffffffffffffffffffffffffffff1663a8542f666040518163ffffffff1660e01b815260040160206040518083038186803b1580156130d157600080fd5b505afa1580156130e5573d6000803e3d6000fd5b505050506040513d601f19601f820116820180604052506131099190810190613927565b6040518463ffffffff1660e01b815260040161312793929190614087565b600060405180830381600087803b15801561314157600080fd5b505af1158015613155573d6000803e3d6000fd5b50505050505050565b60006131a083836040518060400160405280601e81526020017f536166654d6174683a207375627472616374696f6e206f766572666c6f770000815250613320565b905092915050565b60006131b683836001612b87565b905092915050565b60006131cd848484600161337b565b90509392505050565b60006131e18461327a565b73ffffffffffffffffffffffffffffffffffffffff1663f39b5b9b8484603c42016040518463ffffffff1660e01b815260040161321f92919061427b565b6020604051808303818588803b15801561323857600080fd5b505af115801561324c573d6000803e3d6000fd5b50505050506040513d601f19601f8201168201806040525061327191908101906139a2565b90509392505050565b600073c0a47dfe034b400b47bdad5fecda2621de6c4d9573ffffffffffffffffffffffffffffffffffffffff166306f2bf62836040518263ffffffff1660e01b81526004016132c99190613f75565b60206040518083038186803b1580156132e157600080fd5b505afa1580156132f5573d6000803e3d6000fd5b505050506040513d601f19601f82011682018060405250613319919081019061365b565b9050919050565b6000838311158290613368576040517f08c379a000000000000000000000000000000000000000000000000000000000815260040161335f91906140be565b60405180910390fd5b5060008385039050809150509392505050565b60008061338886856131a8565b90506133958582856131d6565b915050949350505050565b6040518060600160405280600073ffffffffffffffffffffffffffffffffffffffff168152602001600073ffffffffffffffffffffffffffffffffffffffff168152602001600073ffffffffffffffffffffffffffffffffffffffff1681525090565b600081359050613412816144d3565b92915050565b600081519050613427816144d3565b92915050565b60008135905061343c816144ea565b92915050565b600082601f83011261345357600080fd5b813561346661346182614308565b6142db565b9150818183526020840193506020810190508385602084028201111561348b57600080fd5b60005b838110156134bb57816134a18882613403565b84526020840193506020830192505060018101905061348e565b5050505092915050565b600082601f8301126134d657600080fd5b81516134e96134e482614330565b6142db565b9150818183526020840193506020810190508385602084028201111561350e57600080fd5b60005b8381101561353e57816135248882613646565b845260208401935060208301925050600181019050613511565b5050505092915050565b60008151905061355781614501565b92915050565b60008151905061356c81614518565b92915050565b60008083601f84011261358457600080fd5b8235905067ffffffffffffffff81111561359d57600080fd5b6020830191508360018202830111156135b557600080fd5b9250929050565b6000815190506135cb8161452f565b92915050565b6000606082840312156135e357600080fd5b6135ed60606142db565b905060006135fd84828501613403565b600083015250602061361184828501613403565b602083015250604061362584828501613403565b60408301525092915050565b60008135905061364081614546565b92915050565b60008151905061365581614546565b92915050565b60006020828403121561366d57600080fd5b600061367b84828501613418565b91505092915050565b600080600080600080600060c0888a03121561369f57600080fd5b60006136ad8a828b01613403565b97505060206136be8a828b0161342d565b96505060406136cf8a828b01613403565b95505060606136e08a828b01613403565b94505060806136f18a828b01613631565b93505060a088013567ffffffffffffffff81111561370e57600080fd5b61371a8a828b01613572565b925092505092959891949750929550565b60008060006060848603121561374057600080fd5b600061374e86828701613403565b935050602061375f86828701613403565b925050604061377086828701613631565b9150509250925092565b6000806000806080858703121561379057600080fd5b600061379e87828801613403565b94505060206137af87828801613403565b93505060406137c087828801613631565b92505060606137d187828801613403565b91505092959194509250565b600080604083850312156137f057600080fd5b60006137fe85828601613403565b925050602061380f85828601613631565b9150509250929050565b6000806000806080858703121561382f57600080fd5b600061383d87828801613403565b945050602061384e87828801613631565b935050604061385f87828801613403565b925050606061387087828801613631565b91505092959194509250565b60006020828403121561388e57600080fd5b600082013567ffffffffffffffff8111156138a857600080fd5b6138b484828501613442565b91505092915050565b6000602082840312156138cf57600080fd5b600082015167ffffffffffffffff8111156138e957600080fd5b6138f5848285016134c5565b91505092915050565b60006020828403121561391057600080fd5b600061391e84828501613548565b91505092915050565b60006020828403121561393957600080fd5b60006139478482850161355d565b91505092915050565b60006020828403121561396257600080fd5b6000613970848285016135bc565b91505092915050565b60006060828403121561398b57600080fd5b6000613999848285016135d1565b91505092915050565b6000602082840312156139b457600080fd5b60006139c284828501613646565b91505092915050565b6000806000806000608086880312156139e357600080fd5b60006139f188828901613631565b9550506020613a0288828901613631565b9450506040613a1388828901613631565b935050606086013567ffffffffffffffff811115613a3057600080fd5b613a3c88828901613572565b92509250509295509295909350565b6000613a578383613a72565b60208301905092915050565b613a6c8161444a565b82525050565b613a7b816143d4565b82525050565b613a8a816143d4565b82525050565b6000613a9b82614368565b613aa58185614396565b9350613ab083614358565b8060005b83811015613ae1578151613ac88882613a4b565b9750613ad383614389565b925050600181019050613ab4565b5085935050505092915050565b613af781614404565b82525050565b6000613b0983856143b8565b9350613b16838584614480565b82840190509392505050565b6000613b2d82614373565b613b3781856143a7565b9350613b4781856020860161448f565b613b50816144c2565b840191505092915050565b6000613b6682614373565b613b7081856143b8565b9350613b8081856020860161448f565b80840191505092915050565b6000613b978261437e565b613ba181856143c3565b9350613bb181856020860161448f565b613bba816144c2565b840191505092915050565b6000613bd2601b836143c3565b91507f536166654d6174683a206164646974696f6e206f766572666c6f7700000000006000830152602082019050919050565b6000613c12601e836143c3565b91507f636d706e642d6d67722d63746f6b656e2d626f72726f772d6661696c656400006000830152602082019050919050565b6000613c52601e836143c3565b91507f636d706e642d6d67722d63746f6b656e2d72656465656d2d6661696c656400006000830152602082019050919050565b6000613c926029836143c3565b91507f636d706e642d6d67722d63746f6b656e2d72656465656d2d756e6465726c796960008301527f6e672d6661696c656400000000000000000000000000000000000000000000006020830152604082019050919050565b6000613cf8601e836143c3565b91507f636d706e642d6d67722d656e7465722d6d61726b6574732d6661696c656400006000830152602082019050919050565b6000613d386023836143c3565b91507f636d706e642d6d67722d63746f6b656e2d7265706179626568616c662d66616960008301527f6c656400000000000000000000000000000000000000000000000000000000006020830152604082019050919050565b6000613d9e601e836143c3565b91507f636d706e642d6d67722d7472616e736665722d66726f6d2d6661696c656400006000830152602082019050919050565b6000613dde601d836143c3565b91507f636d706e642d6d67722d63746f6b656e2d72657061792d6661696c65640000006000830152602082019050919050565b6000613e1e6000836143b8565b9150600082019050919050565b6000613e386020836143c3565b91507f636d706e642d6d67722d63746f6b656e2d617070726f7665642d6661696c65646000830152602082019050919050565b6000613e78601d836143c3565b91507f636c6561722d636f6c6c61746572616c2d73616d652d616464726573730000006000830152602082019050919050565b6000613eb8601e836143c3565b91507f636d706e642d6d67722d63746f6b656e2d737570706c792d6661696c656400006000830152602082019050919050565b6000613ef86017836143c3565b91507f636c6561722d646562742d73616d652d616464726573730000000000000000006000830152602082019050919050565b613f3481614440565b82525050565b6000613f468286613b5b565b9150613f53828486613afd565b9150819050949350505050565b6000613f6b82613e11565b9150819050919050565b6000602082019050613f8a6000830184613a81565b92915050565b6000608082019050613fa56000830187613a63565b613fb26020830186613a81565b613fbf6040830185613f2b565b8181036060830152613fd18184613b22565b905095945050505050565b6000604082019050613ff16000830185613a63565b613ffe6020830184613f2b565b9392505050565b600060608201905061401a6000830186613a81565b6140276020830185613a81565b6140346040830184613f2b565b949350505050565b60006040820190506140516000830185613a81565b61405e6020830184613f2b565b9392505050565b6000602082019050818103600083015261407f8184613a90565b905092915050565b600060608201905061409c6000830186613aee565b6140a96020830185613aee565b6140b66040830184613aee565b949350505050565b600060208201905081810360008301526140d88184613b8c565b905092915050565b600060208201905081810360008301526140f981613bc5565b9050919050565b6000602082019050818103600083015261411981613c05565b9050919050565b6000602082019050818103600083015261413981613c45565b9050919050565b6000602082019050818103600083015261415981613c85565b9050919050565b6000602082019050818103600083015261417981613ceb565b9050919050565b6000602082019050818103600083015261419981613d2b565b9050919050565b600060208201905081810360008301526141b981613d91565b9050919050565b600060208201905081810360008301526141d981613dd1565b9050919050565b600060208201905081810360008301526141f981613e2b565b9050919050565b6000602082019050818103600083015261421981613e6b565b9050919050565b6000602082019050818103600083015261423981613eab565b9050919050565b6000602082019050818103600083015261425981613eeb565b9050919050565b60006020820190506142756000830184613f2b565b92915050565b60006040820190506142906000830185613f2b565b61429d6020830184613f2b565b9392505050565b60006060820190506142b96000830186613f2b565b6142c66020830185613f2b565b6142d36040830184613f2b565b949350505050565b6000604051905081810181811067ffffffffffffffff821117156142fe57600080fd5b8060405250919050565b600067ffffffffffffffff82111561431f57600080fd5b602082029050602081019050919050565b600067ffffffffffffffff82111561434757600080fd5b602082029050602081019050919050565b6000819050602082019050919050565b600081519050919050565b600081519050919050565b600081519050919050565b6000602082019050919050565b600082825260208201905092915050565b600082825260208201905092915050565b600081905092915050565b600082825260208201905092915050565b60006143df82614420565b9050919050565b60006143f182614420565b9050919050565b60008115159050919050565b6000819050919050565b6000614419826143d4565b9050919050565b600073ffffffffffffffffffffffffffffffffffffffff82169050919050565b6000819050919050565b60006144558261445c565b9050919050565b60006144678261446e565b9050919050565b600061447982614420565b9050919050565b82818337600083830152505050565b60005b838110156144ad578082015181840152602081019050614492565b838111156144bc576000848401525b50505050565b6000601f19601f8301169050919050565b6144dc816143d4565b81146144e757600080fd5b50565b6144f3816143e6565b81146144fe57600080fd5b50565b61450a816143f8565b811461451557600080fd5b50565b61452181614404565b811461452c57600080fd5b50565b6145388161440e565b811461454357600080fd5b50565b61454f81614440565b811461455a57600080fd5b5056fea365627a7a72315820e79df4a95e36bded0e50d1be553f6ad4f921346f7ce901e0647b7cfe9b4ba06b6c6578706572696d656e74616cf564736f6c63430005100040",
  "source": "/*\n    Dedge's Aave and Compound manager\n*/\n\npragma solidity 0.5.16;\npragma experimental ABIEncoderV2;\n\n\nimport \"../lib/compound/CompoundBase.sol\";\n\nimport \"../lib/dapphub/Guard.sol\";\n\nimport \"../lib/uniswap/UniswapLiteBase.sol\";\n\nimport \"../interfaces/aave/ILendingPoolAddressesProvider.sol\";\nimport \"../interfaces/aave/ILendingPool.sol\";\nimport \"../interfaces/aave/ILendingPoolParametersProvider.sol\";\n\nimport \"../interfaces/compound/ICompoundPriceOracle.sol\";\nimport \"../interfaces/compound/IComptroller.sol\";\nimport \"../interfaces/compound/ICEther.sol\";\nimport \"../interfaces/compound/ICToken.sol\";\n\nimport \"../interfaces/IERC20.sol\";\n\nimport \"../registries/AddressRegistry.sol\";\n\nimport \"../proxies/DACProxy.sol\";\n\nimport \"@openzeppelin/contracts/math/SafeMath.sol\";\n\ncontract DedgeCompoundManager is UniswapLiteBase, CompoundBase {\n    using SafeMath for uint;\n\n    struct SwapOperationCalldata {\n        address addressRegistryAddress;\n        address oldCTokenAddress;\n        address newCTokenAddress;\n    }\n\n    function _proxyGuardPermit(address payable proxyAddress, address src) internal {\n        address g = address(DACProxy(proxyAddress).authority());\n\n        DSGuard(g).permit(\n            bytes32(bytes20(address(src))),\n            DSGuard(g).ANY(),\n            DSGuard(g).ANY()\n        );\n    }\n\n    function _proxyGuardForbid(address payable proxyAddress, address src) internal {\n        address g = address(DACProxy(proxyAddress).authority());\n\n        DSGuard(g).forbid(\n            bytes32(bytes20(address(src))),\n            DSGuard(g).ANY(),\n            DSGuard(g).ANY()\n        );\n    }\n\n    function swapDebtPostLoan(\n        uint _loanAmount,\n        uint _aaveFee,\n        uint _protocolFee,\n        bytes calldata _data\n    ) external {\n        SwapOperationCalldata memory soCalldata = abi.decode(_data, (SwapOperationCalldata));\n\n        AddressRegistry addressRegistry = AddressRegistry(soCalldata.addressRegistryAddress);\n\n        address oldCTokenAddress = soCalldata.oldCTokenAddress;\n        address newCTokenAddress = soCalldata.newCTokenAddress;\n\n        uint debtAmount = _loanAmount.add(_aaveFee).add(_protocolFee);\n\n        // Note: debtAmount = loanAmount + fees\n        // 1. Has ETH from Aave flashloan\n        // 2. Converts ETH to oldCToken underlying\n        // 3. Repays oldCToken underlying\n        // 4. Calculates new amount to borrow from new token to repay debtAmount\n        // 5. Borrows from new token\n        // 6. Convert new token to ETH\n\n        // Steps 2 + 3\n        // Converts ETH to oldCToken underlying and repay\n        // Unless old target underlying is already ether\n        if (oldCTokenAddress == addressRegistry.CEtherAddress()) {\n            repayBorrow(oldCTokenAddress, _loanAmount);\n        } else {\n            // Gets old token underlying and amount\n            address oldTokenUnderlying = ICToken(oldCTokenAddress).underlying();\n\n            uint oldTokenUnderlyingAmount = _ethToToken(\n                oldTokenUnderlying,\n                _loanAmount\n            );\n\n            // Approves CToken proxy and repays them\n            IERC20(oldTokenUnderlying)\n                .approve(oldCTokenAddress, oldTokenUnderlyingAmount);\n\n            // Repays CToken\n            repayBorrow(oldCTokenAddress, oldTokenUnderlyingAmount);\n        }\n\n        // Steps 4, 5, 6\n        // Calculates new debt amount to borrow\n        // Unless new target underlying is already ether\n        if (newCTokenAddress == addressRegistry.CEtherAddress()) {\n            borrow(newCTokenAddress, debtAmount);\n        } else {\n            // Gets new token underlying\n            address newTokenUnderlying = ICToken(newCTokenAddress).underlying();\n\n            // Calculates amount of old token underlying that needs to be borrowed\n            // to repay debts\n            uint newTokenUnderlyingAmount = _getTokenToEthOutput(\n                newTokenUnderlying,\n                debtAmount\n            );\n\n            // Borrows new debt\n            borrow(newCTokenAddress, newTokenUnderlyingAmount);\n\n            // Converts to ether\n            // Note this part is a bit more strict as we need to have\n            // enough ETH to repay Aave\n            _tokenToEth(newTokenUnderlying, newTokenUnderlyingAmount, debtAmount);\n        }\n    }\n\n    function swapCollateralPostLoan(\n        uint _loanAmount,\n        uint _aaveFee,\n        uint _protocolFee,\n        bytes calldata _data\n    ) external {\n        SwapOperationCalldata memory soCalldata = abi.decode(_data, (SwapOperationCalldata));\n\n        AddressRegistry addressRegistry = AddressRegistry(soCalldata.addressRegistryAddress);\n\n        address oldCTokenAddress = soCalldata.oldCTokenAddress;\n        address newCTokenAddress = soCalldata.newCTokenAddress;\n\n        // 1. Has ETH from Aave flashloan\n        // 2. Converts ETH into newCToken underlying\n        // 3. Supplies newCToken underlying\n        // 4. Redeems oldCToken underlying\n        // 5. Converts outCToken underlying to ETH\n        // 6. Borrow <fee> ETH to repay aave\n\n        // Steps 2 + 3\n        // Converts ETH to newCToken underlying and supply\n        // Unless old target underlying is already ether\n        uint repayAmount = _loanAmount.sub(_aaveFee).sub(_protocolFee);\n\n        if (newCTokenAddress == addressRegistry.CEtherAddress()) {\n            supply(newCTokenAddress, repayAmount);\n        } else {\n            // Gets new token underlying and converts ETH into newCToken underlying\n            address newTokenUnderlying = ICToken(newCTokenAddress).underlying();\n            uint newTokenUnderlyingAmount = _ethToToken(\n                newTokenUnderlying,\n                repayAmount\n            );\n\n            // Supplies new CTokens\n            supply(newCTokenAddress, newTokenUnderlyingAmount);\n        }\n\n        // Steps 4, 5\n        // Redeem CToken underlying\n        if (oldCTokenAddress == addressRegistry.CEtherAddress()) {\n            redeemUnderlying(oldCTokenAddress, _loanAmount);\n        } else {\n            // Gets old token underlying and amount to redeem (based on uniswap)\n            address oldTokenUnderlying = ICToken(oldCTokenAddress).underlying();\n            uint oldTokenUnderlyingAmount = _getTokenToEthOutput(oldTokenUnderlying, _loanAmount);\n\n            // Redeems them\n            redeemUnderlying(oldCTokenAddress, oldTokenUnderlyingAmount);\n\n            // Converts them into ETH\n            _tokenToEth(oldTokenUnderlying, oldTokenUnderlyingAmount, _loanAmount);\n        }\n    }\n\n    /*\n    Main entry point for swapping collateral / debt\n\n    @params:\n\n        dedgeCompoundManagerAddress: Dedge Compound Manager address\n        dacProxyAddress: User's proxy address\n        addressRegistryAddress: AddressRegistry's Address\n        oldCTokenAddress: oldCToken address\n        oldTokenUnderlyingDelta: Amount of tokens to swap from old c token's underlying\n        executeOperationCalldataParams:\n            Abi-encoded `data` used by User's proxy's `execute(address, <data>)` function.\n            Used to delegatecall to another contract (i.e. this contract) in the context\n            of the proxy. This allows us to decouple the logic of handling flashloans\n            from the proxy contract. In this specific case, it is expecting the results\n            from: (from JS)\n\n            ```\n                const IDedgeCompoundManager = ethers.utils.Interface(DedgeCompoundManager.abi)\n\n                const executeOperationCalldataParams = IDedgeCompoundManager\n                    .functions\n                    .swapDebt OR .swapCollateral\n                    .encode([\n                        <parameters>\n                    ])\n            ```\n    */\n    function swapOperation(\n        address dedgeCompoundManagerAddress,\n        address payable dacProxyAddress,\n        address addressRegistryAddress,\n        address oldCTokenAddress,            // Old CToken address for [debt|collateral]\n        uint oldTokenUnderlyingDelta,        // Amount of old tokens to swap to new tokens\n        bytes calldata executeOperationCalldataParams\n    ) external {\n        // Calling from dacProxy context (msg.sender is dacProxy)\n        // 1. Get amount of ETH obtained by selling that from Uniswap\n        // 2. Flashloans ETH to dacProxy\n\n        // Gets registries\n        AddressRegistry addressRegistry = AddressRegistry(addressRegistryAddress);\n\n        // 1. Get amount of ETH needed\n        // If the old target is ether than the ethDebtAmount is just the delta\n        uint ethDebtAmount;\n\n        if (oldCTokenAddress == addressRegistry.CEtherAddress()) {\n            ethDebtAmount = oldTokenUnderlyingDelta;\n        } else {\n            // Otherwise calculate it from the exchange\n            ethDebtAmount = _getEthToTokenOutput(\n                ICToken(oldCTokenAddress).underlying(),\n                oldTokenUnderlyingDelta\n            );\n        }\n\n        // Injects the target address into calldataParams\n        // so user proxy know which address it'll be calling `calldataParams` on\n        bytes memory addressAndExecuteOperationCalldataParams = abi.encodePacked(\n            abi.encode(dedgeCompoundManagerAddress),\n            executeOperationCalldataParams\n        );\n\n        ILendingPool lendingPool = ILendingPool(\n            ILendingPoolAddressesProvider(\n                addressRegistry.AaveLendingPoolAddressProviderAddress()\n            ).getLendingPool()\n        );\n\n        // Approve lendingPool to call proxy\n        _proxyGuardPermit(dacProxyAddress, address(lendingPool));\n\n        // 3. Flashloan ETH with relevant data\n        lendingPool.flashLoan(\n            dacProxyAddress,\n            addressRegistry.AaveEthAddress(),\n            ethDebtAmount,\n            addressAndExecuteOperationCalldataParams\n        );\n\n        // Forbids lendingPool to call proxy\n        _proxyGuardForbid(dacProxyAddress, address(lendingPool));\n    }\n\n    // Clears dust debt by swapping old debt into new debt\n    function clearDebtDust(\n        address addressRegistryAddress,\n        address oldCTokenAddress,\n        uint oldTokenUnderlyingDustAmount,\n        address newCTokenAddress\n    ) public payable {\n        // i.e. Has 0.1 ETH (oldCToken) debt 900 DAI (newCToken)\n        // wants to have it all in DAI\n\n        // 0. Calculates 0.1 ETH equilavent in DAI\n        // 1. Borrows out 0.1 ETH equilavent in DAI (~10 DAI as of march 2020)\n        // 2. Convert 10 DAI into 0.1 ETH\n        // 3. Repay 0.1 ETH\n\n        require(oldCTokenAddress != newCTokenAddress, \"clear-debt-same-address\");\n\n        AddressRegistry addressRegistry = AddressRegistry(addressRegistryAddress);\n\n        uint borrowAmount;\n        address oldTokenUnderlying;\n        address newTokenUnderlying;\n\n        if (oldCTokenAddress == addressRegistry.CEtherAddress()) {\n            // ETH -> Token\n            newTokenUnderlying = ICToken(newCTokenAddress).underlying();\n\n            // Calculates ETH equilavent in token\n            borrowAmount = _getTokenToEthOutput(newTokenUnderlying, oldTokenUnderlyingDustAmount);\n\n            // Borrows out equilavent token\n            borrow(newCTokenAddress, borrowAmount);\n\n            // Converts token to ETH\n            _tokenToEth(newTokenUnderlying, borrowAmount, oldTokenUnderlyingDustAmount);\n        } else if (newCTokenAddress == addressRegistry.CEtherAddress()) {\n            // Token -> ETH\n            oldTokenUnderlying = ICToken(oldCTokenAddress).underlying();\n\n            // Calculates token equilavent in ETH\n            borrowAmount = _getEthToTokenOutput(oldTokenUnderlying, oldTokenUnderlyingDustAmount);\n\n            // Borrows out equilavent ETH\n            borrow(newCTokenAddress, borrowAmount);\n\n            // Converts ETH to token\n            _ethToToken(oldTokenUnderlying, borrowAmount, oldTokenUnderlyingDustAmount);\n        } else {\n            // token -> token\n            oldTokenUnderlying = ICToken(oldCTokenAddress).underlying();\n            newTokenUnderlying = ICToken(newCTokenAddress).underlying();\n\n            // Calculates eth borrow amount\n            uint ethAmount = _getEthToTokenOutput(oldTokenUnderlying, oldTokenUnderlyingDustAmount);\n\n            // Calculates token borrow amount\n            borrowAmount = _getTokenToEthOutput(newTokenUnderlying, ethAmount);\n\n            // Borrows out equilavent token\n            borrow(newCTokenAddress, borrowAmount);\n\n            // Converts old token to target token\n            _tokenToEth(newTokenUnderlying, borrowAmount, ethAmount);\n            _ethToToken(oldTokenUnderlying, ethAmount, oldTokenUnderlyingDustAmount);\n        }\n\n        // Repays borrowed\n        repayBorrow(oldCTokenAddress, oldTokenUnderlyingDustAmount);\n    }\n\n    function clearCollateralDust(\n        address addressRegistryAddress,\n        address oldCTokenAddress,\n        uint oldTokenUnderlyingAmount,\n        address newCTokenAddress\n    ) public payable {\n        // i.e. Has 10 ETH collateral and 10 DAI collateral\n        // wants to have it all in ETH\n\n        // 1. Redeems 10 DAI collateral\n        // 2. Converts it to ETH\n        // 3. Puts it into ETH\n\n        // More abstractly,\n        // 1. Redeems tokens\n        // 2. Convert it to other token\n        // 3. Put other token in\n\n        require(oldCTokenAddress != newCTokenAddress, \"clear-collateral-same-address\");\n\n        uint supplyAmount;\n        AddressRegistry addressRegistry = AddressRegistry(addressRegistryAddress);\n\n        // Redeems collateral\n        redeemUnderlying(oldCTokenAddress, oldTokenUnderlyingAmount);\n\n        if (oldCTokenAddress == addressRegistry.CEtherAddress()) {\n            // ETH -> Token\n            supplyAmount = _ethToToken(\n                ICToken(newCTokenAddress).underlying(),\n                oldTokenUnderlyingAmount\n            );\n        } else if (newCTokenAddress == addressRegistry.CEtherAddress()) {\n            // Token -> ETH\n            supplyAmount = _tokenToEth(\n                ICToken(oldCTokenAddress).underlying(),\n                oldTokenUnderlyingAmount\n            );\n        } else {\n            // Token -> Token\n            supplyAmount = _tokenToToken(\n                ICToken(oldCTokenAddress).underlying(),\n                ICToken(newCTokenAddress).underlying(),\n                oldTokenUnderlyingAmount\n            );\n        }\n\n        // Supplies collateral\n        supply(newCTokenAddress, supplyAmount);\n    }\n}\n",
  "sourcePath": "/home/kendrick/Development/Ethereum/dedge/packages/smart-contracts/src/managers/DedgeCompoundManager.sol",
  "compiler": {
    "name": "solc",
    "version": "0.5.16+commit.9c3226ce.Emscripten.clang"
  },
  "schemaVersion": "3.0.23",
  "updatedAt": "2020-03-29T11:20:50.605Z",
  "networkType": "ethereum",
  "devdoc": {
    "methods": {}
  },
  "userdoc": {
    "methods": {}
  }
}