{
  "contractName": "DedgeGeneralManager",
  "abi": [
    {
      "inputs": [],
      "payable": false,
      "stateMutability": "nonpayable",
      "type": "constructor"
    },
    {
      "payable": true,
      "stateMutability": "payable",
      "type": "fallback"
    },
    {
      "constant": false,
      "inputs": [
        {
          "internalType": "address",
          "name": "recipient",
          "type": "address"
        },
        {
          "internalType": "uint256",
          "name": "amount",
          "type": "uint256"
        }
      ],
      "name": "transferETH",
      "outputs": [],
      "payable": false,
      "stateMutability": "nonpayable",
      "type": "function"
    },
    {
      "constant": false,
      "inputs": [
        {
          "internalType": "address",
          "name": "recipient",
          "type": "address"
        },
        {
          "internalType": "address",
          "name": "erc20Address",
          "type": "address"
        },
        {
          "internalType": "uint256",
          "name": "amount",
          "type": "uint256"
        }
      ],
      "name": "transferERC20",
      "outputs": [],
      "payable": false,
      "stateMutability": "nonpayable",
      "type": "function"
    }
  ],
  "bytecode": "0x608060405234801561001057600080fd5b50610350806100206000396000f3fe6080604052600436106100295760003560e01c80637b1a49091461002b5780639db5dbe414610086575b005b34801561003757600080fd5b506100846004803603604081101561004e57600080fd5b81019080803573ffffffffffffffffffffffffffffffffffffffff16906020019092919080359060200190929190505050610101565b005b34801561009257600080fd5b506100ff600480360360608110156100a957600080fd5b81019080803573ffffffffffffffffffffffffffffffffffffffff169060200190929190803573ffffffffffffffffffffffffffffffffffffffff169060200190929190803590602001909291905050506101e2565b005b60008273ffffffffffffffffffffffffffffffffffffffff168260405180600001905060006040518083038185875af1925050503d8060008114610161576040519150601f19603f3d011682016040523d82523d6000602084013e610166565b606091505b50509050806101dd576040517f08c379a000000000000000000000000000000000000000000000000000000000815260040180806020018281038252601b8152602001807f67656e2d6d67722d7472616e736665722d6574682d6661696c6564000000000081525060200191505060405180910390fd5b505050565b8173ffffffffffffffffffffffffffffffffffffffff1663a9059cbb84836040518363ffffffff1660e01b8152600401808373ffffffffffffffffffffffffffffffffffffffff1673ffffffffffffffffffffffffffffffffffffffff16815260200182815260200192505050602060405180830381600087803b15801561026957600080fd5b505af115801561027d573d6000803e3d6000fd5b505050506040513d602081101561029357600080fd5b8101908080519060200190929190505050610316576040517f08c379a000000000000000000000000000000000000000000000000000000000815260040180806020018281038252601d8152602001807f67656e2d6d67722d7472616e736665727065726332302d6661696c656400000081525060200191505060405180910390fd5b50505056fea265627a7a7231582012cd38714d1619bd7712400134caf783e32e108ddae0606c48cb23a76531ceb264736f6c63430005100032",
  "source": "/*  A \"general\" manager for dedge to facillitate the transfer of\n    ERC20 compatible tokens\n*/\n\npragma solidity 0.5.16;\n\nimport \"@openzeppelin/contracts/token/ERC20/IERC20.sol\";\n\ncontract DedgeGeneralManager {\n    function () external payable {}\n\n    constructor() public {}\n\n    function transferETH(address recipient, uint amount) public {\n        (bool success, ) = recipient.call.value(amount)(\"\");\n        require(success, \"gen-mgr-transfer-eth-failed\");\n    }\n\n    function transferERC20(address recipient, address erc20Address, uint amount) public {\n        require(\n            IERC20(erc20Address).transfer(recipient, amount),\n            \"gen-mgr-transferperc20-failed\"\n        );\n    }\n}",
  "sourcePath": "/home/kendrick/Development/Ethereum/dedge/packages/smart-contracts/src/managers/DedgeGeneralManager.sol",
  "compiler": {
    "name": "solc",
    "version": "0.5.16+commit.9c3226ce.Emscripten.clang"
  },
  "schemaVersion": "3.0.23",
  "updatedAt": "2020-03-28T01:00:49.942Z",
  "devdoc": {
    "methods": {}
  },
  "userdoc": {
    "methods": {}
  }
}