{
  "contractName": "DedgeMakerManager",
  "abi": [
    {
      "inputs": [],
      "payable": false,
      "stateMutability": "nonpayable",
      "type": "constructor"
    },
    {
      "payable": true,
      "stateMutability": "payable",
      "type": "fallback"
    },
    {
      "constant": false,
      "inputs": [
        {
          "internalType": "address",
          "name": "manager",
          "type": "address"
        },
        {
          "internalType": "uint256",
          "name": "cdp",
          "type": "uint256"
        },
        {
          "internalType": "address",
          "name": "usr",
          "type": "address"
        },
        {
          "internalType": "uint256",
          "name": "ok",
          "type": "uint256"
        }
      ],
      "name": "cdpAllow",
      "outputs": [],
      "payable": false,
      "stateMutability": "nonpayable",
      "type": "function"
    },
    {
      "constant": false,
      "inputs": [
        {
          "internalType": "address",
          "name": "apt",
          "type": "address"
        },
        {
          "internalType": "address",
          "name": "urn",
          "type": "address"
        },
        {
          "internalType": "uint256",
          "name": "wad",
          "type": "uint256"
        }
      ],
      "name": "daiJoin_join",
      "outputs": [],
      "payable": false,
      "stateMutability": "nonpayable",
      "type": "function"
    },
    {
      "constant": false,
      "inputs": [
        {
          "internalType": "address",
          "name": "manager",
          "type": "address"
        },
        {
          "internalType": "uint256",
          "name": "cdp",
          "type": "uint256"
        },
        {
          "internalType": "address",
          "name": "dst",
          "type": "address"
        },
        {
          "internalType": "uint256",
          "name": "wad",
          "type": "uint256"
        }
      ],
      "name": "flux",
      "outputs": [],
      "payable": false,
      "stateMutability": "nonpayable",
      "type": "function"
    },
    {
      "constant": false,
      "inputs": [
        {
          "internalType": "address",
          "name": "manager",
          "type": "address"
        },
        {
          "internalType": "uint256",
          "name": "cdp",
          "type": "uint256"
        },
        {
          "internalType": "int256",
          "name": "dink",
          "type": "int256"
        },
        {
          "internalType": "int256",
          "name": "dart",
          "type": "int256"
        }
      ],
      "name": "frob",
      "outputs": [],
      "payable": false,
      "stateMutability": "nonpayable",
      "type": "function"
    },
    {
      "constant": false,
      "inputs": [
        {
          "internalType": "address",
          "name": "manager",
          "type": "address"
        },
        {
          "internalType": "uint256",
          "name": "cdp",
          "type": "uint256"
        },
        {
          "internalType": "address",
          "name": "usr",
          "type": "address"
        }
      ],
      "name": "give",
      "outputs": [],
      "payable": false,
      "stateMutability": "nonpayable",
      "type": "function"
    },
    {
      "constant": false,
      "inputs": [
        {
          "internalType": "address",
          "name": "manager",
          "type": "address"
        },
        {
          "internalType": "bytes32",
          "name": "ilk",
          "type": "bytes32"
        },
        {
          "internalType": "address",
          "name": "usr",
          "type": "address"
        }
      ],
      "name": "open",
      "outputs": [
        {
          "internalType": "uint256",
          "name": "cdp",
          "type": "uint256"
        }
      ],
      "payable": false,
      "stateMutability": "nonpayable",
      "type": "function"
    },
    {
      "constant": false,
      "inputs": [
        {
          "internalType": "address",
          "name": "manager",
          "type": "address"
        },
        {
          "internalType": "address",
          "name": "ethJoin",
          "type": "address"
        },
        {
          "internalType": "address",
          "name": "daiJoin",
          "type": "address"
        },
        {
          "internalType": "uint256",
          "name": "cdp",
          "type": "uint256"
        },
        {
          "internalType": "uint256",
          "name": "wadC",
          "type": "uint256"
        }
      ],
      "name": "wipeAllAndFreeETH",
      "outputs": [],
      "payable": false,
      "stateMutability": "nonpayable",
      "type": "function"
    },
    {
      "constant": false,
      "inputs": [
        {
          "internalType": "address",
          "name": "manager",
          "type": "address"
        },
        {
          "internalType": "address",
          "name": "gemJoin",
          "type": "address"
        },
        {
          "internalType": "address",
          "name": "daiJoin",
          "type": "address"
        },
        {
          "internalType": "uint256",
          "name": "cdp",
          "type": "uint256"
        },
        {
          "internalType": "uint256",
          "name": "wadC",
          "type": "uint256"
        }
      ],
      "name": "wipeAllAndFreeGem",
      "outputs": [],
      "payable": false,
      "stateMutability": "nonpayable",
      "type": "function"
    },
    {
      "constant": true,
      "inputs": [
        {
          "internalType": "address",
          "name": "manager",
          "type": "address"
        },
        {
          "internalType": "uint256",
          "name": "cdp",
          "type": "uint256"
        }
      ],
      "name": "getVaultDebt",
      "outputs": [
        {
          "internalType": "uint256",
          "name": "debt",
          "type": "uint256"
        }
      ],
      "payable": false,
      "stateMutability": "view",
      "type": "function"
    },
    {
      "constant": true,
      "inputs": [
        {
          "internalType": "address",
          "name": "manager",
          "type": "address"
        },
        {
          "internalType": "uint256",
          "name": "cdp",
          "type": "uint256"
        }
      ],
      "name": "getVaultCollateral",
      "outputs": [
        {
          "internalType": "uint256",
          "name": "ink",
          "type": "uint256"
        }
      ],
      "payable": false,
      "stateMutability": "view",
      "type": "function"
    },
    {
      "constant": false,
      "inputs": [
        {
          "internalType": "uint256",
          "name": "_amount",
          "type": "uint256"
        },
        {
          "internalType": "uint256",
          "name": "_aaveFee",
          "type": "uint256"
        },
        {
          "internalType": "uint256",
          "name": "_protocolFee",
          "type": "uint256"
        },
        {
          "internalType": "bytes",
          "name": "_data",
          "type": "bytes"
        }
      ],
      "name": "importMakerVaultPostLoan",
      "outputs": [],
      "payable": false,
      "stateMutability": "nonpayable",
      "type": "function"
    },
    {
      "constant": false,
      "inputs": [
        {
          "internalType": "address",
          "name": "dedgeMakerManagerAddress",
          "type": "address"
        },
        {
          "internalType": "address payable",
          "name": "dacProxyAddress",
          "type": "address"
        },
        {
          "internalType": "address",
          "name": "addressRegistryAddress",
          "type": "address"
        },
        {
          "internalType": "uint256",
          "name": "cdpId",
          "type": "uint256"
        },
        {
          "internalType": "bytes",
          "name": "executeOperationCalldataParams",
          "type": "bytes"
        }
      ],
      "name": "importMakerVault",
      "outputs": [],
      "payable": false,
      "stateMutability": "nonpayable",
      "type": "function"
    }
  ],
  "bytecode": "0x608060405234801561001057600080fd5b50613b15806100206000396000f3fe6080604052600436106100a75760003560e01c80636d68b70b116100645780636d68b70b146101db57806396e8d72c14610204578063ba727a951461022d578063bcd6deec14610256578063c56167c61461027f578063ddd927b2146102a8576100a7565b8063131fb710146100a95780631558b048146100d25780631d10f231146100fb5780633edec14e1461012457806361d2d7dc146101615780636aa3ee111461019e575b005b3480156100b557600080fd5b506100d060048036036100cb9190810190612caf565b6102d1565b005b3480156100de57600080fd5b506100f960048036036100f49190810190612ee1565b6106ce565b005b34801561010757600080fd5b50610122600480360361011d9190810190612e92565b610743565b005b34801561013057600080fd5b5061014b60048036036101469190810190612e56565b6107b5565b6040516101589190613763565b60405180910390f35b34801561016d57600080fd5b5061018860048036036101839190810190612e56565b6109f7565b6040516101959190613763565b60405180910390f35b3480156101aa57600080fd5b506101c560048036036101c09190810190612e07565b610c2c565b6040516101d29190613763565b60405180910390f35b3480156101e757600080fd5b5061020260048036036101fd9190810190612d41565b610cc4565b005b34801561021057600080fd5b5061022b60048036036102269190810190612f44565b61108d565b005b34801561023957600080fd5b50610254600480360361024f9190810190612ee1565b611102565b005b34801561026257600080fd5b5061027d60048036036102789190810190612d41565b611177565b005b34801561028b57600080fd5b506102a660048036036102a19190810190612db8565b611465565b005b3480156102b457600080fd5b506102cf60048036036102ca919081019061311a565b6115c3565b005b600084905060008173ffffffffffffffffffffffffffffffffffffffff16635ed75a2f6040518163ffffffff1660e01b815260040160206040518083038186803b15801561031e57600080fd5b505afa158015610332573d6000803e3d6000fd5b505050506040513d601f19601f820116820180604052506103569190810190612c86565b9050600061036482876107b5565b90506060896040516020016103799190613556565b604051602081830303815290604052868660405160200161039c93929190613530565b604051602081830303815290604052905060008473ffffffffffffffffffffffffffffffffffffffff16633f6dc33b6040518163ffffffff1660e01b815260040160206040518083038186803b1580156103f557600080fd5b505afa158015610409573d6000803e3d6000fd5b505050506040513d601f19601f8201168201806040525061042d9190810190612c86565b73ffffffffffffffffffffffffffffffffffffffff16630261bf8b6040518163ffffffff1660e01b815260040160206040518083038186803b15801561047257600080fd5b505afa158015610486573d6000803e3d6000fd5b505050506040513d601f19601f820116820180604052506104aa9190810190612c86565b90506105368573ffffffffffffffffffffffffffffffffffffffff16635ed75a2f6040518163ffffffff1660e01b815260040160206040518083038186803b1580156104f557600080fd5b505afa158015610509573d6000803e3d6000fd5b505050506040513d601f19601f8201168201806040525061052d9190810190612c86565b898d6001611102565b6105408a8261215c565b8073ffffffffffffffffffffffffffffffffffffffff16635cffe9de8b8773ffffffffffffffffffffffffffffffffffffffff1663ee2a94116040518163ffffffff1660e01b815260040160206040518083038186803b1580156105a357600080fd5b505afa1580156105b7573d6000803e3d6000fd5b505050506040513d601f19601f820116820180604052506105db9190810190612c86565b86866040518563ffffffff1660e01b81526004016105fc9493929190613571565b600060405180830381600087803b15801561061657600080fd5b505af115801561062a573d6000803e3d6000fd5b505050506106b78573ffffffffffffffffffffffffffffffffffffffff16635ed75a2f6040518163ffffffff1660e01b815260040160206040518083038186803b15801561067757600080fd5b505afa15801561068b573d6000803e3d6000fd5b505050506040513d601f19601f820116820180604052506106af9190810190612c86565b896001610743565b6106c18a8261235e565b5050505050505050505050565b8373ffffffffffffffffffffffffffffffffffffffff16639bb8f8388484846040518463ffffffff1660e01b815260040161070b939291906137a7565b600060405180830381600087803b15801561072557600080fd5b505af1158015610739573d6000803e3d6000fd5b5050505050505050565b8273ffffffffffffffffffffffffffffffffffffffff1663fcafcc6883836040518363ffffffff1660e01b815260040161077e92919061377e565b600060405180830381600087803b15801561079857600080fd5b505af11580156107ac573d6000803e3d6000fd5b50505050505050565b6000808373ffffffffffffffffffffffffffffffffffffffff166336569e776040518163ffffffff1660e01b815260040160206040518083038186803b1580156107fe57600080fd5b505afa158015610812573d6000803e3d6000fd5b505050506040513d601f19601f820116820180604052506108369190810190612c86565b905060008473ffffffffffffffffffffffffffffffffffffffff16632726b073856040518263ffffffff1660e01b81526004016108739190613763565b60206040518083038186803b15801561088b57600080fd5b505afa15801561089f573d6000803e3d6000fd5b505050506040513d601f19601f820116820180604052506108c39190810190612c86565b905060008573ffffffffffffffffffffffffffffffffffffffff16632c2cb9fd866040518263ffffffff1660e01b81526004016109009190613763565b60206040518083038186803b15801561091857600080fd5b505afa15801561092c573d6000803e3d6000fd5b505050506040513d601f19601f820116820180604052506109509190810190613011565b905060008673ffffffffffffffffffffffffffffffffffffffff16638161b120876040518263ffffffff1660e01b815260040161098d9190613763565b60206040518083038186803b1580156109a557600080fd5b505afa1580156109b9573d6000803e3d6000fd5b505050506040513d601f19601f820116820180604052506109dd9190810190612c86565b90506109eb84828585612560565b94505050505092915050565b6000808373ffffffffffffffffffffffffffffffffffffffff166336569e776040518163ffffffff1660e01b815260040160206040518083038186803b158015610a4057600080fd5b505afa158015610a54573d6000803e3d6000fd5b505050506040513d601f19601f82011682018060405250610a789190810190612c86565b905060008473ffffffffffffffffffffffffffffffffffffffff16632726b073856040518263ffffffff1660e01b8152600401610ab59190613763565b60206040518083038186803b158015610acd57600080fd5b505afa158015610ae1573d6000803e3d6000fd5b505050506040513d601f19601f82011682018060405250610b059190810190612c86565b905060008573ffffffffffffffffffffffffffffffffffffffff16632c2cb9fd866040518263ffffffff1660e01b8152600401610b429190613763565b60206040518083038186803b158015610b5a57600080fd5b505afa158015610b6e573d6000803e3d6000fd5b505050506040513d601f19601f82011682018060405250610b929190810190613011565b90508273ffffffffffffffffffffffffffffffffffffffff16632424be5c82846040518363ffffffff1660e01b8152600401610bcf929190613623565b604080518083038186803b158015610be657600080fd5b505afa158015610bfa573d6000803e3d6000fd5b505050506040513d601f19601f82011682018060405250610c1e91908101906130de565b508094505050505092915050565b60008373ffffffffffffffffffffffffffffffffffffffff16636090dec584846040518363ffffffff1660e01b8152600401610c69929190613623565b602060405180830381600087803b158015610c8357600080fd5b505af1158015610c97573d6000803e3d6000fd5b505050506040513d601f19601f82011682018060405250610cbb91908101906130b5565b90509392505050565b60008573ffffffffffffffffffffffffffffffffffffffff166336569e776040518163ffffffff1660e01b815260040160206040518083038186803b158015610d0c57600080fd5b505afa158015610d20573d6000803e3d6000fd5b505050506040513d601f19601f82011682018060405250610d449190810190612c86565b905060008673ffffffffffffffffffffffffffffffffffffffff16632726b073856040518263ffffffff1660e01b8152600401610d819190613763565b60206040518083038186803b158015610d9957600080fd5b505afa158015610dad573d6000803e3d6000fd5b505050506040513d601f19601f82011682018060405250610dd19190810190612c86565b905060008773ffffffffffffffffffffffffffffffffffffffff16632c2cb9fd866040518263ffffffff1660e01b8152600401610e0e9190613763565b60206040518083038186803b158015610e2657600080fd5b505afa158015610e3a573d6000803e3d6000fd5b505050506040513d601f19601f82011682018060405250610e5e9190810190613011565b905060008373ffffffffffffffffffffffffffffffffffffffff16632424be5c83856040518363ffffffff1660e01b8152600401610e9d929190613623565b604080518083038186803b158015610eb457600080fd5b505afa158015610ec8573d6000803e3d6000fd5b505050506040513d601f19601f82011682018060405250610eec91908101906130de565b915050610f058784610f0087878888612560565b611465565b610f1f8987610f1388612772565b6000038460000361108d565b610f2b898730886106ce565b8773ffffffffffffffffffffffffffffffffffffffff1663ef693bed30876040518363ffffffff1660e01b8152600401610f669291906135bd565b600060405180830381600087803b158015610f8057600080fd5b505af1158015610f94573d6000803e3d6000fd5b505050508773ffffffffffffffffffffffffffffffffffffffff16637bd2bea76040518163ffffffff1660e01b8152600401602060405180830381600087803b158015610fe057600080fd5b505af1158015610ff4573d6000803e3d6000fd5b505050506040513d601f19601f820116820180604052506110189190810190613063565b73ffffffffffffffffffffffffffffffffffffffff16632e1a7d4d866040518263ffffffff1660e01b81526004016110509190613763565b600060405180830381600087803b15801561106a57600080fd5b505af115801561107e573d6000803e3d6000fd5b50505050505050505050505050565b8373ffffffffffffffffffffffffffffffffffffffff166345e6bdcd8484846040518463ffffffff1660e01b81526004016110ca939291906137de565b600060405180830381600087803b1580156110e457600080fd5b505af11580156110f8573d6000803e3d6000fd5b5050505050505050565b8373ffffffffffffffffffffffffffffffffffffffff16630b63fb628484846040518463ffffffff1660e01b815260040161113f939291906137a7565b600060405180830381600087803b15801561115957600080fd5b505af115801561116d573d6000803e3d6000fd5b5050505050505050565b60008573ffffffffffffffffffffffffffffffffffffffff166336569e776040518163ffffffff1660e01b815260040160206040518083038186803b1580156111bf57600080fd5b505afa1580156111d3573d6000803e3d6000fd5b505050506040513d601f19601f820116820180604052506111f79190810190612c86565b905060008673ffffffffffffffffffffffffffffffffffffffff16632726b073856040518263ffffffff1660e01b81526004016112349190613763565b60206040518083038186803b15801561124c57600080fd5b505afa158015611260573d6000803e3d6000fd5b505050506040513d601f19601f820116820180604052506112849190810190612c86565b905060008773ffffffffffffffffffffffffffffffffffffffff16632c2cb9fd866040518263ffffffff1660e01b81526004016112c19190613763565b60206040518083038186803b1580156112d957600080fd5b505afa1580156112ed573d6000803e3d6000fd5b505050506040513d601f19601f820116820180604052506113119190810190613011565b905060008373ffffffffffffffffffffffffffffffffffffffff16632424be5c83856040518363ffffffff1660e01b8152600401611350929190613623565b604080518083038186803b15801561136757600080fd5b505afa15801561137b573d6000803e3d6000fd5b505050506040513d601f19601f8201168201806040525061139f91908101906130de565b9150506113b887846113b387878888612560565b611465565b60006113c489876127c0565b90506113e08a886113d484612772565b6000038560000361108d565b6113ec8a8830846106ce565b8873ffffffffffffffffffffffffffffffffffffffff1663ef693bed30886040518363ffffffff1660e01b81526004016114279291906135bd565b600060405180830381600087803b15801561144157600080fd5b505af1158015611455573d6000803e3d6000fd5b5050505050505050505050505050565b8273ffffffffffffffffffffffffffffffffffffffff1663f4b9fa756040518163ffffffff1660e01b8152600401602060405180830381600087803b1580156114ad57600080fd5b505af11580156114c1573d6000803e3d6000fd5b505050506040513d601f19601f820116820180604052506114e59190810190613063565b73ffffffffffffffffffffffffffffffffffffffff1663095ea7b384836040518363ffffffff1660e01b815260040161151f9291906135bd565b600060405180830381600087803b15801561153957600080fd5b505af115801561154d573d6000803e3d6000fd5b505050508273ffffffffffffffffffffffffffffffffffffffff16633b4da69f83836040518363ffffffff1660e01b815260040161158c9291906135bd565b600060405180830381600087803b1580156115a657600080fd5b505af11580156115ba573d6000803e3d6000fd5b50505050505050565b6000838587010190506115d46129c1565b83836115e3919081019061308c565b905060008160000151905060008173ffffffffffffffffffffffffffffffffffffffff16635ed75a2f6040518163ffffffff1660e01b815260040160206040518083038186803b15801561163657600080fd5b505afa15801561164a573d6000803e3d6000fd5b505050506040513d601f19601f8201168201806040525061166e9190810190612c86565b905060008360400151905060006116898386602001516109f7565b9050606060026040519080825280602002602001820160405280156116bd5781602001602082028038833980820191505090505b50905082816000815181106116ce57fe5b602002602001019073ffffffffffffffffffffffffffffffffffffffff16908173ffffffffffffffffffffffffffffffffffffffff16815250508473ffffffffffffffffffffffffffffffffffffffff1663b29ced066040518163ffffffff1660e01b815260040160206040518083038186803b15801561174e57600080fd5b505afa158015611762573d6000803e3d6000fd5b505050506040513d601f19601f820116820180604052506117869190810190612c86565b8160018151811061179357fe5b602002602001019073ffffffffffffffffffffffffffffffffffffffff16908173ffffffffffffffffffffffffffffffffffffffff168152505060608573ffffffffffffffffffffffffffffffffffffffff1663bd020fbc6040518163ffffffff1660e01b815260040160206040518083038186803b15801561181557600080fd5b505afa158015611829573d6000803e3d6000fd5b505050506040513d601f19601f8201168201806040525061184d9190810190612c86565b73ffffffffffffffffffffffffffffffffffffffff1663c2998238836040518263ffffffff1660e01b815260040161188591906135e6565b600060405180830381600087803b15801561189f57600080fd5b505af11580156118b3573d6000803e3d6000fd5b505050506040513d6000823e3d601f19601f820116820180604052506118dc9190810190612fa7565b90506000816000815181106118ed57fe5b602002602001015114611935576040517f08c379a000000000000000000000000000000000000000000000000000000000815260040161192c906136e3565b60405180910390fd5b60008160018151811061194457fe5b60200260200101511461198c576040517f08c379a000000000000000000000000000000000000000000000000000000000815260040161198390613743565b60405180910390fd5b7f4554482d410000000000000000000000000000000000000000000000000000008573ffffffffffffffffffffffffffffffffffffffff16632c2cb9fd89602001516040518263ffffffff1660e01b81526004016119ea9190613763565b60206040518083038186803b158015611a0257600080fd5b505afa158015611a16573d6000803e3d6000fd5b505050506040513d601f19601f82011682018060405250611a3a9190810190613011565b1415611d7857611b4b858773ffffffffffffffffffffffffffffffffffffffff16638ec9f15f6040518163ffffffff1660e01b815260040160206040518083038186803b158015611a8a57600080fd5b505afa158015611a9e573d6000803e3d6000fd5b505050506040513d601f19601f82011682018060405250611ac29190810190612c86565b8873ffffffffffffffffffffffffffffffffffffffff1663ac92d52b6040518163ffffffff1660e01b815260040160206040518083038186803b158015611b0857600080fd5b505afa158015611b1c573d6000803e3d6000fd5b505050506040513d601f19601f82011682018060405250611b409190810190612c86565b8a6020015187610cc4565b8573ffffffffffffffffffffffffffffffffffffffff1663744d27126040518163ffffffff1660e01b815260040160206040518083038186803b158015611b9157600080fd5b505afa158015611ba5573d6000803e3d6000fd5b505050506040513d601f19601f82011682018060405250611bc99190810190612c86565b73ffffffffffffffffffffffffffffffffffffffff16631249c58b846040518263ffffffff1660e01b81526004016000604051808303818588803b158015611c1057600080fd5b505af1158015611c24573d6000803e3d6000fd5b505050505060008673ffffffffffffffffffffffffffffffffffffffff1663b29ced066040518163ffffffff1660e01b815260040160206040518083038186803b158015611c7157600080fd5b505afa158015611c85573d6000803e3d6000fd5b505050506040513d601f19601f82011682018060405250611ca99190810190612c86565b73ffffffffffffffffffffffffffffffffffffffff1663c5ebeaec8a6040518263ffffffff1660e01b8152600401611ce19190613763565b602060405180830381600087803b158015611cfb57600080fd5b505af1158015611d0f573d6000803e3d6000fd5b505050506040513d601f19601f82011682018060405250611d3391908101906130b5565b14611d73576040517f08c379a0000000000000000000000000000000000000000000000000000000008152600401611d6a906136c3565b60405180910390fd5b61214d565b611e178588606001518873ffffffffffffffffffffffffffffffffffffffff1663ac92d52b6040518163ffffffff1660e01b815260040160206040518083038186803b158015611dc757600080fd5b505afa158015611ddb573d6000803e3d6000fd5b505050506040513d601f19601f82011682018060405250611dff9190810190612c86565b8a60200151611e128c6060015189612859565b611177565b6000611e278489608001516128f2565b90508473ffffffffffffffffffffffffffffffffffffffff16636f307dc36040518163ffffffff1660e01b815260040160206040518083038186803b158015611e6f57600080fd5b505afa158015611e83573d6000803e3d6000fd5b505050506040513d601f19601f82011682018060405250611ea79190810190612c86565b73ffffffffffffffffffffffffffffffffffffffff1663095ea7b386836040518363ffffffff1660e01b8152600401611ee19291906135bd565b602060405180830381600087803b158015611efb57600080fd5b505af1158015611f0f573d6000803e3d6000fd5b505050506040513d601f19601f82011682018060405250611f339190810190612fe8565b5060008573ffffffffffffffffffffffffffffffffffffffff1663a0712d68836040518263ffffffff1660e01b8152600401611f6f9190613763565b602060405180830381600087803b158015611f8957600080fd5b505af1158015611f9d573d6000803e3d6000fd5b505050506040513d601f19601f82011682018060405250611fc191908101906130b5565b14612001576040517f08c379a0000000000000000000000000000000000000000000000000000000008152600401611ff890613703565b60405180910390fd5b60008773ffffffffffffffffffffffffffffffffffffffff1663b29ced066040518163ffffffff1660e01b815260040160206040518083038186803b15801561204957600080fd5b505afa15801561205d573d6000803e3d6000fd5b505050506040513d601f19601f820116820180604052506120819190810190612c86565b73ffffffffffffffffffffffffffffffffffffffff1663c5ebeaec8b6040518263ffffffff1660e01b81526004016120b99190613763565b602060405180830381600087803b1580156120d357600080fd5b505af11580156120e7573d6000803e3d6000fd5b505050506040513d601f19601f8201168201806040525061210b91908101906130b5565b1461214b576040517f08c379a0000000000000000000000000000000000000000000000000000000008152600401612142906136c3565b60405180910390fd5b505b50505050505050505050505050565b60008273ffffffffffffffffffffffffffffffffffffffff1663bf7e214f6040518163ffffffff1660e01b815260040160206040518083038186803b1580156121a457600080fd5b505afa1580156121b8573d6000803e3d6000fd5b505050506040513d601f19601f820116820180604052506121dc919081019061303a565b90508073ffffffffffffffffffffffffffffffffffffffff1663f0217ce58360601b6bffffffffffffffffffffffff19168373ffffffffffffffffffffffffffffffffffffffff1663a8542f666040518163ffffffff1660e01b815260040160206040518083038186803b15801561225357600080fd5b505afa158015612267573d6000803e3d6000fd5b505050506040513d601f19601f8201168201806040525061228b9190810190613011565b8473ffffffffffffffffffffffffffffffffffffffff1663a8542f666040518163ffffffff1660e01b815260040160206040518083038186803b1580156122d157600080fd5b505afa1580156122e5573d6000803e3d6000fd5b505050506040513d601f19601f820116820180604052506123099190810190613011565b6040518463ffffffff1660e01b81526004016123279392919061364c565b600060405180830381600087803b15801561234157600080fd5b505af1158015612355573d6000803e3d6000fd5b50505050505050565b60008273ffffffffffffffffffffffffffffffffffffffff1663bf7e214f6040518163ffffffff1660e01b815260040160206040518083038186803b1580156123a657600080fd5b505afa1580156123ba573d6000803e3d6000fd5b505050506040513d601f19601f820116820180604052506123de919081019061303a565b90508073ffffffffffffffffffffffffffffffffffffffff166379d88d878360601b6bffffffffffffffffffffffff19168373ffffffffffffffffffffffffffffffffffffffff1663a8542f666040518163ffffffff1660e01b815260040160206040518083038186803b15801561245557600080fd5b505afa158015612469573d6000803e3d6000fd5b505050506040513d601f19601f8201168201806040525061248d9190810190613011565b8473ffffffffffffffffffffffffffffffffffffffff1663a8542f666040518163ffffffff1660e01b815260040160206040518083038186803b1580156124d357600080fd5b505afa1580156124e7573d6000803e3d6000fd5b505050506040513d601f19601f8201168201806040525061250b9190810190613011565b6040518463ffffffff1660e01b81526004016125299392919061364c565b600060405180830381600087803b15801561254357600080fd5b505af1158015612557573d6000803e3d6000fd5b50505050505050565b6000808573ffffffffffffffffffffffffffffffffffffffff1663d9638d36846040518263ffffffff1660e01b815260040161259c9190613608565b60a06040518083038186803b1580156125b457600080fd5b505afa1580156125c8573d6000803e3d6000fd5b505050506040513d601f19601f820116820180604052506125ec919081019061319a565b50505091505060008673ffffffffffffffffffffffffffffffffffffffff16632424be5c85876040518363ffffffff1660e01b815260040161262f929190613623565b604080518083038186803b15801561264657600080fd5b505afa15801561265a573d6000803e3d6000fd5b505050506040513d601f19601f8201168201806040525061267e91908101906130de565b91505060008773ffffffffffffffffffffffffffffffffffffffff16636c25b346886040518263ffffffff1660e01b81526004016126bc9190613556565b60206040518083038186803b1580156126d457600080fd5b505afa1580156126e8573d6000803e3d6000fd5b505050506040513d601f19601f8201168201806040525061270c91908101906130b5565b9050600061272361271d848661290f565b83612971565b90506b033b2e3c9fd0803ce8000000818161273a57fe5b04945080612754866b033b2e3c9fd0803ce800000061290f565b1061275f5784612764565b600185015b945050505050949350505050565b600081905060008112156127bb576040517f08c379a00000000000000000000000000000000000000000000000000000000081526004016127b290613723565b60405180910390fd5b919050565b6000612851828473ffffffffffffffffffffffffffffffffffffffff1663b3bcfa826040518163ffffffff1660e01b8152600401602060405180830381600087803b15801561280e57600080fd5b505af1158015612822573d6000803e3d6000fd5b505050506040513d601f19601f8201168201806040525061284691908101906130b5565b601203600a0a61290f565b905092915050565b60008273ffffffffffffffffffffffffffffffffffffffff1663b3bcfa826040518163ffffffff1660e01b8152600401602060405180830381600087803b1580156128a357600080fd5b505af11580156128b7573d6000803e3d6000fd5b505050506040513d601f19601f820116820180604052506128db91908101906130b5565b601203600a0a82816128e957fe5b04905092915050565b60008160ff16601203600a0a838161290657fe5b04905092915050565b60008082148061292c575082828385029250828161292957fe5b04145b61296b576040517f08c379a000000000000000000000000000000000000000000000000000000000815260040161296290613683565b60405180910390fd5b92915050565b60008282840391508111156129bb576040517f08c379a00000000000000000000000000000000000000000000000000000000081526004016129b2906136a3565b60405180910390fd5b92915050565b6040518060a00160405280600073ffffffffffffffffffffffffffffffffffffffff16815260200160008152602001600073ffffffffffffffffffffffffffffffffffffffff168152602001600073ffffffffffffffffffffffffffffffffffffffff168152602001600060ff1681525090565b600081359050612a4481613a03565b92915050565b600081519050612a5981613a03565b92915050565b600081359050612a6e81613a1a565b92915050565b600082601f830112612a8557600080fd5b8151612a98612a9382613842565b613815565b91508181835260208401935060208101905083856020840282011115612abd57600080fd5b60005b83811015612aed5781612ad38882612c5c565b845260208401935060208301925050600181019050612ac0565b5050505092915050565b600081519050612b0681613a31565b92915050565b600081359050612b1b81613a48565b92915050565b600081519050612b3081613a48565b92915050565b60008083601f840112612b4857600080fd5b8235905067ffffffffffffffff811115612b6157600080fd5b602083019150836001820283011115612b7957600080fd5b9250929050565b600081519050612b8f81613a5f565b92915050565b600081519050612ba481613a76565b92915050565b600081359050612bb981613a8d565b92915050565b600060a08284031215612bd157600080fd5b612bdb60a0613815565b90506000612beb84828501612a35565b6000830152506020612bff84828501612c47565b6020830152506040612c1384828501612a35565b6040830152506060612c2784828501612a35565b6060830152506080612c3b84828501612c71565b60808301525092915050565b600081359050612c5681613aa4565b92915050565b600081519050612c6b81613aa4565b92915050565b600081359050612c8081613abb565b92915050565b600060208284031215612c9857600080fd5b6000612ca684828501612a4a565b91505092915050565b60008060008060008060a08789031215612cc857600080fd5b6000612cd689828a01612a35565b9650506020612ce789828a01612a5f565b9550506040612cf889828a01612a35565b9450506060612d0989828a01612c47565b935050608087013567ffffffffffffffff811115612d2657600080fd5b612d3289828a01612b36565b92509250509295509295509295565b600080600080600060a08688031215612d5957600080fd5b6000612d6788828901612a35565b9550506020612d7888828901612a35565b9450506040612d8988828901612a35565b9350506060612d9a88828901612c47565b9250506080612dab88828901612c47565b9150509295509295909350565b600080600060608486031215612dcd57600080fd5b6000612ddb86828701612a35565b9350506020612dec86828701612a35565b9250506040612dfd86828701612c47565b9150509250925092565b600080600060608486031215612e1c57600080fd5b6000612e2a86828701612a35565b9350506020612e3b86828701612b0c565b9250506040612e4c86828701612a35565b9150509250925092565b60008060408385031215612e6957600080fd5b6000612e7785828601612a35565b9250506020612e8885828601612c47565b9150509250929050565b600080600060608486031215612ea757600080fd5b6000612eb586828701612a35565b9350506020612ec686828701612c47565b9250506040612ed786828701612a35565b9150509250925092565b60008060008060808587031215612ef757600080fd5b6000612f0587828801612a35565b9450506020612f1687828801612c47565b9350506040612f2787828801612a35565b9250506060612f3887828801612c47565b91505092959194509250565b60008060008060808587031215612f5a57600080fd5b6000612f6887828801612a35565b9450506020612f7987828801612c47565b9350506040612f8a87828801612baa565b9250506060612f9b87828801612baa565b91505092959194509250565b600060208284031215612fb957600080fd5b600082015167ffffffffffffffff811115612fd357600080fd5b612fdf84828501612a74565b91505092915050565b600060208284031215612ffa57600080fd5b600061300884828501612af7565b91505092915050565b60006020828403121561302357600080fd5b600061303184828501612b21565b91505092915050565b60006020828403121561304c57600080fd5b600061305a84828501612b80565b91505092915050565b60006020828403121561307557600080fd5b600061308384828501612b95565b91505092915050565b600060a0828403121561309e57600080fd5b60006130ac84828501612bbf565b91505092915050565b6000602082840312156130c757600080fd5b60006130d584828501612c5c565b91505092915050565b600080604083850312156130f157600080fd5b60006130ff85828601612c5c565b925050602061311085828601612c5c565b9150509250929050565b60008060008060006080868803121561313257600080fd5b600061314088828901612c47565b955050602061315188828901612c47565b945050604061316288828901612c47565b935050606086013567ffffffffffffffff81111561317f57600080fd5b61318b88828901612b36565b92509250509295509295909350565b600080600080600060a086880312156131b257600080fd5b60006131c088828901612c5c565b95505060206131d188828901612c5c565b94505060406131e288828901612c5c565b93505060606131f388828901612c5c565b925050608061320488828901612c5c565b9150509295509295909350565b600061321d8383613238565b60208301905092915050565b6132328161397a565b82525050565b613241816138db565b82525050565b613250816138db565b82525050565b60006132618261387a565b61326b818561389d565b93506132768361386a565b8060005b838110156132a757815161328e8882613211565b975061329983613890565b92505060018101905061327a565b5085935050505092915050565b6132bd8161390b565b82525050565b60006132cf83856138bf565b93506132dc8385846139b0565b82840190509392505050565b60006132f382613885565b6132fd81856138ae565b935061330d8185602086016139bf565b613316816139f2565b840191505092915050565b600061332c82613885565b61333681856138bf565b93506133468185602086016139bf565b80840191505092915050565b61335b81613939565b82525050565b600061336e600c836138ca565b91507f6d756c2d6f766572666c6f7700000000000000000000000000000000000000006000830152602082019050919050565b60006133ae600c836138ca565b91507f7375622d6f766572666c6f7700000000000000000000000000000000000000006000830152602082019050919050565b60006133ee600f836138ca565b91507f6461692d626f72726f772d6661696c00000000000000000000000000000000006000830152602082019050919050565b600061342e6014836138ca565b91507f6d6b722d656e7465722d67656d2d6661696c65640000000000000000000000006000830152602082019050919050565b600061346e600f836138ca565b91507f67656d2d737570706c792d6661696c00000000000000000000000000000000006000830152602082019050919050565b60006134ae600c836138ca565b91507f696e742d6f766572666c6f7700000000000000000000000000000000000000006000830152602082019050919050565b60006134ee6014836138ca565b91507f6d6b722d656e7465722d6461692d6661696c65640000000000000000000000006000830152602082019050919050565b61352a81613963565b82525050565b600061353c8286613321565b91506135498284866132c3565b9150819050949350505050565b600060208201905061356b6000830184613247565b92915050565b60006080820190506135866000830187613229565b6135936020830186613247565b6135a06040830185613521565b81810360608301526135b281846132e8565b905095945050505050565b60006040820190506135d26000830185613247565b6135df6020830184613521565b9392505050565b600060208201905081810360008301526136008184613256565b905092915050565b600060208201905061361d60008301846132b4565b92915050565b600060408201905061363860008301856132b4565b6136456020830184613247565b9392505050565b600060608201905061366160008301866132b4565b61366e60208301856132b4565b61367b60408301846132b4565b949350505050565b6000602082019050818103600083015261369c81613361565b9050919050565b600060208201905081810360008301526136bc816133a1565b9050919050565b600060208201905081810360008301526136dc816133e1565b9050919050565b600060208201905081810360008301526136fc81613421565b9050919050565b6000602082019050818103600083015261371c81613461565b9050919050565b6000602082019050818103600083015261373c816134a1565b9050919050565b6000602082019050818103600083015261375c816134e1565b9050919050565b60006020820190506137786000830184613521565b92915050565b60006040820190506137936000830185613521565b6137a06020830184613247565b9392505050565b60006060820190506137bc6000830186613521565b6137c96020830185613247565b6137d66040830184613521565b949350505050565b60006060820190506137f36000830186613521565b6138006020830185613352565b61380d6040830184613352565b949350505050565b6000604051905081810181811067ffffffffffffffff8211171561383857600080fd5b8060405250919050565b600067ffffffffffffffff82111561385957600080fd5b602082029050602081019050919050565b6000819050602082019050919050565b600081519050919050565b600081519050919050565b6000602082019050919050565b600082825260208201905092915050565b600082825260208201905092915050565b600081905092915050565b600082825260208201905092915050565b60006138e682613943565b9050919050565b60006138f882613943565b9050919050565b60008115159050919050565b6000819050919050565b6000613920826138db565b9050919050565b6000613932826138db565b9050919050565b6000819050919050565b600073ffffffffffffffffffffffffffffffffffffffff82169050919050565b6000819050919050565b600060ff82169050919050565b60006139858261398c565b9050919050565b60006139978261399e565b9050919050565b60006139a982613943565b9050919050565b82818337600083830152505050565b60005b838110156139dd5780820151818401526020810190506139c2565b838111156139ec576000848401525b50505050565b6000601f19601f8301169050919050565b613a0c816138db565b8114613a1757600080fd5b50565b613a23816138ed565b8114613a2e57600080fd5b50565b613a3a816138ff565b8114613a4557600080fd5b50565b613a518161390b565b8114613a5c57600080fd5b50565b613a6881613915565b8114613a7357600080fd5b50565b613a7f81613927565b8114613a8a57600080fd5b50565b613a9681613939565b8114613aa157600080fd5b50565b613aad81613963565b8114613ab857600080fd5b50565b613ac48161396d565b8114613acf57600080fd5b5056fea365627a7a72315820f1c3d78a959689c72ac536e617926420e1446894aea178e84f082e4629b78f9c6c6578706572696d656e74616cf564736f6c63430005100040",
  "source": "// Largely referenced from https://github.com/mrdavey/CollateralSwapFrontend\n\npragma solidity 0.5.16;\npragma experimental ABIEncoderV2;\n\nimport \"../lib/aave/FlashLoanReceiverBase.sol\";\n\nimport \"../lib/makerdao/DssProxyActionsBase.sol\";\n\nimport \"../lib/uniswap/UniswapBase.sol\";\n\nimport \"../lib/dapphub/Guard.sol\";\n\nimport \"../proxies/DACProxy.sol\";\n\n\nimport \"../interfaces/aave/ILendingPoolAddressesProvider.sol\";\nimport \"../interfaces/aave/ILendingPool.sol\";\n\nimport \"../interfaces/uniswap/IUniswapExchange.sol\";\nimport \"../interfaces/uniswap/IUniswapFactory.sol\";\n\nimport \"../interfaces/IERC20.sol\";\n\nimport \"../interfaces/compound/IComptroller.sol\";\nimport \"../interfaces/compound/ICToken.sol\";\nimport \"../interfaces/compound/ICEther.sol\";\n\nimport \"../interfaces/makerdao/IDssProxyActions.sol\";\n\nimport \"../registries/AddressRegistry.sol\";\n\n\ncontract DedgeMakerManager is DssProxyActionsBase {\n    function () external payable {}\n\n    constructor () public {}\n\n    struct ImportMakerVaultCallData {\n        address addressRegistryAddress;\n        uint cdpId;\n        address collateralCTokenAddress;\n        address collateralJoinAddress;\n        uint8 collateralDecimals;\n    }\n\n    // Helper functions\n    function _proxyGuardPermit(address payable proxyAddress, address src) internal {\n        address g = address(DACProxy(proxyAddress).authority());\n\n        DSGuard(g).permit(\n            bytes32(bytes20(address(src))),\n            DSGuard(g).ANY(),\n            DSGuard(g).ANY()\n        );\n    }\n\n    function _proxyGuardForbid(address payable proxyAddress, address src) internal {\n        address g = address(DACProxy(proxyAddress).authority());\n\n        DSGuard(g).forbid(\n            bytes32(bytes20(address(src))),\n            DSGuard(g).ANY(),\n            DSGuard(g).ANY()\n        );\n    }\n\n    function _convert18ToDecimal(uint amount, uint8 decimals) internal returns (uint) {\n        return amount / (10 ** (18 - uint(decimals)));\n    }\n\n    function _convert18ToGemUnits(address gemJoin, uint256 wad) internal returns (uint) {\n        return wad / (10 ** (18 - GemJoinLike(gemJoin).dec()));\n    }\n\n    // Gets vault debt in 18 wei\n    function getVaultDebt(address manager, uint cdp) public view returns (uint debt)\n    {\n        address vat = ManagerLike(manager).vat();\n        address urn = ManagerLike(manager).urns(cdp);\n        bytes32 ilk = ManagerLike(manager).ilks(cdp);\n        address owner = ManagerLike(manager).owns(cdp);\n\n        debt = _getWipeAllWad(vat, owner, urn, ilk);\n    }\n\n    function getVaultCollateral(\n        address manager,\n        uint cdp\n    ) public view returns (uint ink) {\n        address vat = ManagerLike(manager).vat();\n        address urn = ManagerLike(manager).urns(cdp);\n        bytes32 ilk = ManagerLike(manager).ilks(cdp);\n\n        // Note: This returns in 18 decimals, need to\n        // convert to gemUnits before passing it to\n        // dss-proxy-actions\n        (ink,) = VatLike(vat).urns(ilk, urn);\n    }\n\n    // Function to be called by proxy post loan\n    // in order to import maker vault\n    function importMakerVaultPostLoan(\n        uint _amount,\n        uint _aaveFee,\n        uint _protocolFee,\n        bytes calldata _data\n    ) external {\n        // Calculate total debt\n        uint totalDebt = _amount + _aaveFee + _protocolFee;\n\n        // Reconstruct data\n        ImportMakerVaultCallData memory imvCalldata = abi.decode(_data, (ImportMakerVaultCallData));\n\n        // Extract relevant data\n        AddressRegistry addressRegistry = AddressRegistry(imvCalldata.addressRegistryAddress);\n        address cdpManager = addressRegistry.DssCdpManagerAddress();\n        address collateralCTokenAddress = imvCalldata.collateralCTokenAddress;\n\n        // Collateral in 18 decimal places\n        uint collateral18 = getVaultCollateral(cdpManager, imvCalldata.cdpId);\n\n        // Joins the ETH/GEM/DAI market in compound if they haven't already\n        address[] memory enterMarketsCToken = new address[](2);\n        enterMarketsCToken[0] = collateralCTokenAddress;\n        enterMarketsCToken[1] = addressRegistry.CDaiAddress();\n\n        uint[] memory enterMarketErrors = IComptroller(\n            addressRegistry.CompoundComptrollerAddress()\n        ).enterMarkets(enterMarketsCToken);\n\n        require(enterMarketErrors[0] == 0, \"mkr-enter-gem-failed\");\n        require(enterMarketErrors[1] == 0, \"mkr-enter-dai-failed\");\n\n        if (ManagerLike(cdpManager).ilks(imvCalldata.cdpId) == bytes32(\"ETH-A\")) {\n            wipeAllAndFreeETH(\n                cdpManager,\n                addressRegistry.EthJoinAddress(),\n                addressRegistry.DaiJoinAddress(),\n                imvCalldata.cdpId,\n                collateral18\n            );\n\n            // Supply ETH and Borrow DAI (Compound)\n            ICEther(addressRegistry.CEtherAddress()).mint.value(collateral18)();\n            require(\n                ICToken(addressRegistry.CDaiAddress()).borrow(totalDebt) == 0,\n                \"dai-borrow-fail\"\n            );\n        } else {\n            // Free GEM\n            wipeAllAndFreeGem(\n                cdpManager,\n                imvCalldata.collateralJoinAddress,\n                addressRegistry.DaiJoinAddress(),\n                imvCalldata.cdpId,\n                _convert18ToGemUnits(\n                    imvCalldata.collateralJoinAddress,\n                    collateral18\n                )\n            );\n\n            // Convert collateral to relevant decimal places\n            uint collateralFixedDec = _convert18ToDecimal(\n                collateral18, imvCalldata.collateralDecimals\n            );\n\n            // Approve CToken Collateral underlying to enable call transferFrom\n            IERC20(ICToken(collateralCTokenAddress).underlying())\n                .approve(collateralCTokenAddress, collateralFixedDec);\n\n            // Supply GEM and Borrow DAI (Compound)\n            require(\n                ICToken(collateralCTokenAddress).mint(\n                    collateralFixedDec\n                ) == 0,\n                \"gem-supply-fail\"\n            );\n            require(\n                ICToken(addressRegistry.CDaiAddress()).borrow(totalDebt) == 0,\n                \"dai-borrow-fail\"\n            );\n        }\n    }\n\n    /* \n    Main entry point maker vault into Dedge\n\n    @params:\n        dacProxyAddress: User's proxy address\n        addressRegistryAddress: AddressRegistry's Address\n        cdpId: User's cdpId\n        executeOperationCalldataParams:\n            Abi-encoded `data` used by User's proxy's `execute(address, <data>)` function\n            Used to delegatecall to another contract (i.e. this contract) in the context\n            of the proxy. This allows for better flexibility and decoupling of logic from\n            user's proxy. In this specific case, it is expecting the results from: (from JS)\n\n            ```\n                const IDedgeMakerManager = ethers.utils.Interface(DedgeMakerManager.abi)\n\n                const executeOperationCalldataParams = IDedgeMakerManager\n                    .functions\n                    .importMakerVaultPostLoan\n                    .encode([ <parameters> ])\n            ```\n    */\n    function importMakerVault(\n        address dedgeMakerManagerAddress,\n        address payable dacProxyAddress,\n        address addressRegistryAddress,\n        uint cdpId,\n        bytes calldata executeOperationCalldataParams\n    ) external {\n        // Get Address Registry\n        AddressRegistry addressRegistry = AddressRegistry(addressRegistryAddress);\n\n        // Get cdpManager and proxy's guard address\n        address cdpManager = addressRegistry.DssCdpManagerAddress();\n\n        // Get Debt\n        uint daiDebt = getVaultDebt(cdpManager, cdpId);\n\n        // Injects the target address into calldataParams\n        // so user proxy knows which address it'll be calling `calldataParams` on\n        bytes memory addressAndExecuteOperationCalldataParams = abi.encodePacked(\n            abi.encode(dedgeMakerManagerAddress),\n            executeOperationCalldataParams\n        );\n        \n        // Get lending pool address\n        ILendingPool lendingPool = ILendingPool(\n            ILendingPoolAddressesProvider(\n                addressRegistry.AaveLendingPoolAddressProviderAddress()\n            ).getLendingPool()\n        );\n\n        cdpAllow(addressRegistry.DssCdpManagerAddress(), cdpId, dedgeMakerManagerAddress, 1);\n        _proxyGuardPermit(dacProxyAddress, address(lendingPool));\n\n        lendingPool.flashLoan(\n            dacProxyAddress,\n            addressRegistry.DaiAddress(),\n            daiDebt,\n            addressAndExecuteOperationCalldataParams\n        );\n\n        // Once we're done with the vault, give it away (its empty anyway)\n        give(addressRegistry.DssCdpManagerAddress(), cdpId, address(1));\n        // Lending pool can't call our proxy address anymore\n        _proxyGuardForbid(dacProxyAddress, address(lendingPool));\n    }\n}\n",
  "sourcePath": "/home/kendrick/Development/Ethereum/dedge/packages/smart-contracts/src/managers/DedgeMakerManager.sol",
  "compiler": {
    "name": "solc",
    "version": "0.5.16+commit.9c3226ce.Emscripten.clang"
  },
  "schemaVersion": "3.0.23",
  "updatedAt": "2020-04-01T07:00:05.852Z",
  "networkType": "ethereum",
  "devdoc": {
    "methods": {}
  },
  "userdoc": {
    "methods": {}
  }
}