{
  "contractName": "DedgeMakerManager",
  "abi": [
    {
      "inputs": [],
      "payable": false,
      "stateMutability": "nonpayable",
      "type": "constructor"
    },
    {
      "payable": true,
      "stateMutability": "payable",
      "type": "fallback"
    },
    {
      "constant": false,
      "inputs": [
        {
          "internalType": "address",
          "name": "manager",
          "type": "address"
        },
        {
          "internalType": "uint256",
          "name": "cdp",
          "type": "uint256"
        },
        {
          "internalType": "address",
          "name": "usr",
          "type": "address"
        },
        {
          "internalType": "uint256",
          "name": "ok",
          "type": "uint256"
        }
      ],
      "name": "cdpAllow",
      "outputs": [],
      "payable": false,
      "stateMutability": "nonpayable",
      "type": "function"
    },
    {
      "constant": false,
      "inputs": [
        {
          "internalType": "address",
          "name": "apt",
          "type": "address"
        },
        {
          "internalType": "address",
          "name": "urn",
          "type": "address"
        },
        {
          "internalType": "uint256",
          "name": "wad",
          "type": "uint256"
        }
      ],
      "name": "daiJoin_join",
      "outputs": [],
      "payable": false,
      "stateMutability": "nonpayable",
      "type": "function"
    },
    {
      "constant": false,
      "inputs": [
        {
          "internalType": "address",
          "name": "manager",
          "type": "address"
        },
        {
          "internalType": "uint256",
          "name": "cdp",
          "type": "uint256"
        },
        {
          "internalType": "address",
          "name": "dst",
          "type": "address"
        },
        {
          "internalType": "uint256",
          "name": "wad",
          "type": "uint256"
        }
      ],
      "name": "flux",
      "outputs": [],
      "payable": false,
      "stateMutability": "nonpayable",
      "type": "function"
    },
    {
      "constant": false,
      "inputs": [
        {
          "internalType": "address",
          "name": "manager",
          "type": "address"
        },
        {
          "internalType": "uint256",
          "name": "cdp",
          "type": "uint256"
        },
        {
          "internalType": "int256",
          "name": "dink",
          "type": "int256"
        },
        {
          "internalType": "int256",
          "name": "dart",
          "type": "int256"
        }
      ],
      "name": "frob",
      "outputs": [],
      "payable": false,
      "stateMutability": "nonpayable",
      "type": "function"
    },
    {
      "constant": false,
      "inputs": [
        {
          "internalType": "address",
          "name": "manager",
          "type": "address"
        },
        {
          "internalType": "uint256",
          "name": "cdp",
          "type": "uint256"
        },
        {
          "internalType": "address",
          "name": "usr",
          "type": "address"
        }
      ],
      "name": "give",
      "outputs": [],
      "payable": false,
      "stateMutability": "nonpayable",
      "type": "function"
    },
    {
      "constant": false,
      "inputs": [
        {
          "internalType": "address",
          "name": "manager",
          "type": "address"
        },
        {
          "internalType": "bytes32",
          "name": "ilk",
          "type": "bytes32"
        },
        {
          "internalType": "address",
          "name": "usr",
          "type": "address"
        }
      ],
      "name": "open",
      "outputs": [
        {
          "internalType": "uint256",
          "name": "cdp",
          "type": "uint256"
        }
      ],
      "payable": false,
      "stateMutability": "nonpayable",
      "type": "function"
    },
    {
      "constant": false,
      "inputs": [
        {
          "internalType": "address",
          "name": "manager",
          "type": "address"
        },
        {
          "internalType": "address",
          "name": "ethJoin",
          "type": "address"
        },
        {
          "internalType": "address",
          "name": "daiJoin",
          "type": "address"
        },
        {
          "internalType": "uint256",
          "name": "cdp",
          "type": "uint256"
        },
        {
          "internalType": "uint256",
          "name": "wadC",
          "type": "uint256"
        }
      ],
      "name": "wipeAllAndFreeETH",
      "outputs": [],
      "payable": false,
      "stateMutability": "nonpayable",
      "type": "function"
    },
    {
      "constant": false,
      "inputs": [
        {
          "internalType": "address",
          "name": "manager",
          "type": "address"
        },
        {
          "internalType": "address",
          "name": "gemJoin",
          "type": "address"
        },
        {
          "internalType": "address",
          "name": "daiJoin",
          "type": "address"
        },
        {
          "internalType": "uint256",
          "name": "cdp",
          "type": "uint256"
        },
        {
          "internalType": "uint256",
          "name": "wadC",
          "type": "uint256"
        }
      ],
      "name": "wipeAllAndFreeGem",
      "outputs": [],
      "payable": false,
      "stateMutability": "nonpayable",
      "type": "function"
    },
    {
      "constant": true,
      "inputs": [
        {
          "internalType": "address",
          "name": "manager",
          "type": "address"
        },
        {
          "internalType": "uint256",
          "name": "cdp",
          "type": "uint256"
        }
      ],
      "name": "getVaultDebt",
      "outputs": [
        {
          "internalType": "uint256",
          "name": "debt",
          "type": "uint256"
        }
      ],
      "payable": false,
      "stateMutability": "view",
      "type": "function"
    },
    {
      "constant": true,
      "inputs": [
        {
          "internalType": "address",
          "name": "manager",
          "type": "address"
        },
        {
          "internalType": "uint256",
          "name": "cdp",
          "type": "uint256"
        }
      ],
      "name": "getVaultCollateral",
      "outputs": [
        {
          "internalType": "uint256",
          "name": "ink",
          "type": "uint256"
        }
      ],
      "payable": false,
      "stateMutability": "view",
      "type": "function"
    },
    {
      "constant": false,
      "inputs": [
        {
          "internalType": "uint256",
          "name": "_amount",
          "type": "uint256"
        },
        {
          "internalType": "uint256",
          "name": "_aaveFee",
          "type": "uint256"
        },
        {
          "internalType": "uint256",
          "name": "_protocolFee",
          "type": "uint256"
        },
        {
          "internalType": "bytes",
          "name": "_data",
          "type": "bytes"
        }
      ],
      "name": "importMakerVaultPostLoan",
      "outputs": [],
      "payable": false,
      "stateMutability": "nonpayable",
      "type": "function"
    },
    {
      "constant": false,
      "inputs": [
        {
          "internalType": "address",
          "name": "dedgeMakerManagerAddress",
          "type": "address"
        },
        {
          "internalType": "address payable",
          "name": "dacProxyAddress",
          "type": "address"
        },
        {
          "internalType": "address",
          "name": "addressRegistryAddress",
          "type": "address"
        },
        {
          "internalType": "uint256",
          "name": "cdpId",
          "type": "uint256"
        },
        {
          "internalType": "bytes",
          "name": "executeOperationCalldataParams",
          "type": "bytes"
        }
      ],
      "name": "importMakerVault",
      "outputs": [],
      "payable": false,
      "stateMutability": "nonpayable",
      "type": "function"
    }
  ],
  "bytecode": "0x608060405234801561001057600080fd5b50612d71806100206000396000f3fe6080604052600436106100a75760003560e01c80636d68b70b116100645780636d68b70b1461017f57806396e8d72c1461019f578063ba727a95146101bf578063bcd6deec146101df578063c56167c6146101ff578063ddd927b21461021f576100a7565b8063131fb710146100a95780631558b048146100c95780631d10f231146100e95780633edec14e1461010957806361d2d7dc1461013f5780636aa3ee111461015f575b005b3480156100b557600080fd5b506100a76100c4366004612422565b61023f565b3480156100d557600080fd5b506100a76100e43660046125f1565b6105df565b3480156100f557600080fd5b506100a7610104366004612574565b610647565b34801561011557600080fd5b506101296101243660046125b7565b6106ac565b6040516101369190612b3b565b60405180910390f35b34801561014b57600080fd5b5061012961015a3660046125b7565b6108b9565b34801561016b57600080fd5b5061012961017a366004612574565b610ab8565b34801561018b57600080fd5b506100a761019a3660046124b2565b610b43565b3480156101ab57600080fd5b506100a76101ba366004612652565b610eac565b3480156101cb57600080fd5b506100a76101da3660046125f1565b610edc565b3480156101eb57600080fd5b506100a76101fa3660046124b2565b610f0c565b34801561020b57600080fd5b506100a761021a366004612527565b6111b4565b34801561022b57600080fd5b506100a761023a366004612773565b6112b4565b60008490506000816001600160a01b0316635ed75a2f6040518163ffffffff1660e01b815260040160206040518083038186803b15801561027f57600080fd5b505afa158015610293573d6000803e3d6000fd5b505050506040513d601f19601f820116820180604052506102b79190810190612404565b905060006102c582876106ac565b90506060896040516020016102da9190612abd565b60408051601f19818403018152908290526102fb9188908890602001612a9b565b60405160208183030381529060405290506000846001600160a01b0316633f6dc33b6040518163ffffffff1660e01b815260040160206040518083038186803b15801561034757600080fd5b505afa15801561035b573d6000803e3d6000fd5b505050506040513d601f19601f8201168201806040525061037f9190810190612404565b6001600160a01b0316630261bf8b6040518163ffffffff1660e01b815260040160206040518083038186803b1580156103b757600080fd5b505afa1580156103cb573d6000803e3d6000fd5b505050506040513d601f19601f820116820180604052506103ef9190810190612404565b905061046e856001600160a01b0316635ed75a2f6040518163ffffffff1660e01b815260040160206040518083038186803b15801561042d57600080fd5b505afa158015610441573d6000803e3d6000fd5b505050506040513d601f19601f820116820180604052506104659190810190612404565b898d6001610edc565b6104788a82611c47565b806001600160a01b0316635cffe9de8b876001600160a01b031663ee2a94116040518163ffffffff1660e01b815260040160206040518083038186803b1580156104c157600080fd5b505afa1580156104d5573d6000803e3d6000fd5b505050506040513d601f19601f820116820180604052506104f99190810190612404565b86866040518563ffffffff1660e01b815260040161051a9493929190612acb565b600060405180830381600087803b15801561053457600080fd5b505af1158015610548573d6000803e3d6000fd5b505050506105c8856001600160a01b0316635ed75a2f6040518163ffffffff1660e01b815260040160206040518083038186803b15801561058857600080fd5b505afa15801561059c573d6000803e3d6000fd5b505050506040513d601f19601f820116820180604052506105c09190810190612404565b896001610647565b6105d28a82611dde565b5050505050505050505050565b6040516313771f0760e31b81526001600160a01b03851690639bb8f8389061060f90869086908690600401612bfc565b600060405180830381600087803b15801561062957600080fd5b505af115801561063d573d6000803e3d6000fd5b5050505050505050565b604051631f95f98d60e31b81526001600160a01b0384169063fcafcc68906106759085908590600401612b49565b600060405180830381600087803b15801561068f57600080fd5b505af11580156106a3573d6000803e3d6000fd5b50505050505050565b600080836001600160a01b03166336569e776040518163ffffffff1660e01b815260040160206040518083038186803b1580156106e857600080fd5b505afa1580156106fc573d6000803e3d6000fd5b505050506040513d601f19601f820116820180604052506107209190810190612404565b90506000846001600160a01b0316632726b073856040518263ffffffff1660e01b81526004016107509190612b3b565b60206040518083038186803b15801561076857600080fd5b505afa15801561077c573d6000803e3d6000fd5b505050506040513d601f19601f820116820180604052506107a09190810190612404565b90506000856001600160a01b0316632c2cb9fd866040518263ffffffff1660e01b81526004016107d09190612b3b565b60206040518083038186803b1580156107e857600080fd5b505afa1580156107fc573d6000803e3d6000fd5b505050506040513d601f19601f8201168201806040525061082091908101906126e9565b90506000866001600160a01b0316638161b120876040518263ffffffff1660e01b81526004016108509190612b3b565b60206040518083038186803b15801561086857600080fd5b505afa15801561087c573d6000803e3d6000fd5b505050506040513d601f19601f820116820180604052506108a09190810190612404565b90506108ae84828585611eae565b979650505050505050565b600080836001600160a01b03166336569e776040518163ffffffff1660e01b815260040160206040518083038186803b1580156108f557600080fd5b505afa158015610909573d6000803e3d6000fd5b505050506040513d601f19601f8201168201806040525061092d9190810190612404565b90506000846001600160a01b0316632726b073856040518263ffffffff1660e01b815260040161095d9190612b3b565b60206040518083038186803b15801561097557600080fd5b505afa158015610989573d6000803e3d6000fd5b505050506040513d601f19601f820116820180604052506109ad9190810190612404565b90506000856001600160a01b0316632c2cb9fd866040518263ffffffff1660e01b81526004016109dd9190612b3b565b60206040518083038186803b1580156109f557600080fd5b505afa158015610a09573d6000803e3d6000fd5b505050506040513d601f19601f82011682018060405250610a2d91908101906126e9565b6040516309092f9760e21b81529091506001600160a01b03841690632424be5c90610a5e9084908690600401612b49565b604080518083038186803b158015610a7557600080fd5b505afa158015610a89573d6000803e3d6000fd5b505050506040513d601f19601f82011682018060405250610aad9190810190612743565b509695505050505050565b604051636090dec560e01b81526000906001600160a01b03851690636090dec590610ae99086908690600401612b49565b602060405180830381600087803b158015610b0357600080fd5b505af1158015610b17573d6000803e3d6000fd5b505050506040513d601f19601f82011682018060405250610b3b91908101906126e9565b949350505050565b6000856001600160a01b03166336569e776040518163ffffffff1660e01b815260040160206040518083038186803b158015610b7e57600080fd5b505afa158015610b92573d6000803e3d6000fd5b505050506040513d601f19601f82011682018060405250610bb69190810190612404565b90506000866001600160a01b0316632726b073856040518263ffffffff1660e01b8152600401610be69190612b3b565b60206040518083038186803b158015610bfe57600080fd5b505afa158015610c12573d6000803e3d6000fd5b505050506040513d601f19601f82011682018060405250610c369190810190612404565b90506000876001600160a01b0316632c2cb9fd866040518263ffffffff1660e01b8152600401610c669190612b3b565b60206040518083038186803b158015610c7e57600080fd5b505afa158015610c92573d6000803e3d6000fd5b505050506040513d601f19601f82011682018060405250610cb691908101906126e9565b90506000836001600160a01b0316632424be5c83856040518363ffffffff1660e01b8152600401610ce8929190612b49565b604080518083038186803b158015610cff57600080fd5b505afa158015610d13573d6000803e3d6000fd5b505050506040513d601f19601f82011682018060405250610d379190810190612743565b915050610d4b878461021a87878888611eae565b610d658987610d5988612091565b60000384600003610eac565b610d71898730886105df565b60405163ef693bed60e01b81526001600160a01b0389169063ef693bed90610d9f9030908990600401612b0f565b600060405180830381600087803b158015610db957600080fd5b505af1158015610dcd573d6000803e3d6000fd5b50505050876001600160a01b0316637bd2bea76040518163ffffffff1660e01b8152600401602060405180830381600087803b158015610e0c57600080fd5b505af1158015610e20573d6000803e3d6000fd5b505050506040513d601f19601f82011682018060405250610e449190810190612707565b6001600160a01b0316632e1a7d4d866040518263ffffffff1660e01b8152600401610e6f9190612b3b565b600060405180830381600087803b158015610e8957600080fd5b505af1158015610e9d573d6000803e3d6000fd5b50505050505050505050505050565b6040516345e6bdcd60e01b81526001600160a01b038516906345e6bdcd9061060f90869086908690600401612b64565b6040516305b1fdb160e11b81526001600160a01b03851690630b63fb629061060f90869086908690600401612bfc565b6000856001600160a01b03166336569e776040518163ffffffff1660e01b815260040160206040518083038186803b158015610f4757600080fd5b505afa158015610f5b573d6000803e3d6000fd5b505050506040513d601f19601f82011682018060405250610f7f9190810190612404565b90506000866001600160a01b0316632726b073856040518263ffffffff1660e01b8152600401610faf9190612b3b565b60206040518083038186803b158015610fc757600080fd5b505afa158015610fdb573d6000803e3d6000fd5b505050506040513d601f19601f82011682018060405250610fff9190810190612404565b90506000876001600160a01b0316632c2cb9fd866040518263ffffffff1660e01b815260040161102f9190612b3b565b60206040518083038186803b15801561104757600080fd5b505afa15801561105b573d6000803e3d6000fd5b505050506040513d601f19601f8201168201806040525061107f91908101906126e9565b90506000836001600160a01b0316632424be5c83856040518363ffffffff1660e01b81526004016110b1929190612b49565b604080518083038186803b1580156110c857600080fd5b505afa1580156110dc573d6000803e3d6000fd5b505050506040513d601f19601f820116820180604052506111009190810190612743565b915050611114878461021a87878888611eae565b600061112089876120b8565b905061113c8a8861113084612091565b60000385600003610eac565b6111488a8830846105df565b60405163ef693bed60e01b81526001600160a01b038a169063ef693bed906111769030908a90600401612b0f565b600060405180830381600087803b15801561119057600080fd5b505af11580156111a4573d6000803e3d6000fd5b5050505050505050505050505050565b826001600160a01b031663f4b9fa756040518163ffffffff1660e01b8152600401602060405180830381600087803b1580156111ef57600080fd5b505af1158015611203573d6000803e3d6000fd5b505050506040513d601f19601f820116820180604052506112279190810190612707565b6001600160a01b031663095ea7b384836040518363ffffffff1660e01b8152600401611254929190612b0f565b600060405180830381600087803b15801561126e57600080fd5b505af1158015611282573d6000803e3d6000fd5b5050604051633b4da69f60e01b81526001600160a01b0386169250633b4da69f91506106759085908590600401612b0f565b84840183016112c161223e565b6112cd83850185612725565b90506000816000015190506000816001600160a01b0316635ed75a2f6040518163ffffffff1660e01b815260040160206040518083038186803b15801561131357600080fd5b505afa158015611327573d6000803e3d6000fd5b505050506040513d601f19601f8201168201806040525061134b9190810190612404565b905060008360400151905060006113668386602001516108b9565b604080516002808252606080830184529394509091602083019080388339019050509050828160008151811061139857fe5b60200260200101906001600160a01b031690816001600160a01b031681525050846001600160a01b031663b29ced066040518163ffffffff1660e01b815260040160206040518083038186803b1580156113f157600080fd5b505afa158015611405573d6000803e3d6000fd5b505050506040513d601f19601f820116820180604052506114299190810190612404565b8160018151811061143657fe5b60200260200101906001600160a01b031690816001600160a01b0316815250506060856001600160a01b031663bd020fbc6040518163ffffffff1660e01b815260040160206040518083038186803b15801561149157600080fd5b505afa1580156114a5573d6000803e3d6000fd5b505050506040513d601f19601f820116820180604052506114c99190810190612404565b6001600160a01b031663c2998238836040518263ffffffff1660e01b81526004016114f49190612b2a565b600060405180830381600087803b15801561150e57600080fd5b505af1158015611522573d6000803e3d6000fd5b505050506040513d6000823e601f3d908101601f1916820160405261154a9190810190612696565b90508060008151811061155957fe5b60200260200101516000146115895760405162461bcd60e51b815260040161158090612bbc565b60405180910390fd5b8060018151811061159657fe5b60200260200101516000146115bd5760405162461bcd60e51b815260040161158090612bec565b6020870151604051632c2cb9fd60e01b8152644554482d4160d81b916001600160a01b03881691632c2cb9fd916115f691600401612b3b565b60206040518083038186803b15801561160e57600080fd5b505afa158015611622573d6000803e3d6000fd5b505050506040513d601f19601f8201168201806040525061164691908101906126e9565b14156119115761173d85876001600160a01b0316638ec9f15f6040518163ffffffff1660e01b815260040160206040518083038186803b15801561168957600080fd5b505afa15801561169d573d6000803e3d6000fd5b505050506040513d601f19601f820116820180604052506116c19190810190612404565b886001600160a01b031663ac92d52b6040518163ffffffff1660e01b815260040160206040518083038186803b1580156116fa57600080fd5b505afa15801561170e573d6000803e3d6000fd5b505050506040513d601f19601f820116820180604052506117329190810190612404565b8a6020015187610b43565b856001600160a01b031663744d27126040518163ffffffff1660e01b815260040160206040518083038186803b15801561177657600080fd5b505afa15801561178a573d6000803e3d6000fd5b505050506040513d601f19601f820116820180604052506117ae9190810190612404565b6001600160a01b0316631249c58b846040518263ffffffff1660e01b81526004016000604051808303818588803b1580156117e857600080fd5b505af11580156117fc573d6000803e3d6000fd5b5050505050856001600160a01b031663b29ced066040518163ffffffff1660e01b815260040160206040518083038186803b15801561183a57600080fd5b505afa15801561184e573d6000803e3d6000fd5b505050506040513d601f19601f820116820180604052506118729190810190612404565b6001600160a01b031663c5ebeaec896040518263ffffffff1660e01b815260040161189d9190612b3b565b602060405180830381600087803b1580156118b757600080fd5b505af11580156118cb573d6000803e3d6000fd5b505050506040513d601f19601f820116820180604052506118ef91908101906126e9565b1561190c5760405162461bcd60e51b815260040161158090612bac565b610e9d565b61199e858860600151886001600160a01b031663ac92d52b6040518163ffffffff1660e01b815260040160206040518083038186803b15801561195357600080fd5b505afa158015611967573d6000803e3d6000fd5b505050506040513d601f19601f8201168201806040525061198b9190810190612404565b8a602001516101fa8c6060015189612143565b60006119ae8489608001516121d0565b9050846001600160a01b0316636f307dc36040518163ffffffff1660e01b815260040160206040518083038186803b1580156119e957600080fd5b505afa1580156119fd573d6000803e3d6000fd5b505050506040513d601f19601f82011682018060405250611a219190810190612404565b6001600160a01b031663095ea7b386836040518363ffffffff1660e01b8152600401611a4e929190612b0f565b602060405180830381600087803b158015611a6857600080fd5b505af1158015611a7c573d6000803e3d6000fd5b505050506040513d601f19601f82011682018060405250611aa091908101906126cb565b5060405163140e25ad60e31b81526001600160a01b0386169063a0712d6890611acd908490600401612b3b565b602060405180830381600087803b158015611ae757600080fd5b505af1158015611afb573d6000803e3d6000fd5b505050506040513d601f19601f82011682018060405250611b1f91908101906126e9565b15611b3c5760405162461bcd60e51b815260040161158090612bcc565b866001600160a01b031663b29ced066040518163ffffffff1660e01b815260040160206040518083038186803b158015611b7557600080fd5b505afa158015611b89573d6000803e3d6000fd5b505050506040513d601f19601f82011682018060405250611bad9190810190612404565b6001600160a01b031663c5ebeaec8a6040518263ffffffff1660e01b8152600401611bd89190612b3b565b602060405180830381600087803b158015611bf257600080fd5b505af1158015611c06573d6000803e3d6000fd5b505050506040513d601f19601f82011682018060405250611c2a91908101906126e9565b156111a45760405162461bcd60e51b815260040161158090612bac565b6000826001600160a01b031663bf7e214f6040518163ffffffff1660e01b815260040160206040518083038186803b158015611c8257600080fd5b505afa158015611c96573d6000803e3d6000fd5b505050506040513d601f19601f82011682018060405250611cba9190810190612707565b9050806001600160a01b031663f0217ce58360601b6bffffffffffffffffffffffff1916836001600160a01b031663a8542f666040518163ffffffff1660e01b815260040160206040518083038186803b158015611d1757600080fd5b505afa158015611d2b573d6000803e3d6000fd5b505050506040513d601f19601f82011682018060405250611d4f91908101906126e9565b846001600160a01b031663a8542f666040518163ffffffff1660e01b815260040160206040518083038186803b158015611d8857600080fd5b505afa158015611d9c573d6000803e3d6000fd5b505050506040513d601f19601f82011682018060405250611dc091908101906126e9565b6040518463ffffffff1660e01b815260040161067593929190612b64565b6000826001600160a01b031663bf7e214f6040518163ffffffff1660e01b815260040160206040518083038186803b158015611e1957600080fd5b505afa158015611e2d573d6000803e3d6000fd5b505050506040513d601f19601f82011682018060405250611e519190810190612707565b9050806001600160a01b03166379d88d878360601b6bffffffffffffffffffffffff1916836001600160a01b031663a8542f666040518163ffffffff1660e01b815260040160206040518083038186803b158015611d1757600080fd5b600080856001600160a01b031663d9638d36846040518263ffffffff1660e01b8152600401611edd9190612b3b565b60a06040518083038186803b158015611ef557600080fd5b505afa158015611f09573d6000803e3d6000fd5b505050506040513d601f19601f82011682018060405250611f2d91908101906127f1565b5050509150506000866001600160a01b0316632424be5c85876040518363ffffffff1660e01b8152600401611f63929190612b49565b604080518083038186803b158015611f7a57600080fd5b505afa158015611f8e573d6000803e3d6000fd5b505050506040513d601f19601f82011682018060405250611fb29190810190612743565b9150506000876001600160a01b0316636c25b346886040518263ffffffff1660e01b8152600401611fe39190612abd565b60206040518083038186803b158015611ffb57600080fd5b505afa15801561200f573d6000803e3d6000fd5b505050506040513d601f19601f8201168201806040525061203391908101906126e9565b9050600061204a61204484866121e4565b8361221b565b90506b033b2e3c9fd0803ce80000008104945080612074866b033b2e3c9fd0803ce80000006121e4565b1061207f5784612084565b846001015b9998505050505050505050565b8060008112156120b35760405162461bcd60e51b815260040161158090612bdc565b919050565b600061213c82846001600160a01b031663b3bcfa826040518163ffffffff1660e01b8152600401602060405180830381600087803b1580156120f957600080fd5b505af115801561210d573d6000803e3d6000fd5b505050506040513d601f19601f8201168201806040525061213191908101906126e9565b601203600a0a6121e4565b9392505050565b6000826001600160a01b031663b3bcfa826040518163ffffffff1660e01b8152600401602060405180830381600087803b15801561218057600080fd5b505af1158015612194573d6000803e3d6000fd5b505050506040513d601f19601f820116820180604052506121b891908101906126e9565b601203600a0a82816121c657fe5b0490505b92915050565b60008160ff16601203600a0a83816121c657fe5b60008115806121ff575050808202828282816121fc57fe5b04145b6121ca5760405162461bcd60e51b815260040161158090612b8c565b808203828111156121ca5760405162461bcd60e51b815260040161158090612b9c565b6040805160a08101825260008082526020820181905291810182905260608101829052608081019190915290565b80356121ca81612cf3565b80516121ca81612cf3565b600082601f83011261229357600080fd5b81516122a66122a182612c3e565b612c17565b915081818352602084019350602081019050838560208402820111156122cb57600080fd5b60005b838110156122f757816122e18882612317565b84525060209283019291909101906001016122ce565b5050505092915050565b80516121ca81612d0a565b80356121ca81612d13565b80516121ca81612d13565b60008083601f84011261233457600080fd5b50813567ffffffffffffffff81111561234c57600080fd5b60208301915083600182028301111561236457600080fd5b9250929050565b80516121ca81612d1c565b600060a0828403121561238857600080fd5b61239260a0612c17565b905060006123a0848461226c565b82525060206123b18484830161230c565b60208301525060406123c58482850161226c565b60408301525060606123d98482850161226c565b60608301525060806123ed848285016123f9565b60808301525092915050565b80356121ca81612d25565b60006020828403121561241657600080fd5b6000610b3b8484612277565b60008060008060008060a0878903121561243b57600080fd5b6000612447898961226c565b965050602061245889828a0161226c565b955050604061246989828a0161226c565b945050606061247a89828a0161230c565b935050608087013567ffffffffffffffff81111561249757600080fd5b6124a389828a01612322565b92509250509295509295509295565b600080600080600060a086880312156124ca57600080fd5b60006124d6888861226c565b95505060206124e78882890161226c565b94505060406124f88882890161226c565b93505060606125098882890161230c565b925050608061251a8882890161230c565b9150509295509295909350565b60008060006060848603121561253c57600080fd5b6000612548868661226c565b93505060206125598682870161226c565b925050604061256a8682870161230c565b9150509250925092565b60008060006060848603121561258957600080fd5b6000612595868661226c565b93505060206125a68682870161230c565b925050604061256a8682870161226c565b600080604083850312156125ca57600080fd5b60006125d6858561226c565b92505060206125e78582860161230c565b9150509250929050565b6000806000806080858703121561260757600080fd5b6000612613878761226c565b94505060206126248782880161230c565b93505060406126358782880161226c565b92505060606126468782880161230c565b91505092959194509250565b6000806000806080858703121561266857600080fd5b6000612674878761226c565b94505060206126858782880161230c565b93505060406126358782880161230c565b6000602082840312156126a857600080fd5b815167ffffffffffffffff8111156126bf57600080fd5b610b3b84828501612282565b6000602082840312156126dd57600080fd5b6000610b3b8484612301565b6000602082840312156126fb57600080fd5b6000610b3b8484612317565b60006020828403121561271957600080fd5b6000610b3b848461236b565b600060a0828403121561273757600080fd5b6000610b3b8484612376565b6000806040838503121561275657600080fd5b60006127628585612317565b92505060206125e785828601612317565b60008060008060006080868803121561278b57600080fd5b6000612797888861230c565b95505060206127a88882890161230c565b94505060406127b98882890161230c565b935050606086013567ffffffffffffffff8111156127d657600080fd5b6127e288828901612322565b92509250509295509295909350565b600080600080600060a0868803121561280957600080fd5b60006128158888612317565b955050602061282688828901612317565b945050604061283788828901612317565b935050606061284888828901612317565b925050608061251a88828901612317565b6000612865838361287c565b505060200190565b61287681612ca2565b82525050565b61287681612c72565b600061289082612c65565b61289a8185612c69565b93506128a583612c5f565b8060005b838110156128d35781516128bd8882612859565b97506128c883612c5f565b9250506001016128a9565b509495945050505050565b61287681612c82565b60006128f383856120b3565b9350612900838584612cad565b50500190565b600061291182612c65565b61291b8185612c69565b935061292b818560208601612cb9565b61293481612ce9565b9093019392505050565b600061294982612c65565b61295381856120b3565b9350612963818560208601612cb9565b9290920192915050565b600061297a600c83612c69565b6b6d756c2d6f766572666c6f7760a01b815260200192915050565b60006129a2600c83612c69565b6b7375622d6f766572666c6f7760a01b815260200192915050565b60006129ca600f83612c69565b6e19185a4b589bdc9c9bddcb59985a5b608a1b815260200192915050565b60006129f5601483612c69565b731b5adc8b595b9d195c8b59d95b4b59985a5b195960621b815260200192915050565b6000612a25600f83612c69565b6e19d95b4b5cdd5c1c1b1e4b59985a5b608a1b815260200192915050565b6000612a50600c83612c69565b6b696e742d6f766572666c6f7760a01b815260200192915050565b6000612a78601483612c69565b731b5adc8b595b9d195c8b59185a4b59985a5b195960621b815260200192915050565b6000612aa7828661293e565b9150612ab48284866128e7565b95945050505050565b602081016121ca828461287c565b60808101612ad9828761286d565b612ae6602083018661287c565b612af360408301856128de565b8181036060830152612b058184612906565b9695505050505050565b60408101612b1d828561287c565b61213c60208301846128de565b6020808252810161213c8184612885565b602081016121ca82846128de565b60408101612b5782856128de565b61213c602083018461287c565b60608101612b7282866128de565b612b7f60208301856128de565b610b3b60408301846128de565b602080825281016121ca8161296d565b602080825281016121ca81612995565b602080825281016121ca816129bd565b602080825281016121ca816129e8565b602080825281016121ca81612a18565b602080825281016121ca81612a43565b602080825281016121ca81612a6b565b60608101612c0a82866128de565b612b7f602083018561287c565b60405181810167ffffffffffffffff81118282101715612c3657600080fd5b604052919050565b600067ffffffffffffffff821115612c5557600080fd5b5060209081020190565b60200190565b5190565b90815260200190565b60006121ca82612c90565b151590565b90565b60006121ca82612c72565b6001600160a01b031690565b60ff1690565b60006121ca82612c85565b82818337506000910152565b60005b83811015612cd4578181015183820152602001612cbc565b83811115612ce3576000848401525b50505050565b601f01601f191690565b612cfc81612c72565b8114612d0757600080fd5b50565b612cfc81612c7d565b612cfc81612c82565b612cfc81612c85565b612cfc81612c9c56fea365627a7a723158202382211b20407aa7cc1454ef0da1b3e1da76eb668946419ee57a4525293c828b6c6578706572696d656e74616cf564736f6c63430005100040",
  "source": "// Largely referenced from https://github.com/mrdavey/CollateralSwapFrontend\n\npragma solidity 0.5.16;\npragma experimental ABIEncoderV2;\n\nimport \"../lib/aave/FlashLoanReceiverBase.sol\";\n\nimport \"../lib/makerdao/DssProxyActionsBase.sol\";\n\nimport \"../lib/uniswap/UniswapBase.sol\";\n\nimport \"../lib/dapphub/Guard.sol\";\n\nimport \"../proxies/DACProxy.sol\";\n\n\nimport \"../interfaces/aave/ILendingPoolAddressesProvider.sol\";\nimport \"../interfaces/aave/ILendingPool.sol\";\n\nimport \"../interfaces/uniswap/IUniswapExchange.sol\";\nimport \"../interfaces/uniswap/IUniswapFactory.sol\";\n\nimport \"../interfaces/IERC20.sol\";\n\nimport \"../interfaces/compound/IComptroller.sol\";\nimport \"../interfaces/compound/ICToken.sol\";\nimport \"../interfaces/compound/ICEther.sol\";\n\nimport \"../interfaces/makerdao/IDssProxyActions.sol\";\n\nimport \"../registries/AddressRegistry.sol\";\n\n\ncontract DedgeMakerManager is DssProxyActionsBase {\n    function () external payable {}\n\n    constructor () public {}\n\n    struct ImportMakerVaultCallData {\n        address addressRegistryAddress;\n        uint cdpId;\n        address collateralCTokenAddress;\n        address collateralJoinAddress;\n        uint8 collateralDecimals;\n    }\n\n    // Helper functions\n    function _proxyGuardPermit(address payable proxyAddress, address src) internal {\n        address g = address(DACProxy(proxyAddress).authority());\n\n        DSGuard(g).permit(\n            bytes32(bytes20(address(src))),\n            DSGuard(g).ANY(),\n            DSGuard(g).ANY()\n        );\n    }\n\n    function _proxyGuardForbid(address payable proxyAddress, address src) internal {\n        address g = address(DACProxy(proxyAddress).authority());\n\n        DSGuard(g).forbid(\n            bytes32(bytes20(address(src))),\n            DSGuard(g).ANY(),\n            DSGuard(g).ANY()\n        );\n    }\n\n    function _convert18ToDecimal(uint amount, uint8 decimals) internal returns (uint) {\n        return amount / (10 ** (18 - uint(decimals)));\n    }\n\n    function _convert18ToGemUnits(address gemJoin, uint256 wad) internal returns (uint) {\n        return wad / (10 ** (18 - GemJoinLike(gemJoin).dec()));\n    }\n\n    // Gets vault debt in 18 wei\n    function getVaultDebt(address manager, uint cdp) public view returns (uint debt)\n    {\n        address vat = ManagerLike(manager).vat();\n        address urn = ManagerLike(manager).urns(cdp);\n        bytes32 ilk = ManagerLike(manager).ilks(cdp);\n        address owner = ManagerLike(manager).owns(cdp);\n\n        debt = _getWipeAllWad(vat, owner, urn, ilk);\n    }\n\n    function getVaultCollateral(\n        address manager,\n        uint cdp\n    ) public view returns (uint ink) {\n        address vat = ManagerLike(manager).vat();\n        address urn = ManagerLike(manager).urns(cdp);\n        bytes32 ilk = ManagerLike(manager).ilks(cdp);\n\n        // Note: This returns in 18 decimals, need to\n        // convert to gemUnits before passing it to\n        // dss-proxy-actions\n        (ink,) = VatLike(vat).urns(ilk, urn);\n    }\n\n    // Function to be called by proxy post loan\n    // in order to import maker vault\n    function importMakerVaultPostLoan(\n        uint _amount,\n        uint _aaveFee,\n        uint _protocolFee,\n        bytes calldata _data\n    ) external {\n        // Calculate total debt\n        uint totalDebt = _amount + _aaveFee + _protocolFee;\n\n        // Reconstruct data\n        ImportMakerVaultCallData memory imvCalldata = abi.decode(_data, (ImportMakerVaultCallData));\n\n        // Extract relevant data\n        AddressRegistry addressRegistry = AddressRegistry(imvCalldata.addressRegistryAddress);\n        address cdpManager = addressRegistry.DssCdpManagerAddress();\n        address collateralCTokenAddress = imvCalldata.collateralCTokenAddress;\n\n        // Collateral in 18 decimal places\n        uint collateral18 = getVaultCollateral(cdpManager, imvCalldata.cdpId);\n\n        // Joins the ETH/GEM/DAI market in compound if they haven't already\n        address[] memory enterMarketsCToken = new address[](2);\n        enterMarketsCToken[0] = collateralCTokenAddress;\n        enterMarketsCToken[1] = addressRegistry.CDaiAddress();\n\n        uint[] memory enterMarketErrors = IComptroller(\n            addressRegistry.CompoundComptrollerAddress()\n        ).enterMarkets(enterMarketsCToken);\n\n        require(enterMarketErrors[0] == 0, \"mkr-enter-gem-failed\");\n        require(enterMarketErrors[1] == 0, \"mkr-enter-dai-failed\");\n\n        if (ManagerLike(cdpManager).ilks(imvCalldata.cdpId) == bytes32(\"ETH-A\")) {\n            wipeAllAndFreeETH(\n                cdpManager,\n                addressRegistry.EthJoinAddress(),\n                addressRegistry.DaiJoinAddress(),\n                imvCalldata.cdpId,\n                collateral18\n            );\n\n            // Supply ETH and Borrow DAI (Compound)\n            ICEther(addressRegistry.CEtherAddress()).mint.value(collateral18)();\n            require(\n                ICToken(addressRegistry.CDaiAddress()).borrow(totalDebt) == 0,\n                \"dai-borrow-fail\"\n            );\n        } else {\n            // Free GEM\n            wipeAllAndFreeGem(\n                cdpManager,\n                imvCalldata.collateralJoinAddress,\n                addressRegistry.DaiJoinAddress(),\n                imvCalldata.cdpId,\n                _convert18ToGemUnits(\n                    imvCalldata.collateralJoinAddress,\n                    collateral18\n                )\n            );\n\n            // Convert collateral to relevant decimal places\n            uint collateralFixedDec = _convert18ToDecimal(\n                collateral18, imvCalldata.collateralDecimals\n            );\n\n            // Approve CToken Collateral underlying to enable call transferFrom\n            IERC20(ICToken(collateralCTokenAddress).underlying())\n                .approve(collateralCTokenAddress, collateralFixedDec);\n\n            // Supply GEM and Borrow DAI (Compound)\n            require(\n                ICToken(collateralCTokenAddress).mint(\n                    collateralFixedDec\n                ) == 0,\n                \"gem-supply-fail\"\n            );\n            require(\n                ICToken(addressRegistry.CDaiAddress()).borrow(totalDebt) == 0,\n                \"dai-borrow-fail\"\n            );\n        }\n    }\n\n    /* \n    Main entry point maker vault into Dedge\n\n    @params:\n        dacProxyAddress: User's proxy address\n        addressRegistryAddress: AddressRegistry's Address\n        cdpId: User's cdpId\n        executeOperationCalldataParams:\n            Abi-encoded `data` used by User's proxy's `execute(address, <data>)` function\n            Used to delegatecall to another contract (i.e. this contract) in the context\n            of the proxy. This allows for better flexibility and decoupling of logic from\n            user's proxy. In this specific case, it is expecting the results from: (from JS)\n\n            ```\n                const IDedgeMakerManager = ethers.utils.Interface(DedgeMakerManager.abi)\n\n                const executeOperationCalldataParams = IDedgeMakerManager\n                    .functions\n                    .importMakerVaultPostLoan\n                    .encode([ <parameters> ])\n            ```\n    */\n    function importMakerVault(\n        address dedgeMakerManagerAddress,\n        address payable dacProxyAddress,\n        address addressRegistryAddress,\n        uint cdpId,\n        bytes calldata executeOperationCalldataParams\n    ) external {\n        // Get Address Registry\n        AddressRegistry addressRegistry = AddressRegistry(addressRegistryAddress);\n\n        // Get cdpManager and proxy's guard address\n        address cdpManager = addressRegistry.DssCdpManagerAddress();\n\n        // Get Debt\n        uint daiDebt = getVaultDebt(cdpManager, cdpId);\n\n        // Injects the target address into calldataParams\n        // so user proxy knows which address it'll be calling `calldataParams` on\n        bytes memory addressAndExecuteOperationCalldataParams = abi.encodePacked(\n            abi.encode(dedgeMakerManagerAddress),\n            executeOperationCalldataParams\n        );\n        \n        // Get lending pool address\n        ILendingPool lendingPool = ILendingPool(\n            ILendingPoolAddressesProvider(\n                addressRegistry.AaveLendingPoolAddressProviderAddress()\n            ).getLendingPool()\n        );\n\n        cdpAllow(addressRegistry.DssCdpManagerAddress(), cdpId, dedgeMakerManagerAddress, 1);\n        _proxyGuardPermit(dacProxyAddress, address(lendingPool));\n\n        lendingPool.flashLoan(\n            dacProxyAddress,\n            addressRegistry.DaiAddress(),\n            daiDebt,\n            addressAndExecuteOperationCalldataParams\n        );\n\n        // Once we're done with the vault, give it away (its empty anyway)\n        give(addressRegistry.DssCdpManagerAddress(), cdpId, address(1));\n        // Lending pool can't call our proxy address anymore\n        _proxyGuardForbid(dacProxyAddress, address(lendingPool));\n    }\n}\n",
  "sourcePath": "/home/kendrick/Development/Ethereum/dedge/packages/smart-contracts/src/managers/DedgeMakerManager.sol",
  "compiler": {
    "name": "solc",
    "version": "0.5.16+commit.9c3226ce.Emscripten.clang"
  },
  "schemaVersion": "3.0.23",
  "updatedAt": "2020-04-03T06:28:59.340Z",
  "networkType": "ethereum",
  "devdoc": {
    "methods": {}
  },
  "userdoc": {
    "methods": {}
  }
}