{
  "contractName": "DedgeCompoundManager",
  "abi": [
    {
      "constant": false,
      "inputs": [
        {
          "internalType": "address[]",
          "name": "cTokens",
          "type": "address[]"
        }
      ],
      "name": "approveCTokens",
      "outputs": [],
      "payable": false,
      "stateMutability": "nonpayable",
      "type": "function"
    },
    {
      "constant": false,
      "inputs": [
        {
          "internalType": "address",
          "name": "cToken",
          "type": "address"
        },
        {
          "internalType": "uint256",
          "name": "borrowAmount",
          "type": "uint256"
        }
      ],
      "name": "borrow",
      "outputs": [],
      "payable": false,
      "stateMutability": "nonpayable",
      "type": "function"
    },
    {
      "constant": false,
      "inputs": [
        {
          "internalType": "address[]",
          "name": "cTokens",
          "type": "address[]"
        }
      ],
      "name": "enterMarkets",
      "outputs": [],
      "payable": false,
      "stateMutability": "nonpayable",
      "type": "function"
    },
    {
      "constant": false,
      "inputs": [
        {
          "internalType": "address[]",
          "name": "cTokens",
          "type": "address[]"
        }
      ],
      "name": "enterMarketsAndApproveCTokens",
      "outputs": [],
      "payable": false,
      "stateMutability": "nonpayable",
      "type": "function"
    },
    {
      "constant": false,
      "inputs": [
        {
          "internalType": "address",
          "name": "cToken",
          "type": "address"
        },
        {
          "internalType": "uint256",
          "name": "redeemTokens",
          "type": "uint256"
        }
      ],
      "name": "redeem",
      "outputs": [],
      "payable": true,
      "stateMutability": "payable",
      "type": "function"
    },
    {
      "constant": false,
      "inputs": [
        {
          "internalType": "address",
          "name": "cToken",
          "type": "address"
        },
        {
          "internalType": "uint256",
          "name": "redeemTokens",
          "type": "uint256"
        }
      ],
      "name": "redeemUnderlying",
      "outputs": [],
      "payable": true,
      "stateMutability": "payable",
      "type": "function"
    },
    {
      "constant": false,
      "inputs": [
        {
          "internalType": "address",
          "name": "cToken",
          "type": "address"
        },
        {
          "internalType": "uint256",
          "name": "amount",
          "type": "uint256"
        }
      ],
      "name": "repayBorrow",
      "outputs": [],
      "payable": true,
      "stateMutability": "payable",
      "type": "function"
    },
    {
      "constant": false,
      "inputs": [
        {
          "internalType": "address",
          "name": "recipient",
          "type": "address"
        },
        {
          "internalType": "address",
          "name": "cToken",
          "type": "address"
        },
        {
          "internalType": "uint256",
          "name": "amount",
          "type": "uint256"
        }
      ],
      "name": "repayBorrowBehalf",
      "outputs": [],
      "payable": true,
      "stateMutability": "payable",
      "type": "function"
    },
    {
      "constant": false,
      "inputs": [
        {
          "internalType": "address",
          "name": "cToken",
          "type": "address"
        },
        {
          "internalType": "uint256",
          "name": "amount",
          "type": "uint256"
        }
      ],
      "name": "supply",
      "outputs": [],
      "payable": true,
      "stateMutability": "payable",
      "type": "function"
    },
    {
      "constant": false,
      "inputs": [
        {
          "internalType": "address",
          "name": "supplyCToken",
          "type": "address"
        },
        {
          "internalType": "uint256",
          "name": "supplyAmount",
          "type": "uint256"
        },
        {
          "internalType": "address",
          "name": "borrowCToken",
          "type": "address"
        },
        {
          "internalType": "uint256",
          "name": "borrowAmount",
          "type": "uint256"
        }
      ],
      "name": "supplyAndBorrow",
      "outputs": [],
      "payable": true,
      "stateMutability": "payable",
      "type": "function"
    },
    {
      "constant": false,
      "inputs": [],
      "name": "supplyETH",
      "outputs": [],
      "payable": true,
      "stateMutability": "payable",
      "type": "function"
    },
    {
      "constant": false,
      "inputs": [
        {
          "internalType": "address",
          "name": "cToken",
          "type": "address"
        },
        {
          "internalType": "uint256",
          "name": "borrowAmount",
          "type": "uint256"
        }
      ],
      "name": "supplyETHAndBorrow",
      "outputs": [],
      "payable": true,
      "stateMutability": "payable",
      "type": "function"
    },
    {
      "constant": false,
      "inputs": [
        {
          "internalType": "uint256",
          "name": "_loanAmount",
          "type": "uint256"
        },
        {
          "internalType": "uint256",
          "name": "_aaveFee",
          "type": "uint256"
        },
        {
          "internalType": "uint256",
          "name": "_protocolFee",
          "type": "uint256"
        },
        {
          "internalType": "bytes",
          "name": "_data",
          "type": "bytes"
        }
      ],
      "name": "swapDebtPostLoan",
      "outputs": [],
      "payable": false,
      "stateMutability": "nonpayable",
      "type": "function"
    },
    {
      "constant": false,
      "inputs": [
        {
          "internalType": "uint256",
          "name": "_loanAmount",
          "type": "uint256"
        },
        {
          "internalType": "uint256",
          "name": "_aaveFee",
          "type": "uint256"
        },
        {
          "internalType": "uint256",
          "name": "_protocolFee",
          "type": "uint256"
        },
        {
          "internalType": "bytes",
          "name": "_data",
          "type": "bytes"
        }
      ],
      "name": "swapCollateralPostLoan",
      "outputs": [],
      "payable": false,
      "stateMutability": "nonpayable",
      "type": "function"
    },
    {
      "constant": false,
      "inputs": [
        {
          "internalType": "address",
          "name": "dedgeCompoundManagerAddress",
          "type": "address"
        },
        {
          "internalType": "address payable",
          "name": "dacProxyAddress",
          "type": "address"
        },
        {
          "internalType": "address",
          "name": "addressRegistryAddress",
          "type": "address"
        },
        {
          "internalType": "address",
          "name": "oldCTokenAddress",
          "type": "address"
        },
        {
          "internalType": "uint256",
          "name": "oldTokenUnderlyingDelta",
          "type": "uint256"
        },
        {
          "internalType": "bytes",
          "name": "executeOperationCalldataParams",
          "type": "bytes"
        }
      ],
      "name": "swapOperation",
      "outputs": [],
      "payable": false,
      "stateMutability": "nonpayable",
      "type": "function"
    },
    {
      "constant": false,
      "inputs": [
        {
          "internalType": "address",
          "name": "addressRegistryAddress",
          "type": "address"
        },
        {
          "internalType": "address",
          "name": "oldCTokenAddress",
          "type": "address"
        },
        {
          "internalType": "uint256",
          "name": "oldTokenUnderlyingDustAmount",
          "type": "uint256"
        },
        {
          "internalType": "address",
          "name": "newCTokenAddress",
          "type": "address"
        }
      ],
      "name": "clearDebtDust",
      "outputs": [],
      "payable": true,
      "stateMutability": "payable",
      "type": "function"
    },
    {
      "constant": false,
      "inputs": [
        {
          "internalType": "address",
          "name": "addressRegistryAddress",
          "type": "address"
        },
        {
          "internalType": "address",
          "name": "oldCTokenAddress",
          "type": "address"
        },
        {
          "internalType": "uint256",
          "name": "oldTokenUnderlyingAmount",
          "type": "uint256"
        },
        {
          "internalType": "address",
          "name": "newCTokenAddress",
          "type": "address"
        }
      ],
      "name": "clearCollateralDust",
      "outputs": [],
      "payable": true,
      "stateMutability": "payable",
      "type": "function"
    }
  ],
  "bytecode": "0x608060405234801561001057600080fd5b50613b7e806100206000396000f3fe6080604052600436106100fe5760003560e01c806359086a5e11610095578063b14886ee11610064578063b14886ee14610282578063c04bea9b146102ab578063c2998238146102c7578063d13b8c72146102f0578063f2b9fdb81461030c576100fe565b806359086a5e1461021257806375d409451461022e578063962941781461024a578063abdb5ea814610266576100fe565b80633dc4d99a116100d15780633dc4d99a1461019a57806341ec5cc4146101c35780634907b8fc146101df5780634b8a3529146101e9576100fe565b80631e9a69501461010357806324d1ea121461011f5780632d8af543146101485780632f379b1314610171575b600080fd5b61011d60048036036101189190810190612eaa565b610328565b005b34801561012b57600080fd5b5061014660048036036101419190810190613098565b6103f9565b005b34801561015457600080fd5b5061016f600480360361016a9190810190612f49565b6107b6565b005b34801561017d57600080fd5b5061019860048036036101939190810190612d51565b6107cb565b005b3480156101a657600080fd5b506101c160048036036101bc9190810190612f49565b610b6a565b005b6101dd60048036036101d89190810190612eaa565b610d81565b005b6101e7610d97565b005b3480156101f557600080fd5b50610210600480360361020b9190810190612eaa565b610e0e565b005b61022c60048036036102279190810190612df8565b610edf565b005b61024860048036036102439190810190612ee6565b61106d565b005b610264600480360361025f9190810190612eaa565b611087565b005b610280600480360361027b9190810190612eaa565b611158565b005b34801561028e57600080fd5b506102a960048036036102a49190810190613098565b6112d8565b005b6102c560048036036102c09190810190612e47565b611607565b005b3480156102d357600080fd5b506102ee60048036036102e99190810190612f49565b611a1f565b005b61030a60048036036103059190810190612e47565b611b3e565b005b61032660048036036103219190810190612eaa565b611fba565b005b60008273ffffffffffffffffffffffffffffffffffffffff1663db006a75836040518263ffffffff1660e01b8152600401610363919061383e565b602060405180830381600087803b15801561037d57600080fd5b505af1158015610391573d6000803e3d6000fd5b505050506040513d601f19601f820116820180604052506103b5919081019061306f565b146103f5576040517f08c379a00000000000000000000000000000000000000000000000000000000081526004016103ec9061371e565b60405180910390fd5b5050565b610401612a6d565b82826104109190810190613046565b90506000816000015190506000826020015190506000836040015190506000610454886104468b8d61214e90919063ffffffff16565b61214e90919063ffffffff16565b90508373ffffffffffffffffffffffffffffffffffffffff1663744d27126040518163ffffffff1660e01b815260040160206040518083038186803b15801561049c57600080fd5b505afa1580156104b0573d6000803e3d6000fd5b505050506040513d601f19601f820116820180604052506104d49190810190612d28565b73ffffffffffffffffffffffffffffffffffffffff168373ffffffffffffffffffffffffffffffffffffffff16141561051657610511838b611158565b610641565b60008373ffffffffffffffffffffffffffffffffffffffff16636f307dc36040518163ffffffff1660e01b815260040160206040518083038186803b15801561055e57600080fd5b505afa158015610572573d6000803e3d6000fd5b505050506040513d601f19601f820116820180604052506105969190810190612d28565b905060006105a4828d6121a3565b90508173ffffffffffffffffffffffffffffffffffffffff1663095ea7b386836040518363ffffffff1660e01b81526004016105e192919061363a565b602060405180830381600087803b1580156105fb57600080fd5b505af115801561060f573d6000803e3d6000fd5b505050506040513d601f19601f820116820180604052506106339190810190612fcb565b5061063e8582611158565b50505b8373ffffffffffffffffffffffffffffffffffffffff1663744d27126040518163ffffffff1660e01b815260040160206040518083038186803b15801561068757600080fd5b505afa15801561069b573d6000803e3d6000fd5b505050506040513d601f19601f820116820180604052506106bf9190810190612d28565b73ffffffffffffffffffffffffffffffffffffffff168273ffffffffffffffffffffffffffffffffffffffff161415610701576106fc8282610e0e565b6107aa565b60008273ffffffffffffffffffffffffffffffffffffffff16636f307dc36040518163ffffffff1660e01b815260040160206040518083038186803b15801561074957600080fd5b505afa15801561075d573d6000803e3d6000fd5b505050506040513d601f19601f820116820180604052506107819190810190612d28565b9050600061078f82846121b9565b905061079b8482610e0e565b6107a6828285612254565b5050505b50505050505050505050565b6107bf81611a1f565b6107c881610b6a565b50565b600085905060008173ffffffffffffffffffffffffffffffffffffffff1663744d27126040518163ffffffff1660e01b815260040160206040518083038186803b15801561081857600080fd5b505afa15801561082c573d6000803e3d6000fd5b505050506040513d601f19601f820116820180604052506108509190810190612d28565b73ffffffffffffffffffffffffffffffffffffffff168673ffffffffffffffffffffffffffffffffffffffff16141561088b57849050610915565b6109128673ffffffffffffffffffffffffffffffffffffffff16636f307dc36040518163ffffffff1660e01b815260040160206040518083038186803b1580156108d457600080fd5b505afa1580156108e8573d6000803e3d6000fd5b505050506040513d601f19601f8201168201806040525061090c9190810190612d28565b8661238c565b90505b60608960405160200161092891906135d3565b604051602081830303815290604052858560405160200161094b939291906135ad565b604051602081830303815290604052905060008373ffffffffffffffffffffffffffffffffffffffff16633f6dc33b6040518163ffffffff1660e01b815260040160206040518083038186803b1580156109a457600080fd5b505afa1580156109b8573d6000803e3d6000fd5b505050506040513d601f19601f820116820180604052506109dc9190810190612d28565b73ffffffffffffffffffffffffffffffffffffffff16630261bf8b6040518163ffffffff1660e01b815260040160206040518083038186803b158015610a2157600080fd5b505afa158015610a35573d6000803e3d6000fd5b505050506040513d601f19601f82011682018060405250610a599190810190612d28565b9050610a658a82612427565b8073ffffffffffffffffffffffffffffffffffffffff16635cffe9de8b8673ffffffffffffffffffffffffffffffffffffffff166356cc94a26040518163ffffffff1660e01b815260040160206040518083038186803b158015610ac857600080fd5b505afa158015610adc573d6000803e3d6000fd5b505050506040513d601f19601f82011682018060405250610b009190810190612d28565b86866040518563ffffffff1660e01b8152600401610b2194939291906135ee565b600060405180830381600087803b158015610b3b57600080fd5b505af1158015610b4f573d6000803e3d6000fd5b50505050610b5d8a82612629565b5050505050505050505050565b60008090505b8151811015610d7d57734ddc2d193948926d02f9b1fe9e1daa0718270ed573ffffffffffffffffffffffffffffffffffffffff16828281518110610bb057fe5b602002602001015173ffffffffffffffffffffffffffffffffffffffff1614610d70576000828281518110610be157fe5b602002602001015173ffffffffffffffffffffffffffffffffffffffff16636f307dc36040518163ffffffff1660e01b815260040160206040518083038186803b158015610c2e57600080fd5b505afa158015610c42573d6000803e3d6000fd5b505050506040513d601f19601f82011682018060405250610c669190810190612d28565b9050600115158173ffffffffffffffffffffffffffffffffffffffff1663095ea7b3858581518110610c9457fe5b60200260200101517fffffffffffffffffffffffffffffffffffffffffffffffffffffffffffffffff6040518363ffffffff1660e01b8152600401610cda92919061363a565b602060405180830381600087803b158015610cf457600080fd5b505af1158015610d08573d6000803e3d6000fd5b505050506040513d601f19601f82011682018060405250610d2c9190810190612fcb565b151514610d6e576040517f08c379a0000000000000000000000000000000000000000000000000000000008152600401610d65906137be565b60405180910390fd5b505b8080600101915050610b70565b5050565b610d89610d97565b610d938282610e0e565b5050565b734ddc2d193948926d02f9b1fe9e1daa0718270ed573ffffffffffffffffffffffffffffffffffffffff16631249c58b346040518263ffffffff1660e01b81526004016000604051808303818588803b158015610df357600080fd5b505af1158015610e07573d6000803e3d6000fd5b5050505050565b60008273ffffffffffffffffffffffffffffffffffffffff1663c5ebeaec836040518263ffffffff1660e01b8152600401610e49919061383e565b602060405180830381600087803b158015610e6357600080fd5b505af1158015610e77573d6000803e3d6000fd5b505050506040513d601f19601f82011682018060405250610e9b919081019061306f565b14610edb576040517f08c379a0000000000000000000000000000000000000000000000000000000008152600401610ed2906136fe565b60405180910390fd5b5050565b734ddc2d193948926d02f9b1fe9e1daa0718270ed573ffffffffffffffffffffffffffffffffffffffff168273ffffffffffffffffffffffffffffffffffffffff161415610f98578173ffffffffffffffffffffffffffffffffffffffff1663e597461982856040518363ffffffff1660e01b8152600401610f6191906135d3565b6000604051808303818588803b158015610f7a57600080fd5b505af1158015610f8e573d6000803e3d6000fd5b5050505050611068565b60008273ffffffffffffffffffffffffffffffffffffffff16632608f81885846040518363ffffffff1660e01b8152600401610fd592919061363a565b602060405180830381600087803b158015610fef57600080fd5b505af1158015611003573d6000803e3d6000fd5b505050506040513d601f19601f82011682018060405250611027919081019061306f565b14611067576040517f08c379a000000000000000000000000000000000000000000000000000000000815260040161105e9061377e565b60405180910390fd5b5b505050565b6110778484611fba565b6110818282610e0e565b50505050565b60008273ffffffffffffffffffffffffffffffffffffffff1663852a12e3836040518263ffffffff1660e01b81526004016110c2919061383e565b602060405180830381600087803b1580156110dc57600080fd5b505af11580156110f0573d6000803e3d6000fd5b505050506040513d601f19601f82011682018060405250611114919081019061306f565b14611154576040517f08c379a000000000000000000000000000000000000000000000000000000000815260040161114b9061373e565b60405180910390fd5b5050565b734ddc2d193948926d02f9b1fe9e1daa0718270ed573ffffffffffffffffffffffffffffffffffffffff168273ffffffffffffffffffffffffffffffffffffffff161415611206578173ffffffffffffffffffffffffffffffffffffffff16634e4d9fea826040518263ffffffff1660e01b81526004016000604051808303818588803b1580156111e857600080fd5b505af11580156111fc573d6000803e3d6000fd5b50505050506112d4565b60008273ffffffffffffffffffffffffffffffffffffffff16630e752702836040518263ffffffff1660e01b8152600401611241919061383e565b602060405180830381600087803b15801561125b57600080fd5b505af115801561126f573d6000803e3d6000fd5b505050506040513d601f19601f82011682018060405250611293919081019061306f565b146112d3576040517f08c379a00000000000000000000000000000000000000000000000000000000081526004016112ca9061379e565b60405180910390fd5b5b5050565b6112e0612a6d565b82826112ef9190810190613046565b90506000816000015190506000826020015190506000836040015190506000611333886113258b8d61282b90919063ffffffff16565b61282b90919063ffffffff16565b90508373ffffffffffffffffffffffffffffffffffffffff1663744d27126040518163ffffffff1660e01b815260040160206040518083038186803b15801561137b57600080fd5b505afa15801561138f573d6000803e3d6000fd5b505050506040513d601f19601f820116820180604052506113b39190810190612d28565b73ffffffffffffffffffffffffffffffffffffffff168273ffffffffffffffffffffffffffffffffffffffff1614156113f5576113f08282611fba565b611492565b60008273ffffffffffffffffffffffffffffffffffffffff16636f307dc36040518163ffffffff1660e01b815260040160206040518083038186803b15801561143d57600080fd5b505afa158015611451573d6000803e3d6000fd5b505050506040513d601f19601f820116820180604052506114759190810190612d28565b9050600061148382846121a3565b905061148f8482611fba565b50505b8373ffffffffffffffffffffffffffffffffffffffff1663744d27126040518163ffffffff1660e01b815260040160206040518083038186803b1580156114d857600080fd5b505afa1580156114ec573d6000803e3d6000fd5b505050506040513d601f19601f820116820180604052506115109190810190612d28565b73ffffffffffffffffffffffffffffffffffffffff168373ffffffffffffffffffffffffffffffffffffffff1614156115525761154d838b611087565b6115fb565b60008373ffffffffffffffffffffffffffffffffffffffff16636f307dc36040518163ffffffff1660e01b815260040160206040518083038186803b15801561159a57600080fd5b505afa1580156115ae573d6000803e3d6000fd5b505050506040513d601f19601f820116820180604052506115d29190810190612d28565b905060006115e0828d6121b9565b90506115ec8582611087565b6115f782828e612254565b5050505b50505050505050505050565b8073ffffffffffffffffffffffffffffffffffffffff168373ffffffffffffffffffffffffffffffffffffffff161415611676576040517f08c379a000000000000000000000000000000000000000000000000000000000815260040161166d906137de565b60405180910390fd5b6000808590506116868585611087565b8073ffffffffffffffffffffffffffffffffffffffff1663744d27126040518163ffffffff1660e01b815260040160206040518083038186803b1580156116cc57600080fd5b505afa1580156116e0573d6000803e3d6000fd5b505050506040513d601f19601f820116820180604052506117049190810190612d28565b73ffffffffffffffffffffffffffffffffffffffff168573ffffffffffffffffffffffffffffffffffffffff1614156117c5576117be8373ffffffffffffffffffffffffffffffffffffffff16636f307dc36040518163ffffffff1660e01b815260040160206040518083038186803b15801561178057600080fd5b505afa158015611794573d6000803e3d6000fd5b505050506040513d601f19601f820116820180604052506117b89190810190612d28565b856121a3565b9150611a0d565b8073ffffffffffffffffffffffffffffffffffffffff1663744d27126040518163ffffffff1660e01b815260040160206040518083038186803b15801561180b57600080fd5b505afa15801561181f573d6000803e3d6000fd5b505050506040513d601f19601f820116820180604052506118439190810190612d28565b73ffffffffffffffffffffffffffffffffffffffff168373ffffffffffffffffffffffffffffffffffffffff161415611904576118fd8573ffffffffffffffffffffffffffffffffffffffff16636f307dc36040518163ffffffff1660e01b815260040160206040518083038186803b1580156118bf57600080fd5b505afa1580156118d3573d6000803e3d6000fd5b505050506040513d601f19601f820116820180604052506118f79190810190612d28565b85612875565b9150611a0c565b611a098573ffffffffffffffffffffffffffffffffffffffff16636f307dc36040518163ffffffff1660e01b815260040160206040518083038186803b15801561194d57600080fd5b505afa158015611961573d6000803e3d6000fd5b505050506040513d601f19601f820116820180604052506119859190810190612d28565b8473ffffffffffffffffffffffffffffffffffffffff16636f307dc36040518163ffffffff1660e01b815260040160206040518083038186803b1580156119cb57600080fd5b505afa1580156119df573d6000803e3d6000fd5b505050506040513d601f19601f82011682018060405250611a039190810190612d28565b8661288b565b91505b5b611a178383611fba565b505050505050565b6060733d9819210a31b4961b30ef54be2aed79b9c9cd3b73ffffffffffffffffffffffffffffffffffffffff1663c2998238836040518263ffffffff1660e01b8152600401611a6e9190613663565b600060405180830381600087803b158015611a8857600080fd5b505af1158015611a9c573d6000803e3d6000fd5b505050506040513d6000823e3d601f19601f82011682018060405250611ac59190810190612f8a565b905060008090505b8151811015611b39576000828281518110611ae457fe5b602002602001015114611b2c576040517f08c379a0000000000000000000000000000000000000000000000000000000008152600401611b239061375e565b60405180910390fd5b8080600101915050611acd565b505050565b8073ffffffffffffffffffffffffffffffffffffffff168373ffffffffffffffffffffffffffffffffffffffff161415611bad576040517f08c379a0000000000000000000000000000000000000000000000000000000008152600401611ba49061381e565b60405180910390fd5b600084905060008060008373ffffffffffffffffffffffffffffffffffffffff1663744d27126040518163ffffffff1660e01b815260040160206040518083038186803b158015611bfd57600080fd5b505afa158015611c11573d6000803e3d6000fd5b505050506040513d601f19601f82011682018060405250611c359190810190612d28565b73ffffffffffffffffffffffffffffffffffffffff168773ffffffffffffffffffffffffffffffffffffffff161415611d0f578473ffffffffffffffffffffffffffffffffffffffff16636f307dc36040518163ffffffff1660e01b815260040160206040518083038186803b158015611cae57600080fd5b505afa158015611cc2573d6000803e3d6000fd5b505050506040513d601f19601f82011682018060405250611ce69190810190612d28565b9050611cf281876121b9565b9250611cfe8584610e0e565b611d09818488612254565b50611fa6565b8373ffffffffffffffffffffffffffffffffffffffff1663744d27126040518163ffffffff1660e01b815260040160206040518083038186803b158015611d5557600080fd5b505afa158015611d69573d6000803e3d6000fd5b505050506040513d601f19601f82011682018060405250611d8d9190810190612d28565b73ffffffffffffffffffffffffffffffffffffffff168573ffffffffffffffffffffffffffffffffffffffff161415611e67578673ffffffffffffffffffffffffffffffffffffffff16636f307dc36040518163ffffffff1660e01b815260040160206040518083038186803b158015611e0657600080fd5b505afa158015611e1a573d6000803e3d6000fd5b505050506040513d601f19601f82011682018060405250611e3e9190810190612d28565b9150611e4a828761238c565b9250611e568584610e0e565b611e618284886128a3565b50611fa5565b8673ffffffffffffffffffffffffffffffffffffffff16636f307dc36040518163ffffffff1660e01b815260040160206040518083038186803b158015611ead57600080fd5b505afa158015611ec1573d6000803e3d6000fd5b505050506040513d601f19601f82011682018060405250611ee59190810190612d28565b91508473ffffffffffffffffffffffffffffffffffffffff16636f307dc36040518163ffffffff1660e01b815260040160206040518083038186803b158015611f2d57600080fd5b505afa158015611f41573d6000803e3d6000fd5b505050506040513d601f19601f82011682018060405250611f659190810190612d28565b90506000611f73838861238c565b9050611f7f82826121b9565b9350611f8b8685610e0e565b611f96828583612254565b50611fa28382896128a3565b50505b5b611fb08787611158565b5050505050505050565b734ddc2d193948926d02f9b1fe9e1daa0718270ed573ffffffffffffffffffffffffffffffffffffffff168273ffffffffffffffffffffffffffffffffffffffff16141561207c57734ddc2d193948926d02f9b1fe9e1daa0718270ed573ffffffffffffffffffffffffffffffffffffffff16631249c58b826040518263ffffffff1660e01b81526004016000604051808303818588803b15801561205e57600080fd5b505af1158015612072573d6000803e3d6000fd5b505050505061214a565b60008273ffffffffffffffffffffffffffffffffffffffff1663a0712d68836040518263ffffffff1660e01b81526004016120b7919061383e565b602060405180830381600087803b1580156120d157600080fd5b505af11580156120e5573d6000803e3d6000fd5b505050506040513d601f19601f82011682018060405250612109919081019061306f565b14612149576040517f08c379a0000000000000000000000000000000000000000000000000000000008152600401612140906137fe565b60405180910390fd5b5b5050565b600080828401905083811015612199576040517f08c379a0000000000000000000000000000000000000000000000000000000008152600401612190906136de565b60405180910390fd5b8091505092915050565b60006121b1838360016128a3565b905092915050565b60006121c483612947565b73ffffffffffffffffffffffffffffffffffffffff16632640f62c836040518263ffffffff1660e01b81526004016121fc919061383e565b60206040518083038186803b15801561221457600080fd5b505afa158015612228573d6000803e3d6000fd5b505050506040513d601f19601f8201168201806040525061224c919081019061306f565b905092915050565b60008061226085612947565b90508473ffffffffffffffffffffffffffffffffffffffff1663095ea7b382866040518363ffffffff1660e01b815260040161229d92919061363a565b602060405180830381600087803b1580156122b757600080fd5b505af11580156122cb573d6000803e3d6000fd5b505050506040513d601f19601f820116820180604052506122ef9190810190612fcb565b508073ffffffffffffffffffffffffffffffffffffffff166395e3c50b8585603c42016040518463ffffffff1660e01b815260040161233093929190613882565b602060405180830381600087803b15801561234a57600080fd5b505af115801561235e573d6000803e3d6000fd5b505050506040513d601f19601f82011682018060405250612382919081019061306f565b9150509392505050565b600061239783612947565b73ffffffffffffffffffffffffffffffffffffffff166359e94862836040518263ffffffff1660e01b81526004016123cf919061383e565b60206040518083038186803b1580156123e757600080fd5b505afa1580156123fb573d6000803e3d6000fd5b505050506040513d601f19601f8201168201806040525061241f919081019061306f565b905092915050565b60008273ffffffffffffffffffffffffffffffffffffffff1663bf7e214f6040518163ffffffff1660e01b815260040160206040518083038186803b15801561246f57600080fd5b505afa158015612483573d6000803e3d6000fd5b505050506040513d601f19601f820116820180604052506124a7919081019061301d565b90508073ffffffffffffffffffffffffffffffffffffffff1663f0217ce58360601b6bffffffffffffffffffffffff19168373ffffffffffffffffffffffffffffffffffffffff1663a8542f666040518163ffffffff1660e01b815260040160206040518083038186803b15801561251e57600080fd5b505afa158015612532573d6000803e3d6000fd5b505050506040513d601f19601f820116820180604052506125569190810190612ff4565b8473ffffffffffffffffffffffffffffffffffffffff1663a8542f666040518163ffffffff1660e01b815260040160206040518083038186803b15801561259c57600080fd5b505afa1580156125b0573d6000803e3d6000fd5b505050506040513d601f19601f820116820180604052506125d49190810190612ff4565b6040518463ffffffff1660e01b81526004016125f293929190613685565b600060405180830381600087803b15801561260c57600080fd5b505af1158015612620573d6000803e3d6000fd5b50505050505050565b60008273ffffffffffffffffffffffffffffffffffffffff1663bf7e214f6040518163ffffffff1660e01b815260040160206040518083038186803b15801561267157600080fd5b505afa158015612685573d6000803e3d6000fd5b505050506040513d601f19601f820116820180604052506126a9919081019061301d565b90508073ffffffffffffffffffffffffffffffffffffffff166379d88d878360601b6bffffffffffffffffffffffff19168373ffffffffffffffffffffffffffffffffffffffff1663a8542f666040518163ffffffff1660e01b815260040160206040518083038186803b15801561272057600080fd5b505afa158015612734573d6000803e3d6000fd5b505050506040513d601f19601f820116820180604052506127589190810190612ff4565b8473ffffffffffffffffffffffffffffffffffffffff1663a8542f666040518163ffffffff1660e01b815260040160206040518083038186803b15801561279e57600080fd5b505afa1580156127b2573d6000803e3d6000fd5b505050506040513d601f19601f820116820180604052506127d69190810190612ff4565b6040518463ffffffff1660e01b81526004016127f493929190613685565b600060405180830381600087803b15801561280e57600080fd5b505af1158015612822573d6000803e3d6000fd5b50505050505050565b600061286d83836040518060400160405280601e81526020017f536166654d6174683a207375627472616374696f6e206f766572666c6f7700008152506129ed565b905092915050565b600061288383836001612254565b905092915050565b600061289a8484846001612a48565b90509392505050565b60006128ae84612947565b73ffffffffffffffffffffffffffffffffffffffff1663f39b5b9b8484603c42016040518463ffffffff1660e01b81526004016128ec929190613859565b6020604051808303818588803b15801561290557600080fd5b505af1158015612919573d6000803e3d6000fd5b50505050506040513d601f19601f8201168201806040525061293e919081019061306f565b90509392505050565b600073c0a47dfe034b400b47bdad5fecda2621de6c4d9573ffffffffffffffffffffffffffffffffffffffff166306f2bf62836040518263ffffffff1660e01b815260040161299691906135d3565b60206040518083038186803b1580156129ae57600080fd5b505afa1580156129c2573d6000803e3d6000fd5b505050506040513d601f19601f820116820180604052506129e69190810190612d28565b9050919050565b6000838311158290612a35576040517f08c379a0000000000000000000000000000000000000000000000000000000008152600401612a2c91906136bc565b60405180910390fd5b5060008385039050809150509392505050565b600080612a558685612875565b9050612a628582856128a3565b915050949350505050565b6040518060600160405280600073ffffffffffffffffffffffffffffffffffffffff168152602001600073ffffffffffffffffffffffffffffffffffffffff168152602001600073ffffffffffffffffffffffffffffffffffffffff1681525090565b600081359050612adf81613ab1565b92915050565b600081519050612af481613ab1565b92915050565b600081359050612b0981613ac8565b92915050565b600082601f830112612b2057600080fd5b8135612b33612b2e826138e6565b6138b9565b91508181835260208401935060208101905083856020840282011115612b5857600080fd5b60005b83811015612b885781612b6e8882612ad0565b845260208401935060208301925050600181019050612b5b565b5050505092915050565b600082601f830112612ba357600080fd5b8151612bb6612bb18261390e565b6138b9565b91508181835260208401935060208101905083856020840282011115612bdb57600080fd5b60005b83811015612c0b5781612bf18882612d13565b845260208401935060208301925050600181019050612bde565b5050505092915050565b600081519050612c2481613adf565b92915050565b600081519050612c3981613af6565b92915050565b60008083601f840112612c5157600080fd5b8235905067ffffffffffffffff811115612c6a57600080fd5b602083019150836001820283011115612c8257600080fd5b9250929050565b600081519050612c9881613b0d565b92915050565b600060608284031215612cb057600080fd5b612cba60606138b9565b90506000612cca84828501612ad0565b6000830152506020612cde84828501612ad0565b6020830152506040612cf284828501612ad0565b60408301525092915050565b600081359050612d0d81613b24565b92915050565b600081519050612d2281613b24565b92915050565b600060208284031215612d3a57600080fd5b6000612d4884828501612ae5565b91505092915050565b600080600080600080600060c0888a031215612d6c57600080fd5b6000612d7a8a828b01612ad0565b9750506020612d8b8a828b01612afa565b9650506040612d9c8a828b01612ad0565b9550506060612dad8a828b01612ad0565b9450506080612dbe8a828b01612cfe565b93505060a088013567ffffffffffffffff811115612ddb57600080fd5b612de78a828b01612c3f565b925092505092959891949750929550565b600080600060608486031215612e0d57600080fd5b6000612e1b86828701612ad0565b9350506020612e2c86828701612ad0565b9250506040612e3d86828701612cfe565b9150509250925092565b60008060008060808587031215612e5d57600080fd5b6000612e6b87828801612ad0565b9450506020612e7c87828801612ad0565b9350506040612e8d87828801612cfe565b9250506060612e9e87828801612ad0565b91505092959194509250565b60008060408385031215612ebd57600080fd5b6000612ecb85828601612ad0565b9250506020612edc85828601612cfe565b9150509250929050565b60008060008060808587031215612efc57600080fd5b6000612f0a87828801612ad0565b9450506020612f1b87828801612cfe565b9350506040612f2c87828801612ad0565b9250506060612f3d87828801612cfe565b91505092959194509250565b600060208284031215612f5b57600080fd5b600082013567ffffffffffffffff811115612f7557600080fd5b612f8184828501612b0f565b91505092915050565b600060208284031215612f9c57600080fd5b600082015167ffffffffffffffff811115612fb657600080fd5b612fc284828501612b92565b91505092915050565b600060208284031215612fdd57600080fd5b6000612feb84828501612c15565b91505092915050565b60006020828403121561300657600080fd5b600061301484828501612c2a565b91505092915050565b60006020828403121561302f57600080fd5b600061303d84828501612c89565b91505092915050565b60006060828403121561305857600080fd5b600061306684828501612c9e565b91505092915050565b60006020828403121561308157600080fd5b600061308f84828501612d13565b91505092915050565b6000806000806000608086880312156130b057600080fd5b60006130be88828901612cfe565b95505060206130cf88828901612cfe565b94505060406130e088828901612cfe565b935050606086013567ffffffffffffffff8111156130fd57600080fd5b61310988828901612c3f565b92509250509295509295909350565b6000613124838361313f565b60208301905092915050565b61313981613a28565b82525050565b613148816139b2565b82525050565b613157816139b2565b82525050565b600061316882613946565b6131728185613974565b935061317d83613936565b8060005b838110156131ae5781516131958882613118565b97506131a083613967565b925050600181019050613181565b5085935050505092915050565b6131c4816139e2565b82525050565b60006131d68385613996565b93506131e3838584613a5e565b82840190509392505050565b60006131fa82613951565b6132048185613985565b9350613214818560208601613a6d565b61321d81613aa0565b840191505092915050565b600061323382613951565b61323d8185613996565b935061324d818560208601613a6d565b80840191505092915050565b60006132648261395c565b61326e81856139a1565b935061327e818560208601613a6d565b61328781613aa0565b840191505092915050565b600061329f601b836139a1565b91507f536166654d6174683a206164646974696f6e206f766572666c6f7700000000006000830152602082019050919050565b60006132df601e836139a1565b91507f636d706e642d6d67722d63746f6b656e2d626f72726f772d6661696c656400006000830152602082019050919050565b600061331f601e836139a1565b91507f636d706e642d6d67722d63746f6b656e2d72656465656d2d6661696c656400006000830152602082019050919050565b600061335f6029836139a1565b91507f636d706e642d6d67722d63746f6b656e2d72656465656d2d756e6465726c796960008301527f6e672d6661696c656400000000000000000000000000000000000000000000006020830152604082019050919050565b60006133c5601e836139a1565b91507f636d706e642d6d67722d656e7465722d6d61726b6574732d6661696c656400006000830152602082019050919050565b60006134056023836139a1565b91507f636d706e642d6d67722d63746f6b656e2d7265706179626568616c662d66616960008301527f6c656400000000000000000000000000000000000000000000000000000000006020830152604082019050919050565b600061346b601d836139a1565b91507f636d706e642d6d67722d63746f6b656e2d72657061792d6661696c65640000006000830152602082019050919050565b60006134ab6020836139a1565b91507f636d706e642d6d67722d63746f6b656e2d617070726f7665642d6661696c65646000830152602082019050919050565b60006134eb601d836139a1565b91507f636c6561722d636f6c6c61746572616c2d73616d652d616464726573730000006000830152602082019050919050565b600061352b601e836139a1565b91507f636d706e642d6d67722d63746f6b656e2d737570706c792d6661696c656400006000830152602082019050919050565b600061356b6017836139a1565b91507f636c6561722d646562742d73616d652d616464726573730000000000000000006000830152602082019050919050565b6135a781613a1e565b82525050565b60006135b98286613228565b91506135c68284866131ca565b9150819050949350505050565b60006020820190506135e8600083018461314e565b92915050565b60006080820190506136036000830187613130565b613610602083018661314e565b61361d604083018561359e565b818103606083015261362f81846131ef565b905095945050505050565b600060408201905061364f600083018561314e565b61365c602083018461359e565b9392505050565b6000602082019050818103600083015261367d818461315d565b905092915050565b600060608201905061369a60008301866131bb565b6136a760208301856131bb565b6136b460408301846131bb565b949350505050565b600060208201905081810360008301526136d68184613259565b905092915050565b600060208201905081810360008301526136f781613292565b9050919050565b60006020820190508181036000830152613717816132d2565b9050919050565b6000602082019050818103600083015261373781613312565b9050919050565b6000602082019050818103600083015261375781613352565b9050919050565b60006020820190508181036000830152613777816133b8565b9050919050565b60006020820190508181036000830152613797816133f8565b9050919050565b600060208201905081810360008301526137b78161345e565b9050919050565b600060208201905081810360008301526137d78161349e565b9050919050565b600060208201905081810360008301526137f7816134de565b9050919050565b600060208201905081810360008301526138178161351e565b9050919050565b600060208201905081810360008301526138378161355e565b9050919050565b6000602082019050613853600083018461359e565b92915050565b600060408201905061386e600083018561359e565b61387b602083018461359e565b9392505050565b6000606082019050613897600083018661359e565b6138a4602083018561359e565b6138b1604083018461359e565b949350505050565b6000604051905081810181811067ffffffffffffffff821117156138dc57600080fd5b8060405250919050565b600067ffffffffffffffff8211156138fd57600080fd5b602082029050602081019050919050565b600067ffffffffffffffff82111561392557600080fd5b602082029050602081019050919050565b6000819050602082019050919050565b600081519050919050565b600081519050919050565b600081519050919050565b6000602082019050919050565b600082825260208201905092915050565b600082825260208201905092915050565b600081905092915050565b600082825260208201905092915050565b60006139bd826139fe565b9050919050565b60006139cf826139fe565b9050919050565b60008115159050919050565b6000819050919050565b60006139f7826139b2565b9050919050565b600073ffffffffffffffffffffffffffffffffffffffff82169050919050565b6000819050919050565b6000613a3382613a3a565b9050919050565b6000613a4582613a4c565b9050919050565b6000613a57826139fe565b9050919050565b82818337600083830152505050565b60005b83811015613a8b578082015181840152602081019050613a70565b83811115613a9a576000848401525b50505050565b6000601f19601f8301169050919050565b613aba816139b2565b8114613ac557600080fd5b50565b613ad1816139c4565b8114613adc57600080fd5b50565b613ae8816139d6565b8114613af357600080fd5b50565b613aff816139e2565b8114613b0a57600080fd5b50565b613b16816139ec565b8114613b2157600080fd5b50565b613b2d81613a1e565b8114613b3857600080fd5b5056fea365627a7a723158201ff22441d2485ad25ba5a0bc31dd7a45c6bc318e1cf490a5bc87b1dcc318ec906c6578706572696d656e74616cf564736f6c63430005100040",
  "source": "/*\n    Dedge's Aave and Compound manager\n*/\n\npragma solidity 0.5.16;\npragma experimental ABIEncoderV2;\n\n\nimport \"../lib/compound/CompoundBase.sol\";\n\nimport \"../lib/dapphub/Guard.sol\";\n\nimport \"../lib/uniswap/UniswapLiteBase.sol\";\n\nimport \"../interfaces/aave/ILendingPoolAddressesProvider.sol\";\nimport \"../interfaces/aave/ILendingPool.sol\";\nimport \"../interfaces/aave/ILendingPoolParametersProvider.sol\";\n\nimport \"../interfaces/compound/ICompoundPriceOracle.sol\";\nimport \"../interfaces/compound/IComptroller.sol\";\nimport \"../interfaces/compound/ICEther.sol\";\nimport \"../interfaces/compound/ICToken.sol\";\n\nimport \"../interfaces/IERC20.sol\";\n\nimport \"../registries/AddressRegistry.sol\";\n\nimport \"../proxies/DACProxy.sol\";\n\nimport \"@openzeppelin/contracts/math/SafeMath.sol\";\n\ncontract DedgeCompoundManager is UniswapLiteBase, CompoundBase {\n    using SafeMath for uint;\n\n    struct SwapOperationCalldata {\n        address addressRegistryAddress;\n        address oldCTokenAddress;\n        address newCTokenAddress;\n    }\n\n    function _proxyGuardPermit(address payable proxyAddress, address src) internal {\n        address g = address(DACProxy(proxyAddress).authority());\n\n        DSGuard(g).permit(\n            bytes32(bytes20(address(src))),\n            DSGuard(g).ANY(),\n            DSGuard(g).ANY()\n        );\n    }\n\n    function _proxyGuardForbid(address payable proxyAddress, address src) internal {\n        address g = address(DACProxy(proxyAddress).authority());\n\n        DSGuard(g).forbid(\n            bytes32(bytes20(address(src))),\n            DSGuard(g).ANY(),\n            DSGuard(g).ANY()\n        );\n    }\n\n    function swapDebtPostLoan(\n        uint _loanAmount,\n        uint _aaveFee,\n        uint _protocolFee,\n        bytes calldata _data\n    ) external {\n        SwapOperationCalldata memory soCalldata = abi.decode(_data, (SwapOperationCalldata));\n\n        AddressRegistry addressRegistry = AddressRegistry(soCalldata.addressRegistryAddress);\n\n        address oldCTokenAddress = soCalldata.oldCTokenAddress;\n        address newCTokenAddress = soCalldata.newCTokenAddress;\n\n        uint debtAmount = _loanAmount.add(_aaveFee).add(_protocolFee);\n\n        // Note: debtAmount = loanAmount + fees\n        // 1. Has ETH from Aave flashloan\n        // 2. Converts ETH to oldCToken underlying\n        // 3. Repays oldCToken underlying\n        // 4. Calculates new amount to borrow from new token to repay debtAmount\n        // 5. Borrows from new token\n        // 6. Convert new token to ETH\n\n        // Steps 2 + 3\n        // Converts ETH to oldCToken underlying and repay\n        // Unless old target underlying is already ether\n        if (oldCTokenAddress == addressRegistry.CEtherAddress()) {\n            repayBorrow(oldCTokenAddress, _loanAmount);\n        } else {\n            // Gets old token underlying and amount\n            address oldTokenUnderlying = ICToken(oldCTokenAddress).underlying();\n\n            uint oldTokenUnderlyingAmount = _ethToToken(\n                oldTokenUnderlying,\n                _loanAmount\n            );\n\n            // Approves CToken proxy and repays them\n            IERC20(oldTokenUnderlying)\n                .approve(oldCTokenAddress, oldTokenUnderlyingAmount);\n\n            // Repays CToken\n            repayBorrow(oldCTokenAddress, oldTokenUnderlyingAmount);\n        }\n\n        // Steps 4, 5, 6\n        // Calculates new debt amount to borrow\n        // Unless new target underlying is already ether\n        if (newCTokenAddress == addressRegistry.CEtherAddress()) {\n            borrow(newCTokenAddress, debtAmount);\n        } else {\n            // Gets new token underlying\n            address newTokenUnderlying = ICToken(newCTokenAddress).underlying();\n\n            // Calculates amount of old token underlying that needs to be borrowed\n            // to repay debts\n            uint newTokenUnderlyingAmount = _getTokenToEthOutput(\n                newTokenUnderlying,\n                debtAmount\n            );\n\n            // Borrows new debt\n            borrow(newCTokenAddress, newTokenUnderlyingAmount);\n\n            // Converts to ether\n            // Note this part is a bit more strict as we need to have\n            // enough ETH to repay Aave\n            _tokenToEth(newTokenUnderlying, newTokenUnderlyingAmount, debtAmount);\n        }\n    }\n\n    function swapCollateralPostLoan(\n        uint _loanAmount,\n        uint _aaveFee,\n        uint _protocolFee,\n        bytes calldata _data\n    ) external {\n        SwapOperationCalldata memory soCalldata = abi.decode(_data, (SwapOperationCalldata));\n\n        AddressRegistry addressRegistry = AddressRegistry(soCalldata.addressRegistryAddress);\n\n        address oldCTokenAddress = soCalldata.oldCTokenAddress;\n        address newCTokenAddress = soCalldata.newCTokenAddress;\n\n        // 1. Has ETH from Aave flashloan\n        // 2. Converts ETH into newCToken underlying\n        // 3. Supplies newCToken underlying\n        // 4. Redeems oldCToken underlying\n        // 5. Converts outCToken underlying to ETH\n        // 6. Borrow <fee> ETH to repay aave\n\n        // Steps 2 + 3\n        // Converts ETH to newCToken underlying and supply\n        // Unless old target underlying is already ether\n        uint repayAmount = _loanAmount.sub(_aaveFee).sub(_protocolFee);\n\n        if (newCTokenAddress == addressRegistry.CEtherAddress()) {\n            supply(newCTokenAddress, repayAmount);\n        } else {\n            // Gets new token underlying and converts ETH into newCToken underlying\n            address newTokenUnderlying = ICToken(newCTokenAddress).underlying();\n            uint newTokenUnderlyingAmount = _ethToToken(\n                newTokenUnderlying,\n                repayAmount\n            );\n\n            // Supplies new CTokens\n            supply(newCTokenAddress, newTokenUnderlyingAmount);\n        }\n\n        // Steps 4, 5\n        // Redeem CToken underlying\n        if (oldCTokenAddress == addressRegistry.CEtherAddress()) {\n            redeemUnderlying(oldCTokenAddress, _loanAmount);\n        } else {\n            // Gets old token underlying and amount to redeem (based on uniswap)\n            address oldTokenUnderlying = ICToken(oldCTokenAddress).underlying();\n            uint oldTokenUnderlyingAmount = _getTokenToEthOutput(oldTokenUnderlying, _loanAmount);\n\n            // Redeems them\n            redeemUnderlying(oldCTokenAddress, oldTokenUnderlyingAmount);\n\n            // Converts them into ETH\n            _tokenToEth(oldTokenUnderlying, oldTokenUnderlyingAmount, _loanAmount);\n        }\n    }\n\n    /*\n    Main entry point for swapping collateral / debt\n\n    @params:\n\n        dedgeCompoundManagerAddress: Dedge Compound Manager address\n        dacProxyAddress: User's proxy address\n        addressRegistryAddress: AddressRegistry's Address\n        oldCTokenAddress: oldCToken address\n        oldTokenUnderlyingDelta: Amount of tokens to swap from old c token's underlying\n        executeOperationCalldataParams:\n            Abi-encoded `data` used by User's proxy's `execute(address, <data>)` function.\n            Used to delegatecall to another contract (i.e. this contract) in the context\n            of the proxy. This allows us to decouple the logic of handling flashloans\n            from the proxy contract. In this specific case, it is expecting the results\n            from: (from JS)\n\n            ```\n                const IDedgeCompoundManager = ethers.utils.Interface(DedgeCompoundManager.abi)\n\n                const executeOperationCalldataParams = IDedgeCompoundManager\n                    .functions\n                    .swapDebt OR .swapCollateral\n                    .encode([\n                        <parameters>\n                    ])\n            ```\n    */\n    function swapOperation(\n        address dedgeCompoundManagerAddress,\n        address payable dacProxyAddress,\n        address addressRegistryAddress,\n        address oldCTokenAddress,            // Old CToken address for [debt|collateral]\n        uint oldTokenUnderlyingDelta,        // Amount of old tokens to swap to new tokens\n        bytes calldata executeOperationCalldataParams\n    ) external {\n        // Calling from dacProxy context (msg.sender is dacProxy)\n        // 1. Get amount of ETH obtained by selling that from Uniswap\n        // 2. Flashloans ETH to dacProxy\n\n        // Gets registries\n        AddressRegistry addressRegistry = AddressRegistry(addressRegistryAddress);\n\n        // 1. Get amount of ETH needed\n        // If the old target is ether than the ethDebtAmount is just the delta\n        uint ethDebtAmount;\n\n        if (oldCTokenAddress == addressRegistry.CEtherAddress()) {\n            ethDebtAmount = oldTokenUnderlyingDelta;\n        } else {\n            // Otherwise calculate it from the exchange\n            ethDebtAmount = _getEthToTokenOutput(\n                ICToken(oldCTokenAddress).underlying(),\n                oldTokenUnderlyingDelta\n            );\n        }\n\n        // Injects the target address into calldataParams\n        // so user proxy know which address it'll be calling `calldataParams` on\n        bytes memory addressAndExecuteOperationCalldataParams = abi.encodePacked(\n            abi.encode(dedgeCompoundManagerAddress),\n            executeOperationCalldataParams\n        );\n\n        ILendingPool lendingPool = ILendingPool(\n            ILendingPoolAddressesProvider(\n                addressRegistry.AaveLendingPoolAddressProviderAddress()\n            ).getLendingPool()\n        );\n\n        // Approve lendingPool to call proxy\n        _proxyGuardPermit(dacProxyAddress, address(lendingPool));\n\n        // 3. Flashloan ETH with relevant data\n        lendingPool.flashLoan(\n            dacProxyAddress,\n            addressRegistry.AaveEthAddress(),\n            ethDebtAmount,\n            addressAndExecuteOperationCalldataParams\n        );\n\n        // Forbids lendingPool to call proxy\n        _proxyGuardForbid(dacProxyAddress, address(lendingPool));\n    }\n\n    // Clears dust debt by swapping old debt into new debt\n    function clearDebtDust(\n        address addressRegistryAddress,\n        address oldCTokenAddress,\n        uint oldTokenUnderlyingDustAmount,\n        address newCTokenAddress\n    ) public payable {\n        // i.e. Has 0.1 ETH (oldCToken) debt 900 DAI (newCToken)\n        // wants to have it all in DAI\n\n        // 0. Calculates 0.1 ETH equilavent in DAI\n        // 1. Borrows out 0.1 ETH equilavent in DAI (~10 DAI as of march 2020)\n        // 2. Convert 10 DAI into 0.1 ETH\n        // 3. Repay 0.1 ETH\n\n        require(oldCTokenAddress != newCTokenAddress, \"clear-debt-same-address\");\n\n        AddressRegistry addressRegistry = AddressRegistry(addressRegistryAddress);\n\n        uint borrowAmount;\n        address oldTokenUnderlying;\n        address newTokenUnderlying;\n\n        if (oldCTokenAddress == addressRegistry.CEtherAddress()) {\n            // ETH -> Token\n            newTokenUnderlying = ICToken(newCTokenAddress).underlying();\n\n            // Calculates ETH equilavent in token\n            borrowAmount = _getTokenToEthOutput(newTokenUnderlying, oldTokenUnderlyingDustAmount);\n\n            // Borrows out equilavent token\n            borrow(newCTokenAddress, borrowAmount);\n\n            // Converts token to ETH\n            _tokenToEth(newTokenUnderlying, borrowAmount, oldTokenUnderlyingDustAmount);\n        } else if (newCTokenAddress == addressRegistry.CEtherAddress()) {\n            // Token -> ETH\n            oldTokenUnderlying = ICToken(oldCTokenAddress).underlying();\n\n            // Calculates token equilavent in ETH\n            borrowAmount = _getEthToTokenOutput(oldTokenUnderlying, oldTokenUnderlyingDustAmount);\n\n            // Borrows out equilavent ETH\n            borrow(newCTokenAddress, borrowAmount);\n\n            // Converts ETH to token\n            _ethToToken(oldTokenUnderlying, borrowAmount, oldTokenUnderlyingDustAmount);\n        } else {\n            // token -> token\n            oldTokenUnderlying = ICToken(oldCTokenAddress).underlying();\n            newTokenUnderlying = ICToken(newCTokenAddress).underlying();\n\n            // Calculates eth borrow amount\n            uint ethAmount = _getEthToTokenOutput(oldTokenUnderlying, oldTokenUnderlyingDustAmount);\n\n            // Calculates token borrow amount\n            borrowAmount = _getTokenToEthOutput(newTokenUnderlying, ethAmount);\n\n            // Borrows out equilavent token\n            borrow(newCTokenAddress, borrowAmount);\n\n            // Converts old token to target token\n            _tokenToEth(newTokenUnderlying, borrowAmount, ethAmount);\n            _ethToToken(oldTokenUnderlying, ethAmount, oldTokenUnderlyingDustAmount);\n        }\n\n        // Repays borrowed\n        repayBorrow(oldCTokenAddress, oldTokenUnderlyingDustAmount);\n    }\n\n    function clearCollateralDust(\n        address addressRegistryAddress,\n        address oldCTokenAddress,\n        uint oldTokenUnderlyingAmount,\n        address newCTokenAddress\n    ) public payable {\n        // i.e. Has 10 ETH collateral and 10 DAI collateral\n        // wants to have it all in ETH\n\n        // 1. Redeems 10 DAI collateral\n        // 2. Converts it to ETH\n        // 3. Puts it into ETH\n\n        // More abstractly,\n        // 1. Redeems tokens\n        // 2. Convert it to other token\n        // 3. Put other token in\n\n        require(oldCTokenAddress != newCTokenAddress, \"clear-collateral-same-address\");\n\n        uint supplyAmount;\n        AddressRegistry addressRegistry = AddressRegistry(addressRegistryAddress);\n\n        // Redeems collateral\n        redeemUnderlying(oldCTokenAddress, oldTokenUnderlyingAmount);\n\n        if (oldCTokenAddress == addressRegistry.CEtherAddress()) {\n            // ETH -> Token\n            supplyAmount = _ethToToken(\n                ICToken(newCTokenAddress).underlying(),\n                oldTokenUnderlyingAmount\n            );\n        } else if (newCTokenAddress == addressRegistry.CEtherAddress()) {\n            // Token -> ETH\n            supplyAmount = _tokenToEth(\n                ICToken(oldCTokenAddress).underlying(),\n                oldTokenUnderlyingAmount\n            );\n        } else {\n            // Token -> Token\n            supplyAmount = _tokenToToken(\n                ICToken(oldCTokenAddress).underlying(),\n                ICToken(newCTokenAddress).underlying(),\n                oldTokenUnderlyingAmount\n            );\n        }\n\n        // Supplies collateral\n        supply(newCTokenAddress, supplyAmount);\n    }\n}\n",
  "sourcePath": "/home/kendrick/Development/Ethereum/dedge/packages/smart-contracts/src/managers/DedgeCompoundManager.sol",
  "compiler": {
    "name": "solc",
    "version": "0.5.16+commit.9c3226ce.Emscripten.clang"
  },
  "schemaVersion": "3.0.23",
  "updatedAt": "2020-03-29T06:38:08.239Z",
  "devdoc": {
    "methods": {}
  },
  "userdoc": {
    "methods": {}
  }
}