{
  "contractName": "DedgeExitManager",
  "abi": [
    {
      "inputs": [],
      "payable": false,
      "stateMutability": "nonpayable",
      "type": "constructor"
    },
    {
      "payable": true,
      "stateMutability": "payable",
      "type": "fallback"
    },
    {
      "constant": false,
      "inputs": [
        {
          "internalType": "address",
          "name": "cToken",
          "type": "address"
        },
        {
          "internalType": "uint256",
          "name": "amount",
          "type": "uint256"
        }
      ],
      "name": "_approve",
      "outputs": [],
      "payable": false,
      "stateMutability": "nonpayable",
      "type": "function"
    },
    {
      "constant": false,
      "inputs": [
        {
          "internalType": "uint256",
          "name": "_amount",
          "type": "uint256"
        },
        {
          "internalType": "uint256",
          "name": "_fee",
          "type": "uint256"
        },
        {
          "internalType": "uint256",
          "name": "_protocolFee",
          "type": "uint256"
        },
        {
          "internalType": "bytes",
          "name": "_params",
          "type": "bytes"
        }
      ],
      "name": "exitPositionsPostLoan",
      "outputs": [],
      "payable": false,
      "stateMutability": "nonpayable",
      "type": "function"
    },
    {
      "constant": false,
      "inputs": [
        {
          "internalType": "uint256",
          "name": "totalEthDebtAmount",
          "type": "uint256"
        },
        {
          "internalType": "address",
          "name": "dedgeExitManagerAddress",
          "type": "address"
        },
        {
          "internalType": "address payable",
          "name": "dacProxyAddress",
          "type": "address"
        },
        {
          "internalType": "address",
          "name": "addressRegistryAddress",
          "type": "address"
        },
        {
          "internalType": "bytes",
          "name": "executeOperationCalldataParams",
          "type": "bytes"
        }
      ],
      "name": "exitPositions",
      "outputs": [],
      "payable": false,
      "stateMutability": "nonpayable",
      "type": "function"
    }
  ],
  "bytecode": "0x608060405234801561001057600080fd5b50611717806100206000396000f3fe6080604052600436106100345760003560e01c8063642c3dfa146100365780636889dfe1146100565780637b7d722514610076575b005b34801561004257600080fd5b5061003461005136600461122f565b610096565b34801561006257600080fd5b506100346100713660046112bf565b6102b6565b34801561008257600080fd5b50610034610091366004611166565b610488565b60405183906060906100ac9088906020016114db565b60408051601f19818403018152908290526100cd91869086906020016114ae565b60405160208183030381529060405290506000826001600160a01b0316633f6dc33b6040518163ffffffff1660e01b815260040160206040518083038186803b15801561011957600080fd5b505afa15801561012d573d6000803e3d6000fd5b505050506040513d601f19601f820116820180604052506101519190810190611148565b6001600160a01b0316630261bf8b6040518163ffffffff1660e01b815260040160206040518083038186803b15801561018957600080fd5b505afa15801561019d573d6000803e3d6000fd5b505050506040513d601f19601f820116820180604052506101c19190810190611148565b90506101cd87826105ad565b806001600160a01b0316635cffe9de88856001600160a01b03166356cc94a26040518163ffffffff1660e01b815260040160206040518083038186803b15801561021657600080fd5b505afa15801561022a573d6000803e3d6000fd5b505050506040513d601f19601f8201168201806040525061024e9190810190611148565b8c866040518563ffffffff1660e01b815260040161026f94939291906114e9565b600060405180830381600087803b15801561028957600080fd5b505af115801561029d573d6000803e3d6000fd5b505050506102ab878261077b565b505050505050505050565b6102be610ebe565b6102ca828401846111fa565b90506000816020015190506000816001600160a01b031663744d27126040518163ffffffff1660e01b815260040160206040518083038186803b15801561031057600080fd5b505afa158015610324573d6000803e3d6000fd5b505050506040513d601f19601f820116820180604052506103489190810190611148565b905060005b8360400151518110156103a35761039b828560400151838151811061036e57fe5b6020026020010151600001518660400151848151811061038a57fe5b60200260200101516020015161084b565b60010161034d565b5060005b8360600151518110156103fe576103f582856060015183815181106103c857fe5b602002602001015160000151866060015184815181106103e457fe5b602002602001015160200151610900565b506001016103a7565b5082516001600160a01b031661042d876104218a8130318e63ffffffff6109b716565b9063ffffffff6109b716565b604051610439906114d0565b60006040518083038185875af1925050503d8060008114610476576040519150601f19603f3d011682016040523d82523d6000602084013e61047b565b606091505b5050505050505050505050565b6000826001600160a01b0316636f307dc36040518163ffffffff1660e01b815260040160206040518083038186803b1580156104c357600080fd5b505afa1580156104d7573d6000803e3d6000fd5b505050506040513d601f19601f820116820180604052506104fb9190810190611148565b60405163095ea7b360e01b81529091506001600160a01b0382169063095ea7b39061052c908690869060040161152d565b602060405180830381600087803b15801561054657600080fd5b505af115801561055a573d6000803e3d6000fd5b505050506040513d601f19601f8201168201806040525061057e91908101906111a0565b15156001146105a85760405162461bcd60e51b815260040161059f906115a1565b60405180910390fd5b505050565b6000826001600160a01b031663bf7e214f6040518163ffffffff1660e01b815260040160206040518083038186803b1580156105e857600080fd5b505afa1580156105fc573d6000803e3d6000fd5b505050506040513d601f19601f8201168201806040525061062091908101906111dc565b9050806001600160a01b031663f0217ce58360601b6bffffffffffffffffffffffff1916836001600160a01b031663a8542f666040518163ffffffff1660e01b815260040160206040518083038186803b15801561067d57600080fd5b505afa158015610691573d6000803e3d6000fd5b505050506040513d601f19601f820116820180604052506106b591908101906111be565b846001600160a01b031663a8542f666040518163ffffffff1660e01b815260040160206040518083038186803b1580156106ee57600080fd5b505afa158015610702573d6000803e3d6000fd5b505050506040513d601f19601f8201168201806040525061072691908101906111be565b6040518463ffffffff1660e01b815260040161074493929190611548565b600060405180830381600087803b15801561075e57600080fd5b505af1158015610772573d6000803e3d6000fd5b50505050505050565b6000826001600160a01b031663bf7e214f6040518163ffffffff1660e01b815260040160206040518083038186803b1580156107b657600080fd5b505afa1580156107ca573d6000803e3d6000fd5b505050506040513d601f19601f820116820180604052506107ee91908101906111dc565b9050806001600160a01b03166379d88d878360601b6bffffffffffffffffffffffff1916836001600160a01b031663a8542f666040518163ffffffff1660e01b815260040160206040518083038186803b15801561067d57600080fd5b826001600160a01b0316826001600160a01b0316146108f5576000826001600160a01b0316636f307dc36040518163ffffffff1660e01b815260040160206040518083038186803b15801561089f57600080fd5b505afa1580156108b3573d6000803e3d6000fd5b505050506040513d601f19601f820116820180604052506108d79190810190611148565b905060006108e58284610a02565b90506108f18282610a88565b5050505b6105a8838383610a96565b600061090c8383610bae565b836001600160a01b0316836001600160a01b0316141561092d5750806109b0565b6000836001600160a01b0316636f307dc36040518163ffffffff1660e01b815260040160206040518083038186803b15801561096857600080fd5b505afa15801561097c573d6000803e3d6000fd5b505050506040513d601f19601f820116820180604052506109a09190810190611148565b90506109ac8184610c4f565b9150505b9392505050565b60006109f983836040518060400160405280601e81526020017f536166654d6174683a207375627472616374696f6e206f766572666c6f770000815250610c5d565b90505b92915050565b6000610a0d83610c89565b6001600160a01b03166359e94862836040518263ffffffff1660e01b8152600401610a3891906115b1565b60206040518083038186803b158015610a5057600080fd5b505afa158015610a64573d6000803e3d6000fd5b505050506040513d601f19601f820116820180604052506109f991908101906111be565b60006109f983836001610d13565b826001600160a01b0316826001600160a01b03161415610b0957816001600160a01b0316634e4d9fea826040518263ffffffff1660e01b81526004016000604051808303818588803b158015610aeb57600080fd5b505af1158015610aff573d6000803e3d6000fd5b50505050506105a8565b610b138282610488565b60405163073a938160e11b81526001600160a01b03831690630e75270290610b3f9084906004016115b1565b602060405180830381600087803b158015610b5957600080fd5b505af1158015610b6d573d6000803e3d6000fd5b505050506040513d601f19601f82011682018060405250610b9191908101906111be565b156105a85760405162461bcd60e51b815260040161059f90611591565b60405163852a12e360e01b81526000906001600160a01b0384169063852a12e390610bdd9085906004016115b1565b602060405180830381600087803b158015610bf757600080fd5b505af1158015610c0b573d6000803e3d6000fd5b505050506040513d601f19601f82011682018060405250610c2f91908101906111be565b905080156105a85760405162461bcd60e51b815260040161059f90611581565b60006109f983836001610da9565b60008184841115610c815760405162461bcd60e51b815260040161059f9190611570565b505050900390565b6040516303795fb160e11b815260009073c0a47dfe034b400b47bdad5fecda2621de6c4d95906306f2bf6290610cc39085906004016114db565b60206040518083038186803b158015610cdb57600080fd5b505afa158015610cef573d6000803e3d6000fd5b505050506040513d601f19601f820116820180604052506109fc9190810190611148565b6000610d1e84610c89565b6001600160a01b031663f39b5b9b848442603c016040518463ffffffff1660e01b8152600401610d4f9291906115bf565b6020604051808303818588803b158015610d6857600080fd5b505af1158015610d7c573d6000803e3d6000fd5b50505050506040513d601f19601f82011682018060405250610da191908101906111be565b949350505050565b600080610db585610c89565b60405163095ea7b360e01b81529091506001600160a01b0386169063095ea7b390610de6908490889060040161152d565b602060405180830381600087803b158015610e0057600080fd5b505af1158015610e14573d6000803e3d6000fd5b505050506040513d601f19601f82011682018060405250610e3891908101906111a0565b506040516395e3c50b60e01b81526001600160a01b038216906395e3c50b90610e6c9087908790603c420190600401611548565b602060405180830381600087803b158015610e8657600080fd5b505af1158015610e9a573d6000803e3d6000fd5b505050506040513d601f19601f820116820180604052506109ac91908101906111be565b604080516080810182526000808252602082015260609181018290528181019190915290565b80356109fc816116a2565b80516109fc816116a2565b600082601f830112610f0b57600080fd5b8135610f1e610f19826115f4565b6115cd565b91508181835260208401935060208101905083856040840282011115610f4357600080fd5b60005b83811015610f715781610f598882611057565b84525060209092019160409190910190600101610f46565b5050505092915050565b600082601f830112610f8c57600080fd5b8135610f9a610f19826115f4565b91508181835260208401935060208101905083856040840282011115610fbf57600080fd5b60005b83811015610f715781610fd58882611057565b84525060209092019160409190910190600101610fc2565b80516109fc816116b9565b80516109fc816116c2565b60008083601f84011261101557600080fd5b50813567ffffffffffffffff81111561102d57600080fd5b60208301915083600182028301111561104557600080fd5b9250929050565b80516109fc816116cb565b60006040828403121561106957600080fd5b61107360406115cd565b905060006110818484610ee4565b82525060206110928484830161113d565b60208301525092915050565b6000608082840312156110b057600080fd5b6110ba60806115cd565b905060006110c88484610ee4565b82525060206110d984848301610ee4565b602083015250604082013567ffffffffffffffff8111156110f957600080fd5b61110584828501610f7b565b604083015250606082013567ffffffffffffffff81111561112557600080fd5b61113184828501610efa565b60608301525092915050565b80356109fc816116c2565b60006020828403121561115a57600080fd5b6000610da18484610eef565b6000806040838503121561117957600080fd5b60006111858585610ee4565b92505060206111968582860161113d565b9150509250929050565b6000602082840312156111b257600080fd5b6000610da18484610fed565b6000602082840312156111d057600080fd5b6000610da18484610ff8565b6000602082840312156111ee57600080fd5b6000610da1848461104c565b60006020828403121561120c57600080fd5b813567ffffffffffffffff81111561122357600080fd5b610da18482850161109e565b60008060008060008060a0878903121561124857600080fd5b6000611254898961113d565b965050602061126589828a01610ee4565b955050604061127689828a01610ee4565b945050606061128789828a01610ee4565b935050608087013567ffffffffffffffff8111156112a457600080fd5b6112b089828a01611003565b92509250509295509295509295565b6000806000806000608086880312156112d757600080fd5b60006112e3888861113d565b95505060206112f48882890161113d565b94505060406113058882890161113d565b935050606086013567ffffffffffffffff81111561132257600080fd5b61132e88828901611003565b92509250509295509295909350565b61134681611651565b82525050565b61134681611627565b61134681611637565b600061136a8385611622565b935061137783858461165c565b50500190565b600061138882611615565b6113928185611619565b93506113a2818560208601611668565b6113ab81611698565b9093019392505050565b60006113c082611615565b6113ca8185611622565b93506113da818560208601611668565b9290920192915050565b60006113f1602983611619565b7f636d706e642d6d67722d63746f6b656e2d72656465656d2d756e6465726c79698152681b99cb59985a5b195960ba1b602082015260400192915050565b600061143c601d83611619565b7f636d706e642d6d67722d63746f6b656e2d72657061792d6661696c6564000000815260200192915050565b60006109fc600083611622565b6000611482602083611619565b7f636d706e642d6d67722d63746f6b656e2d617070726f7665642d6661696c6564815260200192915050565b60006114ba82866113b5565b91506114c782848661135e565b95945050505050565b60006109fc82611468565b602081016109fc828461134c565b608081016114f7828761133d565b611504602083018661134c565b6115116040830185611355565b8181036060830152611523818461137d565b9695505050505050565b6040810161153b828561134c565b6109b06020830184611355565b606081016115568286611355565b6115636020830185611355565b610da16040830184611355565b602080825281016109f9818461137d565b602080825281016109fc816113e4565b602080825281016109fc8161142f565b602080825281016109fc81611475565b602081016109fc8284611355565b6040810161153b8285611355565b60405181810167ffffffffffffffff811182821017156115ec57600080fd5b604052919050565b600067ffffffffffffffff82111561160b57600080fd5b5060209081020190565b5190565b90815260200190565b919050565b60006109fc82611645565b151590565b90565b60006109fc82611627565b6001600160a01b031690565b60006109fc8261163a565b82818337506000910152565b60005b8381101561168357818101518382015260200161166b565b83811115611692576000848401525b50505050565b601f01601f191690565b6116ab81611627565b81146116b657600080fd5b50565b6116ab81611632565b6116ab81611637565b6116ab8161163a56fea365627a7a72315820fc9d36ba58bfe9886176c2e1bbc1bb9d9ae42a01c153a69a35394106fb60cdeb6c6578706572696d656e74616cf564736f6c63430005100040",
  "source": "/*\n    A manager to exit all positions (collateral and debt)\n*/\n\npragma solidity 0.5.16;\npragma experimental ABIEncoderV2;\n\nimport \"../interfaces/IERC20.sol\";\n\nimport \"../interfaces/compound/IComptroller.sol\";\nimport \"../interfaces/compound/ICEther.sol\";\nimport \"../interfaces/compound/ICToken.sol\";\n\nimport \"../interfaces/aave/ILendingPoolAddressesProvider.sol\";\nimport \"../interfaces/aave/ILendingPool.sol\";\nimport \"../interfaces/aave/ILendingPoolParametersProvider.sol\";\n\nimport \"../lib/uniswap/UniswapLiteBase.sol\";\nimport \"../lib/dapphub/Guard.sol\";\n\nimport \"../registries/AddressRegistry.sol\";\n\nimport \"../proxies/DACProxy.sol\";\n\nimport \"@openzeppelin/contracts/math/SafeMath.sol\";\n\n\ncontract DedgeExitManager is UniswapLiteBase {\n    using SafeMath for uint256;\n\n    function() external payable {}\n\n    constructor() public {}\n\n    struct DebtMarket {\n        address cToken;\n        uint256 amount;\n    }\n\n    struct CollateralMarket {\n        address cToken;\n        uint256 amount;\n    }\n\n    struct ExitPositionCalldata {\n        address payable exitUserAddress;\n        address addressRegistryAddress;\n        DebtMarket[] debtMarket;\n        CollateralMarket[] collateralMarket;\n    }\n\n    function _proxyGuardPermit(address payable proxyAddress, address src)\n        internal\n    {\n        address g = address(DACProxy(proxyAddress).authority());\n\n        DSGuard(g).permit(\n            bytes32(bytes20(address(src))),\n            DSGuard(g).ANY(),\n            DSGuard(g).ANY()\n        );\n    }\n\n    function _proxyGuardForbid(address payable proxyAddress, address src)\n        internal\n    {\n        address g = address(DACProxy(proxyAddress).authority());\n\n        DSGuard(g).forbid(\n            bytes32(bytes20(address(src))),\n            DSGuard(g).ANY(),\n            DSGuard(g).ANY()\n        );\n    }\n\n    function _approve(address cToken, uint256 amount) public {\n        // Approves CToken contract to call `transferFrom`\n        address underlying = ICToken(cToken).underlying();\n        require(\n            IERC20(underlying).approve(cToken, amount) == true,\n            \"cmpnd-mgr-ctoken-approved-failed\"\n        );\n    }\n\n    function _transfer(\n        address CEtherAddress,\n        address cToken,\n        address recipient,\n        uint256 amount\n    ) internal {\n        if (cToken == CEtherAddress) {\n            recipient.call.value(amount)(\"\");\n        } else {\n            require(\n                IERC20(ICToken(cToken).underlying()).transfer(\n                    recipient,\n                    amount\n                ),\n                \"cmpnd-mgr-transfer-failed\"\n            );\n        }\n    }\n\n    function _repayBorrow(address CEtherAddress, address cToken, uint256 amount)\n        internal\n    {\n        if (cToken == CEtherAddress) {\n            ICEther(cToken).repayBorrow.value(amount)();\n        } else {\n            _approve(cToken, amount);\n            require(\n                ICToken(cToken).repayBorrow(amount) == 0,\n                \"cmpnd-mgr-ctoken-repay-failed\"\n            );\n        }\n    }\n\n    function _redeemUnderlying(address cToken, uint256 redeemTokens) internal {\n        uint a = ICToken(cToken).redeemUnderlying(redeemTokens);\n        require(\n            a == 0,\n            \"cmpnd-mgr-ctoken-redeem-underlying-failed\"\n        );\n    }\n\n    function _repayDebt(address CEtherAddress, address cToken, uint256 amount)\n        internal\n    {\n        // Always assume we have enough ETH to repay debt\n        if (cToken != CEtherAddress) {\n            address underlying = ICToken(cToken).underlying();\n\n            // Get ETH needed to get ERC20\n            uint256 ethAmount = _getEthToTokenOutput(underlying, amount);\n\n            // Convert ETH to token\n            _ethToToken(underlying, ethAmount);\n        }\n\n        _repayBorrow(CEtherAddress, cToken, amount);\n    }\n\n    function _retrieveCollateral(\n        address CEtherAddress,\n        address cToken,\n        uint256 amount\n    ) internal returns (uint256) {\n        // Redeems token\n        _redeemUnderlying(cToken, amount);\n\n        if (cToken == CEtherAddress) {\n            return amount;\n        }\n\n        address underlying = ICToken(cToken).underlying();\n        return _tokenToEth(underlying, amount);\n    }\n\n    function exitPositionsPostLoan(\n        uint256 _amount,\n        uint256 _fee,\n        uint256 _protocolFee,\n        bytes calldata _params\n    ) external {\n        // We should now have funds\n        ExitPositionCalldata memory epCalldata = abi.decode(\n            _params,\n            (ExitPositionCalldata)\n        );\n\n        AddressRegistry addressRegistry = AddressRegistry(\n            epCalldata.addressRegistryAddress\n        );\n        address CEtherAddress = addressRegistry.CEtherAddress();\n\n        // Repay debt and retrieve collateral\n        for (uint256 i = 0; i < epCalldata.debtMarket.length; i++) {\n            _repayDebt(\n                CEtherAddress,\n                epCalldata.debtMarket[i].cToken,\n                epCalldata.debtMarket[i].amount\n            );\n        }\n\n        for (uint256 i = 0; i < epCalldata.collateralMarket.length; i++) {\n            _retrieveCollateral(\n                CEtherAddress,\n                epCalldata.collateralMarket[i].cToken,\n                epCalldata.collateralMarket[i].amount\n            );\n        }\n\n        // Repays (ETH - fees) back to exitAddress\n        epCalldata.exitUserAddress.call.value(\n            address(this).balance.sub(_amount).sub(_fee).sub(_protocolFee)\n        )(\"\");\n    }\n\n    function exitPositions(\n        uint256 totalEthDebtAmount,\n        address dedgeExitManagerAddress,\n        address payable dacProxyAddress,\n        address addressRegistryAddress,\n        bytes calldata executeOperationCalldataParams\n    ) external {\n        AddressRegistry addressRegistry = AddressRegistry(\n            addressRegistryAddress\n        );\n\n        // Injects target address into calldataParams\n        bytes memory addressAndExecuteOperationCalldataParams = abi\n            .encodePacked(\n            abi.encode(dedgeExitManagerAddress),\n            executeOperationCalldataParams\n        );\n\n        ILendingPool lendingPool = ILendingPool(\n            ILendingPoolAddressesProvider(\n                addressRegistry.AaveLendingPoolAddressProviderAddress()\n            )\n                .getLendingPool()\n        );\n\n        // Approve lendingPool to call proxy\n        _proxyGuardPermit(dacProxyAddress, address(lendingPool));\n\n        // 3. Flashloan ETH with relevant data\n        lendingPool.flashLoan(\n            dacProxyAddress,\n            addressRegistry.AaveEthAddress(),\n            totalEthDebtAmount,\n            addressAndExecuteOperationCalldataParams\n        );\n\n        // Forbids lendingPool to call proxy\n        _proxyGuardForbid(dacProxyAddress, address(lendingPool));\n    }\n}\n",
  "sourcePath": "/home/kendrick/Development/Ethereum/dedge/packages/smart-contracts/src/managers/DedgeExitManager.sol",
  "compiler": {
    "name": "solc",
    "version": "0.5.16+commit.9c3226ce.Emscripten.clang"
  },
  "schemaVersion": "3.0.23",
  "updatedAt": "2020-04-09T11:15:25.280Z",
  "devdoc": {
    "methods": {}
  },
  "userdoc": {
    "methods": {}
  }
}