{
  "contractName": "DedgeExitManager",
  "abi": [
    {
      "inputs": [],
      "payable": false,
      "stateMutability": "nonpayable",
      "type": "constructor"
    },
    {
      "payable": true,
      "stateMutability": "payable",
      "type": "fallback"
    },
    {
      "constant": false,
      "inputs": [
        {
          "internalType": "address",
          "name": "cToken",
          "type": "address"
        },
        {
          "internalType": "uint256",
          "name": "amount",
          "type": "uint256"
        }
      ],
      "name": "_approve",
      "outputs": [],
      "payable": false,
      "stateMutability": "nonpayable",
      "type": "function"
    },
    {
      "constant": false,
      "inputs": [
        {
          "internalType": "uint256",
          "name": "_amount",
          "type": "uint256"
        },
        {
          "internalType": "uint256",
          "name": "_fee",
          "type": "uint256"
        },
        {
          "internalType": "uint256",
          "name": "_protocolFee",
          "type": "uint256"
        },
        {
          "internalType": "bytes",
          "name": "_params",
          "type": "bytes"
        }
      ],
      "name": "exitPositionsPostLoan",
      "outputs": [],
      "payable": false,
      "stateMutability": "nonpayable",
      "type": "function"
    },
    {
      "constant": false,
      "inputs": [
        {
          "internalType": "uint256",
          "name": "totalEthDebtAmount",
          "type": "uint256"
        },
        {
          "internalType": "address",
          "name": "dedgeExitManagerAddress",
          "type": "address"
        },
        {
          "internalType": "address payable",
          "name": "dacProxyAddress",
          "type": "address"
        },
        {
          "internalType": "address",
          "name": "addressRegistryAddress",
          "type": "address"
        },
        {
          "internalType": "bytes",
          "name": "executeOperationCalldataParams",
          "type": "bytes"
        }
      ],
      "name": "exitPositions",
      "outputs": [],
      "payable": false,
      "stateMutability": "nonpayable",
      "type": "function"
    }
  ],
  "bytecode": "0x608060405234801561001057600080fd5b50611e9a806100206000396000f3fe6080604052600436106100345760003560e01c8063642c3dfa146100365780636889dfe11461005f5780637b7d722514610088575b005b34801561004257600080fd5b5061005d60048036036100589190810190611706565b6100b1565b005b34801561006b57600080fd5b5061008660048036036100819190810190611798565b610309565b005b34801561009457600080fd5b506100af60048036036100aa91908101906115e5565b6104df565b005b60008390506060866040516020016100c99190611a57565b60405160208183030381529060405284846040516020016100ec93929190611a1c565b604051602081830303815290604052905060008273ffffffffffffffffffffffffffffffffffffffff16633f6dc33b6040518163ffffffff1660e01b815260040160206040518083038186803b15801561014557600080fd5b505afa158015610159573d6000803e3d6000fd5b505050506040513d601f19601f8201168201806040525061017d91908101906115bc565b73ffffffffffffffffffffffffffffffffffffffff16630261bf8b6040518163ffffffff1660e01b815260040160206040518083038186803b1580156101c257600080fd5b505afa1580156101d6573d6000803e3d6000fd5b505050506040513d601f19601f820116820180604052506101fa91908101906115bc565b90506102068782610639565b8073ffffffffffffffffffffffffffffffffffffffff16635cffe9de888573ffffffffffffffffffffffffffffffffffffffff166356cc94a26040518163ffffffff1660e01b815260040160206040518083038186803b15801561026957600080fd5b505afa15801561027d573d6000803e3d6000fd5b505050506040513d601f19601f820116820180604052506102a191908101906115bc565b8c866040518563ffffffff1660e01b81526004016102c29493929190611a8d565b600060405180830381600087803b1580156102dc57600080fd5b505af11580156102f0573d6000803e3d6000fd5b505050506102fe878261083b565b505050505050505050565b61031161134f565b8282610320919081019061169c565b90506000816020015173ffffffffffffffffffffffffffffffffffffffff1663744d27126040518163ffffffff1660e01b815260040160206040518083038186803b15801561036e57600080fd5b505afa158015610382573d6000803e3d6000fd5b505050506040513d601f19601f820116820180604052506103a691908101906115bc565b905060008090505b8260400151518110156103e9576103dc82846040015183815181106103cf57fe5b6020026020010151610a3d565b80806001019150506103ae565b50600080600090505b83606001515181101561043157610420838560600151838151811061041357fe5b6020026020010151610bad565b8201915080806001019150506103f2565b50826000015173ffffffffffffffffffffffffffffffffffffffff16610484876104768a6104688d87610d1990919063ffffffff16565b610d1990919063ffffffff16565b610d1990919063ffffffff16565b60405161049090611a42565b60006040518083038185875af1925050503d80600081146104cd576040519150601f19603f3d011682016040523d82523d6000602084013e6104d2565b606091505b5050505050505050505050565b60008273ffffffffffffffffffffffffffffffffffffffff16636f307dc36040518163ffffffff1660e01b815260040160206040518083038186803b15801561052757600080fd5b505afa15801561053b573d6000803e3d6000fd5b505050506040513d601f19601f8201168201806040525061055f91908101906115bc565b9050600115158173ffffffffffffffffffffffffffffffffffffffff1663095ea7b385856040518363ffffffff1660e01b81526004016105a0929190611ad9565b602060405180830381600087803b1580156105ba57600080fd5b505af11580156105ce573d6000803e3d6000fd5b505050506040513d601f19601f820116820180604052506105f29190810190611621565b151514610634576040517f08c379a000000000000000000000000000000000000000000000000000000000815260040161062b90611b9b565b60405180910390fd5b505050565b60008273ffffffffffffffffffffffffffffffffffffffff1663bf7e214f6040518163ffffffff1660e01b815260040160206040518083038186803b15801561068157600080fd5b505afa158015610695573d6000803e3d6000fd5b505050506040513d601f19601f820116820180604052506106b99190810190611673565b90508073ffffffffffffffffffffffffffffffffffffffff1663f0217ce58360601b6bffffffffffffffffffffffff19168373ffffffffffffffffffffffffffffffffffffffff1663a8542f666040518163ffffffff1660e01b815260040160206040518083038186803b15801561073057600080fd5b505afa158015610744573d6000803e3d6000fd5b505050506040513d601f19601f82011682018060405250610768919081019061164a565b8473ffffffffffffffffffffffffffffffffffffffff1663a8542f666040518163ffffffff1660e01b815260040160206040518083038186803b1580156107ae57600080fd5b505afa1580156107c2573d6000803e3d6000fd5b505050506040513d601f19601f820116820180604052506107e6919081019061164a565b6040518463ffffffff1660e01b815260040161080493929190611b02565b600060405180830381600087803b15801561081e57600080fd5b505af1158015610832573d6000803e3d6000fd5b50505050505050565b60008273ffffffffffffffffffffffffffffffffffffffff1663bf7e214f6040518163ffffffff1660e01b815260040160206040518083038186803b15801561088357600080fd5b505afa158015610897573d6000803e3d6000fd5b505050506040513d601f19601f820116820180604052506108bb9190810190611673565b90508073ffffffffffffffffffffffffffffffffffffffff166379d88d878360601b6bffffffffffffffffffffffff19168373ffffffffffffffffffffffffffffffffffffffff1663a8542f666040518163ffffffff1660e01b815260040160206040518083038186803b15801561093257600080fd5b505afa158015610946573d6000803e3d6000fd5b505050506040513d601f19601f8201168201806040525061096a919081019061164a565b8473ffffffffffffffffffffffffffffffffffffffff1663a8542f666040518163ffffffff1660e01b815260040160206040518083038186803b1580156109b057600080fd5b505afa1580156109c4573d6000803e3d6000fd5b505050506040513d601f19601f820116820180604052506109e8919081019061164a565b6040518463ffffffff1660e01b8152600401610a0693929190611b02565b600060405180830381600087803b158015610a2057600080fd5b505af1158015610a34573d6000803e3d6000fd5b50505050505050565b60008173ffffffffffffffffffffffffffffffffffffffff166317bfdfbc306040518263ffffffff1660e01b8152600401610a789190611a72565b602060405180830381600087803b158015610a9257600080fd5b505af1158015610aa6573d6000803e3d6000fd5b505050506040513d601f19601f82011682018060405250610aca91908101906116dd565b90508273ffffffffffffffffffffffffffffffffffffffff168273ffffffffffffffffffffffffffffffffffffffff1614610b9d5760008273ffffffffffffffffffffffffffffffffffffffff16636f307dc36040518163ffffffff1660e01b815260040160206040518083038186803b158015610b4757600080fd5b505afa158015610b5b573d6000803e3d6000fd5b505050506040513d601f19601f82011682018060405250610b7f91908101906115bc565b90506000610b8d8284610d63565b9050610b998282610dfe565b5050505b610ba8838383610e14565b505050565b6000808273ffffffffffffffffffffffffffffffffffffffff16633af9e669306040518263ffffffff1660e01b8152600401610be99190611a72565b60206040518083038186803b158015610c0157600080fd5b505afa158015610c15573d6000803e3d6000fd5b505050506040513d601f19601f82011682018060405250610c3991908101906116dd565b9050610c458382610f8b565b8373ffffffffffffffffffffffffffffffffffffffff168373ffffffffffffffffffffffffffffffffffffffff161415610c825780915050610d13565b60008373ffffffffffffffffffffffffffffffffffffffff16636f307dc36040518163ffffffff1660e01b815260040160206040518083038186803b158015610cca57600080fd5b505afa158015610cde573d6000803e3d6000fd5b505050506040513d601f19601f82011682018060405250610d0291908101906115bc565b9050610d0e818361105c565b925050505b92915050565b6000610d5b83836040518060400160405280601e81526020017f536166654d6174683a207375627472616374696f6e206f766572666c6f770000815250611072565b905092915050565b6000610d6e836110cd565b73ffffffffffffffffffffffffffffffffffffffff166359e94862836040518263ffffffff1660e01b8152600401610da69190611bbb565b60206040518083038186803b158015610dbe57600080fd5b505afa158015610dd2573d6000803e3d6000fd5b505050506040513d601f19601f82011682018060405250610df691908101906116dd565b905092915050565b6000610e0c83836001611173565b905092915050565b8273ffffffffffffffffffffffffffffffffffffffff168273ffffffffffffffffffffffffffffffffffffffff161415610eae578173ffffffffffffffffffffffffffffffffffffffff16634e4d9fea826040518263ffffffff1660e01b81526004016000604051808303818588803b158015610e9057600080fd5b505af1158015610ea4573d6000803e3d6000fd5b5050505050610f86565b610eb882826104df565b60008273ffffffffffffffffffffffffffffffffffffffff16630e752702836040518263ffffffff1660e01b8152600401610ef39190611bbb565b602060405180830381600087803b158015610f0d57600080fd5b505af1158015610f21573d6000803e3d6000fd5b505050506040513d601f19601f82011682018060405250610f4591908101906116dd565b14610f85576040517f08c379a0000000000000000000000000000000000000000000000000000000008152600401610f7c90611b7b565b60405180910390fd5b5b505050565b60008273ffffffffffffffffffffffffffffffffffffffff1663852a12e3836040518263ffffffff1660e01b8152600401610fc69190611bbb565b602060405180830381600087803b158015610fe057600080fd5b505af1158015610ff4573d6000803e3d6000fd5b505050506040513d601f19601f8201168201806040525061101891908101906116dd565b14611058576040517f08c379a000000000000000000000000000000000000000000000000000000000815260040161104f90611b5b565b60405180910390fd5b5050565b600061106a83836001611217565b905092915050565b60008383111582906110ba576040517f08c379a00000000000000000000000000000000000000000000000000000000081526004016110b19190611b39565b60405180910390fd5b5060008385039050809150509392505050565b600073c0a47dfe034b400b47bdad5fecda2621de6c4d9573ffffffffffffffffffffffffffffffffffffffff166306f2bf62836040518263ffffffff1660e01b815260040161111c9190611a57565b60206040518083038186803b15801561113457600080fd5b505afa158015611148573d6000803e3d6000fd5b505050506040513d601f19601f8201168201806040525061116c91908101906115bc565b9050919050565b600061117e846110cd565b73ffffffffffffffffffffffffffffffffffffffff1663f39b5b9b8484603c42016040518463ffffffff1660e01b81526004016111bc929190611bd6565b6020604051808303818588803b1580156111d557600080fd5b505af11580156111e9573d6000803e3d6000fd5b50505050506040513d601f19601f8201168201806040525061120e91908101906116dd565b90509392505050565b600080611223856110cd565b90508473ffffffffffffffffffffffffffffffffffffffff1663095ea7b382866040518363ffffffff1660e01b8152600401611260929190611ad9565b602060405180830381600087803b15801561127a57600080fd5b505af115801561128e573d6000803e3d6000fd5b505050506040513d601f19601f820116820180604052506112b29190810190611621565b508073ffffffffffffffffffffffffffffffffffffffff166395e3c50b8585603c42016040518463ffffffff1660e01b81526004016112f393929190611bff565b602060405180830381600087803b15801561130d57600080fd5b505af1158015611321573d6000803e3d6000fd5b505050506040513d601f19601f8201168201806040525061134591908101906116dd565b9150509392505050565b6040518060800160405280600073ffffffffffffffffffffffffffffffffffffffff168152602001600073ffffffffffffffffffffffffffffffffffffffff16815260200160608152602001606081525090565b6000813590506113b281611dcd565b92915050565b6000815190506113c781611dcd565b92915050565b6000813590506113dc81611de4565b92915050565b600082601f8301126113f357600080fd5b813561140661140182611c63565b611c36565b9150818183526020840193506020810190508385602084028201111561142b57600080fd5b60005b8381101561145b578161144188826113a3565b84526020840193506020830192505060018101905061142e565b5050505092915050565b60008151905061147481611dfb565b92915050565b60008151905061148981611e12565b92915050565b60008083601f8401126114a157600080fd5b8235905067ffffffffffffffff8111156114ba57600080fd5b6020830191508360018202830111156114d257600080fd5b9250929050565b6000815190506114e881611e29565b92915050565b60006080828403121561150057600080fd5b61150a6080611c36565b9050600061151a848285016113cd565b600083015250602061152e848285016113a3565b602083015250604082013567ffffffffffffffff81111561154e57600080fd5b61155a848285016113e2565b604083015250606082013567ffffffffffffffff81111561157a57600080fd5b611586848285016113e2565b60608301525092915050565b6000813590506115a181611e40565b92915050565b6000815190506115b681611e40565b92915050565b6000602082840312156115ce57600080fd5b60006115dc848285016113b8565b91505092915050565b600080604083850312156115f857600080fd5b6000611606858286016113a3565b925050602061161785828601611592565b9150509250929050565b60006020828403121561163357600080fd5b600061164184828501611465565b91505092915050565b60006020828403121561165c57600080fd5b600061166a8482850161147a565b91505092915050565b60006020828403121561168557600080fd5b6000611693848285016114d9565b91505092915050565b6000602082840312156116ae57600080fd5b600082013567ffffffffffffffff8111156116c857600080fd5b6116d4848285016114ee565b91505092915050565b6000602082840312156116ef57600080fd5b60006116fd848285016115a7565b91505092915050565b60008060008060008060a0878903121561171f57600080fd5b600061172d89828a01611592565b965050602061173e89828a016113a3565b955050604061174f89828a016113cd565b945050606061176089828a016113a3565b935050608087013567ffffffffffffffff81111561177d57600080fd5b61178989828a0161148f565b92509250509295509295509295565b6000806000806000608086880312156117b057600080fd5b60006117be88828901611592565b95505060206117cf88828901611592565b94505060406117e088828901611592565b935050606086013567ffffffffffffffff8111156117fd57600080fd5b6118098882890161148f565b92509250509295509295909350565b61182181611d44565b82525050565b61183081611cce565b82525050565b61183f81611cfe565b82525050565b60006118518385611cb2565b935061185e838584611d7a565b82840190509392505050565b600061187582611c8b565b61187f8185611ca1565b935061188f818560208601611d89565b61189881611dbc565b840191505092915050565b60006118ae82611c8b565b6118b88185611cb2565b93506118c8818560208601611d89565b80840191505092915050565b60006118df82611c96565b6118e98185611cbd565b93506118f9818560208601611d89565b61190281611dbc565b840191505092915050565b600061191a602983611cbd565b91507f636d706e642d6d67722d63746f6b656e2d72656465656d2d756e6465726c796960008301527f6e672d6661696c656400000000000000000000000000000000000000000000006020830152604082019050919050565b6000611980601d83611cbd565b91507f636d706e642d6d67722d63746f6b656e2d72657061792d6661696c65640000006000830152602082019050919050565b60006119c0600083611cb2565b9150600082019050919050565b60006119da602083611cbd565b91507f636d706e642d6d67722d63746f6b656e2d617070726f7665642d6661696c65646000830152602082019050919050565b611a1681611d3a565b82525050565b6000611a2882866118a3565b9150611a35828486611845565b9150819050949350505050565b6000611a4d826119b3565b9150819050919050565b6000602082019050611a6c6000830184611827565b92915050565b6000602082019050611a876000830184611818565b92915050565b6000608082019050611aa26000830187611818565b611aaf6020830186611827565b611abc6040830185611a0d565b8181036060830152611ace818461186a565b905095945050505050565b6000604082019050611aee6000830185611827565b611afb6020830184611a0d565b9392505050565b6000606082019050611b176000830186611836565b611b246020830185611836565b611b316040830184611836565b949350505050565b60006020820190508181036000830152611b5381846118d4565b905092915050565b60006020820190508181036000830152611b748161190d565b9050919050565b60006020820190508181036000830152611b9481611973565b9050919050565b60006020820190508181036000830152611bb4816119cd565b9050919050565b6000602082019050611bd06000830184611a0d565b92915050565b6000604082019050611beb6000830185611a0d565b611bf86020830184611a0d565b9392505050565b6000606082019050611c146000830186611a0d565b611c216020830185611a0d565b611c2e6040830184611a0d565b949350505050565b6000604051905081810181811067ffffffffffffffff82111715611c5957600080fd5b8060405250919050565b600067ffffffffffffffff821115611c7a57600080fd5b602082029050602081019050919050565b600081519050919050565b600081519050919050565b600082825260208201905092915050565b600081905092915050565b600082825260208201905092915050565b6000611cd982611d1a565b9050919050565b6000611ceb82611d1a565b9050919050565b60008115159050919050565b6000819050919050565b6000611d1382611cce565b9050919050565b600073ffffffffffffffffffffffffffffffffffffffff82169050919050565b6000819050919050565b6000611d4f82611d56565b9050919050565b6000611d6182611d68565b9050919050565b6000611d7382611d1a565b9050919050565b82818337600083830152505050565b60005b83811015611da7578082015181840152602081019050611d8c565b83811115611db6576000848401525b50505050565b6000601f19601f8301169050919050565b611dd681611cce565b8114611de157600080fd5b50565b611ded81611ce0565b8114611df857600080fd5b50565b611e0481611cf2565b8114611e0f57600080fd5b50565b611e1b81611cfe565b8114611e2657600080fd5b50565b611e3281611d08565b8114611e3d57600080fd5b50565b611e4981611d3a565b8114611e5457600080fd5b5056fea365627a7a72315820d9014c58aec1efc41f18ede3b3548036845eb56120c91943cfab366f6542267c6c6578706572696d656e74616cf564736f6c63430005100040",
  "source": "/*\n    A manager to exit all positions (collateral and debt)\n*/\n\npragma solidity 0.5.16;\npragma experimental ABIEncoderV2;\n\nimport \"../interfaces/IERC20.sol\";\n\nimport \"../interfaces/compound/IComptroller.sol\";\nimport \"../interfaces/compound/ICEther.sol\";\nimport \"../interfaces/compound/ICToken.sol\";\n\nimport \"../interfaces/aave/ILendingPoolAddressesProvider.sol\";\nimport \"../interfaces/aave/ILendingPool.sol\";\nimport \"../interfaces/aave/ILendingPoolParametersProvider.sol\";\n\nimport \"../lib/uniswap/UniswapLiteBase.sol\";\nimport \"../lib/dapphub/Guard.sol\";\n\nimport \"../registries/AddressRegistry.sol\";\n\nimport \"../proxies/DACProxy.sol\";\n\nimport \"@openzeppelin/contracts/math/SafeMath.sol\";\n\ncontract DedgeExitManager is UniswapLiteBase {\n    using SafeMath for uint;\n\n    function () external payable {}\n\n    constructor() public {}\n\n    struct ExitPositionCalldata {\n        address payable exitUserAddress;\n        address addressRegistryAddress;\n        address[] debtCTokens;\n        address[] collateralCTokens;\n    }\n\n    function _proxyGuardPermit(address payable proxyAddress, address src) internal {\n        address g = address(DACProxy(proxyAddress).authority());\n\n        DSGuard(g).permit(\n            bytes32(bytes20(address(src))),\n            DSGuard(g).ANY(),\n            DSGuard(g).ANY()\n        );\n    }\n\n    function _proxyGuardForbid(address payable proxyAddress, address src) internal {\n        address g = address(DACProxy(proxyAddress).authority());\n\n        DSGuard(g).forbid(\n            bytes32(bytes20(address(src))),\n            DSGuard(g).ANY(),\n            DSGuard(g).ANY()\n        );\n    }\n\n    function _approve(\n        address cToken,\n        uint amount\n    ) public {\n        // Approves CToken contract to call `transferFrom`\n        address underlying = ICToken(cToken).underlying();\n        require(\n            IERC20(underlying).approve(cToken, amount) == true,\n            \"cmpnd-mgr-ctoken-approved-failed\"\n        );\n    }\n\n    function _transfer(\n        address CEtherAddress,\n        address cToken,\n        address recipient,\n        uint amount\n    ) internal {\n        if (cToken == CEtherAddress) {\n            recipient.call.value(amount)(\"\");\n        } else {\n            require(\n                IERC20(ICToken(cToken).underlying()).transfer(recipient, amount),\n                \"cmpnd-mgr-transfer-failed\"\n            );\n        }\n    }\n\n    function _repayBorrow(address CEtherAddress, address cToken, uint amount) internal {\n        if (cToken == CEtherAddress) {\n            ICEther(cToken).repayBorrow.value(amount)();\n        } else {\n            _approve(cToken, amount);\n            require(ICToken(cToken).repayBorrow(amount) == 0, \"cmpnd-mgr-ctoken-repay-failed\");\n        }\n    }\n\n    function _redeemUnderlying(address cToken, uint redeemTokens) internal {\n        require(ICToken(cToken).redeemUnderlying(redeemTokens) == 0, \"cmpnd-mgr-ctoken-redeem-underlying-failed\");\n    }\n\n    function _repayDebt(address CEtherAddress, address cToken) internal {\n        // How much have we borrowed\n        uint borrowedAmount = ICToken(cToken).borrowBalanceCurrent(address(this));\n\n        // Always assume we have enough ETH to repay debt\n        if (cToken != CEtherAddress) {\n            address underlying = ICToken(cToken).underlying();\n\n            // Get ETH needed to get ERC20\n            uint ethAmount = _getEthToTokenOutput(underlying, borrowedAmount);\n\n            // Convert ETH to token\n            _ethToToken(underlying, ethAmount);\n        }\n\n        _repayBorrow(CEtherAddress, cToken, borrowedAmount);\n    }\n\n    function _retrieveCollateral(address CEtherAddress, address cToken) internal returns(uint) {\n        // Supplied amount\n        uint suppliedAmount = ICToken(cToken).balanceOfUnderlying(address(this));\n\n        // Redeems token\n        _redeemUnderlying(cToken, suppliedAmount);\n\n        if (cToken == CEtherAddress) {\n            return suppliedAmount;\n        }\n\n        address underlying = ICToken(cToken).underlying();\n        return _tokenToEth(underlying, suppliedAmount);\n    }\n\n    function exitPositionsPostLoan(\n        uint _amount,\n        uint _fee,\n        uint _protocolFee,\n        bytes calldata _params\n    ) external {\n        // We should now have funds\n        ExitPositionCalldata memory epCalldata = abi.decode(_params, (ExitPositionCalldata));\n        \n        address CEtherAddress = AddressRegistry(epCalldata.addressRegistryAddress).CEtherAddress();\n\n        // Repay debt and retrieve collateral\n        for (uint i = 0; i < epCalldata.debtCTokens.length; i++) {\n            _repayDebt(CEtherAddress, epCalldata.debtCTokens[i]);\n        }\n        uint totalEthAmount;\n        for (uint i = 0; i < epCalldata.collateralCTokens.length; i++) {\n            totalEthAmount += _retrieveCollateral(CEtherAddress, epCalldata.collateralCTokens[i]);\n        }\n\n        // Repays ETH - fees back to exit address\n        epCalldata.exitUserAddress.call.value(totalEthAmount.sub(_amount).sub(_fee).sub(_protocolFee))(\"\");\n    }\n\n    function exitPositions(\n        uint totalEthDebtAmount,\n        address dedgeExitManagerAddress,\n        address payable dacProxyAddress,\n        address addressRegistryAddress,\n        bytes calldata executeOperationCalldataParams\n    ) external {\n        AddressRegistry addressRegistry = AddressRegistry(addressRegistryAddress);\n\n        // Injects target address into calldataParams\n        bytes memory addressAndExecuteOperationCalldataParams = abi.encodePacked(\n            abi.encode(dedgeExitManagerAddress),\n            executeOperationCalldataParams\n        );\n\n        ILendingPool lendingPool = ILendingPool(\n            ILendingPoolAddressesProvider(\n                addressRegistry.AaveLendingPoolAddressProviderAddress()\n            ).getLendingPool()\n        );\n\n        // Approve lendingPool to call proxy\n        _proxyGuardPermit(dacProxyAddress, address(lendingPool));\n\n        // 3. Flashloan ETH with relevant data\n        lendingPool.flashLoan(\n            dacProxyAddress,\n            addressRegistry.AaveEthAddress(),\n            totalEthDebtAmount,\n            addressAndExecuteOperationCalldataParams\n        );\n\n        // Forbids lendingPool to call proxy\n        _proxyGuardForbid(dacProxyAddress, address(lendingPool));\n    }\n}",
  "sourcePath": "/home/kendrick/Development/Ethereum/dedge/packages/smart-contracts/src/managers/DedgeExitManager.sol",
  "compiler": {
    "name": "solc",
    "version": "0.5.16+commit.9c3226ce.Emscripten.clang"
  },
  "schemaVersion": "3.0.23",
  "updatedAt": "2020-04-01T07:00:05.823Z",
  "networkType": "ethereum",
  "devdoc": {
    "methods": {}
  },
  "userdoc": {
    "methods": {}
  }
}