{
  "contractName": "DedgeMakerManager",
  "abi": [
    {
      "inputs": [],
      "payable": false,
      "stateMutability": "nonpayable",
      "type": "constructor"
    },
    {
      "payable": true,
      "stateMutability": "payable",
      "type": "fallback"
    },
    {
      "constant": false,
      "inputs": [
        {
          "internalType": "address",
          "name": "manager",
          "type": "address"
        },
        {
          "internalType": "uint256",
          "name": "cdp",
          "type": "uint256"
        },
        {
          "internalType": "address",
          "name": "usr",
          "type": "address"
        },
        {
          "internalType": "uint256",
          "name": "ok",
          "type": "uint256"
        }
      ],
      "name": "cdpAllow",
      "outputs": [],
      "payable": false,
      "stateMutability": "nonpayable",
      "type": "function"
    },
    {
      "constant": false,
      "inputs": [
        {
          "internalType": "address",
          "name": "apt",
          "type": "address"
        },
        {
          "internalType": "address",
          "name": "urn",
          "type": "address"
        },
        {
          "internalType": "uint256",
          "name": "wad",
          "type": "uint256"
        }
      ],
      "name": "daiJoin_join",
      "outputs": [],
      "payable": false,
      "stateMutability": "nonpayable",
      "type": "function"
    },
    {
      "constant": false,
      "inputs": [
        {
          "internalType": "address",
          "name": "manager",
          "type": "address"
        },
        {
          "internalType": "uint256",
          "name": "cdp",
          "type": "uint256"
        },
        {
          "internalType": "address",
          "name": "dst",
          "type": "address"
        },
        {
          "internalType": "uint256",
          "name": "wad",
          "type": "uint256"
        }
      ],
      "name": "flux",
      "outputs": [],
      "payable": false,
      "stateMutability": "nonpayable",
      "type": "function"
    },
    {
      "constant": false,
      "inputs": [
        {
          "internalType": "address",
          "name": "manager",
          "type": "address"
        },
        {
          "internalType": "uint256",
          "name": "cdp",
          "type": "uint256"
        },
        {
          "internalType": "int256",
          "name": "dink",
          "type": "int256"
        },
        {
          "internalType": "int256",
          "name": "dart",
          "type": "int256"
        }
      ],
      "name": "frob",
      "outputs": [],
      "payable": false,
      "stateMutability": "nonpayable",
      "type": "function"
    },
    {
      "constant": false,
      "inputs": [
        {
          "internalType": "address",
          "name": "manager",
          "type": "address"
        },
        {
          "internalType": "bytes32",
          "name": "ilk",
          "type": "bytes32"
        },
        {
          "internalType": "address",
          "name": "usr",
          "type": "address"
        }
      ],
      "name": "open",
      "outputs": [
        {
          "internalType": "uint256",
          "name": "cdp",
          "type": "uint256"
        }
      ],
      "payable": false,
      "stateMutability": "nonpayable",
      "type": "function"
    },
    {
      "constant": false,
      "inputs": [
        {
          "internalType": "address",
          "name": "manager",
          "type": "address"
        },
        {
          "internalType": "address",
          "name": "ethJoin",
          "type": "address"
        },
        {
          "internalType": "address",
          "name": "daiJoin",
          "type": "address"
        },
        {
          "internalType": "uint256",
          "name": "cdp",
          "type": "uint256"
        },
        {
          "internalType": "uint256",
          "name": "wadC",
          "type": "uint256"
        }
      ],
      "name": "wipeAllAndFreeETH",
      "outputs": [],
      "payable": false,
      "stateMutability": "nonpayable",
      "type": "function"
    },
    {
      "constant": false,
      "inputs": [
        {
          "internalType": "address",
          "name": "manager",
          "type": "address"
        },
        {
          "internalType": "address",
          "name": "gemJoin",
          "type": "address"
        },
        {
          "internalType": "address",
          "name": "daiJoin",
          "type": "address"
        },
        {
          "internalType": "uint256",
          "name": "cdp",
          "type": "uint256"
        },
        {
          "internalType": "uint256",
          "name": "wadC",
          "type": "uint256"
        }
      ],
      "name": "wipeAllAndFreeGem",
      "outputs": [],
      "payable": false,
      "stateMutability": "nonpayable",
      "type": "function"
    },
    {
      "constant": true,
      "inputs": [
        {
          "internalType": "address",
          "name": "manager",
          "type": "address"
        },
        {
          "internalType": "uint256",
          "name": "cdp",
          "type": "uint256"
        }
      ],
      "name": "getVaultDebt",
      "outputs": [
        {
          "internalType": "uint256",
          "name": "debt",
          "type": "uint256"
        }
      ],
      "payable": false,
      "stateMutability": "view",
      "type": "function"
    },
    {
      "constant": true,
      "inputs": [
        {
          "internalType": "address",
          "name": "manager",
          "type": "address"
        },
        {
          "internalType": "uint256",
          "name": "cdp",
          "type": "uint256"
        }
      ],
      "name": "getVaultCollateral",
      "outputs": [
        {
          "internalType": "uint256",
          "name": "ink",
          "type": "uint256"
        }
      ],
      "payable": false,
      "stateMutability": "view",
      "type": "function"
    },
    {
      "constant": false,
      "inputs": [
        {
          "internalType": "uint256",
          "name": "_amount",
          "type": "uint256"
        },
        {
          "internalType": "uint256",
          "name": "_aaveFee",
          "type": "uint256"
        },
        {
          "internalType": "uint256",
          "name": "_protocolFee",
          "type": "uint256"
        },
        {
          "internalType": "bytes",
          "name": "_data",
          "type": "bytes"
        }
      ],
      "name": "importMakerVaultPostLoan",
      "outputs": [],
      "payable": false,
      "stateMutability": "nonpayable",
      "type": "function"
    },
    {
      "constant": false,
      "inputs": [
        {
          "internalType": "address",
          "name": "dedgeMakerManagerAddress",
          "type": "address"
        },
        {
          "internalType": "address payable",
          "name": "dacProxyAddress",
          "type": "address"
        },
        {
          "internalType": "address",
          "name": "addressRegistryAddress",
          "type": "address"
        },
        {
          "internalType": "uint256",
          "name": "cdpId",
          "type": "uint256"
        },
        {
          "internalType": "bytes",
          "name": "executeOperationCalldataParams",
          "type": "bytes"
        }
      ],
      "name": "importMakerVault",
      "outputs": [],
      "payable": false,
      "stateMutability": "nonpayable",
      "type": "function"
    }
  ],
  "bytecode": "0x608060405234801561001057600080fd5b506139f8806100206000396000f3fe60806040526004361061009c5760003560e01c80636d68b70b116100645780636d68b70b146101a757806396e8d72c146101d0578063ba727a95146101f9578063bcd6deec14610222578063c56167c61461024b578063ddd927b2146102745761009c565b8063131fb7101461009e5780631558b048146100c75780633edec14e146100f057806361d2d7dc1461012d5780636aa3ee111461016a575b005b3480156100aa57600080fd5b506100c560048036036100c09190810190612c0a565b61029d565b005b3480156100d357600080fd5b506100ee60048036036100e99190810190612ded565b61069b565b005b3480156100fc57600080fd5b5061011760048036036101129190810190612db1565b610710565b604051610124919061366f565b60405180910390f35b34801561013957600080fd5b50610154600480360361014f9190810190612db1565b610952565b604051610161919061366f565b60405180910390f35b34801561017657600080fd5b50610191600480360361018c9190810190612d62565b610b87565b60405161019e919061366f565b60405180910390f35b3480156101b357600080fd5b506101ce60048036036101c99190810190612c9c565b610c1f565b005b3480156101dc57600080fd5b506101f760048036036101f29190810190612e50565b610fe8565b005b34801561020557600080fd5b50610220600480360361021b9190810190612ded565b61105d565b005b34801561022e57600080fd5b5061024960048036036102449190810190612c9c565b6110d2565b005b34801561025757600080fd5b50610272600480360361026d9190810190612d13565b6113c0565b005b34801561028057600080fd5b5061029b60048036036102969190810190613026565b61151e565b005b600084905060008173ffffffffffffffffffffffffffffffffffffffff16635ed75a2f6040518163ffffffff1660e01b815260040160206040518083038186803b1580156102ea57600080fd5b505afa1580156102fe573d6000803e3d6000fd5b505050506040513d601f19601f820116820180604052506103229190810190612be1565b905060006103308287610710565b90506060896040516020016103459190613462565b60405160208183030381529060405286866040516020016103689392919061343c565b604051602081830303815290604052905060008473ffffffffffffffffffffffffffffffffffffffff16633f6dc33b6040518163ffffffff1660e01b815260040160206040518083038186803b1580156103c157600080fd5b505afa1580156103d5573d6000803e3d6000fd5b505050506040513d601f19601f820116820180604052506103f99190810190612be1565b73ffffffffffffffffffffffffffffffffffffffff16630261bf8b6040518163ffffffff1660e01b815260040160206040518083038186803b15801561043e57600080fd5b505afa158015610452573d6000803e3d6000fd5b505050506040513d601f19601f820116820180604052506104769190810190612be1565b90506105028573ffffffffffffffffffffffffffffffffffffffff16635ed75a2f6040518163ffffffff1660e01b815260040160206040518083038186803b1580156104c157600080fd5b505afa1580156104d5573d6000803e3d6000fd5b505050506040513d601f19601f820116820180604052506104f99190810190612be1565b898d600161105d565b61050c8a826120b7565b8073ffffffffffffffffffffffffffffffffffffffff16635cffe9de8b8773ffffffffffffffffffffffffffffffffffffffff1663ee2a94116040518163ffffffff1660e01b815260040160206040518083038186803b15801561056f57600080fd5b505afa158015610583573d6000803e3d6000fd5b505050506040513d601f19601f820116820180604052506105a79190810190612be1565b86866040518563ffffffff1660e01b81526004016105c8949392919061347d565b600060405180830381600087803b1580156105e257600080fd5b505af11580156105f6573d6000803e3d6000fd5b505050506106048a826122b9565b61068e8573ffffffffffffffffffffffffffffffffffffffff16635ed75a2f6040518163ffffffff1660e01b815260040160206040518083038186803b15801561064d57600080fd5b505afa158015610661573d6000803e3d6000fd5b505050506040513d601f19601f820116820180604052506106859190810190612be1565b898d600061105d565b5050505050505050505050565b8373ffffffffffffffffffffffffffffffffffffffff16639bb8f8388484846040518463ffffffff1660e01b81526004016106d89392919061368a565b600060405180830381600087803b1580156106f257600080fd5b505af1158015610706573d6000803e3d6000fd5b5050505050505050565b6000808373ffffffffffffffffffffffffffffffffffffffff166336569e776040518163ffffffff1660e01b815260040160206040518083038186803b15801561075957600080fd5b505afa15801561076d573d6000803e3d6000fd5b505050506040513d601f19601f820116820180604052506107919190810190612be1565b905060008473ffffffffffffffffffffffffffffffffffffffff16632726b073856040518263ffffffff1660e01b81526004016107ce919061366f565b60206040518083038186803b1580156107e657600080fd5b505afa1580156107fa573d6000803e3d6000fd5b505050506040513d601f19601f8201168201806040525061081e9190810190612be1565b905060008573ffffffffffffffffffffffffffffffffffffffff16632c2cb9fd866040518263ffffffff1660e01b815260040161085b919061366f565b60206040518083038186803b15801561087357600080fd5b505afa158015610887573d6000803e3d6000fd5b505050506040513d601f19601f820116820180604052506108ab9190810190612f1d565b905060008673ffffffffffffffffffffffffffffffffffffffff16638161b120876040518263ffffffff1660e01b81526004016108e8919061366f565b60206040518083038186803b15801561090057600080fd5b505afa158015610914573d6000803e3d6000fd5b505050506040513d601f19601f820116820180604052506109389190810190612be1565b9050610946848285856124bb565b94505050505092915050565b6000808373ffffffffffffffffffffffffffffffffffffffff166336569e776040518163ffffffff1660e01b815260040160206040518083038186803b15801561099b57600080fd5b505afa1580156109af573d6000803e3d6000fd5b505050506040513d601f19601f820116820180604052506109d39190810190612be1565b905060008473ffffffffffffffffffffffffffffffffffffffff16632726b073856040518263ffffffff1660e01b8152600401610a10919061366f565b60206040518083038186803b158015610a2857600080fd5b505afa158015610a3c573d6000803e3d6000fd5b505050506040513d601f19601f82011682018060405250610a609190810190612be1565b905060008573ffffffffffffffffffffffffffffffffffffffff16632c2cb9fd866040518263ffffffff1660e01b8152600401610a9d919061366f565b60206040518083038186803b158015610ab557600080fd5b505afa158015610ac9573d6000803e3d6000fd5b505050506040513d601f19601f82011682018060405250610aed9190810190612f1d565b90508273ffffffffffffffffffffffffffffffffffffffff16632424be5c82846040518363ffffffff1660e01b8152600401610b2a92919061352f565b604080518083038186803b158015610b4157600080fd5b505afa158015610b55573d6000803e3d6000fd5b505050506040513d601f19601f82011682018060405250610b799190810190612fea565b508094505050505092915050565b60008373ffffffffffffffffffffffffffffffffffffffff16636090dec584846040518363ffffffff1660e01b8152600401610bc492919061352f565b602060405180830381600087803b158015610bde57600080fd5b505af1158015610bf2573d6000803e3d6000fd5b505050506040513d601f19601f82011682018060405250610c169190810190612fc1565b90509392505050565b60008573ffffffffffffffffffffffffffffffffffffffff166336569e776040518163ffffffff1660e01b815260040160206040518083038186803b158015610c6757600080fd5b505afa158015610c7b573d6000803e3d6000fd5b505050506040513d601f19601f82011682018060405250610c9f9190810190612be1565b905060008673ffffffffffffffffffffffffffffffffffffffff16632726b073856040518263ffffffff1660e01b8152600401610cdc919061366f565b60206040518083038186803b158015610cf457600080fd5b505afa158015610d08573d6000803e3d6000fd5b505050506040513d601f19601f82011682018060405250610d2c9190810190612be1565b905060008773ffffffffffffffffffffffffffffffffffffffff16632c2cb9fd866040518263ffffffff1660e01b8152600401610d69919061366f565b60206040518083038186803b158015610d8157600080fd5b505afa158015610d95573d6000803e3d6000fd5b505050506040513d601f19601f82011682018060405250610db99190810190612f1d565b905060008373ffffffffffffffffffffffffffffffffffffffff16632424be5c83856040518363ffffffff1660e01b8152600401610df892919061352f565b604080518083038186803b158015610e0f57600080fd5b505afa158015610e23573d6000803e3d6000fd5b505050506040513d601f19601f82011682018060405250610e479190810190612fea565b915050610e608784610e5b878788886124bb565b6113c0565b610e7a8987610e6e886126cd565b60000384600003610fe8565b610e868987308861069b565b8773ffffffffffffffffffffffffffffffffffffffff1663ef693bed30876040518363ffffffff1660e01b8152600401610ec19291906134c9565b600060405180830381600087803b158015610edb57600080fd5b505af1158015610eef573d6000803e3d6000fd5b505050508773ffffffffffffffffffffffffffffffffffffffff16637bd2bea76040518163ffffffff1660e01b8152600401602060405180830381600087803b158015610f3b57600080fd5b505af1158015610f4f573d6000803e3d6000fd5b505050506040513d601f19601f82011682018060405250610f739190810190612f6f565b73ffffffffffffffffffffffffffffffffffffffff16632e1a7d4d866040518263ffffffff1660e01b8152600401610fab919061366f565b600060405180830381600087803b158015610fc557600080fd5b505af1158015610fd9573d6000803e3d6000fd5b50505050505050505050505050565b8373ffffffffffffffffffffffffffffffffffffffff166345e6bdcd8484846040518463ffffffff1660e01b8152600401611025939291906136c1565b600060405180830381600087803b15801561103f57600080fd5b505af1158015611053573d6000803e3d6000fd5b5050505050505050565b8373ffffffffffffffffffffffffffffffffffffffff16630b63fb628484846040518463ffffffff1660e01b815260040161109a9392919061368a565b600060405180830381600087803b1580156110b457600080fd5b505af11580156110c8573d6000803e3d6000fd5b5050505050505050565b60008573ffffffffffffffffffffffffffffffffffffffff166336569e776040518163ffffffff1660e01b815260040160206040518083038186803b15801561111a57600080fd5b505afa15801561112e573d6000803e3d6000fd5b505050506040513d601f19601f820116820180604052506111529190810190612be1565b905060008673ffffffffffffffffffffffffffffffffffffffff16632726b073856040518263ffffffff1660e01b815260040161118f919061366f565b60206040518083038186803b1580156111a757600080fd5b505afa1580156111bb573d6000803e3d6000fd5b505050506040513d601f19601f820116820180604052506111df9190810190612be1565b905060008773ffffffffffffffffffffffffffffffffffffffff16632c2cb9fd866040518263ffffffff1660e01b815260040161121c919061366f565b60206040518083038186803b15801561123457600080fd5b505afa158015611248573d6000803e3d6000fd5b505050506040513d601f19601f8201168201806040525061126c9190810190612f1d565b905060008373ffffffffffffffffffffffffffffffffffffffff16632424be5c83856040518363ffffffff1660e01b81526004016112ab92919061352f565b604080518083038186803b1580156112c257600080fd5b505afa1580156112d6573d6000803e3d6000fd5b505050506040513d601f19601f820116820180604052506112fa9190810190612fea565b915050611313878461130e878788886124bb565b6113c0565b600061131f898761271b565b905061133b8a8861132f846126cd565b60000385600003610fe8565b6113478a88308461069b565b8873ffffffffffffffffffffffffffffffffffffffff1663ef693bed30886040518363ffffffff1660e01b81526004016113829291906134c9565b600060405180830381600087803b15801561139c57600080fd5b505af11580156113b0573d6000803e3d6000fd5b5050505050505050505050505050565b8273ffffffffffffffffffffffffffffffffffffffff1663f4b9fa756040518163ffffffff1660e01b8152600401602060405180830381600087803b15801561140857600080fd5b505af115801561141c573d6000803e3d6000fd5b505050506040513d601f19601f820116820180604052506114409190810190612f6f565b73ffffffffffffffffffffffffffffffffffffffff1663095ea7b384836040518363ffffffff1660e01b815260040161147a9291906134c9565b600060405180830381600087803b15801561149457600080fd5b505af11580156114a8573d6000803e3d6000fd5b505050508273ffffffffffffffffffffffffffffffffffffffff16633b4da69f83836040518363ffffffff1660e01b81526004016114e79291906134c9565b600060405180830381600087803b15801561150157600080fd5b505af1158015611515573d6000803e3d6000fd5b50505050505050565b60008385870101905061152f61291c565b838361153e9190810190612f98565b905060008160000151905060008173ffffffffffffffffffffffffffffffffffffffff16635ed75a2f6040518163ffffffff1660e01b815260040160206040518083038186803b15801561159157600080fd5b505afa1580156115a5573d6000803e3d6000fd5b505050506040513d601f19601f820116820180604052506115c99190810190612be1565b905060008360400151905060006115e4838660200151610952565b9050606060026040519080825280602002602001820160405280156116185781602001602082028038833980820191505090505b509050828160008151811061162957fe5b602002602001019073ffffffffffffffffffffffffffffffffffffffff16908173ffffffffffffffffffffffffffffffffffffffff16815250508473ffffffffffffffffffffffffffffffffffffffff1663b29ced066040518163ffffffff1660e01b815260040160206040518083038186803b1580156116a957600080fd5b505afa1580156116bd573d6000803e3d6000fd5b505050506040513d601f19601f820116820180604052506116e19190810190612be1565b816001815181106116ee57fe5b602002602001019073ffffffffffffffffffffffffffffffffffffffff16908173ffffffffffffffffffffffffffffffffffffffff168152505060608573ffffffffffffffffffffffffffffffffffffffff1663bd020fbc6040518163ffffffff1660e01b815260040160206040518083038186803b15801561177057600080fd5b505afa158015611784573d6000803e3d6000fd5b505050506040513d601f19601f820116820180604052506117a89190810190612be1565b73ffffffffffffffffffffffffffffffffffffffff1663c2998238836040518263ffffffff1660e01b81526004016117e091906134f2565b600060405180830381600087803b1580156117fa57600080fd5b505af115801561180e573d6000803e3d6000fd5b505050506040513d6000823e3d601f19601f820116820180604052506118379190810190612eb3565b905060008160008151811061184857fe5b602002602001015114611890576040517f08c379a0000000000000000000000000000000000000000000000000000000008152600401611887906135ef565b60405180910390fd5b60008160018151811061189f57fe5b6020026020010151146118e7576040517f08c379a00000000000000000000000000000000000000000000000000000000081526004016118de9061364f565b60405180910390fd5b7f4554482d410000000000000000000000000000000000000000000000000000008573ffffffffffffffffffffffffffffffffffffffff16632c2cb9fd89602001516040518263ffffffff1660e01b8152600401611945919061366f565b60206040518083038186803b15801561195d57600080fd5b505afa158015611971573d6000803e3d6000fd5b505050506040513d601f19601f820116820180604052506119959190810190612f1d565b1415611cd357611aa6858773ffffffffffffffffffffffffffffffffffffffff16638ec9f15f6040518163ffffffff1660e01b815260040160206040518083038186803b1580156119e557600080fd5b505afa1580156119f9573d6000803e3d6000fd5b505050506040513d601f19601f82011682018060405250611a1d9190810190612be1565b8873ffffffffffffffffffffffffffffffffffffffff1663ac92d52b6040518163ffffffff1660e01b815260040160206040518083038186803b158015611a6357600080fd5b505afa158015611a77573d6000803e3d6000fd5b505050506040513d601f19601f82011682018060405250611a9b9190810190612be1565b8a6020015187610c1f565b8573ffffffffffffffffffffffffffffffffffffffff1663744d27126040518163ffffffff1660e01b815260040160206040518083038186803b158015611aec57600080fd5b505afa158015611b00573d6000803e3d6000fd5b505050506040513d601f19601f82011682018060405250611b249190810190612be1565b73ffffffffffffffffffffffffffffffffffffffff16631249c58b846040518263ffffffff1660e01b81526004016000604051808303818588803b158015611b6b57600080fd5b505af1158015611b7f573d6000803e3d6000fd5b505050505060008673ffffffffffffffffffffffffffffffffffffffff1663b29ced066040518163ffffffff1660e01b815260040160206040518083038186803b158015611bcc57600080fd5b505afa158015611be0573d6000803e3d6000fd5b505050506040513d601f19601f82011682018060405250611c049190810190612be1565b73ffffffffffffffffffffffffffffffffffffffff1663c5ebeaec8a6040518263ffffffff1660e01b8152600401611c3c919061366f565b602060405180830381600087803b158015611c5657600080fd5b505af1158015611c6a573d6000803e3d6000fd5b505050506040513d601f19601f82011682018060405250611c8e9190810190612fc1565b14611cce576040517f08c379a0000000000000000000000000000000000000000000000000000000008152600401611cc5906135cf565b60405180910390fd5b6120a8565b611d728588606001518873ffffffffffffffffffffffffffffffffffffffff1663ac92d52b6040518163ffffffff1660e01b815260040160206040518083038186803b158015611d2257600080fd5b505afa158015611d36573d6000803e3d6000fd5b505050506040513d601f19601f82011682018060405250611d5a9190810190612be1565b8a60200151611d6d8c60600151896127b4565b6110d2565b6000611d8284896080015161284d565b90508473ffffffffffffffffffffffffffffffffffffffff16636f307dc36040518163ffffffff1660e01b815260040160206040518083038186803b158015611dca57600080fd5b505afa158015611dde573d6000803e3d6000fd5b505050506040513d601f19601f82011682018060405250611e029190810190612be1565b73ffffffffffffffffffffffffffffffffffffffff1663095ea7b386836040518363ffffffff1660e01b8152600401611e3c9291906134c9565b602060405180830381600087803b158015611e5657600080fd5b505af1158015611e6a573d6000803e3d6000fd5b505050506040513d601f19601f82011682018060405250611e8e9190810190612ef4565b5060008573ffffffffffffffffffffffffffffffffffffffff1663a0712d68836040518263ffffffff1660e01b8152600401611eca919061366f565b602060405180830381600087803b158015611ee457600080fd5b505af1158015611ef8573d6000803e3d6000fd5b505050506040513d601f19601f82011682018060405250611f1c9190810190612fc1565b14611f5c576040517f08c379a0000000000000000000000000000000000000000000000000000000008152600401611f539061360f565b60405180910390fd5b60008773ffffffffffffffffffffffffffffffffffffffff1663b29ced066040518163ffffffff1660e01b815260040160206040518083038186803b158015611fa457600080fd5b505afa158015611fb8573d6000803e3d6000fd5b505050506040513d601f19601f82011682018060405250611fdc9190810190612be1565b73ffffffffffffffffffffffffffffffffffffffff1663c5ebeaec8b6040518263ffffffff1660e01b8152600401612014919061366f565b602060405180830381600087803b15801561202e57600080fd5b505af1158015612042573d6000803e3d6000fd5b505050506040513d601f19601f820116820180604052506120669190810190612fc1565b146120a6576040517f08c379a000000000000000000000000000000000000000000000000000000000815260040161209d906135cf565b60405180910390fd5b505b50505050505050505050505050565b60008273ffffffffffffffffffffffffffffffffffffffff1663bf7e214f6040518163ffffffff1660e01b815260040160206040518083038186803b1580156120ff57600080fd5b505afa158015612113573d6000803e3d6000fd5b505050506040513d601f19601f820116820180604052506121379190810190612f46565b90508073ffffffffffffffffffffffffffffffffffffffff1663f0217ce58360601b6bffffffffffffffffffffffff19168373ffffffffffffffffffffffffffffffffffffffff1663a8542f666040518163ffffffff1660e01b815260040160206040518083038186803b1580156121ae57600080fd5b505afa1580156121c2573d6000803e3d6000fd5b505050506040513d601f19601f820116820180604052506121e69190810190612f1d565b8473ffffffffffffffffffffffffffffffffffffffff1663a8542f666040518163ffffffff1660e01b815260040160206040518083038186803b15801561222c57600080fd5b505afa158015612240573d6000803e3d6000fd5b505050506040513d601f19601f820116820180604052506122649190810190612f1d565b6040518463ffffffff1660e01b815260040161228293929190613558565b600060405180830381600087803b15801561229c57600080fd5b505af11580156122b0573d6000803e3d6000fd5b50505050505050565b60008273ffffffffffffffffffffffffffffffffffffffff1663bf7e214f6040518163ffffffff1660e01b815260040160206040518083038186803b15801561230157600080fd5b505afa158015612315573d6000803e3d6000fd5b505050506040513d601f19601f820116820180604052506123399190810190612f46565b90508073ffffffffffffffffffffffffffffffffffffffff166379d88d878360601b6bffffffffffffffffffffffff19168373ffffffffffffffffffffffffffffffffffffffff1663a8542f666040518163ffffffff1660e01b815260040160206040518083038186803b1580156123b057600080fd5b505afa1580156123c4573d6000803e3d6000fd5b505050506040513d601f19601f820116820180604052506123e89190810190612f1d565b8473ffffffffffffffffffffffffffffffffffffffff1663a8542f666040518163ffffffff1660e01b815260040160206040518083038186803b15801561242e57600080fd5b505afa158015612442573d6000803e3d6000fd5b505050506040513d601f19601f820116820180604052506124669190810190612f1d565b6040518463ffffffff1660e01b815260040161248493929190613558565b600060405180830381600087803b15801561249e57600080fd5b505af11580156124b2573d6000803e3d6000fd5b50505050505050565b6000808573ffffffffffffffffffffffffffffffffffffffff1663d9638d36846040518263ffffffff1660e01b81526004016124f79190613514565b60a06040518083038186803b15801561250f57600080fd5b505afa158015612523573d6000803e3d6000fd5b505050506040513d601f19601f8201168201806040525061254791908101906130a6565b50505091505060008673ffffffffffffffffffffffffffffffffffffffff16632424be5c85876040518363ffffffff1660e01b815260040161258a92919061352f565b604080518083038186803b1580156125a157600080fd5b505afa1580156125b5573d6000803e3d6000fd5b505050506040513d601f19601f820116820180604052506125d99190810190612fea565b91505060008773ffffffffffffffffffffffffffffffffffffffff16636c25b346886040518263ffffffff1660e01b81526004016126179190613462565b60206040518083038186803b15801561262f57600080fd5b505afa158015612643573d6000803e3d6000fd5b505050506040513d601f19601f820116820180604052506126679190810190612fc1565b9050600061267e612678848661286a565b836128cc565b90506b033b2e3c9fd0803ce8000000818161269557fe5b049450806126af866b033b2e3c9fd0803ce800000061286a565b106126ba57846126bf565b600185015b945050505050949350505050565b60008190506000811215612716576040517f08c379a000000000000000000000000000000000000000000000000000000000815260040161270d9061362f565b60405180910390fd5b919050565b60006127ac828473ffffffffffffffffffffffffffffffffffffffff1663b3bcfa826040518163ffffffff1660e01b8152600401602060405180830381600087803b15801561276957600080fd5b505af115801561277d573d6000803e3d6000fd5b505050506040513d601f19601f820116820180604052506127a19190810190612fc1565b601203600a0a61286a565b905092915050565b60008273ffffffffffffffffffffffffffffffffffffffff1663b3bcfa826040518163ffffffff1660e01b8152600401602060405180830381600087803b1580156127fe57600080fd5b505af1158015612812573d6000803e3d6000fd5b505050506040513d601f19601f820116820180604052506128369190810190612fc1565b601203600a0a828161284457fe5b04905092915050565b60008160ff16601203600a0a838161286157fe5b04905092915050565b600080821480612887575082828385029250828161288457fe5b04145b6128c6576040517f08c379a00000000000000000000000000000000000000000000000000000000081526004016128bd9061358f565b60405180910390fd5b92915050565b6000828284039150811115612916576040517f08c379a000000000000000000000000000000000000000000000000000000000815260040161290d906135af565b60405180910390fd5b92915050565b6040518060a00160405280600073ffffffffffffffffffffffffffffffffffffffff16815260200160008152602001600073ffffffffffffffffffffffffffffffffffffffff168152602001600073ffffffffffffffffffffffffffffffffffffffff168152602001600060ff1681525090565b60008135905061299f816138e6565b92915050565b6000815190506129b4816138e6565b92915050565b6000813590506129c9816138fd565b92915050565b600082601f8301126129e057600080fd5b81516129f36129ee82613725565b6136f8565b91508181835260208401935060208101905083856020840282011115612a1857600080fd5b60005b83811015612a485781612a2e8882612bb7565b845260208401935060208301925050600181019050612a1b565b5050505092915050565b600081519050612a6181613914565b92915050565b600081359050612a768161392b565b92915050565b600081519050612a8b8161392b565b92915050565b60008083601f840112612aa357600080fd5b8235905067ffffffffffffffff811115612abc57600080fd5b602083019150836001820283011115612ad457600080fd5b9250929050565b600081519050612aea81613942565b92915050565b600081519050612aff81613959565b92915050565b600081359050612b1481613970565b92915050565b600060a08284031215612b2c57600080fd5b612b3660a06136f8565b90506000612b4684828501612990565b6000830152506020612b5a84828501612ba2565b6020830152506040612b6e84828501612990565b6040830152506060612b8284828501612990565b6060830152506080612b9684828501612bcc565b60808301525092915050565b600081359050612bb181613987565b92915050565b600081519050612bc681613987565b92915050565b600081359050612bdb8161399e565b92915050565b600060208284031215612bf357600080fd5b6000612c01848285016129a5565b91505092915050565b60008060008060008060a08789031215612c2357600080fd5b6000612c3189828a01612990565b9650506020612c4289828a016129ba565b9550506040612c5389828a01612990565b9450506060612c6489828a01612ba2565b935050608087013567ffffffffffffffff811115612c8157600080fd5b612c8d89828a01612a91565b92509250509295509295509295565b600080600080600060a08688031215612cb457600080fd5b6000612cc288828901612990565b9550506020612cd388828901612990565b9450506040612ce488828901612990565b9350506060612cf588828901612ba2565b9250506080612d0688828901612ba2565b9150509295509295909350565b600080600060608486031215612d2857600080fd5b6000612d3686828701612990565b9350506020612d4786828701612990565b9250506040612d5886828701612ba2565b9150509250925092565b600080600060608486031215612d7757600080fd5b6000612d8586828701612990565b9350506020612d9686828701612a67565b9250506040612da786828701612990565b9150509250925092565b60008060408385031215612dc457600080fd5b6000612dd285828601612990565b9250506020612de385828601612ba2565b9150509250929050565b60008060008060808587031215612e0357600080fd5b6000612e1187828801612990565b9450506020612e2287828801612ba2565b9350506040612e3387828801612990565b9250506060612e4487828801612ba2565b91505092959194509250565b60008060008060808587031215612e6657600080fd5b6000612e7487828801612990565b9450506020612e8587828801612ba2565b9350506040612e9687828801612b05565b9250506060612ea787828801612b05565b91505092959194509250565b600060208284031215612ec557600080fd5b600082015167ffffffffffffffff811115612edf57600080fd5b612eeb848285016129cf565b91505092915050565b600060208284031215612f0657600080fd5b6000612f1484828501612a52565b91505092915050565b600060208284031215612f2f57600080fd5b6000612f3d84828501612a7c565b91505092915050565b600060208284031215612f5857600080fd5b6000612f6684828501612adb565b91505092915050565b600060208284031215612f8157600080fd5b6000612f8f84828501612af0565b91505092915050565b600060a08284031215612faa57600080fd5b6000612fb884828501612b1a565b91505092915050565b600060208284031215612fd357600080fd5b6000612fe184828501612bb7565b91505092915050565b60008060408385031215612ffd57600080fd5b600061300b85828601612bb7565b925050602061301c85828601612bb7565b9150509250929050565b60008060008060006080868803121561303e57600080fd5b600061304c88828901612ba2565b955050602061305d88828901612ba2565b945050604061306e88828901612ba2565b935050606086013567ffffffffffffffff81111561308b57600080fd5b61309788828901612a91565b92509250509295509295909350565b600080600080600060a086880312156130be57600080fd5b60006130cc88828901612bb7565b95505060206130dd88828901612bb7565b94505060406130ee88828901612bb7565b93505060606130ff88828901612bb7565b925050608061311088828901612bb7565b9150509295509295909350565b60006131298383613144565b60208301905092915050565b61313e8161385d565b82525050565b61314d816137be565b82525050565b61315c816137be565b82525050565b600061316d8261375d565b6131778185613780565b93506131828361374d565b8060005b838110156131b357815161319a888261311d565b97506131a583613773565b925050600181019050613186565b5085935050505092915050565b6131c9816137ee565b82525050565b60006131db83856137a2565b93506131e8838584613893565b82840190509392505050565b60006131ff82613768565b6132098185613791565b93506132198185602086016138a2565b613222816138d5565b840191505092915050565b600061323882613768565b61324281856137a2565b93506132528185602086016138a2565b80840191505092915050565b6132678161381c565b82525050565b600061327a600c836137ad565b91507f6d756c2d6f766572666c6f7700000000000000000000000000000000000000006000830152602082019050919050565b60006132ba600c836137ad565b91507f7375622d6f766572666c6f7700000000000000000000000000000000000000006000830152602082019050919050565b60006132fa600f836137ad565b91507f6461692d626f72726f772d6661696c00000000000000000000000000000000006000830152602082019050919050565b600061333a6014836137ad565b91507f6d6b722d656e7465722d67656d2d6661696c65640000000000000000000000006000830152602082019050919050565b600061337a600f836137ad565b91507f67656d2d737570706c792d6661696c00000000000000000000000000000000006000830152602082019050919050565b60006133ba600c836137ad565b91507f696e742d6f766572666c6f7700000000000000000000000000000000000000006000830152602082019050919050565b60006133fa6014836137ad565b91507f6d6b722d656e7465722d6461692d6661696c65640000000000000000000000006000830152602082019050919050565b61343681613846565b82525050565b6000613448828661322d565b91506134558284866131cf565b9150819050949350505050565b60006020820190506134776000830184613153565b92915050565b60006080820190506134926000830187613135565b61349f6020830186613153565b6134ac604083018561342d565b81810360608301526134be81846131f4565b905095945050505050565b60006040820190506134de6000830185613153565b6134eb602083018461342d565b9392505050565b6000602082019050818103600083015261350c8184613162565b905092915050565b600060208201905061352960008301846131c0565b92915050565b600060408201905061354460008301856131c0565b6135516020830184613153565b9392505050565b600060608201905061356d60008301866131c0565b61357a60208301856131c0565b61358760408301846131c0565b949350505050565b600060208201905081810360008301526135a88161326d565b9050919050565b600060208201905081810360008301526135c8816132ad565b9050919050565b600060208201905081810360008301526135e8816132ed565b9050919050565b600060208201905081810360008301526136088161332d565b9050919050565b600060208201905081810360008301526136288161336d565b9050919050565b60006020820190508181036000830152613648816133ad565b9050919050565b60006020820190508181036000830152613668816133ed565b9050919050565b6000602082019050613684600083018461342d565b92915050565b600060608201905061369f600083018661342d565b6136ac6020830185613153565b6136b9604083018461342d565b949350505050565b60006060820190506136d6600083018661342d565b6136e3602083018561325e565b6136f0604083018461325e565b949350505050565b6000604051905081810181811067ffffffffffffffff8211171561371b57600080fd5b8060405250919050565b600067ffffffffffffffff82111561373c57600080fd5b602082029050602081019050919050565b6000819050602082019050919050565b600081519050919050565b600081519050919050565b6000602082019050919050565b600082825260208201905092915050565b600082825260208201905092915050565b600081905092915050565b600082825260208201905092915050565b60006137c982613826565b9050919050565b60006137db82613826565b9050919050565b60008115159050919050565b6000819050919050565b6000613803826137be565b9050919050565b6000613815826137be565b9050919050565b6000819050919050565b600073ffffffffffffffffffffffffffffffffffffffff82169050919050565b6000819050919050565b600060ff82169050919050565b60006138688261386f565b9050919050565b600061387a82613881565b9050919050565b600061388c82613826565b9050919050565b82818337600083830152505050565b60005b838110156138c05780820151818401526020810190506138a5565b838111156138cf576000848401525b50505050565b6000601f19601f8301169050919050565b6138ef816137be565b81146138fa57600080fd5b50565b613906816137d0565b811461391157600080fd5b50565b61391d816137e2565b811461392857600080fd5b50565b613934816137ee565b811461393f57600080fd5b50565b61394b816137f8565b811461395657600080fd5b50565b6139628161380a565b811461396d57600080fd5b50565b6139798161381c565b811461398457600080fd5b50565b61399081613846565b811461399b57600080fd5b50565b6139a781613850565b81146139b257600080fd5b5056fea365627a7a7231582010693f8fbda04b637c4bf0624100eb6c24961728f273d82341f098221c2ea40e6c6578706572696d656e74616cf564736f6c63430005100040",
  "source": "// Largely referenced from https://github.com/mrdavey/CollateralSwapFrontend\n\npragma solidity 0.5.16;\npragma experimental ABIEncoderV2;\n\nimport \"../lib/aave/FlashLoanReceiverBase.sol\";\n\nimport \"../lib/makerdao/DssProxyActionsBase.sol\";\n\nimport \"../lib/uniswap/UniswapBase.sol\";\n\nimport \"../lib/dapphub/Guard.sol\";\n\nimport \"../proxies/DACProxy.sol\";\n\n\nimport \"../interfaces/aave/ILendingPoolAddressesProvider.sol\";\nimport \"../interfaces/aave/ILendingPool.sol\";\n\nimport \"../interfaces/uniswap/IUniswapExchange.sol\";\nimport \"../interfaces/uniswap/IUniswapFactory.sol\";\n\nimport \"../interfaces/IERC20.sol\";\n\nimport \"../interfaces/compound/IComptroller.sol\";\nimport \"../interfaces/compound/ICToken.sol\";\nimport \"../interfaces/compound/ICEther.sol\";\n\nimport \"../interfaces/makerdao/IDssProxyActions.sol\";\n\nimport \"../registries/AddressRegistry.sol\";\n\n\ncontract DedgeMakerManager is DssProxyActionsBase {\n    function () external payable {}\n\n    constructor () public {}\n\n    struct ImportMakerVaultCallData {\n        address addressRegistryAddress;\n        uint cdpId;\n        address collateralCTokenAddress;\n        address collateralJoinAddress;\n        uint8 collateralDecimals;\n    }\n\n    // Helper functions\n    function _proxyGuardPermit(address payable proxyAddress, address src) internal {\n        address g = address(DACProxy(proxyAddress).authority());\n\n        DSGuard(g).permit(\n            bytes32(bytes20(address(src))),\n            DSGuard(g).ANY(),\n            DSGuard(g).ANY()\n        );\n    }\n\n    function _proxyGuardForbid(address payable proxyAddress, address src) internal {\n        address g = address(DACProxy(proxyAddress).authority());\n\n        DSGuard(g).forbid(\n            bytes32(bytes20(address(src))),\n            DSGuard(g).ANY(),\n            DSGuard(g).ANY()\n        );\n    }\n\n    function _convert18ToDecimal(uint amount, uint8 decimals) internal returns (uint) {\n        return amount / (10 ** (18 - uint(decimals)));\n    }\n\n    function _convert18ToGemUnits(address gemJoin, uint256 wad) internal returns (uint) {\n        return wad / (10 ** (18 - GemJoinLike(gemJoin).dec()));\n    }\n\n    // Gets vault debt in 18 wei\n    function getVaultDebt(address manager, uint cdp) public view returns (uint debt)\n    {\n        address vat = ManagerLike(manager).vat();\n        address urn = ManagerLike(manager).urns(cdp);\n        bytes32 ilk = ManagerLike(manager).ilks(cdp);\n        address owner = ManagerLike(manager).owns(cdp);\n\n        debt = _getWipeAllWad(vat, owner, urn, ilk);\n    }\n\n    function getVaultCollateral(\n        address manager,\n        uint cdp\n    ) public view returns (uint ink) {\n        address vat = ManagerLike(manager).vat();\n        address urn = ManagerLike(manager).urns(cdp);\n        bytes32 ilk = ManagerLike(manager).ilks(cdp);\n\n        // Note: This returns in 18 decimals, need to\n        // convert to gemUnits before passing it to\n        // dss-proxy-actions\n        (ink,) = VatLike(vat).urns(ilk, urn);\n    }\n\n    // Function to be called by proxy post loan\n    // in order to import maker vault\n    function importMakerVaultPostLoan(\n        uint _amount,\n        uint _aaveFee,\n        uint _protocolFee,\n        bytes calldata _data\n    ) external {\n        // Calculate total debt\n        uint totalDebt = _amount + _aaveFee + _protocolFee;\n\n        // Reconstruct data\n        ImportMakerVaultCallData memory imvCalldata = abi.decode(_data, (ImportMakerVaultCallData));\n\n        // Extract relevant data\n        AddressRegistry addressRegistry = AddressRegistry(imvCalldata.addressRegistryAddress);\n        address cdpManager = addressRegistry.DssCdpManagerAddress();\n        address collateralCTokenAddress = imvCalldata.collateralCTokenAddress;\n\n        // Collateral in 18 decimal places\n        uint collateral18 = getVaultCollateral(cdpManager, imvCalldata.cdpId);\n\n        // Joins the ETH/GEM/DAI market in compound if they haven't already\n        address[] memory enterMarketsCToken = new address[](2);\n        enterMarketsCToken[0] = collateralCTokenAddress;\n        enterMarketsCToken[1] = addressRegistry.CDaiAddress();\n\n        uint[] memory enterMarketErrors = IComptroller(\n            addressRegistry.CompoundComptrollerAddress()\n        ).enterMarkets(enterMarketsCToken);\n\n        require(enterMarketErrors[0] == 0, \"mkr-enter-gem-failed\");\n        require(enterMarketErrors[1] == 0, \"mkr-enter-dai-failed\");\n\n        if (ManagerLike(cdpManager).ilks(imvCalldata.cdpId) == bytes32(\"ETH-A\")) {\n            wipeAllAndFreeETH(\n                cdpManager,\n                addressRegistry.EthJoinAddress(),\n                addressRegistry.DaiJoinAddress(),\n                imvCalldata.cdpId,\n                collateral18\n            );\n\n            // Supply ETH and Borrow DAI (Compound)\n            ICEther(addressRegistry.CEtherAddress()).mint.value(collateral18)();\n            require(\n                ICToken(addressRegistry.CDaiAddress()).borrow(totalDebt) == 0,\n                \"dai-borrow-fail\"\n            );\n        } else {\n            // Free GEM\n            wipeAllAndFreeGem(\n                cdpManager,\n                imvCalldata.collateralJoinAddress,\n                addressRegistry.DaiJoinAddress(),\n                imvCalldata.cdpId,\n                _convert18ToGemUnits(\n                    imvCalldata.collateralJoinAddress,\n                    collateral18\n                )\n            );\n\n            // Convert collateral to relevant decimal places\n            uint collateralFixedDec = _convert18ToDecimal(\n                collateral18, imvCalldata.collateralDecimals\n            );\n\n            // Approve CToken Collateral underlying to enable call transferFrom\n            IERC20(ICToken(collateralCTokenAddress).underlying())\n                .approve(collateralCTokenAddress, collateralFixedDec);\n\n            // Supply GEM and Borrow DAI (Compound)\n            require(\n                ICToken(collateralCTokenAddress).mint(\n                    collateralFixedDec\n                ) == 0,\n                \"gem-supply-fail\"\n            );\n            require(\n                ICToken(addressRegistry.CDaiAddress()).borrow(totalDebt) == 0,\n                \"dai-borrow-fail\"\n            );\n        }\n    }\n\n    /* \n    Main entry point maker vault into Dedge\n\n    @params:\n        dacProxyAddress: User's proxy address\n        addressRegistryAddress: AddressRegistry's Address\n        cdpId: User's cdpId\n        executeOperationCalldataParams:\n            Abi-encoded `data` used by User's proxy's `execute(address, <data>)` function\n            Used to delegatecall to another contract (i.e. this contract) in the context\n            of the proxy. This allows for better flexibility and decoupling of logic from\n            user's proxy. In this specific case, it is expecting the results from: (from JS)\n\n            ```\n                const IDedgeMakerManager = ethers.utils.Interface(DedgeMakerManager.abi)\n\n                const executeOperationCalldataParams = IDedgeMakerManager\n                    .functions\n                    .importMakerVaultPostLoan\n                    .encode([ <parameters> ])\n            ```\n    */\n    function importMakerVault(\n        address dedgeMakerManagerAddress,\n        address payable dacProxyAddress,\n        address addressRegistryAddress,\n        uint cdpId,\n        bytes calldata executeOperationCalldataParams\n    ) external {\n        // Get Address Registry\n        AddressRegistry addressRegistry = AddressRegistry(addressRegistryAddress);\n\n        // Get cdpManager and proxy's guard address\n        address cdpManager = addressRegistry.DssCdpManagerAddress();\n\n        // Get Debt\n        uint daiDebt = getVaultDebt(cdpManager, cdpId);\n\n        // Injects the target address into calldataParams\n        // so user proxy knows which address it'll be calling `calldataParams` on\n        bytes memory addressAndExecuteOperationCalldataParams = abi.encodePacked(\n            abi.encode(dedgeMakerManagerAddress),\n            executeOperationCalldataParams\n        );\n        \n        // Get lending pool address\n        ILendingPool lendingPool = ILendingPool(\n            ILendingPoolAddressesProvider(\n                addressRegistry.AaveLendingPoolAddressProviderAddress()\n            ).getLendingPool()\n        );\n\n        cdpAllow(addressRegistry.DssCdpManagerAddress(), cdpId, dedgeMakerManagerAddress, 1);\n        _proxyGuardPermit(dacProxyAddress, address(lendingPool));\n\n        lendingPool.flashLoan(\n            dacProxyAddress,\n            addressRegistry.DaiAddress(),\n            daiDebt,\n            addressAndExecuteOperationCalldataParams\n        );\n\n        _proxyGuardForbid(dacProxyAddress, address(lendingPool));\n        cdpAllow(addressRegistry.DssCdpManagerAddress(), cdpId, dedgeMakerManagerAddress, 0);\n    }\n}\n",
  "sourcePath": "/home/kendrick/Development/Ethereum/dedge/packages/smart-contracts/src/managers/DedgeMakerManager.sol",
  "compiler": {
    "name": "solc",
    "version": "0.5.16+commit.9c3226ce.Emscripten.clang"
  },
  "schemaVersion": "3.0.23",
  "updatedAt": "2020-03-28T01:04:46.935Z",
  "networkType": "ethereum",
  "devdoc": {
    "methods": {}
  },
  "userdoc": {
    "methods": {}
  }
}