{
  "contractName": "DedgeCompoundManager",
  "abi": [
    {
      "constant": false,
      "inputs": [
        {
          "internalType": "address[]",
          "name": "cTokens",
          "type": "address[]"
        }
      ],
      "name": "approveCTokens",
      "outputs": [],
      "payable": false,
      "stateMutability": "nonpayable",
      "type": "function"
    },
    {
      "constant": false,
      "inputs": [
        {
          "internalType": "address",
          "name": "cToken",
          "type": "address"
        },
        {
          "internalType": "uint256",
          "name": "borrowAmount",
          "type": "uint256"
        }
      ],
      "name": "borrow",
      "outputs": [],
      "payable": false,
      "stateMutability": "nonpayable",
      "type": "function"
    },
    {
      "constant": false,
      "inputs": [
        {
          "internalType": "address[]",
          "name": "cTokens",
          "type": "address[]"
        }
      ],
      "name": "enterMarkets",
      "outputs": [],
      "payable": false,
      "stateMutability": "nonpayable",
      "type": "function"
    },
    {
      "constant": false,
      "inputs": [
        {
          "internalType": "address[]",
          "name": "cTokens",
          "type": "address[]"
        }
      ],
      "name": "enterMarketsAndApproveCTokens",
      "outputs": [],
      "payable": false,
      "stateMutability": "nonpayable",
      "type": "function"
    },
    {
      "constant": false,
      "inputs": [
        {
          "internalType": "address",
          "name": "cToken",
          "type": "address"
        },
        {
          "internalType": "uint256",
          "name": "redeemTokens",
          "type": "uint256"
        }
      ],
      "name": "redeem",
      "outputs": [],
      "payable": true,
      "stateMutability": "payable",
      "type": "function"
    },
    {
      "constant": false,
      "inputs": [
        {
          "internalType": "address",
          "name": "cToken",
          "type": "address"
        },
        {
          "internalType": "uint256",
          "name": "redeemTokens",
          "type": "uint256"
        }
      ],
      "name": "redeemUnderlying",
      "outputs": [],
      "payable": true,
      "stateMutability": "payable",
      "type": "function"
    },
    {
      "constant": false,
      "inputs": [
        {
          "internalType": "address",
          "name": "cToken",
          "type": "address"
        },
        {
          "internalType": "uint256",
          "name": "amount",
          "type": "uint256"
        }
      ],
      "name": "repayBorrow",
      "outputs": [],
      "payable": true,
      "stateMutability": "payable",
      "type": "function"
    },
    {
      "constant": false,
      "inputs": [
        {
          "internalType": "address",
          "name": "recipient",
          "type": "address"
        },
        {
          "internalType": "address",
          "name": "cToken",
          "type": "address"
        },
        {
          "internalType": "uint256",
          "name": "amount",
          "type": "uint256"
        }
      ],
      "name": "repayBorrowBehalf",
      "outputs": [],
      "payable": true,
      "stateMutability": "payable",
      "type": "function"
    },
    {
      "constant": false,
      "inputs": [
        {
          "internalType": "address",
          "name": "cToken",
          "type": "address"
        },
        {
          "internalType": "uint256",
          "name": "amount",
          "type": "uint256"
        }
      ],
      "name": "supply",
      "outputs": [],
      "payable": true,
      "stateMutability": "payable",
      "type": "function"
    },
    {
      "constant": false,
      "inputs": [
        {
          "internalType": "address",
          "name": "supplyCToken",
          "type": "address"
        },
        {
          "internalType": "uint256",
          "name": "supplyAmount",
          "type": "uint256"
        },
        {
          "internalType": "address",
          "name": "borrowCToken",
          "type": "address"
        },
        {
          "internalType": "uint256",
          "name": "borrowAmount",
          "type": "uint256"
        }
      ],
      "name": "supplyAndBorrow",
      "outputs": [],
      "payable": true,
      "stateMutability": "payable",
      "type": "function"
    },
    {
      "constant": false,
      "inputs": [],
      "name": "supplyETH",
      "outputs": [],
      "payable": true,
      "stateMutability": "payable",
      "type": "function"
    },
    {
      "constant": false,
      "inputs": [
        {
          "internalType": "address",
          "name": "cToken",
          "type": "address"
        },
        {
          "internalType": "uint256",
          "name": "borrowAmount",
          "type": "uint256"
        }
      ],
      "name": "supplyETHAndBorrow",
      "outputs": [],
      "payable": true,
      "stateMutability": "payable",
      "type": "function"
    },
    {
      "constant": false,
      "inputs": [
        {
          "internalType": "uint256",
          "name": "_loanAmount",
          "type": "uint256"
        },
        {
          "internalType": "uint256",
          "name": "_aaveFee",
          "type": "uint256"
        },
        {
          "internalType": "uint256",
          "name": "_protocolFee",
          "type": "uint256"
        },
        {
          "internalType": "bytes",
          "name": "_data",
          "type": "bytes"
        }
      ],
      "name": "swapDebtPostLoan",
      "outputs": [],
      "payable": false,
      "stateMutability": "nonpayable",
      "type": "function"
    },
    {
      "constant": false,
      "inputs": [
        {
          "internalType": "uint256",
          "name": "_loanAmount",
          "type": "uint256"
        },
        {
          "internalType": "uint256",
          "name": "_aaveFee",
          "type": "uint256"
        },
        {
          "internalType": "uint256",
          "name": "_protocolFee",
          "type": "uint256"
        },
        {
          "internalType": "bytes",
          "name": "_data",
          "type": "bytes"
        }
      ],
      "name": "swapCollateralPostLoan",
      "outputs": [],
      "payable": false,
      "stateMutability": "nonpayable",
      "type": "function"
    },
    {
      "constant": false,
      "inputs": [
        {
          "internalType": "address",
          "name": "dedgeCompoundManagerAddress",
          "type": "address"
        },
        {
          "internalType": "address payable",
          "name": "dacProxyAddress",
          "type": "address"
        },
        {
          "internalType": "address",
          "name": "addressRegistryAddress",
          "type": "address"
        },
        {
          "internalType": "address",
          "name": "oldCTokenAddress",
          "type": "address"
        },
        {
          "internalType": "uint256",
          "name": "oldTokenUnderlyingDelta",
          "type": "uint256"
        },
        {
          "internalType": "address",
          "name": "newCTokenAddress",
          "type": "address"
        },
        {
          "internalType": "bytes",
          "name": "executeOperationCalldataParams",
          "type": "bytes"
        }
      ],
      "name": "swapOperation",
      "outputs": [],
      "payable": false,
      "stateMutability": "nonpayable",
      "type": "function"
    },
    {
      "constant": false,
      "inputs": [
        {
          "internalType": "address",
          "name": "addressRegistryAddress",
          "type": "address"
        },
        {
          "internalType": "address",
          "name": "oldCTokenAddress",
          "type": "address"
        },
        {
          "internalType": "uint256",
          "name": "oldTokenUnderlyingDustAmount",
          "type": "uint256"
        },
        {
          "internalType": "address",
          "name": "newCTokenAddress",
          "type": "address"
        }
      ],
      "name": "clearDebtDust",
      "outputs": [],
      "payable": true,
      "stateMutability": "payable",
      "type": "function"
    },
    {
      "constant": false,
      "inputs": [
        {
          "internalType": "address",
          "name": "addressRegistryAddress",
          "type": "address"
        },
        {
          "internalType": "address",
          "name": "oldCTokenAddress",
          "type": "address"
        },
        {
          "internalType": "uint256",
          "name": "oldTokenUnderlyingAmount",
          "type": "uint256"
        },
        {
          "internalType": "address",
          "name": "newCTokenAddress",
          "type": "address"
        }
      ],
      "name": "clearCollateralDust",
      "outputs": [],
      "payable": true,
      "stateMutability": "payable",
      "type": "function"
    }
  ],
  "bytecode": "0x608060405234801561001057600080fd5b50613c61806100206000396000f3fe6080604052600436106100fe5760003560e01c806375d4094511610095578063b16f18d011610064578063b16f18d014610282578063c04bea9b146102ab578063c2998238146102c7578063d13b8c72146102f0578063f2b9fdb81461030c576100fe565b806375d40945146102055780639629417814610221578063abdb5ea81461023d578063b14886ee14610259576100fe565b806341ec5cc4116100d157806341ec5cc41461019a5780634907b8fc146101b65780634b8a3529146101c057806359086a5e146101e9576100fe565b80631e9a69501461010357806324d1ea121461011f5780632d8af543146101485780633dc4d99a14610171575b600080fd5b61011d60048036036101189190810190612f8d565b610328565b005b34801561012b57600080fd5b506101466004803603610141919081019061317b565b6103f9565b005b34801561015457600080fd5b5061016f600480360361016a919081019061302c565b6107b6565b005b34801561017d57600080fd5b506101986004803603610193919081019061302c565b6107cb565b005b6101b460048036036101af9190810190612f8d565b6109e2565b005b6101be6109f8565b005b3480156101cc57600080fd5b506101e760048036036101e29190810190612f8d565b610a6f565b005b61020360048036036101fe9190810190612edb565b610b40565b005b61021f600480360361021a9190810190612fc9565b610cce565b005b61023b60048036036102369190810190612f8d565b610ce8565b005b61025760048036036102529190810190612f8d565b610db9565b005b34801561026557600080fd5b50610280600480360361027b919081019061317b565b610f39565b005b34801561028e57600080fd5b506102a960048036036102a49190810190612e21565b611268565b005b6102c560048036036102c09190810190612f2a565b6116d7565b005b3480156102d357600080fd5b506102ee60048036036102e9919081019061302c565b611aef565b005b61030a60048036036103059190810190612f2a565b611c0e565b005b61032660048036036103219190810190612f8d565b61208a565b005b60008273ffffffffffffffffffffffffffffffffffffffff1663db006a75836040518263ffffffff1660e01b81526004016103639190613921565b602060405180830381600087803b15801561037d57600080fd5b505af1158015610391573d6000803e3d6000fd5b505050506040513d601f19601f820116820180604052506103b59190810190613152565b146103f5576040517f08c379a00000000000000000000000000000000000000000000000000000000081526004016103ec90613801565b60405180910390fd5b5050565b610401612b3d565b82826104109190810190613129565b90506000816000015190506000826020015190506000836040015190506000610454886104468b8d61221e90919063ffffffff16565b61221e90919063ffffffff16565b90508373ffffffffffffffffffffffffffffffffffffffff1663744d27126040518163ffffffff1660e01b815260040160206040518083038186803b15801561049c57600080fd5b505afa1580156104b0573d6000803e3d6000fd5b505050506040513d601f19601f820116820180604052506104d49190810190612df8565b73ffffffffffffffffffffffffffffffffffffffff168373ffffffffffffffffffffffffffffffffffffffff16141561051657610511838b610db9565b610641565b60008373ffffffffffffffffffffffffffffffffffffffff16636f307dc36040518163ffffffff1660e01b815260040160206040518083038186803b15801561055e57600080fd5b505afa158015610572573d6000803e3d6000fd5b505050506040513d601f19601f820116820180604052506105969190810190612df8565b905060006105a4828d612273565b90508173ffffffffffffffffffffffffffffffffffffffff1663095ea7b386836040518363ffffffff1660e01b81526004016105e192919061371d565b602060405180830381600087803b1580156105fb57600080fd5b505af115801561060f573d6000803e3d6000fd5b505050506040513d601f19601f8201168201806040525061063391908101906130ae565b5061063e8582610db9565b50505b8373ffffffffffffffffffffffffffffffffffffffff1663744d27126040518163ffffffff1660e01b815260040160206040518083038186803b15801561068757600080fd5b505afa15801561069b573d6000803e3d6000fd5b505050506040513d601f19601f820116820180604052506106bf9190810190612df8565b73ffffffffffffffffffffffffffffffffffffffff168273ffffffffffffffffffffffffffffffffffffffff161415610701576106fc8282610a6f565b6107aa565b60008273ffffffffffffffffffffffffffffffffffffffff16636f307dc36040518163ffffffff1660e01b815260040160206040518083038186803b15801561074957600080fd5b505afa15801561075d573d6000803e3d6000fd5b505050506040513d601f19601f820116820180604052506107819190810190612df8565b9050600061078f8284612289565b905061079b8482610a6f565b6107a6828285612324565b5050505b50505050505050505050565b6107bf81611aef565b6107c8816107cb565b50565b60008090505b81518110156109de57734ddc2d193948926d02f9b1fe9e1daa0718270ed573ffffffffffffffffffffffffffffffffffffffff1682828151811061081157fe5b602002602001015173ffffffffffffffffffffffffffffffffffffffff16146109d157600082828151811061084257fe5b602002602001015173ffffffffffffffffffffffffffffffffffffffff16636f307dc36040518163ffffffff1660e01b815260040160206040518083038186803b15801561088f57600080fd5b505afa1580156108a3573d6000803e3d6000fd5b505050506040513d601f19601f820116820180604052506108c79190810190612df8565b9050600115158173ffffffffffffffffffffffffffffffffffffffff1663095ea7b38585815181106108f557fe5b60200260200101517fffffffffffffffffffffffffffffffffffffffffffffffffffffffffffffffff6040518363ffffffff1660e01b815260040161093b92919061371d565b602060405180830381600087803b15801561095557600080fd5b505af1158015610969573d6000803e3d6000fd5b505050506040513d601f19601f8201168201806040525061098d91908101906130ae565b1515146109cf576040517f08c379a00000000000000000000000000000000000000000000000000000000081526004016109c6906138a1565b60405180910390fd5b505b80806001019150506107d1565b5050565b6109ea6109f8565b6109f48282610a6f565b5050565b734ddc2d193948926d02f9b1fe9e1daa0718270ed573ffffffffffffffffffffffffffffffffffffffff16631249c58b346040518263ffffffff1660e01b81526004016000604051808303818588803b158015610a5457600080fd5b505af1158015610a68573d6000803e3d6000fd5b5050505050565b60008273ffffffffffffffffffffffffffffffffffffffff1663c5ebeaec836040518263ffffffff1660e01b8152600401610aaa9190613921565b602060405180830381600087803b158015610ac457600080fd5b505af1158015610ad8573d6000803e3d6000fd5b505050506040513d601f19601f82011682018060405250610afc9190810190613152565b14610b3c576040517f08c379a0000000000000000000000000000000000000000000000000000000008152600401610b33906137e1565b60405180910390fd5b5050565b734ddc2d193948926d02f9b1fe9e1daa0718270ed573ffffffffffffffffffffffffffffffffffffffff168273ffffffffffffffffffffffffffffffffffffffff161415610bf9578173ffffffffffffffffffffffffffffffffffffffff1663e597461982856040518363ffffffff1660e01b8152600401610bc291906136b6565b6000604051808303818588803b158015610bdb57600080fd5b505af1158015610bef573d6000803e3d6000fd5b5050505050610cc9565b60008273ffffffffffffffffffffffffffffffffffffffff16632608f81885846040518363ffffffff1660e01b8152600401610c3692919061371d565b602060405180830381600087803b158015610c5057600080fd5b505af1158015610c64573d6000803e3d6000fd5b505050506040513d601f19601f82011682018060405250610c889190810190613152565b14610cc8576040517f08c379a0000000000000000000000000000000000000000000000000000000008152600401610cbf90613861565b60405180910390fd5b5b505050565b610cd8848461208a565b610ce28282610a6f565b50505050565b60008273ffffffffffffffffffffffffffffffffffffffff1663852a12e3836040518263ffffffff1660e01b8152600401610d239190613921565b602060405180830381600087803b158015610d3d57600080fd5b505af1158015610d51573d6000803e3d6000fd5b505050506040513d601f19601f82011682018060405250610d759190810190613152565b14610db5576040517f08c379a0000000000000000000000000000000000000000000000000000000008152600401610dac90613821565b60405180910390fd5b5050565b734ddc2d193948926d02f9b1fe9e1daa0718270ed573ffffffffffffffffffffffffffffffffffffffff168273ffffffffffffffffffffffffffffffffffffffff161415610e67578173ffffffffffffffffffffffffffffffffffffffff16634e4d9fea826040518263ffffffff1660e01b81526004016000604051808303818588803b158015610e4957600080fd5b505af1158015610e5d573d6000803e3d6000fd5b5050505050610f35565b60008273ffffffffffffffffffffffffffffffffffffffff16630e752702836040518263ffffffff1660e01b8152600401610ea29190613921565b602060405180830381600087803b158015610ebc57600080fd5b505af1158015610ed0573d6000803e3d6000fd5b505050506040513d601f19601f82011682018060405250610ef49190810190613152565b14610f34576040517f08c379a0000000000000000000000000000000000000000000000000000000008152600401610f2b90613881565b60405180910390fd5b5b5050565b610f41612b3d565b8282610f509190810190613129565b90506000816000015190506000826020015190506000836040015190506000610f9488610f868b8d61245c90919063ffffffff16565b61245c90919063ffffffff16565b90508373ffffffffffffffffffffffffffffffffffffffff1663744d27126040518163ffffffff1660e01b815260040160206040518083038186803b158015610fdc57600080fd5b505afa158015610ff0573d6000803e3d6000fd5b505050506040513d601f19601f820116820180604052506110149190810190612df8565b73ffffffffffffffffffffffffffffffffffffffff168273ffffffffffffffffffffffffffffffffffffffff16141561105657611051828261208a565b6110f3565b60008273ffffffffffffffffffffffffffffffffffffffff16636f307dc36040518163ffffffff1660e01b815260040160206040518083038186803b15801561109e57600080fd5b505afa1580156110b2573d6000803e3d6000fd5b505050506040513d601f19601f820116820180604052506110d69190810190612df8565b905060006110e48284612273565b90506110f0848261208a565b50505b8373ffffffffffffffffffffffffffffffffffffffff1663744d27126040518163ffffffff1660e01b815260040160206040518083038186803b15801561113957600080fd5b505afa15801561114d573d6000803e3d6000fd5b505050506040513d601f19601f820116820180604052506111719190810190612df8565b73ffffffffffffffffffffffffffffffffffffffff168373ffffffffffffffffffffffffffffffffffffffff1614156111b3576111ae838b610ce8565b61125c565b60008373ffffffffffffffffffffffffffffffffffffffff16636f307dc36040518163ffffffff1660e01b815260040160206040518083038186803b1580156111fb57600080fd5b505afa15801561120f573d6000803e3d6000fd5b505050506040513d601f19601f820116820180604052506112339190810190612df8565b90506000611241828d612289565b905061124d8582610ce8565b61125882828e612324565b5050505b50505050505050505050565b6060600260405190808252806020026020018201604052801561129a5781602001602082028038833980820191505090505b50905085816000815181106112ab57fe5b602002602001019073ffffffffffffffffffffffffffffffffffffffff16908173ffffffffffffffffffffffffffffffffffffffff168152505083816001815181106112f357fe5b602002602001019073ffffffffffffffffffffffffffffffffffffffff16908173ffffffffffffffffffffffffffffffffffffffff168152505061133681611aef565b600087905060008173ffffffffffffffffffffffffffffffffffffffff1663744d27126040518163ffffffff1660e01b815260040160206040518083038186803b15801561138357600080fd5b505afa158015611397573d6000803e3d6000fd5b505050506040513d601f19601f820116820180604052506113bb9190810190612df8565b73ffffffffffffffffffffffffffffffffffffffff168873ffffffffffffffffffffffffffffffffffffffff1614156113f657869050611480565b61147d8873ffffffffffffffffffffffffffffffffffffffff16636f307dc36040518163ffffffff1660e01b815260040160206040518083038186803b15801561143f57600080fd5b505afa158015611453573d6000803e3d6000fd5b505050506040513d601f19601f820116820180604052506114779190810190612df8565b886124a6565b90505b60608b60405160200161149391906136b6565b60405160208183030381529060405286866040516020016114b693929190613690565b604051602081830303815290604052905060008373ffffffffffffffffffffffffffffffffffffffff16633f6dc33b6040518163ffffffff1660e01b815260040160206040518083038186803b15801561150f57600080fd5b505afa158015611523573d6000803e3d6000fd5b505050506040513d601f19601f820116820180604052506115479190810190612df8565b73ffffffffffffffffffffffffffffffffffffffff16630261bf8b6040518163ffffffff1660e01b815260040160206040518083038186803b15801561158c57600080fd5b505afa1580156115a0573d6000803e3d6000fd5b505050506040513d601f19601f820116820180604052506115c49190810190612df8565b90506115d08c82612541565b8073ffffffffffffffffffffffffffffffffffffffff16635cffe9de8d8673ffffffffffffffffffffffffffffffffffffffff166356cc94a26040518163ffffffff1660e01b815260040160206040518083038186803b15801561163357600080fd5b505afa158015611647573d6000803e3d6000fd5b505050506040513d601f19601f8201168201806040525061166b9190810190612df8565b86866040518563ffffffff1660e01b815260040161168c94939291906136d1565b600060405180830381600087803b1580156116a657600080fd5b505af11580156116ba573d6000803e3d6000fd5b505050506116c88c82612743565b50505050505050505050505050565b8073ffffffffffffffffffffffffffffffffffffffff168373ffffffffffffffffffffffffffffffffffffffff161415611746576040517f08c379a000000000000000000000000000000000000000000000000000000000815260040161173d906138c1565b60405180910390fd5b6000808590506117568585610ce8565b8073ffffffffffffffffffffffffffffffffffffffff1663744d27126040518163ffffffff1660e01b815260040160206040518083038186803b15801561179c57600080fd5b505afa1580156117b0573d6000803e3d6000fd5b505050506040513d601f19601f820116820180604052506117d49190810190612df8565b73ffffffffffffffffffffffffffffffffffffffff168573ffffffffffffffffffffffffffffffffffffffff1614156118955761188e8373ffffffffffffffffffffffffffffffffffffffff16636f307dc36040518163ffffffff1660e01b815260040160206040518083038186803b15801561185057600080fd5b505afa158015611864573d6000803e3d6000fd5b505050506040513d601f19601f820116820180604052506118889190810190612df8565b85612273565b9150611add565b8073ffffffffffffffffffffffffffffffffffffffff1663744d27126040518163ffffffff1660e01b815260040160206040518083038186803b1580156118db57600080fd5b505afa1580156118ef573d6000803e3d6000fd5b505050506040513d601f19601f820116820180604052506119139190810190612df8565b73ffffffffffffffffffffffffffffffffffffffff168373ffffffffffffffffffffffffffffffffffffffff1614156119d4576119cd8573ffffffffffffffffffffffffffffffffffffffff16636f307dc36040518163ffffffff1660e01b815260040160206040518083038186803b15801561198f57600080fd5b505afa1580156119a3573d6000803e3d6000fd5b505050506040513d601f19601f820116820180604052506119c79190810190612df8565b85612945565b9150611adc565b611ad98573ffffffffffffffffffffffffffffffffffffffff16636f307dc36040518163ffffffff1660e01b815260040160206040518083038186803b158015611a1d57600080fd5b505afa158015611a31573d6000803e3d6000fd5b505050506040513d601f19601f82011682018060405250611a559190810190612df8565b8473ffffffffffffffffffffffffffffffffffffffff16636f307dc36040518163ffffffff1660e01b815260040160206040518083038186803b158015611a9b57600080fd5b505afa158015611aaf573d6000803e3d6000fd5b505050506040513d601f19601f82011682018060405250611ad39190810190612df8565b8661295b565b91505b5b611ae7838361208a565b505050505050565b6060733d9819210a31b4961b30ef54be2aed79b9c9cd3b73ffffffffffffffffffffffffffffffffffffffff1663c2998238836040518263ffffffff1660e01b8152600401611b3e9190613746565b600060405180830381600087803b158015611b5857600080fd5b505af1158015611b6c573d6000803e3d6000fd5b505050506040513d6000823e3d601f19601f82011682018060405250611b95919081019061306d565b905060008090505b8151811015611c09576000828281518110611bb457fe5b602002602001015114611bfc576040517f08c379a0000000000000000000000000000000000000000000000000000000008152600401611bf390613841565b60405180910390fd5b8080600101915050611b9d565b505050565b8073ffffffffffffffffffffffffffffffffffffffff168373ffffffffffffffffffffffffffffffffffffffff161415611c7d576040517f08c379a0000000000000000000000000000000000000000000000000000000008152600401611c7490613901565b60405180910390fd5b600084905060008060008373ffffffffffffffffffffffffffffffffffffffff1663744d27126040518163ffffffff1660e01b815260040160206040518083038186803b158015611ccd57600080fd5b505afa158015611ce1573d6000803e3d6000fd5b505050506040513d601f19601f82011682018060405250611d059190810190612df8565b73ffffffffffffffffffffffffffffffffffffffff168773ffffffffffffffffffffffffffffffffffffffff161415611ddf578473ffffffffffffffffffffffffffffffffffffffff16636f307dc36040518163ffffffff1660e01b815260040160206040518083038186803b158015611d7e57600080fd5b505afa158015611d92573d6000803e3d6000fd5b505050506040513d601f19601f82011682018060405250611db69190810190612df8565b9050611dc28187612289565b9250611dce8584610a6f565b611dd9818488612324565b50612076565b8373ffffffffffffffffffffffffffffffffffffffff1663744d27126040518163ffffffff1660e01b815260040160206040518083038186803b158015611e2557600080fd5b505afa158015611e39573d6000803e3d6000fd5b505050506040513d601f19601f82011682018060405250611e5d9190810190612df8565b73ffffffffffffffffffffffffffffffffffffffff168573ffffffffffffffffffffffffffffffffffffffff161415611f37578673ffffffffffffffffffffffffffffffffffffffff16636f307dc36040518163ffffffff1660e01b815260040160206040518083038186803b158015611ed657600080fd5b505afa158015611eea573d6000803e3d6000fd5b505050506040513d601f19601f82011682018060405250611f0e9190810190612df8565b9150611f1a82876124a6565b9250611f268584610a6f565b611f31828488612973565b50612075565b8673ffffffffffffffffffffffffffffffffffffffff16636f307dc36040518163ffffffff1660e01b815260040160206040518083038186803b158015611f7d57600080fd5b505afa158015611f91573d6000803e3d6000fd5b505050506040513d601f19601f82011682018060405250611fb59190810190612df8565b91508473ffffffffffffffffffffffffffffffffffffffff16636f307dc36040518163ffffffff1660e01b815260040160206040518083038186803b158015611ffd57600080fd5b505afa158015612011573d6000803e3d6000fd5b505050506040513d601f19601f820116820180604052506120359190810190612df8565b9050600061204383886124a6565b905061204f8282612289565b935061205b8685610a6f565b612066828583612324565b50612072838289612973565b50505b5b6120808787610db9565b5050505050505050565b734ddc2d193948926d02f9b1fe9e1daa0718270ed573ffffffffffffffffffffffffffffffffffffffff168273ffffffffffffffffffffffffffffffffffffffff16141561214c57734ddc2d193948926d02f9b1fe9e1daa0718270ed573ffffffffffffffffffffffffffffffffffffffff16631249c58b826040518263ffffffff1660e01b81526004016000604051808303818588803b15801561212e57600080fd5b505af1158015612142573d6000803e3d6000fd5b505050505061221a565b60008273ffffffffffffffffffffffffffffffffffffffff1663a0712d68836040518263ffffffff1660e01b81526004016121879190613921565b602060405180830381600087803b1580156121a157600080fd5b505af11580156121b5573d6000803e3d6000fd5b505050506040513d601f19601f820116820180604052506121d99190810190613152565b14612219576040517f08c379a0000000000000000000000000000000000000000000000000000000008152600401612210906138e1565b60405180910390fd5b5b5050565b600080828401905083811015612269576040517f08c379a0000000000000000000000000000000000000000000000000000000008152600401612260906137c1565b60405180910390fd5b8091505092915050565b600061228183836001612973565b905092915050565b600061229483612a17565b73ffffffffffffffffffffffffffffffffffffffff16632640f62c836040518263ffffffff1660e01b81526004016122cc9190613921565b60206040518083038186803b1580156122e457600080fd5b505afa1580156122f8573d6000803e3d6000fd5b505050506040513d601f19601f8201168201806040525061231c9190810190613152565b905092915050565b60008061233085612a17565b90508473ffffffffffffffffffffffffffffffffffffffff1663095ea7b382866040518363ffffffff1660e01b815260040161236d92919061371d565b602060405180830381600087803b15801561238757600080fd5b505af115801561239b573d6000803e3d6000fd5b505050506040513d601f19601f820116820180604052506123bf91908101906130ae565b508073ffffffffffffffffffffffffffffffffffffffff166395e3c50b8585603c42016040518463ffffffff1660e01b815260040161240093929190613965565b602060405180830381600087803b15801561241a57600080fd5b505af115801561242e573d6000803e3d6000fd5b505050506040513d601f19601f820116820180604052506124529190810190613152565b9150509392505050565b600061249e83836040518060400160405280601e81526020017f536166654d6174683a207375627472616374696f6e206f766572666c6f770000815250612abd565b905092915050565b60006124b183612a17565b73ffffffffffffffffffffffffffffffffffffffff166359e94862836040518263ffffffff1660e01b81526004016124e99190613921565b60206040518083038186803b15801561250157600080fd5b505afa158015612515573d6000803e3d6000fd5b505050506040513d601f19601f820116820180604052506125399190810190613152565b905092915050565b60008273ffffffffffffffffffffffffffffffffffffffff1663bf7e214f6040518163ffffffff1660e01b815260040160206040518083038186803b15801561258957600080fd5b505afa15801561259d573d6000803e3d6000fd5b505050506040513d601f19601f820116820180604052506125c19190810190613100565b90508073ffffffffffffffffffffffffffffffffffffffff1663f0217ce58360601b6bffffffffffffffffffffffff19168373ffffffffffffffffffffffffffffffffffffffff1663a8542f666040518163ffffffff1660e01b815260040160206040518083038186803b15801561263857600080fd5b505afa15801561264c573d6000803e3d6000fd5b505050506040513d601f19601f8201168201806040525061267091908101906130d7565b8473ffffffffffffffffffffffffffffffffffffffff1663a8542f666040518163ffffffff1660e01b815260040160206040518083038186803b1580156126b657600080fd5b505afa1580156126ca573d6000803e3d6000fd5b505050506040513d601f19601f820116820180604052506126ee91908101906130d7565b6040518463ffffffff1660e01b815260040161270c93929190613768565b600060405180830381600087803b15801561272657600080fd5b505af115801561273a573d6000803e3d6000fd5b50505050505050565b60008273ffffffffffffffffffffffffffffffffffffffff1663bf7e214f6040518163ffffffff1660e01b815260040160206040518083038186803b15801561278b57600080fd5b505afa15801561279f573d6000803e3d6000fd5b505050506040513d601f19601f820116820180604052506127c39190810190613100565b90508073ffffffffffffffffffffffffffffffffffffffff166379d88d878360601b6bffffffffffffffffffffffff19168373ffffffffffffffffffffffffffffffffffffffff1663a8542f666040518163ffffffff1660e01b815260040160206040518083038186803b15801561283a57600080fd5b505afa15801561284e573d6000803e3d6000fd5b505050506040513d601f19601f8201168201806040525061287291908101906130d7565b8473ffffffffffffffffffffffffffffffffffffffff1663a8542f666040518163ffffffff1660e01b815260040160206040518083038186803b1580156128b857600080fd5b505afa1580156128cc573d6000803e3d6000fd5b505050506040513d601f19601f820116820180604052506128f091908101906130d7565b6040518463ffffffff1660e01b815260040161290e93929190613768565b600060405180830381600087803b15801561292857600080fd5b505af115801561293c573d6000803e3d6000fd5b50505050505050565b600061295383836001612324565b905092915050565b600061296a8484846001612b18565b90509392505050565b600061297e84612a17565b73ffffffffffffffffffffffffffffffffffffffff1663f39b5b9b8484603c42016040518463ffffffff1660e01b81526004016129bc92919061393c565b6020604051808303818588803b1580156129d557600080fd5b505af11580156129e9573d6000803e3d6000fd5b50505050506040513d601f19601f82011682018060405250612a0e9190810190613152565b90509392505050565b600073c0a47dfe034b400b47bdad5fecda2621de6c4d9573ffffffffffffffffffffffffffffffffffffffff166306f2bf62836040518263ffffffff1660e01b8152600401612a6691906136b6565b60206040518083038186803b158015612a7e57600080fd5b505afa158015612a92573d6000803e3d6000fd5b505050506040513d601f19601f82011682018060405250612ab69190810190612df8565b9050919050565b6000838311158290612b05576040517f08c379a0000000000000000000000000000000000000000000000000000000008152600401612afc919061379f565b60405180910390fd5b5060008385039050809150509392505050565b600080612b258685612945565b9050612b32858285612973565b915050949350505050565b6040518060600160405280600073ffffffffffffffffffffffffffffffffffffffff168152602001600073ffffffffffffffffffffffffffffffffffffffff168152602001600073ffffffffffffffffffffffffffffffffffffffff1681525090565b600081359050612baf81613b94565b92915050565b600081519050612bc481613b94565b92915050565b600081359050612bd981613bab565b92915050565b600082601f830112612bf057600080fd5b8135612c03612bfe826139c9565b61399c565b91508181835260208401935060208101905083856020840282011115612c2857600080fd5b60005b83811015612c585781612c3e8882612ba0565b845260208401935060208301925050600181019050612c2b565b5050505092915050565b600082601f830112612c7357600080fd5b8151612c86612c81826139f1565b61399c565b91508181835260208401935060208101905083856020840282011115612cab57600080fd5b60005b83811015612cdb5781612cc18882612de3565b845260208401935060208301925050600181019050612cae565b5050505092915050565b600081519050612cf481613bc2565b92915050565b600081519050612d0981613bd9565b92915050565b60008083601f840112612d2157600080fd5b8235905067ffffffffffffffff811115612d3a57600080fd5b602083019150836001820283011115612d5257600080fd5b9250929050565b600081519050612d6881613bf0565b92915050565b600060608284031215612d8057600080fd5b612d8a606061399c565b90506000612d9a84828501612ba0565b6000830152506020612dae84828501612ba0565b6020830152506040612dc284828501612ba0565b60408301525092915050565b600081359050612ddd81613c07565b92915050565b600081519050612df281613c07565b92915050565b600060208284031215612e0a57600080fd5b6000612e1884828501612bb5565b91505092915050565b60008060008060008060008060e0898b031215612e3d57600080fd5b6000612e4b8b828c01612ba0565b9850506020612e5c8b828c01612bca565b9750506040612e6d8b828c01612ba0565b9650506060612e7e8b828c01612ba0565b9550506080612e8f8b828c01612dce565b94505060a0612ea08b828c01612ba0565b93505060c089013567ffffffffffffffff811115612ebd57600080fd5b612ec98b828c01612d0f565b92509250509295985092959890939650565b600080600060608486031215612ef057600080fd5b6000612efe86828701612ba0565b9350506020612f0f86828701612ba0565b9250506040612f2086828701612dce565b9150509250925092565b60008060008060808587031215612f4057600080fd5b6000612f4e87828801612ba0565b9450506020612f5f87828801612ba0565b9350506040612f7087828801612dce565b9250506060612f8187828801612ba0565b91505092959194509250565b60008060408385031215612fa057600080fd5b6000612fae85828601612ba0565b9250506020612fbf85828601612dce565b9150509250929050565b60008060008060808587031215612fdf57600080fd5b6000612fed87828801612ba0565b9450506020612ffe87828801612dce565b935050604061300f87828801612ba0565b925050606061302087828801612dce565b91505092959194509250565b60006020828403121561303e57600080fd5b600082013567ffffffffffffffff81111561305857600080fd5b61306484828501612bdf565b91505092915050565b60006020828403121561307f57600080fd5b600082015167ffffffffffffffff81111561309957600080fd5b6130a584828501612c62565b91505092915050565b6000602082840312156130c057600080fd5b60006130ce84828501612ce5565b91505092915050565b6000602082840312156130e957600080fd5b60006130f784828501612cfa565b91505092915050565b60006020828403121561311257600080fd5b600061312084828501612d59565b91505092915050565b60006060828403121561313b57600080fd5b600061314984828501612d6e565b91505092915050565b60006020828403121561316457600080fd5b600061317284828501612de3565b91505092915050565b60008060008060006080868803121561319357600080fd5b60006131a188828901612dce565b95505060206131b288828901612dce565b94505060406131c388828901612dce565b935050606086013567ffffffffffffffff8111156131e057600080fd5b6131ec88828901612d0f565b92509250509295509295909350565b60006132078383613222565b60208301905092915050565b61321c81613b0b565b82525050565b61322b81613a95565b82525050565b61323a81613a95565b82525050565b600061324b82613a29565b6132558185613a57565b935061326083613a19565b8060005b8381101561329157815161327888826131fb565b975061328383613a4a565b925050600181019050613264565b5085935050505092915050565b6132a781613ac5565b82525050565b60006132b98385613a79565b93506132c6838584613b41565b82840190509392505050565b60006132dd82613a34565b6132e78185613a68565b93506132f7818560208601613b50565b61330081613b83565b840191505092915050565b600061331682613a34565b6133208185613a79565b9350613330818560208601613b50565b80840191505092915050565b600061334782613a3f565b6133518185613a84565b9350613361818560208601613b50565b61336a81613b83565b840191505092915050565b6000613382601b83613a84565b91507f536166654d6174683a206164646974696f6e206f766572666c6f7700000000006000830152602082019050919050565b60006133c2601e83613a84565b91507f636d706e642d6d67722d63746f6b656e2d626f72726f772d6661696c656400006000830152602082019050919050565b6000613402601e83613a84565b91507f636d706e642d6d67722d63746f6b656e2d72656465656d2d6661696c656400006000830152602082019050919050565b6000613442602983613a84565b91507f636d706e642d6d67722d63746f6b656e2d72656465656d2d756e6465726c796960008301527f6e672d6661696c656400000000000000000000000000000000000000000000006020830152604082019050919050565b60006134a8601e83613a84565b91507f636d706e642d6d67722d656e7465722d6d61726b6574732d6661696c656400006000830152602082019050919050565b60006134e8602383613a84565b91507f636d706e642d6d67722d63746f6b656e2d7265706179626568616c662d66616960008301527f6c656400000000000000000000000000000000000000000000000000000000006020830152604082019050919050565b600061354e601d83613a84565b91507f636d706e642d6d67722d63746f6b656e2d72657061792d6661696c65640000006000830152602082019050919050565b600061358e602083613a84565b91507f636d706e642d6d67722d63746f6b656e2d617070726f7665642d6661696c65646000830152602082019050919050565b60006135ce601d83613a84565b91507f636c6561722d636f6c6c61746572616c2d73616d652d616464726573730000006000830152602082019050919050565b600061360e601e83613a84565b91507f636d706e642d6d67722d63746f6b656e2d737570706c792d6661696c656400006000830152602082019050919050565b600061364e601783613a84565b91507f636c6561722d646562742d73616d652d616464726573730000000000000000006000830152602082019050919050565b61368a81613b01565b82525050565b600061369c828661330b565b91506136a98284866132ad565b9150819050949350505050565b60006020820190506136cb6000830184613231565b92915050565b60006080820190506136e66000830187613213565b6136f36020830186613231565b6137006040830185613681565b818103606083015261371281846132d2565b905095945050505050565b60006040820190506137326000830185613231565b61373f6020830184613681565b9392505050565b600060208201905081810360008301526137608184613240565b905092915050565b600060608201905061377d600083018661329e565b61378a602083018561329e565b613797604083018461329e565b949350505050565b600060208201905081810360008301526137b9818461333c565b905092915050565b600060208201905081810360008301526137da81613375565b9050919050565b600060208201905081810360008301526137fa816133b5565b9050919050565b6000602082019050818103600083015261381a816133f5565b9050919050565b6000602082019050818103600083015261383a81613435565b9050919050565b6000602082019050818103600083015261385a8161349b565b9050919050565b6000602082019050818103600083015261387a816134db565b9050919050565b6000602082019050818103600083015261389a81613541565b9050919050565b600060208201905081810360008301526138ba81613581565b9050919050565b600060208201905081810360008301526138da816135c1565b9050919050565b600060208201905081810360008301526138fa81613601565b9050919050565b6000602082019050818103600083015261391a81613641565b9050919050565b60006020820190506139366000830184613681565b92915050565b60006040820190506139516000830185613681565b61395e6020830184613681565b9392505050565b600060608201905061397a6000830186613681565b6139876020830185613681565b6139946040830184613681565b949350505050565b6000604051905081810181811067ffffffffffffffff821117156139bf57600080fd5b8060405250919050565b600067ffffffffffffffff8211156139e057600080fd5b602082029050602081019050919050565b600067ffffffffffffffff821115613a0857600080fd5b602082029050602081019050919050565b6000819050602082019050919050565b600081519050919050565b600081519050919050565b600081519050919050565b6000602082019050919050565b600082825260208201905092915050565b600082825260208201905092915050565b600081905092915050565b600082825260208201905092915050565b6000613aa082613ae1565b9050919050565b6000613ab282613ae1565b9050919050565b60008115159050919050565b6000819050919050565b6000613ada82613a95565b9050919050565b600073ffffffffffffffffffffffffffffffffffffffff82169050919050565b6000819050919050565b6000613b1682613b1d565b9050919050565b6000613b2882613b2f565b9050919050565b6000613b3a82613ae1565b9050919050565b82818337600083830152505050565b60005b83811015613b6e578082015181840152602081019050613b53565b83811115613b7d576000848401525b50505050565b6000601f19601f8301169050919050565b613b9d81613a95565b8114613ba857600080fd5b50565b613bb481613aa7565b8114613bbf57600080fd5b50565b613bcb81613ab9565b8114613bd657600080fd5b50565b613be281613ac5565b8114613bed57600080fd5b50565b613bf981613acf565b8114613c0457600080fd5b50565b613c1081613b01565b8114613c1b57600080fd5b5056fea365627a7a723158209f3ba973c1a6dfdf430bc6ddae29a6917552d6cf2c7497ef89569a899553a4526c6578706572696d656e74616cf564736f6c63430005100040",
  "source": "/*\n    Dedge's Aave and Compound manager\n*/\n\npragma solidity 0.5.16;\npragma experimental ABIEncoderV2;\n\n\nimport \"../lib/compound/CompoundBase.sol\";\n\nimport \"../lib/dapphub/Guard.sol\";\n\nimport \"../lib/uniswap/UniswapLiteBase.sol\";\n\nimport \"../interfaces/aave/ILendingPoolAddressesProvider.sol\";\nimport \"../interfaces/aave/ILendingPool.sol\";\nimport \"../interfaces/aave/ILendingPoolParametersProvider.sol\";\n\nimport \"../interfaces/compound/ICompoundPriceOracle.sol\";\nimport \"../interfaces/compound/IComptroller.sol\";\nimport \"../interfaces/compound/ICEther.sol\";\nimport \"../interfaces/compound/ICToken.sol\";\n\nimport \"../interfaces/IERC20.sol\";\n\nimport \"../registries/AddressRegistry.sol\";\n\nimport \"../proxies/DACProxy.sol\";\n\nimport \"@openzeppelin/contracts/math/SafeMath.sol\";\n\ncontract DedgeCompoundManager is UniswapLiteBase, CompoundBase {\n    using SafeMath for uint;\n\n    struct SwapOperationCalldata {\n        address addressRegistryAddress;\n        address oldCTokenAddress;\n        address newCTokenAddress;\n    }\n\n    function _proxyGuardPermit(address payable proxyAddress, address src) internal {\n        address g = address(DACProxy(proxyAddress).authority());\n\n        DSGuard(g).permit(\n            bytes32(bytes20(address(src))),\n            DSGuard(g).ANY(),\n            DSGuard(g).ANY()\n        );\n    }\n\n    function _proxyGuardForbid(address payable proxyAddress, address src) internal {\n        address g = address(DACProxy(proxyAddress).authority());\n\n        DSGuard(g).forbid(\n            bytes32(bytes20(address(src))),\n            DSGuard(g).ANY(),\n            DSGuard(g).ANY()\n        );\n    }\n\n    function swapDebtPostLoan(\n        uint _loanAmount,\n        uint _aaveFee,\n        uint _protocolFee,\n        bytes calldata _data\n    ) external {\n        SwapOperationCalldata memory soCalldata = abi.decode(_data, (SwapOperationCalldata));\n\n        AddressRegistry addressRegistry = AddressRegistry(soCalldata.addressRegistryAddress);\n\n        address oldCTokenAddress = soCalldata.oldCTokenAddress;\n        address newCTokenAddress = soCalldata.newCTokenAddress;\n\n        uint debtAmount = _loanAmount.add(_aaveFee).add(_protocolFee);\n\n        // Note: debtAmount = loanAmount + fees\n        // 1. Has ETH from Aave flashloan\n        // 2. Converts ETH to oldCToken underlying\n        // 3. Repays oldCToken underlying\n        // 4. Calculates new amount to borrow from new token to repay debtAmount\n        // 5. Borrows from new token\n        // 6. Convert new token to ETH\n\n        // Steps 2 + 3\n        // Converts ETH to oldCToken underlying and repay\n        // Unless old target underlying is already ether\n        if (oldCTokenAddress == addressRegistry.CEtherAddress()) {\n            repayBorrow(oldCTokenAddress, _loanAmount);\n        } else {\n            // Gets old token underlying and amount\n            address oldTokenUnderlying = ICToken(oldCTokenAddress).underlying();\n\n            uint oldTokenUnderlyingAmount = _ethToToken(\n                oldTokenUnderlying,\n                _loanAmount\n            );\n\n            // Approves CToken proxy and repays them\n            IERC20(oldTokenUnderlying)\n                .approve(oldCTokenAddress, oldTokenUnderlyingAmount);\n\n            // Repays CToken\n            repayBorrow(oldCTokenAddress, oldTokenUnderlyingAmount);\n        }\n\n        // Steps 4, 5, 6\n        // Calculates new debt amount to borrow\n        // Unless new target underlying is already ether\n        if (newCTokenAddress == addressRegistry.CEtherAddress()) {\n            borrow(newCTokenAddress, debtAmount);\n        } else {\n            // Gets new token underlying\n            address newTokenUnderlying = ICToken(newCTokenAddress).underlying();\n\n            // Calculates amount of old token underlying that needs to be borrowed\n            // to repay debts\n            uint newTokenUnderlyingAmount = _getTokenToEthOutput(\n                newTokenUnderlying,\n                debtAmount\n            );\n\n            // Borrows new debt\n            borrow(newCTokenAddress, newTokenUnderlyingAmount);\n\n            // Converts to ether\n            // Note this part is a bit more strict as we need to have\n            // enough ETH to repay Aave\n            _tokenToEth(newTokenUnderlying, newTokenUnderlyingAmount, debtAmount);\n        }\n    }\n\n    function swapCollateralPostLoan(\n        uint _loanAmount,\n        uint _aaveFee,\n        uint _protocolFee,\n        bytes calldata _data\n    ) external {\n        SwapOperationCalldata memory soCalldata = abi.decode(_data, (SwapOperationCalldata));\n\n        AddressRegistry addressRegistry = AddressRegistry(soCalldata.addressRegistryAddress);\n\n        address oldCTokenAddress = soCalldata.oldCTokenAddress;\n        address newCTokenAddress = soCalldata.newCTokenAddress;\n\n        // 1. Has ETH from Aave flashloan\n        // 2. Converts ETH into newCToken underlying\n        // 3. Supplies newCToken underlying\n        // 4. Redeems oldCToken underlying\n        // 5. Converts outCToken underlying to ETH\n        // 6. Borrow <fee> ETH to repay aave\n\n        // Steps 2 + 3\n        // Converts ETH to newCToken underlying and supply\n        // Unless old target underlying is already ether\n        uint repayAmount = _loanAmount.sub(_aaveFee).sub(_protocolFee);\n\n        if (newCTokenAddress == addressRegistry.CEtherAddress()) {\n            supply(newCTokenAddress, repayAmount);\n        } else {\n            // Gets new token underlying and converts ETH into newCToken underlying\n            address newTokenUnderlying = ICToken(newCTokenAddress).underlying();\n            uint newTokenUnderlyingAmount = _ethToToken(\n                newTokenUnderlying,\n                repayAmount\n            );\n\n            // Supplies new CTokens\n            supply(newCTokenAddress, newTokenUnderlyingAmount);\n        }\n\n        // Steps 4, 5\n        // Redeem CToken underlying\n        if (oldCTokenAddress == addressRegistry.CEtherAddress()) {\n            redeemUnderlying(oldCTokenAddress, _loanAmount);\n        } else {\n            // Gets old token underlying and amount to redeem (based on uniswap)\n            address oldTokenUnderlying = ICToken(oldCTokenAddress).underlying();\n            uint oldTokenUnderlyingAmount = _getTokenToEthOutput(oldTokenUnderlying, _loanAmount);\n\n            // Redeems them\n            redeemUnderlying(oldCTokenAddress, oldTokenUnderlyingAmount);\n\n            // Converts them into ETH\n            _tokenToEth(oldTokenUnderlying, oldTokenUnderlyingAmount, _loanAmount);\n        }\n    }\n\n    /*\n    Main entry point for swapping collateral / debt\n\n    @params:\n\n        dedgeCompoundManagerAddress: Dedge Compound Manager address\n        dacProxyAddress: User's proxy address\n        addressRegistryAddress: AddressRegistry's Address\n        oldCTokenAddress: oldCToken address\n        oldTokenUnderlyingDelta: Amount of tokens to swap from old c token's underlying\n        executeOperationCalldataParams:\n            Abi-encoded `data` used by User's proxy's `execute(address, <data>)` function.\n            Used to delegatecall to another contract (i.e. this contract) in the context\n            of the proxy. This allows us to decouple the logic of handling flashloans\n            from the proxy contract. In this specific case, it is expecting the results\n            from: (from JS)\n\n            ```\n                const IDedgeCompoundManager = ethers.utils.Interface(DedgeCompoundManager.abi)\n\n                const executeOperationCalldataParams = IDedgeCompoundManager\n                    .functions\n                    .swapDebt OR .swapCollateral\n                    .encode([\n                        <parameters>\n                    ])\n            ```\n    */\n    function swapOperation(\n        address dedgeCompoundManagerAddress,\n        address payable dacProxyAddress,\n        address addressRegistryAddress,\n        address oldCTokenAddress,            // Old CToken address for [debt|collateral]\n        uint oldTokenUnderlyingDelta,        // Amount of old tokens to swap to new tokens\n        address newCTokenAddress,            // New CToken address for [debt|collateral]\n        bytes calldata executeOperationCalldataParams\n    ) external {\n        // Calling from dacProxy context (msg.sender is dacProxy)\n        // 1. Get amount of ETH obtained by selling that from Uniswap\n        // 2. Flashloans ETH to dacProxy\n\n        // Enters markets for both CTokens\n        address[] memory enterMarketCTokens = new address[](2);\n        enterMarketCTokens[0] = oldCTokenAddress;\n        enterMarketCTokens[1] = newCTokenAddress;\n        enterMarkets(enterMarketCTokens);\n\n        // Gets registries\n        AddressRegistry addressRegistry = AddressRegistry(addressRegistryAddress);\n\n        // 1. Get amount of ETH needed\n        // If the old target is ether than the ethDebtAmount is just the delta\n        uint ethDebtAmount;\n\n        if (oldCTokenAddress == addressRegistry.CEtherAddress()) {\n            ethDebtAmount = oldTokenUnderlyingDelta;\n        } else {\n            // Otherwise calculate it from the exchange\n            ethDebtAmount = _getEthToTokenOutput(\n                ICToken(oldCTokenAddress).underlying(),\n                oldTokenUnderlyingDelta\n            );\n        }\n\n        // Injects the target address into calldataParams\n        // so user proxy know which address it'll be calling `calldataParams` on\n        bytes memory addressAndExecuteOperationCalldataParams = abi.encodePacked(\n            abi.encode(dedgeCompoundManagerAddress),\n            executeOperationCalldataParams\n        );\n\n        ILendingPool lendingPool = ILendingPool(\n            ILendingPoolAddressesProvider(\n                addressRegistry.AaveLendingPoolAddressProviderAddress()\n            ).getLendingPool()\n        );\n\n        // Approve lendingPool to call proxy\n        _proxyGuardPermit(dacProxyAddress, address(lendingPool));\n\n        // 3. Flashloan ETH with relevant data\n        lendingPool.flashLoan(\n            dacProxyAddress,\n            addressRegistry.AaveEthAddress(),\n            ethDebtAmount,\n            addressAndExecuteOperationCalldataParams\n        );\n\n        // Forbids lendingPool to call proxy\n        _proxyGuardForbid(dacProxyAddress, address(lendingPool));\n    }\n\n    // Clears dust debt by swapping old debt into new debt\n    function clearDebtDust(\n        address addressRegistryAddress,\n        address oldCTokenAddress,\n        uint oldTokenUnderlyingDustAmount,\n        address newCTokenAddress\n    ) public payable {\n        // i.e. Has 0.1 ETH (oldCToken) debt 900 DAI (newCToken)\n        // wants to have it all in DAI\n\n        // 0. Calculates 0.1 ETH equilavent in DAI\n        // 1. Borrows out 0.1 ETH equilavent in DAI (~10 DAI as of march 2020)\n        // 2. Convert 10 DAI into 0.1 ETH\n        // 3. Repay 0.1 ETH\n\n        require(oldCTokenAddress != newCTokenAddress, \"clear-debt-same-address\");\n\n        AddressRegistry addressRegistry = AddressRegistry(addressRegistryAddress);\n\n        uint borrowAmount;\n        address oldTokenUnderlying;\n        address newTokenUnderlying;\n\n        if (oldCTokenAddress == addressRegistry.CEtherAddress()) {\n            // ETH -> Token\n            newTokenUnderlying = ICToken(newCTokenAddress).underlying();\n\n            // Calculates ETH equilavent in token\n            borrowAmount = _getTokenToEthOutput(newTokenUnderlying, oldTokenUnderlyingDustAmount);\n\n            // Borrows out equilavent token\n            borrow(newCTokenAddress, borrowAmount);\n\n            // Converts token to ETH\n            _tokenToEth(newTokenUnderlying, borrowAmount, oldTokenUnderlyingDustAmount);\n        } else if (newCTokenAddress == addressRegistry.CEtherAddress()) {\n            // Token -> ETH\n            oldTokenUnderlying = ICToken(oldCTokenAddress).underlying();\n\n            // Calculates token equilavent in ETH\n            borrowAmount = _getEthToTokenOutput(oldTokenUnderlying, oldTokenUnderlyingDustAmount);\n\n            // Borrows out equilavent ETH\n            borrow(newCTokenAddress, borrowAmount);\n\n            // Converts ETH to token\n            _ethToToken(oldTokenUnderlying, borrowAmount, oldTokenUnderlyingDustAmount);\n        } else {\n            // token -> token\n            oldTokenUnderlying = ICToken(oldCTokenAddress).underlying();\n            newTokenUnderlying = ICToken(newCTokenAddress).underlying();\n\n            // Calculates eth borrow amount\n            uint ethAmount = _getEthToTokenOutput(oldTokenUnderlying, oldTokenUnderlyingDustAmount);\n\n            // Calculates token borrow amount\n            borrowAmount = _getTokenToEthOutput(newTokenUnderlying, ethAmount);\n\n            // Borrows out equilavent token\n            borrow(newCTokenAddress, borrowAmount);\n\n            // Converts old token to target token\n            _tokenToEth(newTokenUnderlying, borrowAmount, ethAmount);\n            _ethToToken(oldTokenUnderlying, ethAmount, oldTokenUnderlyingDustAmount);\n        }\n\n        // Repays borrowed\n        repayBorrow(oldCTokenAddress, oldTokenUnderlyingDustAmount);\n    }\n\n    function clearCollateralDust(\n        address addressRegistryAddress,\n        address oldCTokenAddress,\n        uint oldTokenUnderlyingAmount,\n        address newCTokenAddress\n    ) public payable {\n        // i.e. Has 10 ETH collateral and 10 DAI collateral\n        // wants to have it all in ETH\n\n        // 1. Redeems 10 DAI collateral\n        // 2. Converts it to ETH\n        // 3. Puts it into ETH\n\n        // More abstractly,\n        // 1. Redeems tokens\n        // 2. Convert it to other token\n        // 3. Put other token in\n\n        require(oldCTokenAddress != newCTokenAddress, \"clear-collateral-same-address\");\n\n        uint supplyAmount;\n        AddressRegistry addressRegistry = AddressRegistry(addressRegistryAddress);\n\n        // Redeems collateral\n        redeemUnderlying(oldCTokenAddress, oldTokenUnderlyingAmount);\n\n        if (oldCTokenAddress == addressRegistry.CEtherAddress()) {\n            // ETH -> Token\n            supplyAmount = _ethToToken(\n                ICToken(newCTokenAddress).underlying(),\n                oldTokenUnderlyingAmount\n            );\n        } else if (newCTokenAddress == addressRegistry.CEtherAddress()) {\n            // Token -> ETH\n            supplyAmount = _tokenToEth(\n                ICToken(oldCTokenAddress).underlying(),\n                oldTokenUnderlyingAmount\n            );\n        } else {\n            // Token -> Token\n            supplyAmount = _tokenToToken(\n                ICToken(oldCTokenAddress).underlying(),\n                ICToken(newCTokenAddress).underlying(),\n                oldTokenUnderlyingAmount\n            );\n        }\n\n        // Supplies collateral\n        supply(newCTokenAddress, supplyAmount);\n    }\n}\n",
  "sourcePath": "/home/kendrick/Development/Ethereum/dedge/packages/smart-contracts/src/managers/DedgeCompoundManager.sol",
  "compiler": {
    "name": "solc",
    "version": "0.5.16+commit.9c3226ce.Emscripten.clang"
  },
  "schemaVersion": "3.0.23",
  "updatedAt": "2020-03-28T01:04:46.919Z",
  "networkType": "ethereum",
  "devdoc": {
    "methods": {}
  },
  "userdoc": {
    "methods": {}
  }
}