{
  "contractName": "DedgeCompoundManager",
  "abi": [
    {
      "constant": false,
      "inputs": [
        {
          "internalType": "address",
          "name": "cToken",
          "type": "address"
        },
        {
          "internalType": "uint256",
          "name": "amount",
          "type": "uint256"
        }
      ],
      "name": "approveCToken",
      "outputs": [],
      "payable": false,
      "stateMutability": "nonpayable",
      "type": "function"
    },
    {
      "constant": false,
      "inputs": [
        {
          "internalType": "address[]",
          "name": "cTokens",
          "type": "address[]"
        }
      ],
      "name": "approveCTokens",
      "outputs": [],
      "payable": false,
      "stateMutability": "nonpayable",
      "type": "function"
    },
    {
      "constant": false,
      "inputs": [
        {
          "internalType": "address",
          "name": "cToken",
          "type": "address"
        },
        {
          "internalType": "uint256",
          "name": "borrowAmount",
          "type": "uint256"
        }
      ],
      "name": "borrow",
      "outputs": [],
      "payable": false,
      "stateMutability": "nonpayable",
      "type": "function"
    },
    {
      "constant": false,
      "inputs": [
        {
          "internalType": "address",
          "name": "cToken",
          "type": "address"
        },
        {
          "internalType": "uint256",
          "name": "amount",
          "type": "uint256"
        }
      ],
      "name": "borrowThroughProxy",
      "outputs": [],
      "payable": false,
      "stateMutability": "nonpayable",
      "type": "function"
    },
    {
      "constant": false,
      "inputs": [
        {
          "internalType": "address[]",
          "name": "cTokens",
          "type": "address[]"
        }
      ],
      "name": "enterMarkets",
      "outputs": [],
      "payable": false,
      "stateMutability": "nonpayable",
      "type": "function"
    },
    {
      "constant": false,
      "inputs": [
        {
          "internalType": "address[]",
          "name": "cTokens",
          "type": "address[]"
        }
      ],
      "name": "enterMarketsAndApproveCTokens",
      "outputs": [],
      "payable": false,
      "stateMutability": "nonpayable",
      "type": "function"
    },
    {
      "constant": false,
      "inputs": [
        {
          "internalType": "address",
          "name": "cToken",
          "type": "address"
        },
        {
          "internalType": "uint256",
          "name": "redeemTokens",
          "type": "uint256"
        }
      ],
      "name": "redeem",
      "outputs": [],
      "payable": true,
      "stateMutability": "payable",
      "type": "function"
    },
    {
      "constant": false,
      "inputs": [
        {
          "internalType": "address",
          "name": "cToken",
          "type": "address"
        },
        {
          "internalType": "uint256",
          "name": "amount",
          "type": "uint256"
        }
      ],
      "name": "redeemThroughProxy",
      "outputs": [],
      "payable": true,
      "stateMutability": "payable",
      "type": "function"
    },
    {
      "constant": false,
      "inputs": [
        {
          "internalType": "address",
          "name": "cToken",
          "type": "address"
        },
        {
          "internalType": "uint256",
          "name": "redeemTokens",
          "type": "uint256"
        }
      ],
      "name": "redeemUnderlying",
      "outputs": [],
      "payable": true,
      "stateMutability": "payable",
      "type": "function"
    },
    {
      "constant": false,
      "inputs": [
        {
          "internalType": "address",
          "name": "cToken",
          "type": "address"
        },
        {
          "internalType": "uint256",
          "name": "amount",
          "type": "uint256"
        }
      ],
      "name": "redeemUnderlyingThroughProxy",
      "outputs": [],
      "payable": true,
      "stateMutability": "payable",
      "type": "function"
    },
    {
      "constant": false,
      "inputs": [
        {
          "internalType": "address",
          "name": "cToken",
          "type": "address"
        },
        {
          "internalType": "uint256",
          "name": "amount",
          "type": "uint256"
        }
      ],
      "name": "repayBorrow",
      "outputs": [],
      "payable": true,
      "stateMutability": "payable",
      "type": "function"
    },
    {
      "constant": false,
      "inputs": [
        {
          "internalType": "address",
          "name": "recipient",
          "type": "address"
        },
        {
          "internalType": "address",
          "name": "cToken",
          "type": "address"
        },
        {
          "internalType": "uint256",
          "name": "amount",
          "type": "uint256"
        }
      ],
      "name": "repayBorrowBehalf",
      "outputs": [],
      "payable": true,
      "stateMutability": "payable",
      "type": "function"
    },
    {
      "constant": false,
      "inputs": [
        {
          "internalType": "address",
          "name": "recipient",
          "type": "address"
        },
        {
          "internalType": "address",
          "name": "cToken",
          "type": "address"
        },
        {
          "internalType": "uint256",
          "name": "amount",
          "type": "uint256"
        }
      ],
      "name": "repayBorrowBehalfThroughProxy",
      "outputs": [],
      "payable": true,
      "stateMutability": "payable",
      "type": "function"
    },
    {
      "constant": false,
      "inputs": [
        {
          "internalType": "address",
          "name": "cToken",
          "type": "address"
        },
        {
          "internalType": "uint256",
          "name": "amount",
          "type": "uint256"
        }
      ],
      "name": "repayBorrowThroughProxy",
      "outputs": [],
      "payable": true,
      "stateMutability": "payable",
      "type": "function"
    },
    {
      "constant": false,
      "inputs": [
        {
          "internalType": "address",
          "name": "cToken",
          "type": "address"
        },
        {
          "internalType": "uint256",
          "name": "amount",
          "type": "uint256"
        }
      ],
      "name": "supply",
      "outputs": [],
      "payable": true,
      "stateMutability": "payable",
      "type": "function"
    },
    {
      "constant": false,
      "inputs": [
        {
          "internalType": "address",
          "name": "supplyCToken",
          "type": "address"
        },
        {
          "internalType": "uint256",
          "name": "supplyAmount",
          "type": "uint256"
        },
        {
          "internalType": "address",
          "name": "borrowCToken",
          "type": "address"
        },
        {
          "internalType": "uint256",
          "name": "borrowAmount",
          "type": "uint256"
        }
      ],
      "name": "supplyAndBorrow",
      "outputs": [],
      "payable": true,
      "stateMutability": "payable",
      "type": "function"
    },
    {
      "constant": false,
      "inputs": [],
      "name": "supplyETH",
      "outputs": [],
      "payable": true,
      "stateMutability": "payable",
      "type": "function"
    },
    {
      "constant": false,
      "inputs": [
        {
          "internalType": "address",
          "name": "cToken",
          "type": "address"
        },
        {
          "internalType": "uint256",
          "name": "borrowAmount",
          "type": "uint256"
        }
      ],
      "name": "supplyETHAndBorrow",
      "outputs": [],
      "payable": true,
      "stateMutability": "payable",
      "type": "function"
    },
    {
      "constant": false,
      "inputs": [
        {
          "internalType": "address",
          "name": "cToken",
          "type": "address"
        },
        {
          "internalType": "uint256",
          "name": "amount",
          "type": "uint256"
        }
      ],
      "name": "supplyThroughProxy",
      "outputs": [],
      "payable": true,
      "stateMutability": "payable",
      "type": "function"
    },
    {
      "constant": false,
      "inputs": [
        {
          "internalType": "uint256",
          "name": "_loanAmount",
          "type": "uint256"
        },
        {
          "internalType": "uint256",
          "name": "_aaveFee",
          "type": "uint256"
        },
        {
          "internalType": "uint256",
          "name": "_protocolFee",
          "type": "uint256"
        },
        {
          "internalType": "bytes",
          "name": "_data",
          "type": "bytes"
        }
      ],
      "name": "swapDebtPostLoan",
      "outputs": [],
      "payable": false,
      "stateMutability": "nonpayable",
      "type": "function"
    },
    {
      "constant": false,
      "inputs": [
        {
          "internalType": "uint256",
          "name": "_loanAmount",
          "type": "uint256"
        },
        {
          "internalType": "uint256",
          "name": "_aaveFee",
          "type": "uint256"
        },
        {
          "internalType": "uint256",
          "name": "_protocolFee",
          "type": "uint256"
        },
        {
          "internalType": "bytes",
          "name": "_data",
          "type": "bytes"
        }
      ],
      "name": "swapCollateralPostLoan",
      "outputs": [],
      "payable": false,
      "stateMutability": "nonpayable",
      "type": "function"
    },
    {
      "constant": false,
      "inputs": [
        {
          "internalType": "address",
          "name": "dedgeCompoundManagerAddress",
          "type": "address"
        },
        {
          "internalType": "address payable",
          "name": "dacProxyAddress",
          "type": "address"
        },
        {
          "internalType": "address",
          "name": "addressRegistryAddress",
          "type": "address"
        },
        {
          "internalType": "address",
          "name": "oldCTokenAddress",
          "type": "address"
        },
        {
          "internalType": "uint256",
          "name": "oldTokenUnderlyingDelta",
          "type": "uint256"
        },
        {
          "internalType": "bytes",
          "name": "executeOperationCalldataParams",
          "type": "bytes"
        }
      ],
      "name": "swapOperation",
      "outputs": [],
      "payable": false,
      "stateMutability": "nonpayable",
      "type": "function"
    },
    {
      "constant": false,
      "inputs": [
        {
          "internalType": "address",
          "name": "addressRegistryAddress",
          "type": "address"
        },
        {
          "internalType": "address",
          "name": "oldCTokenAddress",
          "type": "address"
        },
        {
          "internalType": "uint256",
          "name": "oldTokenUnderlyingDustAmount",
          "type": "uint256"
        },
        {
          "internalType": "address",
          "name": "newCTokenAddress",
          "type": "address"
        }
      ],
      "name": "clearDebtDust",
      "outputs": [],
      "payable": true,
      "stateMutability": "payable",
      "type": "function"
    },
    {
      "constant": false,
      "inputs": [
        {
          "internalType": "address",
          "name": "addressRegistryAddress",
          "type": "address"
        },
        {
          "internalType": "address",
          "name": "oldCTokenAddress",
          "type": "address"
        },
        {
          "internalType": "uint256",
          "name": "oldTokenUnderlyingAmount",
          "type": "uint256"
        },
        {
          "internalType": "address",
          "name": "newCTokenAddress",
          "type": "address"
        }
      ],
      "name": "clearCollateralDust",
      "outputs": [],
      "payable": true,
      "stateMutability": "payable",
      "type": "function"
    }
  ],
  "bytecode": "0x608060405234801561001057600080fd5b50613409806100206000396000f3fe60806040526004361061014b5760003560e01c80637720cc87116100b6578063c04bea9b1161006f578063c04bea9b146102f8578063c29982381461030b578063d13b8c721461032b578063d2f70c401461033e578063d882dc6c1461035e578063f2b9fdb8146103715761014b565b80637720cc871461026c578063962941781461027f5780639a22a1b914610292578063abdb5ea8146102b2578063b14886ee146102c5578063ba59154f146102e55761014b565b806341ec5cc41161010857806341ec5cc4146101f85780634907b8fc1461020b5780634b8a35291461021357806359086a5e1461023357806367600cc21461024657806375d40945146102595761014b565b80630b4e0630146101505780631e9a69501461016557806324d1ea12146101785780632d8af543146101985780632f379b13146101b85780633dc4d99a146101d8575b600080fd5b61016361015e366004612a95565b610384565b005b610163610173366004612a95565b6104da565b34801561018457600080fd5b50610163610193366004612c06565b610582565b3480156101a457600080fd5b506101636101b3366004612b24565b6108b7565b3480156101c457600080fd5b506101636101d3366004612942565b6108cc565b3480156101e457600080fd5b506101636101f3366004612b24565b610c00565b610163610206366004612a95565b610c73565b610163610c85565b34801561021f57600080fd5b5061016361022e366004612a95565b610cef565b6101636102413660046129e7565b610d8a565b610163610254366004612a95565b610ec0565b610163610267366004612acf565b610ed5565b61016361027a3660046129e7565b610ee9565b61016361028d366004612a95565b610f24565b34801561029e57600080fd5b506101636102ad366004612a95565b610fbf565b6101636102c0366004612a95565b610fc9565b3480156102d157600080fd5b506101636102e0366004612c06565b6110ec565b6101636102f3366004612a95565b61138a565b610163610306366004612a34565b6113c4565b34801561031757600080fd5b50610163610326366004612b24565b611712565b610163610339366004612a34565b6117eb565b34801561034a57600080fd5b50610163610359366004612a95565b611ba1565b61016361036c366004612a95565b611cb8565b61016361037f366004612a95565b611cc2565b6040516370a0823160e01b81526000906001600160a01b038416906370a08231906103b39030906004016130fc565b60206040518083038186803b1580156103cb57600080fd5b505afa1580156103df573d6000803e3d6000fd5b505050506040513d601f19601f820116820180604052506104039190810190612bac565b90506001600160a01b038316734ddc2d193948926d02f9b1fe9e1daa0718270ed5146104355761043533308585611ddb565b61043f8383611cc2565b6040516370a0823160e01b81526000906001600160a01b038516906370a082319061046e9030906004016130fc565b60206040518083038186803b15801561048657600080fd5b505afa15801561049a573d6000803e3d6000fd5b505050506040513d601f19601f820116820180604052506104be9190810190612bac565b90506104d484336104cf8486611eef565b611f1c565b50505050565b60405163db006a7560e01b81526001600160a01b0383169063db006a75906105069084906004016132a4565b602060405180830381600087803b15801561052057600080fd5b505af1158015610534573d6000803e3d6000fd5b505050506040513d601f19601f820116820180604052506105589190810190612bac565b1561057e5760405162461bcd60e51b8152600401610575906131e4565b60405180910390fd5b5050565b61058a61272f565b61059682840184612be8565b805160208201516040830151929350909160006105c9886105bd8c8c63ffffffff6120ae16565b9063ffffffff6120ae16565b9050836001600160a01b031663744d27126040518163ffffffff1660e01b815260040160206040518083038186803b15801561060457600080fd5b505afa158015610618573d6000803e3d6000fd5b505050506040513d601f19601f8201168201806040525061063c9190810190612924565b6001600160a01b0316836001600160a01b031614156106645761065f838b610fc9565b610776565b6000836001600160a01b0316636f307dc36040518163ffffffff1660e01b815260040160206040518083038186803b15801561069f57600080fd5b505afa1580156106b3573d6000803e3d6000fd5b505050506040513d601f19601f820116820180604052506106d79190810190612924565b905060006106e5828d6120da565b60405163095ea7b360e01b81529091506001600160a01b0383169063095ea7b390610716908890859060040161316c565b602060405180830381600087803b15801561073057600080fd5b505af1158015610744573d6000803e3d6000fd5b505050506040513d601f19601f820116820180604052506107689190810190612b8e565b506107738582610fc9565b50505b836001600160a01b031663744d27126040518163ffffffff1660e01b815260040160206040518083038186803b1580156107af57600080fd5b505afa1580156107c3573d6000803e3d6000fd5b505050506040513d601f19601f820116820180604052506107e79190810190612924565b6001600160a01b0316826001600160a01b0316141561080f5761080a8282610cef565b6108ab565b6000826001600160a01b0316636f307dc36040518163ffffffff1660e01b815260040160206040518083038186803b15801561084a57600080fd5b505afa15801561085e573d6000803e3d6000fd5b505050506040513d601f19601f820116820180604052506108829190810190612924565b9050600061089082846120e8565b905061089c8482610cef565b6108a782828561216e565b5050505b50505050505050505050565b6108c081611712565b6108c981610c00565b50565b60008590506000816001600160a01b031663744d27126040518163ffffffff1660e01b815260040160206040518083038186803b15801561090c57600080fd5b505afa158015610920573d6000803e3d6000fd5b505050506040513d601f19601f820116820180604052506109449190810190612924565b6001600160a01b0316866001600160a01b031614156109645750836109e1565b6109de866001600160a01b0316636f307dc36040518163ffffffff1660e01b815260040160206040518083038186803b1580156109a057600080fd5b505afa1580156109b4573d6000803e3d6000fd5b505050506040513d601f19601f820116820180604052506109d89190810190612924565b8661228c565b90505b6060896040516020016109f491906130fc565b60408051601f1981840301815290829052610a1591879087906020016130d8565b60405160208183030381529060405290506000836001600160a01b0316633f6dc33b6040518163ffffffff1660e01b815260040160206040518083038186803b158015610a6157600080fd5b505afa158015610a75573d6000803e3d6000fd5b505050506040513d601f19601f82011682018060405250610a999190810190612924565b6001600160a01b0316630261bf8b6040518163ffffffff1660e01b815260040160206040518083038186803b158015610ad157600080fd5b505afa158015610ae5573d6000803e3d6000fd5b505050506040513d601f19601f82011682018060405250610b099190810190612924565b9050610b158a826122c2565b806001600160a01b0316635cffe9de8b866001600160a01b03166356cc94a26040518163ffffffff1660e01b815260040160206040518083038186803b158015610b5e57600080fd5b505afa158015610b72573d6000803e3d6000fd5b505050506040513d601f19601f82011682018060405250610b969190810190612924565b86866040518563ffffffff1660e01b8152600401610bb7949392919061310a565b600060405180830381600087803b158015610bd157600080fd5b505af1158015610be5573d6000803e3d6000fd5b50505050610bf38a82612490565b5050505050505050505050565b60005b815181101561057e57734ddc2d193948926d02f9b1fe9e1daa0718270ed56001600160a01b0316828281518110610c3657fe5b60200260200101516001600160a01b031614610c6b57610c6b828281518110610c5b57fe5b6020026020010151600019611ba1565b600101610c03565b610c7b610c85565b61057e8282610cef565b734ddc2d193948926d02f9b1fe9e1daa0718270ed56001600160a01b0316631249c58b346040518263ffffffff1660e01b81526004016000604051808303818588803b158015610cd457600080fd5b505af1158015610ce8573d6000803e3d6000fd5b5050505050565b60405163317afabb60e21b81526001600160a01b0383169063c5ebeaec90610d1b9084906004016132a4565b602060405180830381600087803b158015610d3557600080fd5b505af1158015610d49573d6000803e3d6000fd5b505050506040513d601f19601f82011682018060405250610d6d9190810190612bac565b1561057e5760405162461bcd60e51b8152600401610575906131d4565b6001600160a01b038216734ddc2d193948926d02f9b1fe9e1daa0718270ed51415610e145760405163e597461960e01b81526001600160a01b0383169063e5974619908390610ddd9087906004016130fc565b6000604051808303818588803b158015610df657600080fd5b505af1158015610e0a573d6000803e3d6000fd5b5050505050610ebb565b610e1e8282611ba1565b6040516304c11f0360e31b81526001600160a01b03831690632608f81890610e4c908690859060040161316c565b602060405180830381600087803b158015610e6657600080fd5b505af1158015610e7a573d6000803e3d6000fd5b505050506040513d601f19601f82011682018060405250610e9e9190810190612bac565b15610ebb5760405162461bcd60e51b815260040161057590613224565b505050565b610eca8282610f24565b61057e823383611f1c565b610edf8484611cc2565b6104d48282610cef565b6001600160a01b038216734ddc2d193948926d02f9b1fe9e1daa0718270ed514610f1957610f1933308484611ddb565b610ebb838383610d8a565b60405163852a12e360e01b81526001600160a01b0383169063852a12e390610f509084906004016132a4565b602060405180830381600087803b158015610f6a57600080fd5b505af1158015610f7e573d6000803e3d6000fd5b505050506040513d601f19601f82011682018060405250610fa29190810190612bac565b1561057e5760405162461bcd60e51b8152600401610575906131f4565b610eca8282610cef565b6001600160a01b038216734ddc2d193948926d02f9b1fe9e1daa0718270ed5141561104757816001600160a01b0316634e4d9fea826040518263ffffffff1660e01b81526004016000604051808303818588803b15801561102957600080fd5b505af115801561103d573d6000803e3d6000fd5b505050505061057e565b6110518282611ba1565b60405163073a938160e11b81526001600160a01b03831690630e7527029061107d9084906004016132a4565b602060405180830381600087803b15801561109757600080fd5b505af11580156110ab573d6000803e3d6000fd5b505050506040513d601f19601f820116820180604052506110cf9190810190612bac565b1561057e5760405162461bcd60e51b815260040161057590613244565b6110f461272f565b61110082840184612be8565b80516020820151604083015192935090916000611133886111278c8c63ffffffff61256016565b9063ffffffff61256016565b9050836001600160a01b031663744d27126040518163ffffffff1660e01b815260040160206040518083038186803b15801561116e57600080fd5b505afa158015611182573d6000803e3d6000fd5b505050506040513d601f19601f820116820180604052506111a69190810190612924565b6001600160a01b0316826001600160a01b031614156111ce576111c98282611cc2565b61125e565b6000826001600160a01b0316636f307dc36040518163ffffffff1660e01b815260040160206040518083038186803b15801561120957600080fd5b505afa15801561121d573d6000803e3d6000fd5b505050506040513d601f19601f820116820180604052506112419190810190612924565b9050600061124f82846120da565b905061125b8482611cc2565b50505b836001600160a01b031663744d27126040518163ffffffff1660e01b815260040160206040518083038186803b15801561129757600080fd5b505afa1580156112ab573d6000803e3d6000fd5b505050506040513d601f19601f820116820180604052506112cf9190810190612924565b6001600160a01b0316836001600160a01b031614156112f25761080a838b610f24565b6000836001600160a01b0316636f307dc36040518163ffffffff1660e01b815260040160206040518083038186803b15801561132d57600080fd5b505afa158015611341573d6000803e3d6000fd5b505050506040513d601f19601f820116820180604052506113659190810190612924565b90506000611373828d6120e8565b905061137f8582610f24565b6108a782828e61216e565b6001600160a01b038216734ddc2d193948926d02f9b1fe9e1daa0718270ed5146113ba576113ba33308484611ddb565b61057e8282610fc9565b806001600160a01b0316836001600160a01b031614156113f65760405162461bcd60e51b815260040161057590613274565b6000846114038585610f24565b806001600160a01b031663744d27126040518163ffffffff1660e01b815260040160206040518083038186803b15801561143c57600080fd5b505afa158015611450573d6000803e3d6000fd5b505050506040513d601f19601f820116820180604052506114749190810190612924565b6001600160a01b0316856001600160a01b0316141561150e57611507836001600160a01b0316636f307dc36040518163ffffffff1660e01b815260040160206040518083038186803b1580156114c957600080fd5b505afa1580156114dd573d6000803e3d6000fd5b505050506040513d601f19601f820116820180604052506115019190810190612924565b856120da565b9150611700565b806001600160a01b031663744d27126040518163ffffffff1660e01b815260040160206040518083038186803b15801561154757600080fd5b505afa15801561155b573d6000803e3d6000fd5b505050506040513d601f19601f8201168201806040525061157f9190810190612924565b6001600160a01b0316836001600160a01b0316141561161257611507856001600160a01b0316636f307dc36040518163ffffffff1660e01b815260040160206040518083038186803b1580156115d457600080fd5b505afa1580156115e8573d6000803e3d6000fd5b505050506040513d601f19601f8201168201806040525061160c9190810190612924565b856125a2565b6116fd856001600160a01b0316636f307dc36040518163ffffffff1660e01b815260040160206040518083038186803b15801561164e57600080fd5b505afa158015611662573d6000803e3d6000fd5b505050506040513d601f19601f820116820180604052506116869190810190612924565b846001600160a01b0316636f307dc36040518163ffffffff1660e01b815260040160206040518083038186803b1580156116bf57600080fd5b505afa1580156116d3573d6000803e3d6000fd5b505050506040513d601f19601f820116820180604052506116f79190810190612924565b866125b0565b91505b61170a8383611cc2565b505050505050565b604051631853304760e31b8152606090733d9819210a31b4961b30ef54be2aed79b9c9cd3b9063c29982389061174c908590600401613187565b600060405180830381600087803b15801561176657600080fd5b505af115801561177a573d6000803e3d6000fd5b505050506040513d6000823e601f3d908101601f191682016040526117a29190810190612b59565b905060005b8151811015610ebb578181815181106117bc57fe5b60200260200101516000146117e35760405162461bcd60e51b815260040161057590613214565b6001016117a7565b806001600160a01b0316836001600160a01b0316141561181d5760405162461bcd60e51b815260040161057590613294565b60008490506000806000836001600160a01b031663744d27126040518163ffffffff1660e01b815260040160206040518083038186803b15801561186057600080fd5b505afa158015611874573d6000803e3d6000fd5b505050506040513d601f19601f820116820180604052506118989190810190612924565b6001600160a01b0316876001600160a01b0316141561194b57846001600160a01b0316636f307dc36040518163ffffffff1660e01b815260040160206040518083038186803b1580156118ea57600080fd5b505afa1580156118fe573d6000803e3d6000fd5b505050506040513d601f19601f820116820180604052506119229190810190612924565b905061192e81876120e8565b925061193a8584610cef565b61194581848861216e565b50611b8d565b836001600160a01b031663744d27126040518163ffffffff1660e01b815260040160206040518083038186803b15801561198457600080fd5b505afa158015611998573d6000803e3d6000fd5b505050506040513d601f19601f820116820180604052506119bc9190810190612924565b6001600160a01b0316856001600160a01b03161415611a6957866001600160a01b0316636f307dc36040518163ffffffff1660e01b815260040160206040518083038186803b158015611a0e57600080fd5b505afa158015611a22573d6000803e3d6000fd5b505050506040513d601f19601f82011682018060405250611a469190810190612924565b9150611a52828761228c565b9250611a5e8584610cef565b6119458284886125c7565b866001600160a01b0316636f307dc36040518163ffffffff1660e01b815260040160206040518083038186803b158015611aa257600080fd5b505afa158015611ab6573d6000803e3d6000fd5b505050506040513d601f19601f82011682018060405250611ada9190810190612924565b9150846001600160a01b0316636f307dc36040518163ffffffff1660e01b815260040160206040518083038186803b158015611b1557600080fd5b505afa158015611b29573d6000803e3d6000fd5b505050506040513d601f19601f82011682018060405250611b4d9190810190612924565b90506000611b5b838861228c565b9050611b6782826120e8565b9350611b738685610cef565b611b7e82858361216e565b50611b8a8382896125c7565b50505b611b978787610fc9565b5050505050505050565b6000826001600160a01b0316636f307dc36040518163ffffffff1660e01b815260040160206040518083038186803b158015611bdc57600080fd5b505afa158015611bf0573d6000803e3d6000fd5b505050506040513d601f19601f82011682018060405250611c149190810190612924565b60405163095ea7b360e01b81529091506001600160a01b0382169063095ea7b390611c45908690869060040161316c565b602060405180830381600087803b158015611c5f57600080fd5b505af1158015611c73573d6000803e3d6000fd5b505050506040513d601f19601f82011682018060405250611c979190810190612b8e565b1515600114610ebb5760405162461bcd60e51b815260040161057590613264565b610eca82826104da565b6001600160a01b038216734ddc2d193948926d02f9b1fe9e1daa0718270ed51415611d3657734ddc2d193948926d02f9b1fe9e1daa0718270ed56001600160a01b0316631249c58b826040518263ffffffff1660e01b81526004016000604051808303818588803b15801561102957600080fd5b611d408282611ba1565b60405163140e25ad60e31b81526001600160a01b0383169063a0712d6890611d6c9084906004016132a4565b602060405180830381600087803b158015611d8657600080fd5b505af1158015611d9a573d6000803e3d6000fd5b505050506040513d601f19601f82011682018060405250611dbe9190810190612bac565b1561057e5760405162461bcd60e51b815260040161057590613284565b6000826001600160a01b0316636f307dc36040518163ffffffff1660e01b815260040160206040518083038186803b158015611e1657600080fd5b505afa158015611e2a573d6000803e3d6000fd5b505050506040513d601f19601f82011682018060405250611e4e9190810190612924565b6040516323b872dd60e01b81529091506001600160a01b038216906323b872dd90611e8190889088908790600401613144565b602060405180830381600087803b158015611e9b57600080fd5b505af1158015611eaf573d6000803e3d6000fd5b505050506040513d601f19601f82011682018060405250611ed39190810190612b8e565b610ce85760405162461bcd60e51b815260040161057590613234565b600082821115611f115760405162461bcd60e51b815260040161057590613204565b508082035b92915050565b6001600160a01b038316734ddc2d193948926d02f9b1fe9e1daa0718270ed51415611fa257816001600160a01b031681604051611f58906130f1565b60006040518083038185875af1925050503d8060008114611f95576040519150601f19603f3d011682016040523d82523d6000602084013e611f9a565b606091505b505050610ebb565b826001600160a01b0316636f307dc36040518163ffffffff1660e01b815260040160206040518083038186803b158015611fdb57600080fd5b505afa158015611fef573d6000803e3d6000fd5b505050506040513d601f19601f820116820180604052506120139190810190612924565b6001600160a01b031663a9059cbb83836040518363ffffffff1660e01b815260040161204092919061316c565b602060405180830381600087803b15801561205a57600080fd5b505af115801561206e573d6000803e3d6000fd5b505050506040513d601f19601f820116820180604052506120929190810190612b8e565b610ebb5760405162461bcd60e51b815260040161057590613254565b6000828201838110156120d35760405162461bcd60e51b8152600401610575906131c4565b9392505050565b60006120d3838360016125c7565b60006120f383612655565b6001600160a01b0316632640f62c836040518263ffffffff1660e01b815260040161211e91906132a4565b60206040518083038186803b15801561213657600080fd5b505afa15801561214a573d6000803e3d6000fd5b505050506040513d601f19601f820116820180604052506120d39190810190612bac565b60008061217a85612655565b60405163095ea7b360e01b81529091506001600160a01b0386169063095ea7b3906121ab908490889060040161316c565b602060405180830381600087803b1580156121c557600080fd5b505af11580156121d9573d6000803e3d6000fd5b505050506040513d601f19601f820116820180604052506121fd9190810190612b8e565b506040516395e3c50b60e01b81526001600160a01b038216906395e3c50b906122319087908790603c420190600401613198565b602060405180830381600087803b15801561224b57600080fd5b505af115801561225f573d6000803e3d6000fd5b505050506040513d601f19601f820116820180604052506122839190810190612bac565b95945050505050565b600061229783612655565b6001600160a01b03166359e94862836040518263ffffffff1660e01b815260040161211e91906132a4565b6000826001600160a01b031663bf7e214f6040518163ffffffff1660e01b815260040160206040518083038186803b1580156122fd57600080fd5b505afa158015612311573d6000803e3d6000fd5b505050506040513d601f19601f820116820180604052506123359190810190612bca565b9050806001600160a01b031663f0217ce58360601b6bffffffffffffffffffffffff1916836001600160a01b031663a8542f666040518163ffffffff1660e01b815260040160206040518083038186803b15801561239257600080fd5b505afa1580156123a6573d6000803e3d6000fd5b505050506040513d601f19601f820116820180604052506123ca9190810190612bac565b846001600160a01b031663a8542f666040518163ffffffff1660e01b815260040160206040518083038186803b15801561240357600080fd5b505afa158015612417573d6000803e3d6000fd5b505050506040513d601f19601f8201168201806040525061243b9190810190612bac565b6040518463ffffffff1660e01b815260040161245993929190613198565b600060405180830381600087803b15801561247357600080fd5b505af1158015612487573d6000803e3d6000fd5b50505050505050565b6000826001600160a01b031663bf7e214f6040518163ffffffff1660e01b815260040160206040518083038186803b1580156124cb57600080fd5b505afa1580156124df573d6000803e3d6000fd5b505050506040513d601f19601f820116820180604052506125039190810190612bca565b9050806001600160a01b03166379d88d878360601b6bffffffffffffffffffffffff1916836001600160a01b031663a8542f666040518163ffffffff1660e01b815260040160206040518083038186803b15801561239257600080fd5b60006120d383836040518060400160405280601e81526020017f536166654d6174683a207375627472616374696f6e206f766572666c6f7700008152506126df565b60006120d38383600161216e565b60006125bf848484600161270b565b949350505050565b60006125d284612655565b6001600160a01b031663f39b5b9b848442603c016040518463ffffffff1660e01b81526004016126039291906132b2565b6020604051808303818588803b15801561261c57600080fd5b505af1158015612630573d6000803e3d6000fd5b50505050506040513d601f19601f820116820180604052506125bf9190810190612bac565b6040516303795fb160e11b815260009073c0a47dfe034b400b47bdad5fecda2621de6c4d95906306f2bf629061268f9085906004016130fc565b60206040518083038186803b1580156126a757600080fd5b505afa1580156126bb573d6000803e3d6000fd5b505050506040513d601f19601f82011682018060405250611f169190810190612924565b600081848411156127035760405162461bcd60e51b815260040161057591906131b3565b505050900390565b60008061271886856125a2565b90506127258582856125c7565b9695505050505050565b604080516060810182526000808252602082018190529181019190915290565b8035611f1681613397565b8051611f1681613397565b600082601f83011261277657600080fd5b8135612789612784826132e7565b6132c0565b915081818352602084019350602081019050838560208402820111156127ae57600080fd5b60005b838110156127da57816127c4888261274f565b84525060209283019291909101906001016127b1565b5050505092915050565b600082601f8301126127f557600080fd5b8151612803612784826132e7565b9150818183526020840193506020810190508385602084028201111561282857600080fd5b60005b838110156127da578161283e888261285f565b845250602092830192919091019060010161282b565b8051611f16816133ab565b8051611f16816133b4565b60008083601f84011261287c57600080fd5b50813567ffffffffffffffff81111561289457600080fd5b6020830191508360018202830111156128ac57600080fd5b9250929050565b8051611f16816133bd565b6000606082840312156128d057600080fd5b6128da60606132c0565b905060006128e8848461274f565b82525060206128f98484830161274f565b602083015250604061290d8482850161274f565b60408301525092915050565b8035611f16816133b4565b60006020828403121561293657600080fd5b60006125bf848461275a565b600080600080600080600060c0888a03121561295d57600080fd5b60006129698a8a61274f565b975050602061297a8a828b0161274f565b965050604061298b8a828b0161274f565b955050606061299c8a828b0161274f565b94505060806129ad8a828b01612919565b93505060a088013567ffffffffffffffff8111156129ca57600080fd5b6129d68a828b0161286a565b925092505092959891949750929550565b6000806000606084860312156129fc57600080fd5b6000612a08868661274f565b9350506020612a198682870161274f565b9250506040612a2a86828701612919565b9150509250925092565b60008060008060808587031215612a4a57600080fd5b6000612a56878761274f565b9450506020612a678782880161274f565b9350506040612a7887828801612919565b9250506060612a898782880161274f565b91505092959194509250565b60008060408385031215612aa857600080fd5b6000612ab4858561274f565b9250506020612ac585828601612919565b9150509250929050565b60008060008060808587031215612ae557600080fd5b6000612af1878761274f565b9450506020612b0287828801612919565b9350506040612b138782880161274f565b9250506060612a8987828801612919565b600060208284031215612b3657600080fd5b813567ffffffffffffffff811115612b4d57600080fd5b6125bf84828501612765565b600060208284031215612b6b57600080fd5b815167ffffffffffffffff811115612b8257600080fd5b6125bf848285016127e4565b600060208284031215612ba057600080fd5b60006125bf8484612854565b600060208284031215612bbe57600080fd5b60006125bf848461285f565b600060208284031215612bdc57600080fd5b60006125bf84846128b3565b600060608284031215612bfa57600080fd5b60006125bf84846128be565b600080600080600060808688031215612c1e57600080fd5b6000612c2a8888612919565b9550506020612c3b88828901612919565b9450506040612c4c88828901612919565b935050606086013567ffffffffffffffff811115612c6957600080fd5b612c758882890161286a565b92509250509295509295909350565b6000612c908383612ca7565b505060200190565b612ca18161334a565b82525050565b612ca181613320565b6000612cbb8261330e565b612cc58185613312565b9350612cd083613308565b8060005b83811015612cfe578151612ce88882612c84565b9750612cf383613308565b925050600101612cd4565b509495945050505050565b612ca181613330565b6000612d1e838561331b565b9350612d2b838584613355565b50500190565b6000612d3c8261330e565b612d468185613312565b9350612d56818560208601613361565b612d5f8161338d565b9093019392505050565b6000612d748261330e565b612d7e818561331b565b9350612d8e818560208601613361565b9290920192915050565b6000612da5601b83613312565b7f536166654d6174683a206164646974696f6e206f766572666c6f770000000000815260200192915050565b6000612dde601e83613312565b7f636d706e642d6d67722d63746f6b656e2d626f72726f772d6661696c65640000815260200192915050565b6000612e17601e83613312565b7f636d706e642d6d67722d63746f6b656e2d72656465656d2d6661696c65640000815260200192915050565b6000612e50602983613312565b7f636d706e642d6d67722d63746f6b656e2d72656465656d2d756e6465726c79698152681b99cb59985a5b195960ba1b602082015260400192915050565b6000612e9b601483613312565b731cd859994b5b585d1a0b5cdd588b59985a5b195960621b815260200192915050565b6000612ecb601e83613312565b7f636d706e642d6d67722d656e7465722d6d61726b6574732d6661696c65640000815260200192915050565b6000612f04602383613312565b7f636d706e642d6d67722d63746f6b656e2d7265706179626568616c662d6661698152621b195960ea1b602082015260400192915050565b6000612f49601e83613312565b7f636d706e642d6d67722d7472616e736665722d66726f6d2d6661696c65640000815260200192915050565b6000612f82601d83613312565b7f636d706e642d6d67722d63746f6b656e2d72657061792d6661696c6564000000815260200192915050565b6000612fbb601983613312565b7f636d706e642d6d67722d7472616e736665722d6661696c656400000000000000815260200192915050565b6000611f1660008361331b565b6000613001602083613312565b7f636d706e642d6d67722d63746f6b656e2d617070726f7665642d6661696c6564815260200192915050565b600061303a601d83613312565b7f636c6561722d636f6c6c61746572616c2d73616d652d61646472657373000000815260200192915050565b6000613073601e83613312565b7f636d706e642d6d67722d63746f6b656e2d737570706c792d6661696c65640000815260200192915050565b60006130ac601783613312565b7f636c6561722d646562742d73616d652d61646472657373000000000000000000815260200192915050565b60006130e48286612d69565b9150612283828486612d12565b6000611f1682612fe7565b60208101611f168284612ca7565b608081016131188287612c98565b6131256020830186612ca7565b6131326040830185612d09565b81810360608301526127258184612d31565b606081016131528286612ca7565b61315f6020830185612ca7565b6125bf6040830184612d09565b6040810161317a8285612ca7565b6120d36020830184612d09565b602080825281016120d38184612cb0565b606081016131a68286612d09565b61315f6020830185612d09565b602080825281016120d38184612d31565b60208082528101611f1681612d98565b60208082528101611f1681612dd1565b60208082528101611f1681612e0a565b60208082528101611f1681612e43565b60208082528101611f1681612e8e565b60208082528101611f1681612ebe565b60208082528101611f1681612ef7565b60208082528101611f1681612f3c565b60208082528101611f1681612f75565b60208082528101611f1681612fae565b60208082528101611f1681612ff4565b60208082528101611f168161302d565b60208082528101611f1681613066565b60208082528101611f168161309f565b60208101611f168284612d09565b6040810161317a8285612d09565b60405181810167ffffffffffffffff811182821017156132df57600080fd5b604052919050565b600067ffffffffffffffff8211156132fe57600080fd5b5060209081020190565b60200190565b5190565b90815260200190565b919050565b6000611f168261333e565b151590565b90565b6000611f1682613320565b6001600160a01b031690565b6000611f1682613333565b82818337506000910152565b60005b8381101561337c578181015183820152602001613364565b838111156104d45750506000910152565b601f01601f191690565b6133a081613320565b81146108c957600080fd5b6133a08161332b565b6133a081613330565b6133a08161333356fea365627a7a72315820ce0b52e9b5c82f957a5966bc89c1e5ca746205ba9274035482b2834a0682c1bb6c6578706572696d656e74616cf564736f6c63430005100040",
  "source": "/*\n    Dedge's Aave and Compound manager\n*/\n\npragma solidity 0.5.16;\npragma experimental ABIEncoderV2;\n\n\nimport \"../lib/compound/CompoundBase.sol\";\n\nimport \"../lib/dapphub/Guard.sol\";\n\nimport \"../lib/uniswap/UniswapLiteBase.sol\";\n\nimport \"../interfaces/aave/ILendingPoolAddressesProvider.sol\";\nimport \"../interfaces/aave/ILendingPool.sol\";\nimport \"../interfaces/aave/ILendingPoolParametersProvider.sol\";\n\nimport \"../interfaces/compound/ICompoundPriceOracle.sol\";\nimport \"../interfaces/compound/IComptroller.sol\";\nimport \"../interfaces/compound/ICEther.sol\";\nimport \"../interfaces/compound/ICToken.sol\";\n\nimport \"../interfaces/IERC20.sol\";\n\nimport \"../registries/AddressRegistry.sol\";\n\nimport \"../proxies/DACProxy.sol\";\n\nimport \"@openzeppelin/contracts/math/SafeMath.sol\";\n\ncontract DedgeCompoundManager is UniswapLiteBase, CompoundBase {\n    using SafeMath for uint;\n\n    struct SwapOperationCalldata {\n        address addressRegistryAddress;\n        address oldCTokenAddress;\n        address newCTokenAddress;\n    }\n\n    function _proxyGuardPermit(address payable proxyAddress, address src) internal {\n        address g = address(DACProxy(proxyAddress).authority());\n\n        DSGuard(g).permit(\n            bytes32(bytes20(address(src))),\n            DSGuard(g).ANY(),\n            DSGuard(g).ANY()\n        );\n    }\n\n    function _proxyGuardForbid(address payable proxyAddress, address src) internal {\n        address g = address(DACProxy(proxyAddress).authority());\n\n        DSGuard(g).forbid(\n            bytes32(bytes20(address(src))),\n            DSGuard(g).ANY(),\n            DSGuard(g).ANY()\n        );\n    }\n\n    function swapDebtPostLoan(\n        uint _loanAmount,\n        uint _aaveFee,\n        uint _protocolFee,\n        bytes calldata _data\n    ) external {\n        SwapOperationCalldata memory soCalldata = abi.decode(_data, (SwapOperationCalldata));\n\n        AddressRegistry addressRegistry = AddressRegistry(soCalldata.addressRegistryAddress);\n\n        address oldCTokenAddress = soCalldata.oldCTokenAddress;\n        address newCTokenAddress = soCalldata.newCTokenAddress;\n\n        uint debtAmount = _loanAmount.add(_aaveFee).add(_protocolFee);\n\n        // Note: debtAmount = loanAmount + fees\n        // 1. Has ETH from Aave flashloan\n        // 2. Converts ETH to oldCToken underlying\n        // 3. Repays oldCToken underlying\n        // 4. Calculates new amount to borrow from new token to repay debtAmount\n        // 5. Borrows from new token\n        // 6. Convert new token to ETH\n\n        // Steps 2 + 3\n        // Converts ETH to oldCToken underlying and repay\n        // Unless old target underlying is already ether\n        if (oldCTokenAddress == addressRegistry.CEtherAddress()) {\n            repayBorrow(oldCTokenAddress, _loanAmount);\n        } else {\n            // Gets old token underlying and amount\n            address oldTokenUnderlying = ICToken(oldCTokenAddress).underlying();\n\n            uint oldTokenUnderlyingAmount = _ethToToken(\n                oldTokenUnderlying,\n                _loanAmount\n            );\n\n            // Approves CToken proxy and repays them\n            IERC20(oldTokenUnderlying)\n                .approve(oldCTokenAddress, oldTokenUnderlyingAmount);\n\n            // Repays CToken\n            repayBorrow(oldCTokenAddress, oldTokenUnderlyingAmount);\n        }\n\n        // Steps 4, 5, 6\n        // Calculates new debt amount to borrow\n        // Unless new target underlying is already ether\n        if (newCTokenAddress == addressRegistry.CEtherAddress()) {\n            borrow(newCTokenAddress, debtAmount);\n        } else {\n            // Gets new token underlying\n            address newTokenUnderlying = ICToken(newCTokenAddress).underlying();\n\n            // Calculates amount of old token underlying that needs to be borrowed\n            // to repay debts\n            uint newTokenUnderlyingAmount = _getTokenToEthOutput(\n                newTokenUnderlying,\n                debtAmount\n            );\n\n            // Borrows new debt\n            borrow(newCTokenAddress, newTokenUnderlyingAmount);\n\n            // Converts to ether\n            // Note this part is a bit more strict as we need to have\n            // enough ETH to repay Aave\n            _tokenToEth(newTokenUnderlying, newTokenUnderlyingAmount, debtAmount);\n        }\n    }\n\n    function swapCollateralPostLoan(\n        uint _loanAmount,\n        uint _aaveFee,\n        uint _protocolFee,\n        bytes calldata _data\n    ) external {\n        SwapOperationCalldata memory soCalldata = abi.decode(_data, (SwapOperationCalldata));\n\n        AddressRegistry addressRegistry = AddressRegistry(soCalldata.addressRegistryAddress);\n\n        address oldCTokenAddress = soCalldata.oldCTokenAddress;\n        address newCTokenAddress = soCalldata.newCTokenAddress;\n\n        // 1. Has ETH from Aave flashloan\n        // 2. Converts ETH into newCToken underlying\n        // 3. Supplies newCToken underlying\n        // 4. Redeems oldCToken underlying\n        // 5. Converts outCToken underlying to ETH\n        // 6. Borrow <fee> ETH to repay aave\n\n        // Steps 2 + 3\n        // Converts ETH to newCToken underlying and supply\n        // Unless old target underlying is already ether\n        uint repayAmount = _loanAmount.sub(_aaveFee).sub(_protocolFee);\n\n        if (newCTokenAddress == addressRegistry.CEtherAddress()) {\n            supply(newCTokenAddress, repayAmount);\n        } else {\n            // Gets new token underlying and converts ETH into newCToken underlying\n            address newTokenUnderlying = ICToken(newCTokenAddress).underlying();\n            uint newTokenUnderlyingAmount = _ethToToken(\n                newTokenUnderlying,\n                repayAmount\n            );\n\n            // Supplies new CTokens\n            supply(newCTokenAddress, newTokenUnderlyingAmount);\n        }\n\n        // Steps 4, 5\n        // Redeem CToken underlying\n        if (oldCTokenAddress == addressRegistry.CEtherAddress()) {\n            redeemUnderlying(oldCTokenAddress, _loanAmount);\n        } else {\n            // Gets old token underlying and amount to redeem (based on uniswap)\n            address oldTokenUnderlying = ICToken(oldCTokenAddress).underlying();\n            uint oldTokenUnderlyingAmount = _getTokenToEthOutput(oldTokenUnderlying, _loanAmount);\n\n            // Redeems them\n            redeemUnderlying(oldCTokenAddress, oldTokenUnderlyingAmount);\n\n            // Converts them into ETH\n            _tokenToEth(oldTokenUnderlying, oldTokenUnderlyingAmount, _loanAmount);\n        }\n    }\n\n    /*\n    Main entry point for swapping collateral / debt\n\n    @params:\n\n        dedgeCompoundManagerAddress: Dedge Compound Manager address\n        dacProxyAddress: User's proxy address\n        addressRegistryAddress: AddressRegistry's Address\n        oldCTokenAddress: oldCToken address\n        oldTokenUnderlyingDelta: Amount of tokens to swap from old c token's underlying\n        executeOperationCalldataParams:\n            Abi-encoded `data` used by User's proxy's `execute(address, <data>)` function.\n            Used to delegatecall to another contract (i.e. this contract) in the context\n            of the proxy. This allows us to decouple the logic of handling flashloans\n            from the proxy contract. In this specific case, it is expecting the results\n            from: (from JS)\n\n            ```\n                const IDedgeCompoundManager = ethers.utils.Interface(DedgeCompoundManager.abi)\n\n                const executeOperationCalldataParams = IDedgeCompoundManager\n                    .functions\n                    .swapDebt OR .swapCollateral\n                    .encode([\n                        <parameters>\n                    ])\n            ```\n    */\n    function swapOperation(\n        address dedgeCompoundManagerAddress,\n        address payable dacProxyAddress,\n        address addressRegistryAddress,\n        address oldCTokenAddress,            // Old CToken address for [debt|collateral]\n        uint oldTokenUnderlyingDelta,        // Amount of old tokens to swap to new tokens\n        bytes calldata executeOperationCalldataParams\n    ) external {\n        // Calling from dacProxy context (msg.sender is dacProxy)\n        // 1. Get amount of ETH obtained by selling that from Uniswap\n        // 2. Flashloans ETH to dacProxy\n\n        // Gets registries\n        AddressRegistry addressRegistry = AddressRegistry(addressRegistryAddress);\n\n        // 1. Get amount of ETH needed\n        // If the old target is ether than the ethDebtAmount is just the delta\n        uint ethDebtAmount;\n\n        if (oldCTokenAddress == addressRegistry.CEtherAddress()) {\n            ethDebtAmount = oldTokenUnderlyingDelta;\n        } else {\n            // Otherwise calculate it from the exchange\n            ethDebtAmount = _getEthToTokenOutput(\n                ICToken(oldCTokenAddress).underlying(),\n                oldTokenUnderlyingDelta\n            );\n        }\n\n        // Injects the target address into calldataParams\n        // so user proxy know which address it'll be calling `calldataParams` on\n        bytes memory addressAndExecuteOperationCalldataParams = abi.encodePacked(\n            abi.encode(dedgeCompoundManagerAddress),\n            executeOperationCalldataParams\n        );\n\n        ILendingPool lendingPool = ILendingPool(\n            ILendingPoolAddressesProvider(\n                addressRegistry.AaveLendingPoolAddressProviderAddress()\n            ).getLendingPool()\n        );\n\n        // Approve lendingPool to call proxy\n        _proxyGuardPermit(dacProxyAddress, address(lendingPool));\n\n        // 3. Flashloan ETH with relevant data\n        lendingPool.flashLoan(\n            dacProxyAddress,\n            addressRegistry.AaveEthAddress(),\n            ethDebtAmount,\n            addressAndExecuteOperationCalldataParams\n        );\n\n        // Forbids lendingPool to call proxy\n        _proxyGuardForbid(dacProxyAddress, address(lendingPool));\n    }\n\n    // Clears dust debt by swapping old debt into new debt\n    function clearDebtDust(\n        address addressRegistryAddress,\n        address oldCTokenAddress,\n        uint oldTokenUnderlyingDustAmount,\n        address newCTokenAddress\n    ) public payable {\n        // i.e. Has 0.1 ETH (oldCToken) debt 900 DAI (newCToken)\n        // wants to have it all in DAI\n\n        // 0. Calculates 0.1 ETH equilavent in DAI\n        // 1. Borrows out 0.1 ETH equilavent in DAI (~10 DAI as of march 2020)\n        // 2. Convert 10 DAI into 0.1 ETH\n        // 3. Repay 0.1 ETH\n\n        require(oldCTokenAddress != newCTokenAddress, \"clear-debt-same-address\");\n\n        AddressRegistry addressRegistry = AddressRegistry(addressRegistryAddress);\n\n        uint borrowAmount;\n        address oldTokenUnderlying;\n        address newTokenUnderlying;\n\n        if (oldCTokenAddress == addressRegistry.CEtherAddress()) {\n            // ETH -> Token\n            newTokenUnderlying = ICToken(newCTokenAddress).underlying();\n\n            // Calculates ETH equilavent in token\n            borrowAmount = _getTokenToEthOutput(newTokenUnderlying, oldTokenUnderlyingDustAmount);\n\n            // Borrows out equilavent token\n            borrow(newCTokenAddress, borrowAmount);\n\n            // Converts token to ETH\n            _tokenToEth(newTokenUnderlying, borrowAmount, oldTokenUnderlyingDustAmount);\n        } else if (newCTokenAddress == addressRegistry.CEtherAddress()) {\n            // Token -> ETH\n            oldTokenUnderlying = ICToken(oldCTokenAddress).underlying();\n\n            // Calculates token equilavent in ETH\n            borrowAmount = _getEthToTokenOutput(oldTokenUnderlying, oldTokenUnderlyingDustAmount);\n\n            // Borrows out equilavent ETH\n            borrow(newCTokenAddress, borrowAmount);\n\n            // Converts ETH to token\n            _ethToToken(oldTokenUnderlying, borrowAmount, oldTokenUnderlyingDustAmount);\n        } else {\n            // token -> token\n            oldTokenUnderlying = ICToken(oldCTokenAddress).underlying();\n            newTokenUnderlying = ICToken(newCTokenAddress).underlying();\n\n            // Calculates eth borrow amount\n            uint ethAmount = _getEthToTokenOutput(oldTokenUnderlying, oldTokenUnderlyingDustAmount);\n\n            // Calculates token borrow amount\n            borrowAmount = _getTokenToEthOutput(newTokenUnderlying, ethAmount);\n\n            // Borrows out equilavent token\n            borrow(newCTokenAddress, borrowAmount);\n\n            // Converts old token to target token\n            _tokenToEth(newTokenUnderlying, borrowAmount, ethAmount);\n            _ethToToken(oldTokenUnderlying, ethAmount, oldTokenUnderlyingDustAmount);\n        }\n\n        // Repays borrowed\n        repayBorrow(oldCTokenAddress, oldTokenUnderlyingDustAmount);\n    }\n\n    function clearCollateralDust(\n        address addressRegistryAddress,\n        address oldCTokenAddress,\n        uint oldTokenUnderlyingAmount,\n        address newCTokenAddress\n    ) public payable {\n        // i.e. Has 10 ETH collateral and 10 DAI collateral\n        // wants to have it all in ETH\n\n        // 1. Redeems 10 DAI collateral\n        // 2. Converts it to ETH\n        // 3. Puts it into ETH\n\n        // More abstractly,\n        // 1. Redeems tokens\n        // 2. Convert it to other token\n        // 3. Put other token in\n\n        require(oldCTokenAddress != newCTokenAddress, \"clear-collateral-same-address\");\n\n        uint supplyAmount;\n        AddressRegistry addressRegistry = AddressRegistry(addressRegistryAddress);\n\n        // Redeems collateral\n        redeemUnderlying(oldCTokenAddress, oldTokenUnderlyingAmount);\n\n        if (oldCTokenAddress == addressRegistry.CEtherAddress()) {\n            // ETH -> Token\n            supplyAmount = _ethToToken(\n                ICToken(newCTokenAddress).underlying(),\n                oldTokenUnderlyingAmount\n            );\n        } else if (newCTokenAddress == addressRegistry.CEtherAddress()) {\n            // Token -> ETH\n            supplyAmount = _tokenToEth(\n                ICToken(oldCTokenAddress).underlying(),\n                oldTokenUnderlyingAmount\n            );\n        } else {\n            // Token -> Token\n            supplyAmount = _tokenToToken(\n                ICToken(oldCTokenAddress).underlying(),\n                ICToken(newCTokenAddress).underlying(),\n                oldTokenUnderlyingAmount\n            );\n        }\n\n        // Supplies collateral\n        supply(newCTokenAddress, supplyAmount);\n    }\n}\n",
  "sourcePath": "/home/kendrick/Development/Ethereum/dedge/packages/smart-contracts/src/managers/DedgeCompoundManager.sol",
  "compiler": {
    "name": "solc",
    "version": "0.5.16+commit.9c3226ce.Emscripten.clang"
  },
  "schemaVersion": "3.0.23",
  "updatedAt": "2020-04-03T06:28:59.320Z",
  "networkType": "ethereum",
  "devdoc": {
    "methods": {}
  },
  "userdoc": {
    "methods": {}
  }
}