{
  "contractName": "DedgeExitManager",
  "abi": [
    {
      "inputs": [],
      "payable": false,
      "stateMutability": "nonpayable",
      "type": "constructor"
    },
    {
      "payable": true,
      "stateMutability": "payable",
      "type": "fallback"
    },
    {
      "constant": false,
      "inputs": [
        {
          "internalType": "address",
          "name": "cToken",
          "type": "address"
        },
        {
          "internalType": "uint256",
          "name": "amount",
          "type": "uint256"
        }
      ],
      "name": "_approve",
      "outputs": [],
      "payable": false,
      "stateMutability": "nonpayable",
      "type": "function"
    },
    {
      "constant": false,
      "inputs": [
        {
          "internalType": "uint256",
          "name": "_amount",
          "type": "uint256"
        },
        {
          "internalType": "uint256",
          "name": "_fee",
          "type": "uint256"
        },
        {
          "internalType": "uint256",
          "name": "_protocolFee",
          "type": "uint256"
        },
        {
          "internalType": "bytes",
          "name": "_params",
          "type": "bytes"
        }
      ],
      "name": "exitPositionsPostLoan",
      "outputs": [],
      "payable": false,
      "stateMutability": "nonpayable",
      "type": "function"
    },
    {
      "constant": false,
      "inputs": [
        {
          "internalType": "uint256",
          "name": "totalEthDebtAmount",
          "type": "uint256"
        },
        {
          "internalType": "address",
          "name": "dedgeExitManagerAddress",
          "type": "address"
        },
        {
          "internalType": "address payable",
          "name": "dacProxyAddress",
          "type": "address"
        },
        {
          "internalType": "address",
          "name": "addressRegistryAddress",
          "type": "address"
        },
        {
          "internalType": "bytes",
          "name": "executeOperationCalldataParams",
          "type": "bytes"
        }
      ],
      "name": "exitPositions",
      "outputs": [],
      "payable": false,
      "stateMutability": "nonpayable",
      "type": "function"
    },
    {
      "constant": true,
      "inputs": [
        {
          "internalType": "address",
          "name": "addressRegistryAddress",
          "type": "address"
        },
        {
          "internalType": "address",
          "name": "owner",
          "type": "address"
        }
      ],
      "name": "getExitPositionsData",
      "outputs": [
        {
          "internalType": "uint256",
          "name": "ethDebtAmount",
          "type": "uint256"
        },
        {
          "internalType": "address[]",
          "name": "debtAddress",
          "type": "address[]"
        },
        {
          "internalType": "address[]",
          "name": "collateralAddress",
          "type": "address[]"
        }
      ],
      "payable": false,
      "stateMutability": "view",
      "type": "function"
    }
  ],
  "bytecode": "0x608060405234801561001057600080fd5b50612442806100206000396000f3fe60806040526004361061003f5760003560e01c8063642c3dfa146100415780636889dfe11461006a5780637b7d722514610093578063ada9e355146100bc575b005b34801561004d57600080fd5b5061006860048036036100639190810190611b83565b6100fb565b005b34801561007657600080fd5b50610091600480360361008c9190810190611c15565b610353565b005b34801561009f57600080fd5b506100ba60048036036100b59190810190611a21565b610529565b005b3480156100c857600080fd5b506100e360048036036100de91908101906119e5565b610683565b6040516100f2939291906120d8565b60405180910390f35b60008390506060866040516020016101139190611f59565b604051602081830303815290604052848460405160200161013693929190611f1e565b604051602081830303815290604052905060008273ffffffffffffffffffffffffffffffffffffffff16633f6dc33b6040518163ffffffff1660e01b815260040160206040518083038186803b15801561018f57600080fd5b505afa1580156101a3573d6000803e3d6000fd5b505050506040513d601f19601f820116820180604052506101c791908101906119bc565b73ffffffffffffffffffffffffffffffffffffffff16630261bf8b6040518163ffffffff1660e01b815260040160206040518083038186803b15801561020c57600080fd5b505afa158015610220573d6000803e3d6000fd5b505050506040513d601f19601f8201168201806040525061024491908101906119bc565b905061025087826109b8565b8073ffffffffffffffffffffffffffffffffffffffff16635cffe9de888573ffffffffffffffffffffffffffffffffffffffff166356cc94a26040518163ffffffff1660e01b815260040160206040518083038186803b1580156102b357600080fd5b505afa1580156102c7573d6000803e3d6000fd5b505050506040513d601f19601f820116820180604052506102eb91908101906119bc565b8c866040518563ffffffff1660e01b815260040161030c9493929190611f8f565b600060405180830381600087803b15801561032657600080fd5b505af115801561033a573d6000803e3d6000fd5b505050506103488782610bba565b505050505050505050565b61035b6116cc565b828261036a9190810190611b19565b90506000816020015173ffffffffffffffffffffffffffffffffffffffff1663744d27126040518163ffffffff1660e01b815260040160206040518083038186803b1580156103b857600080fd5b505afa1580156103cc573d6000803e3d6000fd5b505050506040513d601f19601f820116820180604052506103f091908101906119bc565b905060008090505b82604001515181101561043357610426828460400151838151811061041957fe5b6020026020010151610dbc565b80806001019150506103f8565b50600080600090505b83606001515181101561047b5761046a838560600151838151811061045d57fe5b6020026020010151610f2a565b82019150808060010191505061043c565b50826000015173ffffffffffffffffffffffffffffffffffffffff166104ce876104c08a6104b28d8761109690919063ffffffff16565b61109690919063ffffffff16565b61109690919063ffffffff16565b6040516104da90611f44565b60006040518083038185875af1925050503d8060008114610517576040519150601f19603f3d011682016040523d82523d6000602084013e61051c565b606091505b5050505050505050505050565b60008273ffffffffffffffffffffffffffffffffffffffff16636f307dc36040518163ffffffff1660e01b815260040160206040518083038186803b15801561057157600080fd5b505afa158015610585573d6000803e3d6000fd5b505050506040513d601f19601f820116820180604052506105a991908101906119bc565b9050600115158173ffffffffffffffffffffffffffffffffffffffff1663095ea7b385856040518363ffffffff1660e01b81526004016105ea929190611fdb565b602060405180830381600087803b15801561060457600080fd5b505af1158015610618573d6000803e3d6000fd5b505050506040513d601f19601f8201168201806040525061063c9190810190611a9e565b15151461067e576040517f08c379a00000000000000000000000000000000000000000000000000000000081526004016106759061209d565b60405180910390fd5b505050565b6000606080600085905060008173ffffffffffffffffffffffffffffffffffffffff1663bd020fbc6040518163ffffffff1660e01b815260040160206040518083038186803b1580156106d557600080fd5b505afa1580156106e9573d6000803e3d6000fd5b505050506040513d601f19601f8201168201806040525061070d91908101906119bc565b905060608173ffffffffffffffffffffffffffffffffffffffff1663abfceffc886040518263ffffffff1660e01b815260040161074a9190611f59565b60006040518083038186803b15801561076257600080fd5b505afa158015610776573d6000803e3d6000fd5b505050506040513d6000823e3d601f19601f8201168201806040525061079f9190810190611a5d565b9050600080600080600080600090505b86518110156109a8578681815181106107c457fe5b602002602001015195508573ffffffffffffffffffffffffffffffffffffffff166317bfdfbc8e6040518263ffffffff1660e01b81526004016108079190611f59565b60206040518083038186803b15801561081f57600080fd5b505afa158015610833573d6000803e3d6000fd5b505050506040513d601f19601f820116820180604052506108579190810190611b5a565b92508573ffffffffffffffffffffffffffffffffffffffff16633af9e6698e6040518263ffffffff1660e01b81526004016108929190611f59565b60206040518083038186803b1580156108aa57600080fd5b505afa1580156108be573d6000803e3d6000fd5b505050506040513d601f19601f820116820180604052506108e29190810190611b5a565b9450600085111561093d57858a85815181106108fa57fe5b602002602001019073ffffffffffffffffffffffffffffffffffffffff16908173ffffffffffffffffffffffffffffffffffffffff168152505083806001019450505b600083111561099b57858b838151811061095357fe5b602002602001019073ffffffffffffffffffffffffffffffffffffffff16908173ffffffffffffffffffffffffffffffffffffffff16815250508180600101925050828c019b505b80806001019150506107af565b5050505050505050509250925092565b60008273ffffffffffffffffffffffffffffffffffffffff1663bf7e214f6040518163ffffffff1660e01b815260040160206040518083038186803b158015610a0057600080fd5b505afa158015610a14573d6000803e3d6000fd5b505050506040513d601f19601f82011682018060405250610a389190810190611af0565b90508073ffffffffffffffffffffffffffffffffffffffff1663f0217ce58360601b6bffffffffffffffffffffffff19168373ffffffffffffffffffffffffffffffffffffffff1663a8542f666040518163ffffffff1660e01b815260040160206040518083038186803b158015610aaf57600080fd5b505afa158015610ac3573d6000803e3d6000fd5b505050506040513d601f19601f82011682018060405250610ae79190810190611ac7565b8473ffffffffffffffffffffffffffffffffffffffff1663a8542f666040518163ffffffff1660e01b815260040160206040518083038186803b158015610b2d57600080fd5b505afa158015610b41573d6000803e3d6000fd5b505050506040513d601f19601f82011682018060405250610b659190810190611ac7565b6040518463ffffffff1660e01b8152600401610b8393929190612004565b600060405180830381600087803b158015610b9d57600080fd5b505af1158015610bb1573d6000803e3d6000fd5b50505050505050565b60008273ffffffffffffffffffffffffffffffffffffffff1663bf7e214f6040518163ffffffff1660e01b815260040160206040518083038186803b158015610c0257600080fd5b505afa158015610c16573d6000803e3d6000fd5b505050506040513d601f19601f82011682018060405250610c3a9190810190611af0565b90508073ffffffffffffffffffffffffffffffffffffffff166379d88d878360601b6bffffffffffffffffffffffff19168373ffffffffffffffffffffffffffffffffffffffff1663a8542f666040518163ffffffff1660e01b815260040160206040518083038186803b158015610cb157600080fd5b505afa158015610cc5573d6000803e3d6000fd5b505050506040513d601f19601f82011682018060405250610ce99190810190611ac7565b8473ffffffffffffffffffffffffffffffffffffffff1663a8542f666040518163ffffffff1660e01b815260040160206040518083038186803b158015610d2f57600080fd5b505afa158015610d43573d6000803e3d6000fd5b505050506040513d601f19601f82011682018060405250610d679190810190611ac7565b6040518463ffffffff1660e01b8152600401610d8593929190612004565b600060405180830381600087803b158015610d9f57600080fd5b505af1158015610db3573d6000803e3d6000fd5b50505050505050565b60008173ffffffffffffffffffffffffffffffffffffffff166317bfdfbc306040518263ffffffff1660e01b8152600401610df79190611f74565b60206040518083038186803b158015610e0f57600080fd5b505afa158015610e23573d6000803e3d6000fd5b505050506040513d601f19601f82011682018060405250610e479190810190611b5a565b90508273ffffffffffffffffffffffffffffffffffffffff168273ffffffffffffffffffffffffffffffffffffffff1614610f1a5760008273ffffffffffffffffffffffffffffffffffffffff16636f307dc36040518163ffffffff1660e01b815260040160206040518083038186803b158015610ec457600080fd5b505afa158015610ed8573d6000803e3d6000fd5b505050506040513d601f19601f82011682018060405250610efc91908101906119bc565b90506000610f0a82846110e0565b9050610f16828261117b565b5050505b610f25838383611191565b505050565b6000808273ffffffffffffffffffffffffffffffffffffffff16633af9e669306040518263ffffffff1660e01b8152600401610f669190611f74565b60206040518083038186803b158015610f7e57600080fd5b505afa158015610f92573d6000803e3d6000fd5b505050506040513d601f19601f82011682018060405250610fb69190810190611b5a565b9050610fc28382611308565b8373ffffffffffffffffffffffffffffffffffffffff168373ffffffffffffffffffffffffffffffffffffffff161415610fff5780915050611090565b60008373ffffffffffffffffffffffffffffffffffffffff16636f307dc36040518163ffffffff1660e01b815260040160206040518083038186803b15801561104757600080fd5b505afa15801561105b573d6000803e3d6000fd5b505050506040513d601f19601f8201168201806040525061107f91908101906119bc565b905061108b81836113d9565b925050505b92915050565b60006110d883836040518060400160405280601e81526020017f536166654d6174683a207375627472616374696f6e206f766572666c6f7700008152506113ef565b905092915050565b60006110eb8361144a565b73ffffffffffffffffffffffffffffffffffffffff166359e94862836040518263ffffffff1660e01b815260040161112391906120bd565b60206040518083038186803b15801561113b57600080fd5b505afa15801561114f573d6000803e3d6000fd5b505050506040513d601f19601f820116820180604052506111739190810190611b5a565b905092915050565b6000611189838360016114f0565b905092915050565b8273ffffffffffffffffffffffffffffffffffffffff168273ffffffffffffffffffffffffffffffffffffffff16141561122b578173ffffffffffffffffffffffffffffffffffffffff16634e4d9fea826040518263ffffffff1660e01b81526004016000604051808303818588803b15801561120d57600080fd5b505af1158015611221573d6000803e3d6000fd5b5050505050611303565b6112358282610529565b60008273ffffffffffffffffffffffffffffffffffffffff16630e752702836040518263ffffffff1660e01b815260040161127091906120bd565b602060405180830381600087803b15801561128a57600080fd5b505af115801561129e573d6000803e3d6000fd5b505050506040513d601f19601f820116820180604052506112c29190810190611b5a565b14611302576040517f08c379a00000000000000000000000000000000000000000000000000000000081526004016112f99061207d565b60405180910390fd5b5b505050565b60008273ffffffffffffffffffffffffffffffffffffffff1663852a12e3836040518263ffffffff1660e01b815260040161134391906120bd565b602060405180830381600087803b15801561135d57600080fd5b505af1158015611371573d6000803e3d6000fd5b505050506040513d601f19601f820116820180604052506113959190810190611b5a565b146113d5576040517f08c379a00000000000000000000000000000000000000000000000000000000081526004016113cc9061205d565b60405180910390fd5b5050565b60006113e783836001611594565b905092915050565b6000838311158290611437576040517f08c379a000000000000000000000000000000000000000000000000000000000815260040161142e919061203b565b60405180910390fd5b5060008385039050809150509392505050565b600073c0a47dfe034b400b47bdad5fecda2621de6c4d9573ffffffffffffffffffffffffffffffffffffffff166306f2bf62836040518263ffffffff1660e01b81526004016114999190611f59565b60206040518083038186803b1580156114b157600080fd5b505afa1580156114c5573d6000803e3d6000fd5b505050506040513d601f19601f820116820180604052506114e991908101906119bc565b9050919050565b60006114fb8461144a565b73ffffffffffffffffffffffffffffffffffffffff1663f39b5b9b8484603c42016040518463ffffffff1660e01b815260040161153992919061211d565b6020604051808303818588803b15801561155257600080fd5b505af1158015611566573d6000803e3d6000fd5b50505050506040513d601f19601f8201168201806040525061158b9190810190611b5a565b90509392505050565b6000806115a08561144a565b90508473ffffffffffffffffffffffffffffffffffffffff1663095ea7b382866040518363ffffffff1660e01b81526004016115dd929190611fdb565b602060405180830381600087803b1580156115f757600080fd5b505af115801561160b573d6000803e3d6000fd5b505050506040513d601f19601f8201168201806040525061162f9190810190611a9e565b508073ffffffffffffffffffffffffffffffffffffffff166395e3c50b8585603c42016040518463ffffffff1660e01b815260040161167093929190612146565b602060405180830381600087803b15801561168a57600080fd5b505af115801561169e573d6000803e3d6000fd5b505050506040513d601f19601f820116820180604052506116c29190810190611b5a565b9150509392505050565b6040518060800160405280600073ffffffffffffffffffffffffffffffffffffffff168152602001600073ffffffffffffffffffffffffffffffffffffffff16815260200160608152602001606081525090565b60008135905061172f81612375565b92915050565b60008151905061174481612375565b92915050565b6000813590506117598161238c565b92915050565b600082601f83011261177057600080fd5b813561178361177e826121aa565b61217d565b915081818352602084019350602081019050838560208402820111156117a857600080fd5b60005b838110156117d857816117be8882611720565b8452602084019350602083019250506001810190506117ab565b5050505092915050565b600082601f8301126117f357600080fd5b8151611806611801826121d2565b61217d565b9150818183526020840193506020810190508385602084028201111561182b57600080fd5b60005b8381101561185b57816118418882611735565b84526020840193506020830192505060018101905061182e565b5050505092915050565b600081519050611874816123a3565b92915050565b600081519050611889816123ba565b92915050565b60008083601f8401126118a157600080fd5b8235905067ffffffffffffffff8111156118ba57600080fd5b6020830191508360018202830111156118d257600080fd5b9250929050565b6000815190506118e8816123d1565b92915050565b60006080828403121561190057600080fd5b61190a608061217d565b9050600061191a8482850161174a565b600083015250602061192e84828501611720565b602083015250604082013567ffffffffffffffff81111561194e57600080fd5b61195a8482850161175f565b604083015250606082013567ffffffffffffffff81111561197a57600080fd5b6119868482850161175f565b60608301525092915050565b6000813590506119a1816123e8565b92915050565b6000815190506119b6816123e8565b92915050565b6000602082840312156119ce57600080fd5b60006119dc84828501611735565b91505092915050565b600080604083850312156119f857600080fd5b6000611a0685828601611720565b9250506020611a1785828601611720565b9150509250929050565b60008060408385031215611a3457600080fd5b6000611a4285828601611720565b9250506020611a5385828601611992565b9150509250929050565b600060208284031215611a6f57600080fd5b600082015167ffffffffffffffff811115611a8957600080fd5b611a95848285016117e2565b91505092915050565b600060208284031215611ab057600080fd5b6000611abe84828501611865565b91505092915050565b600060208284031215611ad957600080fd5b6000611ae78482850161187a565b91505092915050565b600060208284031215611b0257600080fd5b6000611b10848285016118d9565b91505092915050565b600060208284031215611b2b57600080fd5b600082013567ffffffffffffffff811115611b4557600080fd5b611b51848285016118ee565b91505092915050565b600060208284031215611b6c57600080fd5b6000611b7a848285016119a7565b91505092915050565b60008060008060008060a08789031215611b9c57600080fd5b6000611baa89828a01611992565b9650506020611bbb89828a01611720565b9550506040611bcc89828a0161174a565b9450506060611bdd89828a01611720565b935050608087013567ffffffffffffffff811115611bfa57600080fd5b611c0689828a0161188f565b92509250509295509295509295565b600080600080600060808688031215611c2d57600080fd5b6000611c3b88828901611992565b9550506020611c4c88828901611992565b9450506040611c5d88828901611992565b935050606086013567ffffffffffffffff811115611c7a57600080fd5b611c868882890161188f565b92509250509295509295909350565b6000611ca18383611cbc565b60208301905092915050565b611cb6816122ec565b82525050565b611cc581612276565b82525050565b611cd481612276565b82525050565b6000611ce58261220a565b611cef8185612238565b9350611cfa836121fa565b8060005b83811015611d2b578151611d128882611c95565b9750611d1d8361222b565b925050600181019050611cfe565b5085935050505092915050565b611d41816122a6565b82525050565b6000611d53838561225a565b9350611d60838584612322565b82840190509392505050565b6000611d7782612215565b611d818185612249565b9350611d91818560208601612331565b611d9a81612364565b840191505092915050565b6000611db082612215565b611dba818561225a565b9350611dca818560208601612331565b80840191505092915050565b6000611de182612220565b611deb8185612265565b9350611dfb818560208601612331565b611e0481612364565b840191505092915050565b6000611e1c602983612265565b91507f636d706e642d6d67722d63746f6b656e2d72656465656d2d756e6465726c796960008301527f6e672d6661696c656400000000000000000000000000000000000000000000006020830152604082019050919050565b6000611e82601d83612265565b91507f636d706e642d6d67722d63746f6b656e2d72657061792d6661696c65640000006000830152602082019050919050565b6000611ec260008361225a565b9150600082019050919050565b6000611edc602083612265565b91507f636d706e642d6d67722d63746f6b656e2d617070726f7665642d6661696c65646000830152602082019050919050565b611f18816122e2565b82525050565b6000611f2a8286611da5565b9150611f37828486611d47565b9150819050949350505050565b6000611f4f82611eb5565b9150819050919050565b6000602082019050611f6e6000830184611ccb565b92915050565b6000602082019050611f896000830184611cad565b92915050565b6000608082019050611fa46000830187611cad565b611fb16020830186611ccb565b611fbe6040830185611f0f565b8181036060830152611fd08184611d6c565b905095945050505050565b6000604082019050611ff06000830185611ccb565b611ffd6020830184611f0f565b9392505050565b60006060820190506120196000830186611d38565b6120266020830185611d38565b6120336040830184611d38565b949350505050565b600060208201905081810360008301526120558184611dd6565b905092915050565b6000602082019050818103600083015261207681611e0f565b9050919050565b6000602082019050818103600083015261209681611e75565b9050919050565b600060208201905081810360008301526120b681611ecf565b9050919050565b60006020820190506120d26000830184611f0f565b92915050565b60006060820190506120ed6000830186611f0f565b81810360208301526120ff8185611cda565b905081810360408301526121138184611cda565b9050949350505050565b60006040820190506121326000830185611f0f565b61213f6020830184611f0f565b9392505050565b600060608201905061215b6000830186611f0f565b6121686020830185611f0f565b6121756040830184611f0f565b949350505050565b6000604051905081810181811067ffffffffffffffff821117156121a057600080fd5b8060405250919050565b600067ffffffffffffffff8211156121c157600080fd5b602082029050602081019050919050565b600067ffffffffffffffff8211156121e957600080fd5b602082029050602081019050919050565b6000819050602082019050919050565b600081519050919050565b600081519050919050565b600081519050919050565b6000602082019050919050565b600082825260208201905092915050565b600082825260208201905092915050565b600081905092915050565b600082825260208201905092915050565b6000612281826122c2565b9050919050565b6000612293826122c2565b9050919050565b60008115159050919050565b6000819050919050565b60006122bb82612276565b9050919050565b600073ffffffffffffffffffffffffffffffffffffffff82169050919050565b6000819050919050565b60006122f7826122fe565b9050919050565b600061230982612310565b9050919050565b600061231b826122c2565b9050919050565b82818337600083830152505050565b60005b8381101561234f578082015181840152602081019050612334565b8381111561235e576000848401525b50505050565b6000601f19601f8301169050919050565b61237e81612276565b811461238957600080fd5b50565b61239581612288565b81146123a057600080fd5b50565b6123ac8161229a565b81146123b757600080fd5b50565b6123c3816122a6565b81146123ce57600080fd5b50565b6123da816122b0565b81146123e557600080fd5b50565b6123f1816122e2565b81146123fc57600080fd5b5056fea365627a7a72315820bc4abdb0252de70c56f345990f11e4b6fc09277d3d54066f5a016a28b3298a9c6c6578706572696d656e74616cf564736f6c63430005100040",
  "source": "/*\n    A manager to exit all positions (collateral and debt)\n*/\n\npragma solidity 0.5.16;\npragma experimental ABIEncoderV2;\n\nimport \"../interfaces/IERC20.sol\";\n\nimport \"../interfaces/compound/IComptroller.sol\";\nimport \"../interfaces/compound/ICEther.sol\";\nimport \"../interfaces/compound/ICToken.sol\";\n\nimport \"../interfaces/aave/ILendingPoolAddressesProvider.sol\";\nimport \"../interfaces/aave/ILendingPool.sol\";\nimport \"../interfaces/aave/ILendingPoolParametersProvider.sol\";\n\nimport \"../lib/uniswap/UniswapLiteBase.sol\";\nimport \"../lib/dapphub/Guard.sol\";\n\nimport \"../registries/AddressRegistry.sol\";\n\nimport \"../proxies/DACProxy.sol\";\n\nimport \"@openzeppelin/contracts/math/SafeMath.sol\";\n\n\ncontract DedgeExitManager is UniswapLiteBase {\n    using SafeMath for uint256;\n\n    function() external payable {}\n\n    constructor() public {}\n\n    struct ExitPositionCalldata {\n        address payable exitUserAddress;\n        address addressRegistryAddress;\n        address[] debtCTokens;\n        address[] collateralCTokens;\n    }\n\n    function _proxyGuardPermit(address payable proxyAddress, address src)\n        internal\n    {\n        address g = address(DACProxy(proxyAddress).authority());\n\n        DSGuard(g).permit(\n            bytes32(bytes20(address(src))),\n            DSGuard(g).ANY(),\n            DSGuard(g).ANY()\n        );\n    }\n\n    function _proxyGuardForbid(address payable proxyAddress, address src)\n        internal\n    {\n        address g = address(DACProxy(proxyAddress).authority());\n\n        DSGuard(g).forbid(\n            bytes32(bytes20(address(src))),\n            DSGuard(g).ANY(),\n            DSGuard(g).ANY()\n        );\n    }\n\n    function _approve(address cToken, uint256 amount) public {\n        // Approves CToken contract to call `transferFrom`\n        address underlying = ICToken(cToken).underlying();\n        require(\n            IERC20(underlying).approve(cToken, amount) == true,\n            \"cmpnd-mgr-ctoken-approved-failed\"\n        );\n    }\n\n    function _transfer(\n        address CEtherAddress,\n        address cToken,\n        address recipient,\n        uint256 amount\n    ) internal {\n        if (cToken == CEtherAddress) {\n            recipient.call.value(amount)(\"\");\n        } else {\n            require(\n                IERC20(ICToken(cToken).underlying()).transfer(\n                    recipient,\n                    amount\n                ),\n                \"cmpnd-mgr-transfer-failed\"\n            );\n        }\n    }\n\n    function _repayBorrow(address CEtherAddress, address cToken, uint256 amount)\n        internal\n    {\n        if (cToken == CEtherAddress) {\n            ICEther(cToken).repayBorrow.value(amount)();\n        } else {\n            _approve(cToken, amount);\n            require(\n                ICToken(cToken).repayBorrow(amount) == 0,\n                \"cmpnd-mgr-ctoken-repay-failed\"\n            );\n        }\n    }\n\n    function _redeemUnderlying(address cToken, uint256 redeemTokens) internal {\n        require(\n            ICToken(cToken).redeemUnderlying(redeemTokens) == 0,\n            \"cmpnd-mgr-ctoken-redeem-underlying-failed\"\n        );\n    }\n\n    function _repayDebt(address CEtherAddress, address cToken) internal {\n        // How much have we borrowed\n        uint256 borrowedAmount = ICToken(cToken).borrowBalanceCurrent(\n            address(this)\n        );\n\n        // Always assume we have enough ETH to repay debt\n        if (cToken != CEtherAddress) {\n            address underlying = ICToken(cToken).underlying();\n\n            // Get ETH needed to get ERC20\n            uint256 ethAmount = _getEthToTokenOutput(\n                underlying,\n                borrowedAmount\n            );\n\n            // Convert ETH to token\n            _ethToToken(underlying, ethAmount);\n        }\n\n        _repayBorrow(CEtherAddress, cToken, borrowedAmount);\n    }\n\n    function _retrieveCollateral(address CEtherAddress, address cToken)\n        internal\n        returns (uint256)\n    {\n        // Supplied amount\n        uint256 suppliedAmount = ICToken(cToken).balanceOfUnderlying(\n            address(this)\n        );\n\n        // Redeems token\n        _redeemUnderlying(cToken, suppliedAmount);\n\n        if (cToken == CEtherAddress) {\n            return suppliedAmount;\n        }\n\n        address underlying = ICToken(cToken).underlying();\n        return _tokenToEth(underlying, suppliedAmount);\n    }\n\n    function exitPositionsPostLoan(\n        uint256 _amount,\n        uint256 _fee,\n        uint256 _protocolFee,\n        bytes calldata _params\n    ) external {\n        // We should now have funds\n        ExitPositionCalldata memory epCalldata = abi.decode(\n            _params,\n            (ExitPositionCalldata)\n        );\n\n        address CEtherAddress = AddressRegistry(\n            epCalldata\n                .addressRegistryAddress\n        )\n            .CEtherAddress();\n\n        // Repay debt and retrieve collateral\n        for (uint256 i = 0; i < epCalldata.debtCTokens.length; i++) {\n            _repayDebt(CEtherAddress, epCalldata.debtCTokens[i]);\n        }\n        uint256 totalEthAmount;\n        for (uint256 i = 0; i < epCalldata.collateralCTokens.length; i++) {\n            totalEthAmount += _retrieveCollateral(\n                CEtherAddress,\n                epCalldata.collateralCTokens[i]\n            );\n        }\n\n        // Repays ETH - fees back to exit address\n        epCalldata.exitUserAddress.call.value(\n            totalEthAmount.sub(_amount).sub(_fee).sub(_protocolFee)\n        )(\"\");\n    }\n\n    function exitPositions(\n        uint256 totalEthDebtAmount,\n        address dedgeExitManagerAddress,\n        address payable dacProxyAddress,\n        address addressRegistryAddress,\n        bytes calldata executeOperationCalldataParams\n    ) external {\n        AddressRegistry addressRegistry = AddressRegistry(\n            addressRegistryAddress\n        );\n\n        // Injects target address into calldataParams\n        bytes memory addressAndExecuteOperationCalldataParams = abi\n            .encodePacked(\n            abi.encode(dedgeExitManagerAddress),\n            executeOperationCalldataParams\n        );\n\n        ILendingPool lendingPool = ILendingPool(\n            ILendingPoolAddressesProvider(\n                addressRegistry.AaveLendingPoolAddressProviderAddress()\n            )\n                .getLendingPool()\n        );\n\n        // Approve lendingPool to call proxy\n        _proxyGuardPermit(dacProxyAddress, address(lendingPool));\n\n        // 3. Flashloan ETH with relevant data\n        lendingPool.flashLoan(\n            dacProxyAddress,\n            addressRegistry.AaveEthAddress(),\n            totalEthDebtAmount,\n            addressAndExecuteOperationCalldataParams\n        );\n\n        // Forbids lendingPool to call proxy\n        _proxyGuardForbid(dacProxyAddress, address(lendingPool));\n    }\n\n    function getExitPositionsData(address addressRegistryAddress, address owner)\n        public\n        view\n        returns (\n            uint256 ethDebtAmount,\n            address[] memory debtAddress,\n            address[] memory collateralAddress\n        )\n    {\n        AddressRegistry addressRegistry = AddressRegistry(\n            addressRegistryAddress\n        );\n\n        IComptroller comptroller = IComptroller(addressRegistry.CompoundComptrollerAddress());\n\n        address[] memory marketsEntered = comptroller.getAssetsIn(owner);\n\n        address curMarket;\n        uint curCollateral;\n        uint curCollateralI;\n        uint curDebt;\n        uint curDebtI;\n\n        for (uint i = 0; i < marketsEntered.length; i++) {\n            curMarket = marketsEntered[i];\n            curDebt = ICToken(curMarket).borrowBalanceCurrent(owner);\n            curCollateral = ICToken(curMarket).balanceOfUnderlying(owner);\n\n            if (curCollateral > 0) {\n                collateralAddress[curCollateralI] = curMarket;\n                curCollateralI++;\n            }\n\n            if (curDebt > 0) {\n                debtAddress[curDebtI] = curMarket;\n                curDebtI++;\n\n                ethDebtAmount += curDebt;\n            }\n        }\n    }\n}\n",
  "sourcePath": "/home/kendrick/Development/Ethereum/dedge/packages/smart-contracts/src/managers/DedgeExitManager.sol",
  "compiler": {
    "name": "solc",
    "version": "0.5.16+commit.9c3226ce.Emscripten.clang"
  },
  "schemaVersion": "3.0.23",
  "updatedAt": "2020-04-01T11:19:27.821Z",
  "networkType": "ethereum",
  "devdoc": {
    "methods": {}
  },
  "userdoc": {
    "methods": {}
  }
}