{
  "contractName": "DedgeCompoundManager",
  "abi": [
    {
      "constant": false,
      "inputs": [
        {
          "internalType": "address",
          "name": "cToken",
          "type": "address"
        },
        {
          "internalType": "uint256",
          "name": "amount",
          "type": "uint256"
        }
      ],
      "name": "approveCToken",
      "outputs": [],
      "payable": false,
      "stateMutability": "nonpayable",
      "type": "function"
    },
    {
      "constant": false,
      "inputs": [
        {
          "internalType": "address[]",
          "name": "cTokens",
          "type": "address[]"
        }
      ],
      "name": "approveCTokens",
      "outputs": [],
      "payable": false,
      "stateMutability": "nonpayable",
      "type": "function"
    },
    {
      "constant": false,
      "inputs": [
        {
          "internalType": "address",
          "name": "cToken",
          "type": "address"
        },
        {
          "internalType": "uint256",
          "name": "borrowAmount",
          "type": "uint256"
        }
      ],
      "name": "borrow",
      "outputs": [],
      "payable": false,
      "stateMutability": "nonpayable",
      "type": "function"
    },
    {
      "constant": false,
      "inputs": [
        {
          "internalType": "address",
          "name": "cToken",
          "type": "address"
        },
        {
          "internalType": "uint256",
          "name": "amount",
          "type": "uint256"
        }
      ],
      "name": "borrowThroughProxy",
      "outputs": [],
      "payable": false,
      "stateMutability": "nonpayable",
      "type": "function"
    },
    {
      "constant": false,
      "inputs": [
        {
          "internalType": "address[]",
          "name": "cTokens",
          "type": "address[]"
        }
      ],
      "name": "enterMarkets",
      "outputs": [],
      "payable": false,
      "stateMutability": "nonpayable",
      "type": "function"
    },
    {
      "constant": false,
      "inputs": [
        {
          "internalType": "address[]",
          "name": "cTokens",
          "type": "address[]"
        }
      ],
      "name": "enterMarketsAndApproveCTokens",
      "outputs": [],
      "payable": false,
      "stateMutability": "nonpayable",
      "type": "function"
    },
    {
      "constant": true,
      "inputs": [
        {
          "internalType": "address",
          "name": "cToken",
          "type": "address"
        },
        {
          "internalType": "address",
          "name": "owner",
          "type": "address"
        }
      ],
      "name": "getBorrowBalanceUnderlying",
      "outputs": [
        {
          "internalType": "uint256",
          "name": "",
          "type": "uint256"
        }
      ],
      "payable": false,
      "stateMutability": "view",
      "type": "function"
    },
    {
      "constant": false,
      "inputs": [
        {
          "internalType": "address",
          "name": "cToken",
          "type": "address"
        },
        {
          "internalType": "uint256",
          "name": "redeemTokens",
          "type": "uint256"
        }
      ],
      "name": "redeem",
      "outputs": [],
      "payable": true,
      "stateMutability": "payable",
      "type": "function"
    },
    {
      "constant": false,
      "inputs": [
        {
          "internalType": "address",
          "name": "cToken",
          "type": "address"
        },
        {
          "internalType": "uint256",
          "name": "amount",
          "type": "uint256"
        }
      ],
      "name": "redeemThroughProxy",
      "outputs": [],
      "payable": true,
      "stateMutability": "payable",
      "type": "function"
    },
    {
      "constant": false,
      "inputs": [
        {
          "internalType": "address",
          "name": "cToken",
          "type": "address"
        },
        {
          "internalType": "uint256",
          "name": "redeemTokens",
          "type": "uint256"
        }
      ],
      "name": "redeemUnderlying",
      "outputs": [],
      "payable": true,
      "stateMutability": "payable",
      "type": "function"
    },
    {
      "constant": false,
      "inputs": [
        {
          "internalType": "address",
          "name": "cToken",
          "type": "address"
        },
        {
          "internalType": "uint256",
          "name": "amount",
          "type": "uint256"
        }
      ],
      "name": "redeemUnderlyingThroughProxy",
      "outputs": [],
      "payable": true,
      "stateMutability": "payable",
      "type": "function"
    },
    {
      "constant": false,
      "inputs": [
        {
          "internalType": "address",
          "name": "cToken",
          "type": "address"
        },
        {
          "internalType": "uint256",
          "name": "amount",
          "type": "uint256"
        }
      ],
      "name": "repayBorrow",
      "outputs": [],
      "payable": true,
      "stateMutability": "payable",
      "type": "function"
    },
    {
      "constant": false,
      "inputs": [
        {
          "internalType": "address",
          "name": "recipient",
          "type": "address"
        },
        {
          "internalType": "address",
          "name": "cToken",
          "type": "address"
        },
        {
          "internalType": "uint256",
          "name": "amount",
          "type": "uint256"
        }
      ],
      "name": "repayBorrowBehalf",
      "outputs": [],
      "payable": true,
      "stateMutability": "payable",
      "type": "function"
    },
    {
      "constant": false,
      "inputs": [
        {
          "internalType": "address",
          "name": "recipient",
          "type": "address"
        },
        {
          "internalType": "address",
          "name": "cToken",
          "type": "address"
        },
        {
          "internalType": "uint256",
          "name": "amount",
          "type": "uint256"
        }
      ],
      "name": "repayBorrowBehalfThroughProxy",
      "outputs": [],
      "payable": true,
      "stateMutability": "payable",
      "type": "function"
    },
    {
      "constant": false,
      "inputs": [
        {
          "internalType": "address",
          "name": "cToken",
          "type": "address"
        },
        {
          "internalType": "uint256",
          "name": "amount",
          "type": "uint256"
        }
      ],
      "name": "repayBorrowThroughProxy",
      "outputs": [],
      "payable": true,
      "stateMutability": "payable",
      "type": "function"
    },
    {
      "constant": false,
      "inputs": [
        {
          "internalType": "address",
          "name": "cToken",
          "type": "address"
        },
        {
          "internalType": "uint256",
          "name": "amount",
          "type": "uint256"
        }
      ],
      "name": "supply",
      "outputs": [],
      "payable": true,
      "stateMutability": "payable",
      "type": "function"
    },
    {
      "constant": false,
      "inputs": [
        {
          "internalType": "address",
          "name": "supplyCToken",
          "type": "address"
        },
        {
          "internalType": "uint256",
          "name": "supplyAmount",
          "type": "uint256"
        },
        {
          "internalType": "address",
          "name": "borrowCToken",
          "type": "address"
        },
        {
          "internalType": "uint256",
          "name": "borrowAmount",
          "type": "uint256"
        }
      ],
      "name": "supplyAndBorrow",
      "outputs": [],
      "payable": true,
      "stateMutability": "payable",
      "type": "function"
    },
    {
      "constant": false,
      "inputs": [],
      "name": "supplyETH",
      "outputs": [],
      "payable": true,
      "stateMutability": "payable",
      "type": "function"
    },
    {
      "constant": false,
      "inputs": [
        {
          "internalType": "address",
          "name": "cToken",
          "type": "address"
        },
        {
          "internalType": "uint256",
          "name": "borrowAmount",
          "type": "uint256"
        }
      ],
      "name": "supplyETHAndBorrow",
      "outputs": [],
      "payable": true,
      "stateMutability": "payable",
      "type": "function"
    },
    {
      "constant": false,
      "inputs": [
        {
          "internalType": "address",
          "name": "cToken",
          "type": "address"
        },
        {
          "internalType": "uint256",
          "name": "amount",
          "type": "uint256"
        }
      ],
      "name": "supplyThroughProxy",
      "outputs": [],
      "payable": true,
      "stateMutability": "payable",
      "type": "function"
    },
    {
      "constant": false,
      "inputs": [
        {
          "internalType": "uint256",
          "name": "_loanAmount",
          "type": "uint256"
        },
        {
          "internalType": "uint256",
          "name": "_aaveFee",
          "type": "uint256"
        },
        {
          "internalType": "uint256",
          "name": "_protocolFee",
          "type": "uint256"
        },
        {
          "internalType": "bytes",
          "name": "_data",
          "type": "bytes"
        }
      ],
      "name": "swapDebtPostLoan",
      "outputs": [],
      "payable": false,
      "stateMutability": "nonpayable",
      "type": "function"
    },
    {
      "constant": false,
      "inputs": [
        {
          "internalType": "uint256",
          "name": "_loanAmount",
          "type": "uint256"
        },
        {
          "internalType": "uint256",
          "name": "_aaveFee",
          "type": "uint256"
        },
        {
          "internalType": "uint256",
          "name": "_protocolFee",
          "type": "uint256"
        },
        {
          "internalType": "bytes",
          "name": "_data",
          "type": "bytes"
        }
      ],
      "name": "swapCollateralPostLoan",
      "outputs": [],
      "payable": false,
      "stateMutability": "nonpayable",
      "type": "function"
    },
    {
      "constant": false,
      "inputs": [
        {
          "internalType": "address",
          "name": "dedgeCompoundManagerAddress",
          "type": "address"
        },
        {
          "internalType": "address payable",
          "name": "dacProxyAddress",
          "type": "address"
        },
        {
          "internalType": "address",
          "name": "addressRegistryAddress",
          "type": "address"
        },
        {
          "internalType": "address",
          "name": "oldCTokenAddress",
          "type": "address"
        },
        {
          "internalType": "uint256",
          "name": "oldTokenUnderlyingDelta",
          "type": "uint256"
        },
        {
          "internalType": "address",
          "name": "newCTokenAddress",
          "type": "address"
        },
        {
          "internalType": "bytes",
          "name": "executeOperationCalldataParams",
          "type": "bytes"
        }
      ],
      "name": "swapOperation",
      "outputs": [],
      "payable": true,
      "stateMutability": "payable",
      "type": "function"
    },
    {
      "constant": false,
      "inputs": [
        {
          "internalType": "address",
          "name": "dedgeCompoundManagerAddress",
          "type": "address"
        },
        {
          "internalType": "address payable",
          "name": "dacProxyAddress",
          "type": "address"
        },
        {
          "internalType": "address",
          "name": "addressRegistryAddress",
          "type": "address"
        },
        {
          "internalType": "address",
          "name": "oldCTokenAddress",
          "type": "address"
        },
        {
          "internalType": "uint256",
          "name": "oldTokenUnderlyingDelta",
          "type": "uint256"
        },
        {
          "internalType": "address",
          "name": "newCTokenAddress",
          "type": "address"
        },
        {
          "internalType": "bytes",
          "name": "executeOperationCalldataParams",
          "type": "bytes"
        }
      ],
      "name": "swapOperationAndClearCollateralDust",
      "outputs": [],
      "payable": false,
      "stateMutability": "nonpayable",
      "type": "function"
    }
  ],
  "bytecode": "0x608060405234801561001057600080fd5b50613312806100206000396000f3fe60806040526004361061014b5760003560e01c806396294178116100b6578063c29982381161006f578063c2998238146102eb578063c8b88e481461030b578063d2f70c401461032b578063d882dc6c1461034b578063dc08fa9d1461035e578063f2b9fdb8146103945761014b565b8063962941781461025f5780639a22a1b914610272578063abdb5ea814610292578063b14886ee146102a5578063b16f18d0146102c5578063ba59154f146102d85761014b565b80634907b8fc116101085780634907b8fc146101eb5780634b8a3529146101f357806359086a5e1461021357806367600cc21461022657806375d40945146102395780637720cc871461024c5761014b565b80630b4e0630146101505780631e9a69501461016557806324d1ea12146101785780632d8af543146101985780633dc4d99a146101b857806341ec5cc4146101d8575b600080fd5b61016361015e36600461290e565b6103a7565b005b61016361017336600461290e565b6103e5565b34801561018457600080fd5b50610163610193366004612a81565b610489565b3480156101a457600080fd5b506101636101b336600461299f565b6107be565b3480156101c457600080fd5b506101636101d336600461299f565b6107d3565b6101636101e636600461290e565b610846565b610163610858565b3480156101ff57600080fd5b5061016361020e36600461290e565b6108c2565b6101636102213660046128c1565b61095d565b61016361023436600461290e565b610a93565b61016361024736600461293e565b610aa8565b61016361025a3660046128c1565b610ac2565b61016361026d36600461290e565b610afd565b34801561027e57600080fd5b5061016361028d36600461290e565b610b98565b6101636102a036600461290e565b610ba2565b3480156102b157600080fd5b506101636102c0366004612a81565b610cc5565b6101636102d336600461280d565b610f63565b6101636102e636600461290e565b6112c7565b3480156102f757600080fd5b5061016361030636600461299f565b611301565b34801561031757600080fd5b50610163610326366004612755565b6113da565b34801561033757600080fd5b5061016361034636600461290e565b6114a5565b61016361035936600461290e565b6115bc565b34801561036a57600080fd5b5061037e61037936600461271b565b6115c6565b60405161038b9190613185565b60405180910390f35b6101636103a236600461290e565b61167d565b6001600160a01b038216734ddc2d193948926d02f9b1fe9e1daa0718270ed5146103d7576103d733308484611796565b6103e1828261167d565b5050565b60405163db006a7560e01b81526001600160a01b0383169063db006a7590610411908490600401613185565b602060405180830381600087803b15801561042b57600080fd5b505af115801561043f573d6000803e3d6000fd5b505050506040513d601f19601f820116820180604052506104639190810190612a27565b156103e15760405162461bcd60e51b8152600401610480906130c5565b60405180910390fd5b6104916124b9565b61049d82840184612a63565b805160208201516040830151929350909160006104d0886104c48c8c63ffffffff6118aa16565b9063ffffffff6118aa16565b9050836001600160a01b031663744d27126040518163ffffffff1660e01b815260040160206040518083038186803b15801561050b57600080fd5b505afa15801561051f573d6000803e3d6000fd5b505050506040513d601f19601f8201168201806040525061054391908101906126fd565b6001600160a01b0316836001600160a01b0316141561056b57610566838b610ba2565b61067d565b6000836001600160a01b0316636f307dc36040518163ffffffff1660e01b815260040160206040518083038186803b1580156105a657600080fd5b505afa1580156105ba573d6000803e3d6000fd5b505050506040513d601f19601f820116820180604052506105de91908101906126fd565b905060006105ec828d6118d6565b60405163095ea7b360e01b81529091506001600160a01b0383169063095ea7b39061061d908890859060040161304d565b602060405180830381600087803b15801561063757600080fd5b505af115801561064b573d6000803e3d6000fd5b505050506040513d601f19601f8201168201806040525061066f9190810190612a09565b5061067a8582610ba2565b50505b836001600160a01b031663744d27126040518163ffffffff1660e01b815260040160206040518083038186803b1580156106b657600080fd5b505afa1580156106ca573d6000803e3d6000fd5b505050506040513d601f19601f820116820180604052506106ee91908101906126fd565b6001600160a01b0316826001600160a01b031614156107165761071182826108c2565b6107b2565b6000826001600160a01b0316636f307dc36040518163ffffffff1660e01b815260040160206040518083038186803b15801561075157600080fd5b505afa158015610765573d6000803e3d6000fd5b505050506040513d601f19601f8201168201806040525061078991908101906126fd565b9050600061079782846118e4565b90506107a384826108c2565b6107ae82828561196a565b5050505b50505050505050505050565b6107c781611301565b6107d0816107d3565b50565b60005b81518110156103e157734ddc2d193948926d02f9b1fe9e1daa0718270ed56001600160a01b031682828151811061080957fe5b60200260200101516001600160a01b03161461083e5761083e82828151811061082e57fe5b60200260200101516000196114a5565b6001016107d6565b61084e610858565b6103e182826108c2565b734ddc2d193948926d02f9b1fe9e1daa0718270ed56001600160a01b0316631249c58b346040518263ffffffff1660e01b81526004016000604051808303818588803b1580156108a757600080fd5b505af11580156108bb573d6000803e3d6000fd5b5050505050565b60405163317afabb60e21b81526001600160a01b0383169063c5ebeaec906108ee908490600401613185565b602060405180830381600087803b15801561090857600080fd5b505af115801561091c573d6000803e3d6000fd5b505050506040513d601f19601f820116820180604052506109409190810190612a27565b156103e15760405162461bcd60e51b8152600401610480906130b5565b6001600160a01b038216734ddc2d193948926d02f9b1fe9e1daa0718270ed514156109e75760405163e597461960e01b81526001600160a01b0383169063e59746199083906109b0908790600401612fdd565b6000604051808303818588803b1580156109c957600080fd5b505af11580156109dd573d6000803e3d6000fd5b5050505050610a8e565b6109f182826114a5565b6040516304c11f0360e31b81526001600160a01b03831690632608f81890610a1f908690859060040161304d565b602060405180830381600087803b158015610a3957600080fd5b505af1158015610a4d573d6000803e3d6000fd5b505050506040513d601f19601f82011682018060405250610a719190810190612a27565b15610a8e5760405162461bcd60e51b815260040161048090613115565b505050565b610a9d8282610afd565b6103e1823383611a88565b610ab2848461167d565b610abc82826108c2565b50505050565b6001600160a01b038216734ddc2d193948926d02f9b1fe9e1daa0718270ed514610af257610af233308484611796565b610a8e83838361095d565b60405163852a12e360e01b81526001600160a01b0383169063852a12e390610b29908490600401613185565b602060405180830381600087803b158015610b4357600080fd5b505af1158015610b57573d6000803e3d6000fd5b505050506040513d601f19601f82011682018060405250610b7b9190810190612a27565b156103e15760405162461bcd60e51b8152600401610480906130d5565b610a9d82826108c2565b6001600160a01b038216734ddc2d193948926d02f9b1fe9e1daa0718270ed51415610c2057816001600160a01b0316634e4d9fea826040518263ffffffff1660e01b81526004016000604051808303818588803b158015610c0257600080fd5b505af1158015610c16573d6000803e3d6000fd5b50505050506103e1565b610c2a82826114a5565b60405163073a938160e11b81526001600160a01b03831690630e75270290610c56908490600401613185565b602060405180830381600087803b158015610c7057600080fd5b505af1158015610c84573d6000803e3d6000fd5b505050506040513d601f19601f82011682018060405250610ca89190810190612a27565b156103e15760405162461bcd60e51b815260040161048090613125565b610ccd6124b9565b610cd982840184612a63565b80516020820151604083015192935090916000610d0c88610d008c8c63ffffffff611c1a16565b9063ffffffff611c1a16565b9050836001600160a01b031663744d27126040518163ffffffff1660e01b815260040160206040518083038186803b158015610d4757600080fd5b505afa158015610d5b573d6000803e3d6000fd5b505050506040513d601f19601f82011682018060405250610d7f91908101906126fd565b6001600160a01b0316826001600160a01b03161415610da757610da2828261167d565b610e37565b6000826001600160a01b0316636f307dc36040518163ffffffff1660e01b815260040160206040518083038186803b158015610de257600080fd5b505afa158015610df6573d6000803e3d6000fd5b505050506040513d601f19601f82011682018060405250610e1a91908101906126fd565b90506000610e2882846118d6565b9050610e34848261167d565b50505b836001600160a01b031663744d27126040518163ffffffff1660e01b815260040160206040518083038186803b158015610e7057600080fd5b505afa158015610e84573d6000803e3d6000fd5b505050506040513d601f19601f82011682018060405250610ea891908101906126fd565b6001600160a01b0316836001600160a01b03161415610ecb57610711838b610afd565b6000836001600160a01b0316636f307dc36040518163ffffffff1660e01b815260040160206040518083038186803b158015610f0657600080fd5b505afa158015610f1a573d6000803e3d6000fd5b505050506040513d601f19601f82011682018060405250610f3e91908101906126fd565b90506000610f4c828d6118e4565b9050610f588582610afd565b6107ae82828e61196a565b816001600160a01b0316846001600160a01b03161415610f955760405162461bcd60e51b815260040161048090613145565b60008590506000816001600160a01b031663744d27126040518163ffffffff1660e01b815260040160206040518083038186803b158015610fd557600080fd5b505afa158015610fe9573d6000803e3d6000fd5b505050506040513d601f19601f8201168201806040525061100d91908101906126fd565b6001600160a01b0316866001600160a01b0316141561102d5750836110aa565b6110a7866001600160a01b0316636f307dc36040518163ffffffff1660e01b815260040160206040518083038186803b15801561106957600080fd5b505afa15801561107d573d6000803e3d6000fd5b505050506040513d601f19601f820116820180604052506110a191908101906126fd565b86611c5c565b90505b6060896040516020016110bd9190612fdd565b60408051601f19818403018152908290526110dc918690602001612fba565b60405160208183030381529060405290506000836001600160a01b0316633f6dc33b6040518163ffffffff1660e01b815260040160206040518083038186803b15801561112857600080fd5b505afa15801561113c573d6000803e3d6000fd5b505050506040513d601f19601f8201168201806040525061116091908101906126fd565b6001600160a01b0316630261bf8b6040518163ffffffff1660e01b815260040160206040518083038186803b15801561119857600080fd5b505afa1580156111ac573d6000803e3d6000fd5b505050506040513d601f19601f820116820180604052506111d091908101906126fd565b90506111dc8a82611c92565b806001600160a01b0316635cffe9de8b866001600160a01b03166356cc94a26040518163ffffffff1660e01b815260040160206040518083038186803b15801561122557600080fd5b505afa158015611239573d6000803e3d6000fd5b505050506040513d601f19601f8201168201806040525061125d91908101906126fd565b86866040518563ffffffff1660e01b815260040161127e9493929190612feb565b600060405180830381600087803b15801561129857600080fd5b505af11580156112ac573d6000803e3d6000fd5b505050506112ba8a82611e60565b5050505050505050505050565b6001600160a01b038216734ddc2d193948926d02f9b1fe9e1daa0718270ed5146112f7576112f733308484611796565b6103e18282610ba2565b604051631853304760e31b8152606090733d9819210a31b4961b30ef54be2aed79b9c9cd3b9063c29982389061133b908590600401613068565b600060405180830381600087803b15801561135557600080fd5b505af1158015611369573d6000803e3d6000fd5b505050506040513d6000823e601f3d908101601f1916820160405261139191908101906129d4565b905060005b8151811015610a8e578181815181106113ab57fe5b60200260200101516000146113d25760405162461bcd60e51b8152600401610480906130f5565b600101611396565b60006113e686896115c6565b905084600061140d606461140185605f63ffffffff611f3016565b9063ffffffff611f6a16565b90508087111561141b578091505b6114608b8b8b8b868b8b8b8080601f016020809104026020016040519081016040528093929190818152602001838380828437600092019190915250610f6392505050565b600061146c898c6115c6565b90506000611480858363ffffffff611c1a16565b9050888110156107ae576107ae8b8b61149f8c8563ffffffff611c1a16565b8b611fac565b6000826001600160a01b0316636f307dc36040518163ffffffff1660e01b815260040160206040518083038186803b1580156114e057600080fd5b505afa1580156114f4573d6000803e3d6000fd5b505050506040513d601f19601f8201168201806040525061151891908101906126fd565b60405163095ea7b360e01b81529091506001600160a01b0382169063095ea7b390611549908690869060040161304d565b602060405180830381600087803b15801561156357600080fd5b505af1158015611577573d6000803e3d6000fd5b505050506040513d601f19601f8201168201806040525061159b9190810190612a09565b1515600114610a8e5760405162461bcd60e51b815260040161048090613135565b610a9d82826103e5565b6000806000806000866001600160a01b031663c37f68e2876040518263ffffffff1660e01b81526004016115fa9190612fdd565b60806040518083038186803b15801561161257600080fd5b505afa158015611626573d6000803e3d6000fd5b505050506040513d601f19601f8201168201806040525061164a9190810190612aff565b92965090945092509050611670670de0b6b3a7640000611401858463ffffffff611f3016565b9450505050505b92915050565b6001600160a01b038216734ddc2d193948926d02f9b1fe9e1daa0718270ed514156116f157734ddc2d193948926d02f9b1fe9e1daa0718270ed56001600160a01b0316631249c58b826040518263ffffffff1660e01b81526004016000604051808303818588803b158015610c0257600080fd5b6116fb82826114a5565b60405163140e25ad60e31b81526001600160a01b0383169063a0712d6890611727908490600401613185565b602060405180830381600087803b15801561174157600080fd5b505af1158015611755573d6000803e3d6000fd5b505050506040513d601f19601f820116820180604052506117799190810190612a27565b156103e15760405162461bcd60e51b815260040161048090613175565b6000826001600160a01b0316636f307dc36040518163ffffffff1660e01b815260040160206040518083038186803b1580156117d157600080fd5b505afa1580156117e5573d6000803e3d6000fd5b505050506040513d601f19601f8201168201806040525061180991908101906126fd565b6040516323b872dd60e01b81529091506001600160a01b038216906323b872dd9061183c90889088908790600401613025565b602060405180830381600087803b15801561185657600080fd5b505af115801561186a573d6000803e3d6000fd5b505050506040513d601f19601f8201168201806040525061188e9190810190612a09565b6108bb5760405162461bcd60e51b8152600401610480906130e5565b6000828201838110156118cf5760405162461bcd60e51b8152600401610480906130a5565b9392505050565b60006118cf838360016122fa565b60006118ef83612390565b6001600160a01b0316632640f62c836040518263ffffffff1660e01b815260040161191a9190613185565b60206040518083038186803b15801561193257600080fd5b505afa158015611946573d6000803e3d6000fd5b505050506040513d601f19601f820116820180604052506118cf9190810190612a27565b60008061197685612390565b60405163095ea7b360e01b81529091506001600160a01b0386169063095ea7b3906119a7908490889060040161304d565b602060405180830381600087803b1580156119c157600080fd5b505af11580156119d5573d6000803e3d6000fd5b505050506040513d601f19601f820116820180604052506119f99190810190612a09565b506040516395e3c50b60e01b81526001600160a01b038216906395e3c50b90611a2d9087908790603c420190600401613079565b602060405180830381600087803b158015611a4757600080fd5b505af1158015611a5b573d6000803e3d6000fd5b505050506040513d601f19601f82011682018060405250611a7f9190810190612a27565b95945050505050565b6001600160a01b038316734ddc2d193948926d02f9b1fe9e1daa0718270ed51415611b0e57816001600160a01b031681604051611ac490612fd2565b60006040518083038185875af1925050503d8060008114611b01576040519150601f19603f3d011682016040523d82523d6000602084013e611b06565b606091505b505050610a8e565b826001600160a01b0316636f307dc36040518163ffffffff1660e01b815260040160206040518083038186803b158015611b4757600080fd5b505afa158015611b5b573d6000803e3d6000fd5b505050506040513d601f19601f82011682018060405250611b7f91908101906126fd565b6001600160a01b031663a9059cbb83836040518363ffffffff1660e01b8152600401611bac92919061304d565b602060405180830381600087803b158015611bc657600080fd5b505af1158015611bda573d6000803e3d6000fd5b505050506040513d601f19601f82011682018060405250611bfe9190810190612a09565b610a8e5760405162461bcd60e51b815260040161048090613155565b60006118cf83836040518060400160405280601e81526020017f536166654d6174683a207375627472616374696f6e206f766572666c6f77000081525061241a565b6000611c6783612390565b6001600160a01b03166359e94862836040518263ffffffff1660e01b815260040161191a9190613185565b6000826001600160a01b031663bf7e214f6040518163ffffffff1660e01b815260040160206040518083038186803b158015611ccd57600080fd5b505afa158015611ce1573d6000803e3d6000fd5b505050506040513d601f19601f82011682018060405250611d059190810190612a45565b9050806001600160a01b031663f0217ce58360601b6bffffffffffffffffffffffff1916836001600160a01b031663a8542f666040518163ffffffff1660e01b815260040160206040518083038186803b158015611d6257600080fd5b505afa158015611d76573d6000803e3d6000fd5b505050506040513d601f19601f82011682018060405250611d9a9190810190612a27565b846001600160a01b031663a8542f666040518163ffffffff1660e01b815260040160206040518083038186803b158015611dd357600080fd5b505afa158015611de7573d6000803e3d6000fd5b505050506040513d601f19601f82011682018060405250611e0b9190810190612a27565b6040518463ffffffff1660e01b8152600401611e2993929190613079565b600060405180830381600087803b158015611e4357600080fd5b505af1158015611e57573d6000803e3d6000fd5b50505050505050565b6000826001600160a01b031663bf7e214f6040518163ffffffff1660e01b815260040160206040518083038186803b158015611e9b57600080fd5b505afa158015611eaf573d6000803e3d6000fd5b505050506040513d601f19601f82011682018060405250611ed39190810190612a45565b9050806001600160a01b03166379d88d878360601b6bffffffffffffffffffffffff1916836001600160a01b031663a8542f666040518163ffffffff1660e01b815260040160206040518083038186803b158015611d6257600080fd5b600082611f3f57506000611677565b82820282848281611f4c57fe5b04146118cf5760405162461bcd60e51b815260040161048090613105565b60006118cf83836040518060400160405280601a81526020017f536166654d6174683a206469766973696f6e206279207a65726f000000000000815250612446565b806001600160a01b0316836001600160a01b03161415611fde5760405162461bcd60e51b815260040161048090613165565b600084611feb8585610afd565b806001600160a01b031663744d27126040518163ffffffff1660e01b815260040160206040518083038186803b15801561202457600080fd5b505afa158015612038573d6000803e3d6000fd5b505050506040513d601f19601f8201168201806040525061205c91908101906126fd565b6001600160a01b0316856001600160a01b031614156120f6576120ef836001600160a01b0316636f307dc36040518163ffffffff1660e01b815260040160206040518083038186803b1580156120b157600080fd5b505afa1580156120c5573d6000803e3d6000fd5b505050506040513d601f19601f820116820180604052506120e991908101906126fd565b856118d6565b91506122e8565b806001600160a01b031663744d27126040518163ffffffff1660e01b815260040160206040518083038186803b15801561212f57600080fd5b505afa158015612143573d6000803e3d6000fd5b505050506040513d601f19601f8201168201806040525061216791908101906126fd565b6001600160a01b0316836001600160a01b031614156121fa576120ef856001600160a01b0316636f307dc36040518163ffffffff1660e01b815260040160206040518083038186803b1580156121bc57600080fd5b505afa1580156121d0573d6000803e3d6000fd5b505050506040513d601f19601f820116820180604052506121f491908101906126fd565b8561247d565b6122e5856001600160a01b0316636f307dc36040518163ffffffff1660e01b815260040160206040518083038186803b15801561223657600080fd5b505afa15801561224a573d6000803e3d6000fd5b505050506040513d601f19601f8201168201806040525061226e91908101906126fd565b846001600160a01b0316636f307dc36040518163ffffffff1660e01b815260040160206040518083038186803b1580156122a757600080fd5b505afa1580156122bb573d6000803e3d6000fd5b505050506040513d601f19601f820116820180604052506122df91908101906126fd565b8661248b565b91505b6122f2838361167d565b505050505050565b600061230584612390565b6001600160a01b031663f39b5b9b848442603c016040518463ffffffff1660e01b8152600401612336929190613193565b6020604051808303818588803b15801561234f57600080fd5b505af1158015612363573d6000803e3d6000fd5b50505050506040513d601f19601f820116820180604052506123889190810190612a27565b949350505050565b6040516303795fb160e11b815260009073c0a47dfe034b400b47bdad5fecda2621de6c4d95906306f2bf62906123ca908590600401612fdd565b60206040518083038186803b1580156123e257600080fd5b505afa1580156123f6573d6000803e3d6000fd5b505050506040513d601f19601f8201168201806040525061167791908101906126fd565b6000818484111561243e5760405162461bcd60e51b81526004016104809190613094565b505050900390565b600081836124675760405162461bcd60e51b81526004016104809190613094565b50600083858161247357fe5b0495945050505050565b60006118cf8383600161196a565b600061238884848460016000806124a2868561247d565b90506124af8582856122fa565b9695505050505050565b604080516060810182526000808252602082018190529181019190915290565b8035611677816132a0565b8051611677816132a0565b600082601f83011261250057600080fd5b813561251361250e826131c8565b6131a1565b9150818183526020840193506020810190508385602084028201111561253857600080fd5b60005b83811015612564578161254e88826124d9565b845250602092830192919091019060010161253b565b5050505092915050565b600082601f83011261257f57600080fd5b815161258d61250e826131c8565b915081818352602084019350602081019050838560208402820111156125b257600080fd5b60005b8381101561256457816125c888826125e9565b84525060209283019291909101906001016125b5565b8051611677816132b4565b8051611677816132bd565b60008083601f84011261260657600080fd5b50813567ffffffffffffffff81111561261e57600080fd5b60208301915083600182028301111561263657600080fd5b9250929050565b600082601f83011261264e57600080fd5b813561265c61250e826131e9565b9150808252602083016020830185838301111561267857600080fd5b61268383828461325e565b50505092915050565b8051611677816132c6565b6000606082840312156126a957600080fd5b6126b360606131a1565b905060006126c184846124d9565b82525060206126d2848483016124d9565b60208301525060406126e6848285016124d9565b60408301525092915050565b8035611677816132bd565b60006020828403121561270f57600080fd5b600061238884846124e4565b6000806040838503121561272e57600080fd5b600061273a85856124d9565b925050602061274b858286016124d9565b9150509250929050565b60008060008060008060008060e0898b03121561277157600080fd5b600061277d8b8b6124d9565b985050602061278e8b828c016124d9565b975050604061279f8b828c016124d9565b96505060606127b08b828c016124d9565b95505060806127c18b828c016126f2565b94505060a06127d28b828c016124d9565b93505060c089013567ffffffffffffffff8111156127ef57600080fd5b6127fb8b828c016125f4565b92509250509295985092959890939650565b600080600080600080600060e0888a03121561282857600080fd5b60006128348a8a6124d9565b97505060206128458a828b016124d9565b96505060406128568a828b016124d9565b95505060606128678a828b016124d9565b94505060806128788a828b016126f2565b93505060a06128898a828b016124d9565b92505060c088013567ffffffffffffffff8111156128a657600080fd5b6128b28a828b0161263d565b91505092959891949750929550565b6000806000606084860312156128d657600080fd5b60006128e286866124d9565b93505060206128f3868287016124d9565b9250506040612904868287016126f2565b9150509250925092565b6000806040838503121561292157600080fd5b600061292d85856124d9565b925050602061274b858286016126f2565b6000806000806080858703121561295457600080fd5b600061296087876124d9565b9450506020612971878288016126f2565b9350506040612982878288016124d9565b9250506060612993878288016126f2565b91505092959194509250565b6000602082840312156129b157600080fd5b813567ffffffffffffffff8111156129c857600080fd5b612388848285016124ef565b6000602082840312156129e657600080fd5b815167ffffffffffffffff8111156129fd57600080fd5b6123888482850161256e565b600060208284031215612a1b57600080fd5b600061238884846125de565b600060208284031215612a3957600080fd5b600061238884846125e9565b600060208284031215612a5757600080fd5b6000612388848461268c565b600060608284031215612a7557600080fd5b60006123888484612697565b600080600080600060808688031215612a9957600080fd5b6000612aa588886126f2565b9550506020612ab6888289016126f2565b9450506040612ac7888289016126f2565b935050606086013567ffffffffffffffff811115612ae457600080fd5b612af0888289016125f4565b92509250509295509295909350565b60008060008060808587031215612b1557600080fd5b6000612b2187876125e9565b9450506020612b32878288016125e9565b9350506040612b43878288016125e9565b9250506060612993878288016125e9565b6000612b608383612b77565b505060200190565b612b7181613253565b82525050565b612b7181613229565b6000612b8b82613217565b612b95818561321b565b9350612ba083613211565b8060005b83811015612bce578151612bb88882612b54565b9750612bc383613211565b925050600101612ba4565b509495945050505050565b612b7181613239565b6000612bed82613217565b612bf7818561321b565b9350612c0781856020860161326a565b612c1081613296565b9093019392505050565b6000612c2582613217565b612c2f8185613224565b9350612c3f81856020860161326a565b9290920192915050565b6000612c56601b8361321b565b7f536166654d6174683a206164646974696f6e206f766572666c6f770000000000815260200192915050565b6000612c8f601e8361321b565b7f636d706e642d6d67722d63746f6b656e2d626f72726f772d6661696c65640000815260200192915050565b6000612cc8601e8361321b565b7f636d706e642d6d67722d63746f6b656e2d72656465656d2d6661696c65640000815260200192915050565b6000612d0160298361321b565b7f636d706e642d6d67722d63746f6b656e2d72656465656d2d756e6465726c79698152681b99cb59985a5b195960ba1b602082015260400192915050565b6000612d4c60288361321b565b7f636d706e642d6d67722d7472616e7366657246726f6d2d756e6465726c79696e81526719cb59985a5b195960c21b602082015260400192915050565b6000612d96601e8361321b565b7f636d706e642d6d67722d656e7465722d6d61726b6574732d6661696c65640000815260200192915050565b6000612dcf60218361321b565b7f536166654d6174683a206d756c7469706c69636174696f6e206f766572666c6f8152607760f81b602082015260400192915050565b6000612e1260238361321b565b7f636d706e642d6d67722d63746f6b656e2d7265706179626568616c662d6661698152621b195960ea1b602082015260400192915050565b6000612e57601d8361321b565b7f636d706e642d6d67722d63746f6b656e2d72657061792d6661696c6564000000815260200192915050565b6000611677600083613224565b6000612e9d60208361321b565b7f636d706e642d6d67722d63746f6b656e2d617070726f7665642d6661696c6564815260200192915050565b6000612ed6601b8361321b565b7f737761702d6f7065726174696f6e2d73616d652d616464726573730000000000815260200192915050565b6000612f0f60248361321b565b7f636d706e642d6d67722d7472616e736665722d756e6465726c79696e672d66618152631a5b195960e21b602082015260400192915050565b6000612f55601d8361321b565b7f636c6561722d636f6c6c61746572616c2d73616d652d61646472657373000000815260200192915050565b6000612f8e601e8361321b565b7f636d706e642d6d67722d63746f6b656e2d737570706c792d6661696c65640000815260200192915050565b6000612fc68285612c1a565b91506123888284612c1a565b600061167782612e83565b602081016116778284612b77565b60808101612ff98287612b68565b6130066020830186612b77565b6130136040830185612bd9565b81810360608301526124af8184612be2565b606081016130338286612b77565b6130406020830185612b77565b6123886040830184612bd9565b6040810161305b8285612b77565b6118cf6020830184612bd9565b602080825281016118cf8184612b80565b606081016130878286612bd9565b6130406020830185612bd9565b602080825281016118cf8184612be2565b6020808252810161167781612c49565b6020808252810161167781612c82565b6020808252810161167781612cbb565b6020808252810161167781612cf4565b6020808252810161167781612d3f565b6020808252810161167781612d89565b6020808252810161167781612dc2565b6020808252810161167781612e05565b6020808252810161167781612e4a565b6020808252810161167781612e90565b6020808252810161167781612ec9565b6020808252810161167781612f02565b6020808252810161167781612f48565b6020808252810161167781612f81565b602081016116778284612bd9565b6040810161305b8285612bd9565b60405181810167ffffffffffffffff811182821017156131c057600080fd5b604052919050565b600067ffffffffffffffff8211156131df57600080fd5b5060209081020190565b600067ffffffffffffffff82111561320057600080fd5b506020601f91909101601f19160190565b60200190565b5190565b90815260200190565b919050565b600061167782613247565b151590565b90565b600061167782613229565b6001600160a01b031690565b60006116778261323c565b82818337506000910152565b60005b8381101561328557818101518382015260200161326d565b83811115610abc5750506000910152565b601f01601f191690565b6132a981613229565b81146107d057600080fd5b6132a981613234565b6132a981613239565b6132a98161323c56fea365627a7a72315820046f418c5835b445507978fc3229c2c728bc535e8545558a6d76f6ac2884cd866c6578706572696d656e74616cf564736f6c63430005100040",
  "source": "/*\n    Dedge's Aave and Compound manager\n*/\n\npragma solidity 0.5.16;\npragma experimental ABIEncoderV2;\n\nimport \"../lib/compound/CompoundBase.sol\";\n\nimport \"../lib/dapphub/Guard.sol\";\n\nimport \"../lib/uniswap/UniswapLiteBase.sol\";\n\nimport \"../interfaces/aave/ILendingPoolAddressesProvider.sol\";\nimport \"../interfaces/aave/ILendingPool.sol\";\nimport \"../interfaces/aave/ILendingPoolParametersProvider.sol\";\n\nimport \"../interfaces/compound/ICompoundPriceOracle.sol\";\nimport \"../interfaces/compound/IComptroller.sol\";\nimport \"../interfaces/compound/ICEther.sol\";\nimport \"../interfaces/compound/ICToken.sol\";\n\nimport \"../interfaces/IERC20.sol\";\n\nimport \"../registries/AddressRegistry.sol\";\n\nimport \"../proxies/DACProxy.sol\";\n\n\ncontract DedgeCompoundManager is UniswapLiteBase, CompoundBase {\n    struct SwapOperationCalldata {\n        address addressRegistryAddress;\n        address oldCTokenAddress;\n        address newCTokenAddress;\n    }\n\n    function _proxyGuardPermit(address payable proxyAddress, address src)\n        internal\n    {\n        address g = address(DACProxy(proxyAddress).authority());\n\n        DSGuard(g).permit(\n            bytes32(bytes20(address(src))),\n            DSGuard(g).ANY(),\n            DSGuard(g).ANY()\n        );\n    }\n\n    function _proxyGuardForbid(address payable proxyAddress, address src)\n        internal\n    {\n        address g = address(DACProxy(proxyAddress).authority());\n\n        DSGuard(g).forbid(\n            bytes32(bytes20(address(src))),\n            DSGuard(g).ANY(),\n            DSGuard(g).ANY()\n        );\n    }\n\n    function swapDebtPostLoan(\n        uint256 _loanAmount,\n        uint256 _aaveFee,\n        uint256 _protocolFee,\n        bytes calldata _data\n    ) external {\n        SwapOperationCalldata memory soCalldata = abi.decode(\n            _data,\n            (SwapOperationCalldata)\n        );\n\n        AddressRegistry addressRegistry = AddressRegistry(\n            soCalldata.addressRegistryAddress\n        );\n\n        address oldCTokenAddress = soCalldata.oldCTokenAddress;\n        address newCTokenAddress = soCalldata.newCTokenAddress;\n\n        uint256 debtAmount = _loanAmount.add(_aaveFee).add(_protocolFee);\n\n        // Note: debtAmount = loanAmount + fees\n        // 1. Has ETH from Aave flashloan\n        // 2. Converts ETH to oldCToken underlying\n        // 3. Repays oldCToken underlying\n        // 4. Calculates new amount to borrow from new token to repay debtAmount\n        // 5. Borrows from new token\n        // 6. Convert new token to ETH\n\n        // Steps 2 + 3\n        // Converts ETH to oldCToken underlying and repay\n        // Unless old target underlying is already ether\n        if (oldCTokenAddress == addressRegistry.CEtherAddress()) {\n            repayBorrow(oldCTokenAddress, _loanAmount);\n        } else {\n            // Gets old token underlying and amount\n            address oldTokenUnderlying = ICToken(oldCTokenAddress).underlying();\n\n            uint256 oldTokenUnderlyingAmount = _ethToToken(\n                oldTokenUnderlying,\n                _loanAmount\n            );\n\n            // Approves CToken proxy and repays them\n            IERC20(oldTokenUnderlying).approve(\n                oldCTokenAddress,\n                oldTokenUnderlyingAmount\n            );\n\n            // Repays CToken\n            repayBorrow(oldCTokenAddress, oldTokenUnderlyingAmount);\n        }\n\n        // Steps 4, 5, 6\n        // Calculates new debt amount to borrow\n        // Unless new target underlying is already ether\n        if (newCTokenAddress == addressRegistry.CEtherAddress()) {\n            borrow(newCTokenAddress, debtAmount);\n        } else {\n            // Gets new token underlying\n            address newTokenUnderlying = ICToken(newCTokenAddress).underlying();\n\n            // Calculates amount of old token underlying that needs to be borrowed\n            // to repay debts\n            uint256 newTokenUnderlyingAmount = _getTokenToEthOutput(\n                newTokenUnderlying,\n                debtAmount\n            );\n\n            // Borrows new debt\n            borrow(newCTokenAddress, newTokenUnderlyingAmount);\n\n            // Converts to ether\n            // Note this part is a bit more strict as we need to have\n            // enough ETH to repay Aave\n            _tokenToEth(\n                newTokenUnderlying,\n                newTokenUnderlyingAmount,\n                debtAmount\n            );\n        }\n    }\n\n    function swapCollateralPostLoan(\n        uint256 _loanAmount,\n        uint256 _aaveFee,\n        uint256 _protocolFee,\n        bytes calldata _data\n    ) external {\n        SwapOperationCalldata memory soCalldata = abi.decode(\n            _data,\n            (SwapOperationCalldata)\n        );\n\n        AddressRegistry addressRegistry = AddressRegistry(\n            soCalldata.addressRegistryAddress\n        );\n\n        address oldCTokenAddress = soCalldata.oldCTokenAddress;\n        address newCTokenAddress = soCalldata.newCTokenAddress;\n\n        // 1. Has ETH from Aave flashloan\n        // 2. Converts ETH into newCToken underlying\n        // 3. Supplies newCToken underlying\n        // 4. Redeems oldCToken underlying\n        // 5. Converts outCToken underlying to ETH\n        // 6. Borrow <fee> ETH to repay aave\n\n        // Steps 2 + 3\n        // Converts ETH to newCToken underlying and supply\n        // Unless old target underlying is already ether\n        uint256 repayAmount = _loanAmount.sub(_aaveFee).sub(_protocolFee);\n\n        if (newCTokenAddress == addressRegistry.CEtherAddress()) {\n            supply(newCTokenAddress, repayAmount);\n        } else {\n            // Gets new token underlying and converts ETH into newCToken underlying\n            address newTokenUnderlying = ICToken(newCTokenAddress).underlying();\n            uint256 newTokenUnderlyingAmount = _ethToToken(\n                newTokenUnderlying,\n                repayAmount\n            );\n\n            // Supplies new CTokens\n            supply(newCTokenAddress, newTokenUnderlyingAmount);\n        }\n\n        // Steps 4, 5\n        // Redeem CToken underlying\n        if (oldCTokenAddress == addressRegistry.CEtherAddress()) {\n            redeemUnderlying(oldCTokenAddress, _loanAmount);\n        } else {\n            // Gets old token underlying and amount to redeem (based on uniswap)\n            address oldTokenUnderlying = ICToken(oldCTokenAddress).underlying();\n            uint256 oldTokenUnderlyingAmount = _getTokenToEthOutput(\n                oldTokenUnderlying,\n                _loanAmount\n            );\n\n            // Redeems them\n            redeemUnderlying(oldCTokenAddress, oldTokenUnderlyingAmount);\n\n            // Converts them into ETH\n            _tokenToEth(\n                oldTokenUnderlying,\n                oldTokenUnderlyingAmount,\n                _loanAmount\n            );\n        }\n    }\n\n    /*\n    Main entry point for swapping collateral / debt\n\n    @params:\n\n        dedgeCompoundManagerAddress: Dedge Compound Manager address\n        dacProxyAddress: User's proxy address\n        addressRegistryAddress: AddressRegistry's Address\n        oldCTokenAddress: oldCToken address\n        oldTokenUnderlyingDelta: Amount of tokens to swap from old c token's underlying\n        executeOperationCalldataParams:\n            Abi-encoded `data` used by User's proxy's `execute(address, <data>)` function.\n            Used to delegatecall to another contract (i.e. this contract) in the context\n            of the proxy. This allows us to decouple the logic of handling flashloans\n            from the proxy contract. In this specific case, it is expecting the results\n            from: (from JS)\n\n            ```\n                const IDedgeCompoundManager = ethers.utils.Interface(DedgeCompoundManager.abi)\n\n                const executeOperationCalldataParams = IDedgeCompoundManager\n                    .functions\n                    .swapDebt OR .swapCollateral\n                    .encode([\n                        <parameters>\n                    ])\n            ```\n    */\n    function swapOperation(\n        address dedgeCompoundManagerAddress,\n        address payable dacProxyAddress,\n        address addressRegistryAddress,\n        address oldCTokenAddress, // Old CToken address for [debt|collateral]\n        uint256 oldTokenUnderlyingDelta, // Amount of old tokens to swap to new tokens\n        address newCTokenAddress,\n        bytes memory executeOperationCalldataParams\n    ) public payable {\n        require(\n            oldCTokenAddress != newCTokenAddress,\n            \"swap-operation-same-address\"\n        );\n\n        // Calling from dacProxy context (msg.sender is dacProxy)\n        // 1. Get amount of ETH obtained by selling that from Uniswap\n        // 2. Flashloans ETH to dacProxy\n\n        // Gets registries\n        AddressRegistry addressRegistry = AddressRegistry(\n            addressRegistryAddress\n        );\n\n        // 1. Get amount of ETH needed\n        // If the old target is ether than the ethDebtAmount is just the delta\n        uint256 ethDebtAmount;\n\n        if (oldCTokenAddress == addressRegistry.CEtherAddress()) {\n            ethDebtAmount = oldTokenUnderlyingDelta;\n        } else {\n            // Otherwise calculate it from the exchange\n            ethDebtAmount = _getEthToTokenOutput(\n                ICToken(oldCTokenAddress).underlying(),\n                oldTokenUnderlyingDelta\n            );\n        }\n\n        // Injects the target address into calldataParams\n        // so user proxy know which address it'll be calling `calldataParams` on\n        bytes memory addressAndExecuteOperationCalldataParams = abi\n            .encodePacked(\n            abi.encode(dedgeCompoundManagerAddress),\n            executeOperationCalldataParams\n        );\n\n        ILendingPool lendingPool = ILendingPool(\n            ILendingPoolAddressesProvider(\n                addressRegistry.AaveLendingPoolAddressProviderAddress()\n            )\n                .getLendingPool()\n        );\n\n        // Approve lendingPool to call proxy\n        _proxyGuardPermit(dacProxyAddress, address(lendingPool));\n\n        // 3. Flashloan ETH with relevant data\n        lendingPool.flashLoan(\n            dacProxyAddress,\n            addressRegistry.AaveEthAddress(),\n            ethDebtAmount,\n            addressAndExecuteOperationCalldataParams\n        );\n\n        // Forbids lendingPool to call proxy\n        _proxyGuardForbid(dacProxyAddress, address(lendingPool));\n    }\n\n    // Helper function to clear out collateral dust\n    // after swapping collateral\n    function _clearCollateralDust(\n        address addressRegistryAddress,\n        address oldCTokenAddress,\n        uint256 oldTokenUnderlyingAmount,\n        address newCTokenAddress\n    ) internal {\n        // i.e. Has 10 ETH collateral and 10 DAI collateral\n        // wants to have it all in ETH\n\n        // 1. Redeems 10 DAI collateral\n        // 2. Converts it to ETH\n        // 3. Puts it into ETH\n\n        // More abstractly,\n        // 1. Redeems tokens\n        // 2. Convert it to other token\n        // 3. Put other token in\n\n        require(\n            oldCTokenAddress != newCTokenAddress,\n            \"clear-collateral-same-address\"\n        );\n\n        uint256 supplyAmount;\n        AddressRegistry addressRegistry = AddressRegistry(\n            addressRegistryAddress\n        );\n\n        // Redeems collateral\n        redeemUnderlying(oldCTokenAddress, oldTokenUnderlyingAmount);\n\n        if (oldCTokenAddress == addressRegistry.CEtherAddress()) {\n            // ETH -> Token\n            supplyAmount = _ethToToken(\n                ICToken(newCTokenAddress).underlying(),\n                oldTokenUnderlyingAmount\n            );\n        } else if (newCTokenAddress == addressRegistry.CEtherAddress()) {\n            // Token -> ETH\n            supplyAmount = _tokenToEth(\n                ICToken(oldCTokenAddress).underlying(),\n                oldTokenUnderlyingAmount\n            );\n        } else {\n            // Token -> Token\n            supplyAmount = _tokenToToken(\n                ICToken(oldCTokenAddress).underlying(),\n                ICToken(newCTokenAddress).underlying(),\n                oldTokenUnderlyingAmount\n            );\n        }\n\n        // Supplies collateral\n        supply(newCTokenAddress, supplyAmount);\n    }\n\n    // Due to the limitations of swap-collateral we can't swap 100% of the collateral,\n    // As such, we introduce a new function: \"swapOperationAndClearCollateralDust\"\n    // that performs a swap collateral operation and clears the underlying dust difference,\n    // IF the oldTokenUnderlyingDelta > 95% of underlyingDelta\n    function swapOperationAndClearCollateralDust(\n        address dedgeCompoundManagerAddress,\n        address payable dacProxyAddress,\n        address addressRegistryAddress,\n        address oldCTokenAddress, // Old CToken address for [debt|collateral]\n        uint256 oldTokenUnderlyingDelta, // Amount of old tokens to swap to new tokens\n        address newCTokenAddress,\n        bytes calldata executeOperationCalldataParams\n    ) external {\n        uint256 initialBorrowBalanceUnderlying = getBorrowBalanceUnderlying(\n            oldCTokenAddress,\n            dacProxyAddress\n        );\n\n        // If we wanna swap > 93% of our collateral,\n        // we need to swap then clear the dust as\n        // we can only flashloan and swap 93% of underlying\n        // due to slippages :(\n        uint256 oldTokenUnderlyingDeltaFixed = oldTokenUnderlyingDelta;\n        uint256 oldTokenUnderlyingDeltaThreshold = initialBorrowBalanceUnderlying.mul(95).div(100);\n        \n        if (oldTokenUnderlyingDelta > oldTokenUnderlyingDeltaThreshold) {\n            oldTokenUnderlyingDeltaFixed = oldTokenUnderlyingDeltaThreshold;\n        }\n\n        // Swap tokens via flashloans\n        swapOperation(\n            dedgeCompoundManagerAddress,\n            dacProxyAddress,\n            addressRegistryAddress,\n            oldCTokenAddress,\n            oldTokenUnderlyingDeltaFixed,\n            newCTokenAddress,\n            executeOperationCalldataParams\n        );\n\n        // Re calculate borrow balance underlying\n        uint256 postSwapBorrowBalanceUnderlying = getBorrowBalanceUnderlying(\n            oldCTokenAddress,\n            dacProxyAddress\n        );\n\n        // How much was swapped?\n        uint256 oldTokenSwappedDelta = initialBorrowBalanceUnderlying.sub(\n            postSwapBorrowBalanceUnderlying\n        );\n\n        // If how much we swapped is not gte then `oldTokenUnderlyingDelta`\n        // We will clear the dust between the delta of the two\n        // NOTE: Assumption is that user has borrowing power\n        //       to borrow 7.5% of their collateral\n        if (oldTokenSwappedDelta < oldTokenUnderlyingDelta) {\n            _clearCollateralDust(\n                addressRegistryAddress,\n                oldCTokenAddress,\n                oldTokenUnderlyingDelta.sub(oldTokenSwappedDelta),\n                newCTokenAddress\n            );\n        }\n    }\n}\n",
  "sourcePath": "/home/kendrick/Development/Ethereum/dedge/packages/smart-contracts/src/managers/DedgeCompoundManager.sol",
  "compiler": {
    "name": "solc",
    "version": "0.5.16+commit.9c3226ce.Emscripten.clang"
  },
  "schemaVersion": "3.0.23",
  "updatedAt": "2020-04-08T12:22:38.621Z",
  "networkType": "ethereum",
  "devdoc": {
    "methods": {}
  },
  "userdoc": {
    "methods": {}
  }
}