{
  "contractName": "DSGuardFactory",
  "abi": [
    {
      "constant": true,
      "inputs": [
        {
          "internalType": "address",
          "name": "",
          "type": "address"
        }
      ],
      "name": "isGuard",
      "outputs": [
        {
          "internalType": "bool",
          "name": "",
          "type": "bool"
        }
      ],
      "payable": false,
      "stateMutability": "view",
      "type": "function"
    },
    {
      "constant": false,
      "inputs": [],
      "name": "newGuard",
      "outputs": [
        {
          "internalType": "contract DSGuard",
          "name": "guard",
          "type": "address"
        }
      ],
      "payable": false,
      "stateMutability": "nonpayable",
      "type": "function"
    }
  ],
  "bytecode": "0x608060405234801561001057600080fd5b50610aaa806100206000396000f3fe608060405234801561001057600080fd5b50600436106100365760003560e01c8063489c12021461003b57806365688cc914610075575b600080fd5b6100616004803603602081101561005157600080fd5b50356001600160a01b0316610099565b604080519115158252519081900360200190f35b61007d6100ae565b604080516001600160a01b039092168252519081900360200190f35b60006020819052908152604090205460ff1681565b60006040516100bc90610162565b604051809103906000f0801580156100d8573d6000803e3d6000fd5b50604080516313af403560e01b815233600482015290519192506001600160a01b038316916313af40359160248082019260009290919082900301818387803b15801561012457600080fd5b505af1158015610138573d6000803e3d6000fd5b5050506001600160a01b0382166000908152602081905260409020805460ff191660011790555090565b610906806101708339019056fe60806040819052600180546001600160a01b03191633908117909155907fce241d7ca1f669fee44b6fc00b8eba2df3bb514eed0f6f668f8f89096e81ed9490600090a26108b5806100516000396000f3fe608060405234801561001057600080fd5b506004361061009e5760003560e01c8063a8542f6611610066578063a8542f6614610174578063b70096131461018e578063bf7e214f146101e3578063cbeea68c146101eb578063f0217ce5146102215761009e565b806313af4035146100a35780632bc3217d146100cb57806379d88d87146101015780637a9e5e4b1461012a5780638da5cb5b14610150575b600080fd5b6100c9600480360360208110156100b957600080fd5b50356001600160a01b031661024a565b005b6100c9600480360360608110156100e157600080fd5b506001600160a01b038135811691602081013590911690604001356102f8565b6100c96004803603606081101561011757600080fd5b5080359060208101359060400135610322565b6100c96004803603602081101561014057600080fd5b50356001600160a01b03166103d9565b610158610483565b604080516001600160a01b039092168252519081900360200190f35b61017c610492565b60408051918252519081900360200190f35b6101cf600480360360608110156101a457600080fd5b5080356001600160a01b0390811691602081013590911690604001356001600160e01b031916610498565b604080519115158252519081900360200190f35b6101586106ad565b6100c96004803603606081101561020157600080fd5b506001600160a01b038135811691602081013590911690604001356106bc565b6100c96004803603606081101561023757600080fd5b50803590602081013590604001356106dd565b610260336000356001600160e01b031916610797565b6102a8576040805162461bcd60e51b8152602060048201526014602482015273191ccb585d5d1a0b5d5b985d5d1a1bdc9a5e995960621b604482015290519081900360640190fd5b600180546001600160a01b0319166001600160a01b0383811691909117918290556040519116907fce241d7ca1f669fee44b6fc00b8eba2df3bb514eed0f6f668f8f89096e81ed9490600090a250565b61031d8360601b6001600160601b0319168360601b6001600160601b03191683610322565b505050565b610338336000356001600160e01b031916610797565b610380576040805162461bcd60e51b8152602060048201526014602482015273191ccb585d5d1a0b5d5b985d5d1a1bdc9a5e995960621b604482015290519081900360640190fd5b60008381526002602090815260408083208584528252808320848452909152808220805460ff19169055518291849186917f95ba64c95d85e67ac83a0476c4a62ac2cf8ab2d0407545b8c9d79c3eefa6282991a4505050565b6103ef336000356001600160e01b031916610797565b610437576040805162461bcd60e51b8152602060048201526014602482015273191ccb585d5d1a0b5d5b985d5d1a1bdc9a5e995960621b604482015290519081900360640190fd5b600080546001600160a01b0319166001600160a01b03838116919091178083556040519116917f1abebea81bfa2637f28358c371278fb15ede7ea8dd28d2e03b112ff6d936ada491a250565b6001546001600160a01b031681565b60001981565b6bffffffffffffffffffffffff19606084811b821660008181526002602090815260408083209488901b9095168083529381528482206001600160e01b03198716835290529283205490919060ff1680610515575060008281526002602090815260408083208484528252808320600019845290915290205460ff165b8061054d57506000828152600260209081526040808320600019845282528083206001600160e01b03198816845290915290205460ff165b80610578575060008281526002602090815260408083206000198452825280832090915290205460ff165b806105c5575060008181527f38b5b2ceac7637132d27514ffcf440b705287635075af7b8bd5adcaa6a4cc5bb602090815260408083206001600160e01b03198816845290915290205460ff165b8061060a575060008181527f38b5b2ceac7637132d27514ffcf440b705287635075af7b8bd5adcaa6a4cc5bb60209081526040808320600019845290915290205460ff165b8061064d57506001600160e01b0319841660009081527f47fa60fbc027ac3984ea309688a33182f4193c478b40ba8d294eb2cd3ddc4d97602052604090205460ff165b806106a357506000196000527f47fa60fbc027ac3984ea309688a33182f4193c478b40ba8d294eb2cd3ddc4d976020527ff423d1317b37667cd26005728bffa7c8b0499e133951fcf8e814d4fc5f4c98f65460ff165b9695505050505050565b6000546001600160a01b031681565b61031d8360601b6001600160601b0319168360601b6001600160601b031916835b6106f3336000356001600160e01b031916610797565b61073b576040805162461bcd60e51b8152602060048201526014602482015273191ccb585d5d1a0b5d5b985d5d1a1bdc9a5e995960621b604482015290519081900360640190fd5b60008381526002602090815260408083208584528252808320848452909152808220805460ff19166001179055518291849186917f6f50375045128971c5469d343039ba7b8e30a5b190453737b28bda6f7a30677191a4505050565b60006001600160a01b0383163014156107b25750600161087a565b6001546001600160a01b03848116911614156107d05750600161087a565b6000546001600160a01b03166107e85750600061087a565b6000546040805163b700961360e01b81526001600160a01b0386811660048301523060248301526001600160e01b0319861660448301529151919092169163b7009613916064808301926020929190829003018186803b15801561084b57600080fd5b505afa15801561085f573d6000803e3d6000fd5b505050506040513d602081101561087557600080fd5b505190505b9291505056fea265627a7a7231582002f13cb32032449838808dd8f202e7345ece3907f6e1ea30707f04c2b7b30b2764736f6c63430005100032a265627a7a72315820d678cbdfcf20396599f1aaece9d90f67e09d88474e21bc810c1c6f4bd1f40fc964736f6c63430005100032",
  "source": "// guard.sol -- simple whitelist implementation of DSAuthority\n\n// Copyright (C) 2017  DappHub, LLC\n\n// This program is free software: you can redistribute it and/or modify\n// it under the terms of the GNU General Public License as published by\n// the Free Software Foundation, either version 3 of the License, or\n// (at your option) any later version.\n\n// This program is distributed in the hope that it will be useful,\n// but WITHOUT ANY WARRANTY; without even the implied warranty of\n// MERCHANTABILITY or FITNESS FOR A PARTICULAR PURPOSE.  See the\n// GNU General Public License for more details.\n\n// You should have received a copy of the GNU General Public License\n// along with this program.  If not, see <http://www.gnu.org/licenses/>.\n\npragma solidity 0.5.16;\n\nimport \"./Auth.sol\";\n\ncontract DSGuardEvents {\n    event LogPermit(\n        bytes32 indexed src,\n        bytes32 indexed dst,\n        bytes32 indexed sig\n    );\n\n    event LogForbid(\n        bytes32 indexed src,\n        bytes32 indexed dst,\n        bytes32 indexed sig\n    );\n}\n\ncontract DSGuard is DSAuth, DSAuthority, DSGuardEvents {\n    bytes32 constant public ANY = bytes32(uint(-1));\n\n    mapping (bytes32 => mapping (bytes32 => mapping (bytes32 => bool))) acl;\n\n    function canCall(\n        address src_, address dst_, bytes4 sig\n    ) public view returns (bool) {\n        bytes32 src = bytes32(bytes20(src_));\n        bytes32 dst = bytes32(bytes20(dst_));\n\n        return acl[src][dst][sig]\n            || acl[src][dst][ANY]\n            || acl[src][ANY][sig]\n            || acl[src][ANY][ANY]\n            || acl[ANY][dst][sig]\n            || acl[ANY][dst][ANY]\n            || acl[ANY][ANY][sig]\n            || acl[ANY][ANY][ANY];\n    }\n\n    function permit(bytes32 src, bytes32 dst, bytes32 sig) public auth {\n        acl[src][dst][sig] = true;\n        emit LogPermit(src, dst, sig);\n    }\n\n    function forbid(bytes32 src, bytes32 dst, bytes32 sig) public auth {\n        acl[src][dst][sig] = false;\n        emit LogForbid(src, dst, sig);\n    }\n\n    function permit(address src, address dst, bytes32 sig) public {\n        permit(bytes32(bytes20(src)), bytes32(bytes20(dst)), sig);\n    }\n    function forbid(address src, address dst, bytes32 sig) public {\n        forbid(bytes32(bytes20(src)), bytes32(bytes20(dst)), sig);\n    }\n\n}\n\ncontract DSGuardFactory {\n    mapping (address => bool)  public  isGuard;\n\n    function newGuard() public returns (DSGuard guard) {\n        guard = new DSGuard();\n        guard.setOwner(msg.sender);\n        isGuard[address(guard)] = true;\n    }\n}\n",
  "sourcePath": "/home/kendrick/Development/Ethereum/dedge/packages/smart-contracts/src/lib/dapphub/Guard.sol",
  "compiler": {
    "name": "solc",
    "version": "0.5.16+commit.9c3226ce.Emscripten.clang"
  },
  "schemaVersion": "3.0.23",
  "updatedAt": "2020-04-08T12:21:13.741Z",
  "devdoc": {
    "methods": {}
  },
  "userdoc": {
    "methods": {}
  }
}