{
  "contractName": "DSGuard",
  "abi": [
    {
      "anonymous": false,
      "inputs": [
        {
          "indexed": true,
          "internalType": "bytes32",
          "name": "src",
          "type": "bytes32"
        },
        {
          "indexed": true,
          "internalType": "bytes32",
          "name": "dst",
          "type": "bytes32"
        },
        {
          "indexed": true,
          "internalType": "bytes32",
          "name": "sig",
          "type": "bytes32"
        }
      ],
      "name": "LogForbid",
      "type": "event"
    },
    {
      "anonymous": false,
      "inputs": [
        {
          "indexed": true,
          "internalType": "bytes32",
          "name": "src",
          "type": "bytes32"
        },
        {
          "indexed": true,
          "internalType": "bytes32",
          "name": "dst",
          "type": "bytes32"
        },
        {
          "indexed": true,
          "internalType": "bytes32",
          "name": "sig",
          "type": "bytes32"
        }
      ],
      "name": "LogPermit",
      "type": "event"
    },
    {
      "anonymous": false,
      "inputs": [
        {
          "indexed": true,
          "internalType": "address",
          "name": "authority",
          "type": "address"
        }
      ],
      "name": "LogSetAuthority",
      "type": "event"
    },
    {
      "anonymous": false,
      "inputs": [
        {
          "indexed": true,
          "internalType": "address",
          "name": "owner",
          "type": "address"
        }
      ],
      "name": "LogSetOwner",
      "type": "event"
    },
    {
      "constant": true,
      "inputs": [],
      "name": "ANY",
      "outputs": [
        {
          "internalType": "bytes32",
          "name": "",
          "type": "bytes32"
        }
      ],
      "payable": false,
      "stateMutability": "view",
      "type": "function"
    },
    {
      "constant": true,
      "inputs": [],
      "name": "authority",
      "outputs": [
        {
          "internalType": "contract DSAuthority",
          "name": "",
          "type": "address"
        }
      ],
      "payable": false,
      "stateMutability": "view",
      "type": "function"
    },
    {
      "constant": true,
      "inputs": [],
      "name": "owner",
      "outputs": [
        {
          "internalType": "address",
          "name": "",
          "type": "address"
        }
      ],
      "payable": false,
      "stateMutability": "view",
      "type": "function"
    },
    {
      "constant": false,
      "inputs": [
        {
          "internalType": "contract DSAuthority",
          "name": "authority_",
          "type": "address"
        }
      ],
      "name": "setAuthority",
      "outputs": [],
      "payable": false,
      "stateMutability": "nonpayable",
      "type": "function"
    },
    {
      "constant": false,
      "inputs": [
        {
          "internalType": "address",
          "name": "owner_",
          "type": "address"
        }
      ],
      "name": "setOwner",
      "outputs": [],
      "payable": false,
      "stateMutability": "nonpayable",
      "type": "function"
    },
    {
      "constant": true,
      "inputs": [
        {
          "internalType": "address",
          "name": "src_",
          "type": "address"
        },
        {
          "internalType": "address",
          "name": "dst_",
          "type": "address"
        },
        {
          "internalType": "bytes4",
          "name": "sig",
          "type": "bytes4"
        }
      ],
      "name": "canCall",
      "outputs": [
        {
          "internalType": "bool",
          "name": "",
          "type": "bool"
        }
      ],
      "payable": false,
      "stateMutability": "view",
      "type": "function"
    },
    {
      "constant": false,
      "inputs": [
        {
          "internalType": "address",
          "name": "src",
          "type": "address"
        },
        {
          "internalType": "address",
          "name": "dst",
          "type": "address"
        },
        {
          "internalType": "bytes32",
          "name": "sig",
          "type": "bytes32"
        }
      ],
      "name": "permit",
      "outputs": [],
      "payable": false,
      "stateMutability": "nonpayable",
      "type": "function"
    },
    {
      "constant": false,
      "inputs": [
        {
          "internalType": "bytes32",
          "name": "src",
          "type": "bytes32"
        },
        {
          "internalType": "bytes32",
          "name": "dst",
          "type": "bytes32"
        },
        {
          "internalType": "bytes32",
          "name": "sig",
          "type": "bytes32"
        }
      ],
      "name": "permit",
      "outputs": [],
      "payable": false,
      "stateMutability": "nonpayable",
      "type": "function"
    },
    {
      "constant": false,
      "inputs": [
        {
          "internalType": "address",
          "name": "src",
          "type": "address"
        },
        {
          "internalType": "address",
          "name": "dst",
          "type": "address"
        },
        {
          "internalType": "bytes32",
          "name": "sig",
          "type": "bytes32"
        }
      ],
      "name": "forbid",
      "outputs": [],
      "payable": false,
      "stateMutability": "nonpayable",
      "type": "function"
    },
    {
      "constant": false,
      "inputs": [
        {
          "internalType": "bytes32",
          "name": "src",
          "type": "bytes32"
        },
        {
          "internalType": "bytes32",
          "name": "dst",
          "type": "bytes32"
        },
        {
          "internalType": "bytes32",
          "name": "sig",
          "type": "bytes32"
        }
      ],
      "name": "forbid",
      "outputs": [],
      "payable": false,
      "stateMutability": "nonpayable",
      "type": "function"
    }
  ],
  "bytecode": "0x608060405233600160006101000a81548173ffffffffffffffffffffffffffffffffffffffff021916908373ffffffffffffffffffffffffffffffffffffffff1602179055503373ffffffffffffffffffffffffffffffffffffffff167fce241d7ca1f669fee44b6fc00b8eba2df3bb514eed0f6f668f8f89096e81ed9460405160405180910390a26110c1806100976000396000f3fe608060405234801561001057600080fd5b506004361061009e5760003560e01c8063a8542f6611610066578063a8542f6614610225578063b700961314610243578063bf7e214f146102e8578063cbeea68c14610332578063f0217ce5146103a05761009e565b806313af4035146100a35780632bc3217d146100e757806379d88d87146101555780637a9e5e4b146101975780638da5cb5b146101db575b600080fd5b6100e5600480360360208110156100b957600080fd5b81019080803573ffffffffffffffffffffffffffffffffffffffff1690602001909291905050506103e2565b005b610153600480360360608110156100fd57600080fd5b81019080803573ffffffffffffffffffffffffffffffffffffffff169060200190929190803573ffffffffffffffffffffffffffffffffffffffff1690602001909291908035906020019092919050505061052b565b005b6101956004803603606081101561016b57600080fd5b8101908080359060200190929190803590602001909291908035906020019092919050505061055f565b005b6101d9600480360360208110156101ad57600080fd5b81019080803573ffffffffffffffffffffffffffffffffffffffff169060200190929190505050610681565b005b6101e36107c8565b604051808273ffffffffffffffffffffffffffffffffffffffff1673ffffffffffffffffffffffffffffffffffffffff16815260200191505060405180910390f35b61022d6107ee565b6040518082815260200191505060405180910390f35b6102ce6004803603606081101561025957600080fd5b81019080803573ffffffffffffffffffffffffffffffffffffffff169060200190929190803573ffffffffffffffffffffffffffffffffffffffff16906020019092919080357bffffffffffffffffffffffffffffffffffffffffffffffffffffffff19169060200190929190505050610815565b604051808215151515815260200191505060405180910390f35b6102f0610cb8565b604051808273ffffffffffffffffffffffffffffffffffffffff1673ffffffffffffffffffffffffffffffffffffffff16815260200191505060405180910390f35b61039e6004803603606081101561034857600080fd5b81019080803573ffffffffffffffffffffffffffffffffffffffff169060200190929190803573ffffffffffffffffffffffffffffffffffffffff16906020019092919080359060200190929190505050610cdd565b005b6103e0600480360360608110156103b657600080fd5b81019080803590602001909291908035906020019092919080359060200190929190505050610d11565b005b610410336000357fffffffff0000000000000000000000000000000000000000000000000000000016610e33565b610482576040517f08c379a00000000000000000000000000000000000000000000000000000000081526004018080602001828103825260148152602001807f64732d617574682d756e617574686f72697a656400000000000000000000000081525060200191505060405180910390fd5b80600160006101000a81548173ffffffffffffffffffffffffffffffffffffffff021916908373ffffffffffffffffffffffffffffffffffffffff160217905550600160009054906101000a900473ffffffffffffffffffffffffffffffffffffffff1673ffffffffffffffffffffffffffffffffffffffff167fce241d7ca1f669fee44b6fc00b8eba2df3bb514eed0f6f668f8f89096e81ed9460405160405180910390a250565b61055a8360601b6bffffffffffffffffffffffff19168360601b6bffffffffffffffffffffffff19168361055f565b505050565b61058d336000357fffffffff0000000000000000000000000000000000000000000000000000000016610e33565b6105ff576040517f08c379a00000000000000000000000000000000000000000000000000000000081526004018080602001828103825260148152602001807f64732d617574682d756e617574686f72697a656400000000000000000000000081525060200191505060405180910390fd5b6000600260008581526020019081526020016000206000848152602001908152602001600020600083815260200190815260200160002060006101000a81548160ff0219169083151502179055508082847f95ba64c95d85e67ac83a0476c4a62ac2cf8ab2d0407545b8c9d79c3eefa6282960405160405180910390a4505050565b6106af336000357fffffffff0000000000000000000000000000000000000000000000000000000016610e33565b610721576040517f08c379a00000000000000000000000000000000000000000000000000000000081526004018080602001828103825260148152602001807f64732d617574682d756e617574686f72697a656400000000000000000000000081525060200191505060405180910390fd5b806000806101000a81548173ffffffffffffffffffffffffffffffffffffffff021916908373ffffffffffffffffffffffffffffffffffffffff1602179055506000809054906101000a900473ffffffffffffffffffffffffffffffffffffffff1673ffffffffffffffffffffffffffffffffffffffff167f1abebea81bfa2637f28358c371278fb15ede7ea8dd28d2e03b112ff6d936ada460405160405180910390a250565b600160009054906101000a900473ffffffffffffffffffffffffffffffffffffffff1681565b7fffffffffffffffffffffffffffffffffffffffffffffffffffffffffffffffff60001b81565b6000808460601b6bffffffffffffffffffffffff1916905060008460601b6bffffffffffffffffffffffff191690506002600083815260200190815260200160002060008281526020019081526020016000206000857bffffffffffffffffffffffffffffffffffffffffffffffffffffffff1916815260200190815260200160002060009054906101000a900460ff1680610913575060026000838152602001908152602001600020600082815260200190815260200160002060007fffffffffffffffffffffffffffffffffffffffffffffffffffffffffffffffff60001b815260200190815260200160002060009054906101000a900460ff165b8061099f57506002600083815260200190815260200160002060007fffffffffffffffffffffffffffffffffffffffffffffffffffffffffffffffff60001b81526020019081526020016000206000857bffffffffffffffffffffffffffffffffffffffffffffffffffffffff1916815260200190815260200160002060009054906101000a900460ff165b80610a2f57506002600083815260200190815260200160002060007fffffffffffffffffffffffffffffffffffffffffffffffffffffffffffffffff60001b815260200190815260200160002060007fffffffffffffffffffffffffffffffffffffffffffffffffffffffffffffffff60001b815260200190815260200160002060009054906101000a900460ff165b80610abb5750600260007fffffffffffffffffffffffffffffffffffffffffffffffffffffffffffffffff60001b815260200190815260200160002060008281526020019081526020016000206000857bffffffffffffffffffffffffffffffffffffffffffffffffffffffff1916815260200190815260200160002060009054906101000a900460ff165b80610b4b5750600260007fffffffffffffffffffffffffffffffffffffffffffffffffffffffffffffffff60001b8152602001908152602001600020600082815260200190815260200160002060007fffffffffffffffffffffffffffffffffffffffffffffffffffffffffffffffff60001b815260200190815260200160002060009054906101000a900460ff165b80610bfa5750600260007fffffffffffffffffffffffffffffffffffffffffffffffffffffffffffffffff60001b815260200190815260200160002060007fffffffffffffffffffffffffffffffffffffffffffffffffffffffffffffffff60001b81526020019081526020016000206000857bffffffffffffffffffffffffffffffffffffffffffffffffffffffff1916815260200190815260200160002060009054906101000a900460ff165b80610cad5750600260007fffffffffffffffffffffffffffffffffffffffffffffffffffffffffffffffff60001b815260200190815260200160002060007fffffffffffffffffffffffffffffffffffffffffffffffffffffffffffffffff60001b815260200190815260200160002060007fffffffffffffffffffffffffffffffffffffffffffffffffffffffffffffffff60001b815260200190815260200160002060009054906101000a900460ff165b925050509392505050565b6000809054906101000a900473ffffffffffffffffffffffffffffffffffffffff1681565b610d0c8360601b6bffffffffffffffffffffffff19168360601b6bffffffffffffffffffffffff191683610d11565b505050565b610d3f336000357fffffffff0000000000000000000000000000000000000000000000000000000016610e33565b610db1576040517f08c379a00000000000000000000000000000000000000000000000000000000081526004018080602001828103825260148152602001807f64732d617574682d756e617574686f72697a656400000000000000000000000081525060200191505060405180910390fd5b6001600260008581526020019081526020016000206000848152602001908152602001600020600083815260200190815260200160002060006101000a81548160ff0219169083151502179055508082847f6f50375045128971c5469d343039ba7b8e30a5b190453737b28bda6f7a30677160405160405180910390a4505050565b60003073ffffffffffffffffffffffffffffffffffffffff168373ffffffffffffffffffffffffffffffffffffffff161415610e725760019050611086565b600160009054906101000a900473ffffffffffffffffffffffffffffffffffffffff1673ffffffffffffffffffffffffffffffffffffffff168373ffffffffffffffffffffffffffffffffffffffff161415610ed15760019050611086565b600073ffffffffffffffffffffffffffffffffffffffff166000809054906101000a900473ffffffffffffffffffffffffffffffffffffffff1673ffffffffffffffffffffffffffffffffffffffff161415610f305760009050611086565b6000809054906101000a900473ffffffffffffffffffffffffffffffffffffffff1673ffffffffffffffffffffffffffffffffffffffff1663b70096138430856040518463ffffffff1660e01b8152600401808473ffffffffffffffffffffffffffffffffffffffff1673ffffffffffffffffffffffffffffffffffffffff1681526020018373ffffffffffffffffffffffffffffffffffffffff1673ffffffffffffffffffffffffffffffffffffffff168152602001827bffffffffffffffffffffffffffffffffffffffffffffffffffffffff19167bffffffffffffffffffffffffffffffffffffffffffffffffffffffff19168152602001935050505060206040518083038186803b15801561104857600080fd5b505afa15801561105c573d6000803e3d6000fd5b505050506040513d602081101561107257600080fd5b810190808051906020019092919050505090505b9291505056fea265627a7a72315820b36af45f5c962802069634aca499d531cac1aeed514356b0d518c59cf816ca6264736f6c63430005100032",
  "source": "// guard.sol -- simple whitelist implementation of DSAuthority\n\n// Copyright (C) 2017  DappHub, LLC\n\n// This program is free software: you can redistribute it and/or modify\n// it under the terms of the GNU General Public License as published by\n// the Free Software Foundation, either version 3 of the License, or\n// (at your option) any later version.\n\n// This program is distributed in the hope that it will be useful,\n// but WITHOUT ANY WARRANTY; without even the implied warranty of\n// MERCHANTABILITY or FITNESS FOR A PARTICULAR PURPOSE.  See the\n// GNU General Public License for more details.\n\n// You should have received a copy of the GNU General Public License\n// along with this program.  If not, see <http://www.gnu.org/licenses/>.\n\npragma solidity 0.5.16;\n\nimport \"./Auth.sol\";\n\ncontract DSGuardEvents {\n    event LogPermit(\n        bytes32 indexed src,\n        bytes32 indexed dst,\n        bytes32 indexed sig\n    );\n\n    event LogForbid(\n        bytes32 indexed src,\n        bytes32 indexed dst,\n        bytes32 indexed sig\n    );\n}\n\ncontract DSGuard is DSAuth, DSAuthority, DSGuardEvents {\n    bytes32 constant public ANY = bytes32(uint(-1));\n\n    mapping (bytes32 => mapping (bytes32 => mapping (bytes32 => bool))) acl;\n\n    function canCall(\n        address src_, address dst_, bytes4 sig\n    ) public view returns (bool) {\n        bytes32 src = bytes32(bytes20(src_));\n        bytes32 dst = bytes32(bytes20(dst_));\n\n        return acl[src][dst][sig]\n            || acl[src][dst][ANY]\n            || acl[src][ANY][sig]\n            || acl[src][ANY][ANY]\n            || acl[ANY][dst][sig]\n            || acl[ANY][dst][ANY]\n            || acl[ANY][ANY][sig]\n            || acl[ANY][ANY][ANY];\n    }\n\n    function permit(bytes32 src, bytes32 dst, bytes32 sig) public auth {\n        acl[src][dst][sig] = true;\n        emit LogPermit(src, dst, sig);\n    }\n\n    function forbid(bytes32 src, bytes32 dst, bytes32 sig) public auth {\n        acl[src][dst][sig] = false;\n        emit LogForbid(src, dst, sig);\n    }\n\n    function permit(address src, address dst, bytes32 sig) public {\n        permit(bytes32(bytes20(src)), bytes32(bytes20(dst)), sig);\n    }\n    function forbid(address src, address dst, bytes32 sig) public {\n        forbid(bytes32(bytes20(src)), bytes32(bytes20(dst)), sig);\n    }\n\n}\n\ncontract DSGuardFactory {\n    mapping (address => bool)  public  isGuard;\n\n    function newGuard() public returns (DSGuard guard) {\n        guard = new DSGuard();\n        guard.setOwner(msg.sender);\n        isGuard[address(guard)] = true;\n    }\n}\n",
  "sourcePath": "/home/kendrick/Development/Ethereum/dedge/packages/smart-contracts/src/lib/dapphub/Guard.sol",
  "compiler": {
    "name": "solc",
    "version": "0.5.16+commit.9c3226ce.Emscripten.clang"
  },
  "schemaVersion": "3.0.23",
  "updatedAt": "2020-03-28T01:00:49.800Z",
  "devdoc": {
    "methods": {}
  },
  "userdoc": {
    "methods": {}
  }
}