{
  "contractName": "UniswapBase",
  "abi": [
    {
      "constant": true,
      "inputs": [
        {
          "internalType": "address",
          "name": "tokenAddress",
          "type": "address"
        },
        {
          "internalType": "uint256",
          "name": "tokenAmount",
          "type": "uint256"
        }
      ],
      "name": "getTokenToEthInputPriceFromUniswap",
      "outputs": [
        {
          "internalType": "uint256",
          "name": "",
          "type": "uint256"
        }
      ],
      "payable": false,
      "stateMutability": "view",
      "type": "function"
    },
    {
      "constant": true,
      "inputs": [
        {
          "internalType": "address",
          "name": "tokenAddress",
          "type": "address"
        },
        {
          "internalType": "uint256",
          "name": "ethAmount",
          "type": "uint256"
        }
      ],
      "name": "getEthToTokenInputPriceFromUniswap",
      "outputs": [
        {
          "internalType": "uint256",
          "name": "",
          "type": "uint256"
        }
      ],
      "payable": false,
      "stateMutability": "view",
      "type": "function"
    },
    {
      "constant": true,
      "inputs": [
        {
          "internalType": "address",
          "name": "from",
          "type": "address"
        },
        {
          "internalType": "address",
          "name": "to",
          "type": "address"
        },
        {
          "internalType": "uint256",
          "name": "fromAmount",
          "type": "uint256"
        }
      ],
      "name": "getTokenToTokenPriceFromUniswap",
      "outputs": [
        {
          "internalType": "uint256",
          "name": "",
          "type": "uint256"
        }
      ],
      "payable": false,
      "stateMutability": "view",
      "type": "function"
    }
  ],
  "bytecode": "0x608060405234801561001057600080fd5b506103f5806100206000396000f3fe608060405234801561001057600080fd5b50600436106100415760003560e01c8063279ba926146100465780635f56a39a146100a8578063cede07831461012a575b600080fd5b6100926004803603604081101561005c57600080fd5b81019080803573ffffffffffffffffffffffffffffffffffffffff1690602001909291908035906020019092919050505061018c565b6040518082815260200191505060405180910390f35b610114600480360360608110156100be57600080fd5b81019080803573ffffffffffffffffffffffffffffffffffffffff169060200190929190803573ffffffffffffffffffffffffffffffffffffffff1690602001909291908035906020019092919050505061022a565b6040518082815260200191505060405180910390f35b6101766004803603604081101561014057600080fd5b81019080803573ffffffffffffffffffffffffffffffffffffffff1690602001909291908035906020019092919050505061024d565b6040518082815260200191505060405180910390f35b6000610197836102eb565b73ffffffffffffffffffffffffffffffffffffffff1663cd7724c3836040518263ffffffff1660e01b81526004018082815260200191505060206040518083038186803b1580156101e757600080fd5b505afa1580156101fb573d6000803e3d6000fd5b505050506040513d602081101561021157600080fd5b8101908080519060200190929190505050905092915050565b600080610237858461024d565b9050610243848261018c565b9150509392505050565b6000610258836102eb565b73ffffffffffffffffffffffffffffffffffffffff166395b68fe7836040518263ffffffff1660e01b81526004018082815260200191505060206040518083038186803b1580156102a857600080fd5b505afa1580156102bc573d6000803e3d6000fd5b505050506040513d60208110156102d257600080fd5b8101908080519060200190929190505050905092915050565b600073c0a47dfe034b400b47bdad5fecda2621de6c4d9573ffffffffffffffffffffffffffffffffffffffff166306f2bf62836040518263ffffffff1660e01b8152600401808273ffffffffffffffffffffffffffffffffffffffff1673ffffffffffffffffffffffffffffffffffffffff16815260200191505060206040518083038186803b15801561037e57600080fd5b505afa158015610392573d6000803e3d6000fd5b505050506040513d60208110156103a857600080fd5b8101908080519060200190929190505050905091905056fea265627a7a72315820c70b46b6555aa459ab92b05bbbefbf4fd005c605d6e35990479af908192bf87264736f6c63430005100032",
  "source": "pragma solidity 0.5.16;\n\nimport \"../../interfaces/uniswap/IUniswapExchange.sol\";\nimport \"../../interfaces/uniswap/IUniswapFactory.sol\";\n\nimport \"../../interfaces/IERC20.sol\";\n\n\ncontract UniswapBase {\n    // Uniswap Mainnet factory address\n    address constant UniswapFactoryAddress = 0xc0a47dFe034B400B47bDaD5FecDa2621de6c4d95;\n\n    function _getUniswapExchange(address tokenAddress) internal view returns (address) {\n        return IUniswapFactory(UniswapFactoryAddress).getExchange(tokenAddress);\n    }\n\n    function _buyTokensWithEthFromUniswap(address tokenAddress, uint ethAmount) internal returns (uint) {\n        return IUniswapExchange(_getUniswapExchange(tokenAddress))\n            .ethToTokenSwapInput.value(ethAmount)(uint(1), uint(now + 60));\n    }\n\n    function _buyTokensWithEthFromUniswap(address tokenAddress, uint ethAmount, uint minAmount) internal returns (uint) {\n        return IUniswapExchange(_getUniswapExchange(tokenAddress))\n            .ethToTokenSwapInput.value(ethAmount)(minAmount, uint(now + 60));\n    }\n\n    function _sellTokensForEthFromUniswap(address tokenAddress, uint tokenAmount) internal returns (uint) {\n        address exchange = _getUniswapExchange(tokenAddress);\n\n        IERC20(tokenAddress).approve(exchange, tokenAmount);\n\n        return IUniswapExchange(exchange)\n            .tokenToEthSwapInput(tokenAmount, uint(1), uint(now + 60));\n    }\n\n    function _sellTokensForTokensFromUniswap(address from, address to, uint tokenAmount) internal returns (uint) {\n        uint ethAmount = _sellTokensForEthFromUniswap(from, tokenAmount);\n        return _buyTokensWithEthFromUniswap(to, ethAmount);\n    }\n\n    function getTokenToEthInputPriceFromUniswap(address tokenAddress, uint tokenAmount) public view returns (uint) {\n        return IUniswapExchange(_getUniswapExchange(tokenAddress)).getTokenToEthInputPrice(tokenAmount);\n    }\n\n    function getEthToTokenInputPriceFromUniswap(address tokenAddress, uint ethAmount) public view returns (uint) {\n        return IUniswapExchange(_getUniswapExchange(tokenAddress)).getEthToTokenInputPrice(ethAmount);\n    }\n\n    function getTokenToTokenPriceFromUniswap(address from, address to, uint fromAmount) public view returns (uint) {\n        uint ethAmount = getTokenToEthInputPriceFromUniswap(from, fromAmount);\n        return getEthToTokenInputPriceFromUniswap(to, ethAmount);\n    }\n}\n",
  "sourcePath": "/home/kendrick/Development/Ethereum/dedge/packages/smart-contracts/src/lib/uniswap/UniswapBase.sol",
  "compiler": {
    "name": "solc",
    "version": "0.5.16+commit.9c3226ce.Emscripten.clang"
  },
  "schemaVersion": "3.0.23",
  "updatedAt": "2020-03-29T06:38:08.229Z",
  "devdoc": {
    "methods": {}
  },
  "userdoc": {
    "methods": {}
  }
}