{
  "contractName": "UniswapBase",
  "abi": [
    {
      "constant": true,
      "inputs": [
        {
          "internalType": "address",
          "name": "tokenAddress",
          "type": "address"
        },
        {
          "internalType": "uint256",
          "name": "tokenAmount",
          "type": "uint256"
        }
      ],
      "name": "getTokenToEthInputPriceFromUniswap",
      "outputs": [
        {
          "internalType": "uint256",
          "name": "",
          "type": "uint256"
        }
      ],
      "payable": false,
      "stateMutability": "view",
      "type": "function"
    },
    {
      "constant": true,
      "inputs": [
        {
          "internalType": "address",
          "name": "tokenAddress",
          "type": "address"
        },
        {
          "internalType": "uint256",
          "name": "ethAmount",
          "type": "uint256"
        }
      ],
      "name": "getEthToTokenInputPriceFromUniswap",
      "outputs": [
        {
          "internalType": "uint256",
          "name": "",
          "type": "uint256"
        }
      ],
      "payable": false,
      "stateMutability": "view",
      "type": "function"
    },
    {
      "constant": true,
      "inputs": [
        {
          "internalType": "address",
          "name": "from",
          "type": "address"
        },
        {
          "internalType": "address",
          "name": "to",
          "type": "address"
        },
        {
          "internalType": "uint256",
          "name": "fromAmount",
          "type": "uint256"
        }
      ],
      "name": "getTokenToTokenPriceFromUniswap",
      "outputs": [
        {
          "internalType": "uint256",
          "name": "",
          "type": "uint256"
        }
      ],
      "payable": false,
      "stateMutability": "view",
      "type": "function"
    }
  ],
  "bytecode": "0x608060405234801561001057600080fd5b5061029c806100206000396000f3fe608060405234801561001057600080fd5b50600436106100415760003560e01c8063279ba926146100465780635f56a39a14610084578063cede0783146100ba575b600080fd5b6100726004803603604081101561005c57600080fd5b506001600160a01b0381351690602001356100e6565b60408051918252519081900360200190f35b6100726004803603606081101561009a57600080fd5b506001600160a01b03813581169160208101359091169060400135610167565b610072600480360360408110156100d057600080fd5b506001600160a01b038135169060200135610189565b60006100f1836101d7565b6001600160a01b031663cd7724c3836040518263ffffffff1660e01b81526004018082815260200191505060206040518083038186803b15801561013457600080fd5b505afa158015610148573d6000803e3d6000fd5b505050506040513d602081101561015e57600080fd5b50519392505050565b6000806101748584610189565b905061018084826100e6565b95945050505050565b6000610194836101d7565b6001600160a01b03166395b68fe7836040518263ffffffff1660e01b81526004018082815260200191505060206040518083038186803b15801561013457600080fd5b604080516303795fb160e11b81526001600160a01b0383166004820152905160009173c0a47dfe034b400b47bdad5fecda2621de6c4d95916306f2bf6291602480820192602092909190829003018186803b15801561023557600080fd5b505afa158015610249573d6000803e3d6000fd5b505050506040513d602081101561025f57600080fd5b50519291505056fea265627a7a7231582079a495b1b99289945db382b676d37cce3a892a1293891a6351611188c9bf0c3864736f6c63430005100032",
  "source": "pragma solidity 0.5.16;\n\nimport \"../../interfaces/uniswap/IUniswapExchange.sol\";\nimport \"../../interfaces/uniswap/IUniswapFactory.sol\";\n\nimport \"../../interfaces/IERC20.sol\";\n\n\ncontract UniswapBase {\n    // Uniswap Mainnet factory address\n    address constant UniswapFactoryAddress = 0xc0a47dFe034B400B47bDaD5FecDa2621de6c4d95;\n\n    function _getUniswapExchange(address tokenAddress) internal view returns (address) {\n        return IUniswapFactory(UniswapFactoryAddress).getExchange(tokenAddress);\n    }\n\n    function _buyTokensWithEthFromUniswap(address tokenAddress, uint ethAmount) internal returns (uint) {\n        return IUniswapExchange(_getUniswapExchange(tokenAddress))\n            .ethToTokenSwapInput.value(ethAmount)(uint(1), uint(now + 60));\n    }\n\n    function _buyTokensWithEthFromUniswap(address tokenAddress, uint ethAmount, uint minAmount) internal returns (uint) {\n        return IUniswapExchange(_getUniswapExchange(tokenAddress))\n            .ethToTokenSwapInput.value(ethAmount)(minAmount, uint(now + 60));\n    }\n\n    function _sellTokensForEthFromUniswap(address tokenAddress, uint tokenAmount) internal returns (uint) {\n        address exchange = _getUniswapExchange(tokenAddress);\n\n        IERC20(tokenAddress).approve(exchange, tokenAmount);\n\n        return IUniswapExchange(exchange)\n            .tokenToEthSwapInput(tokenAmount, uint(1), uint(now + 60));\n    }\n\n    function _sellTokensForTokensFromUniswap(address from, address to, uint tokenAmount) internal returns (uint) {\n        uint ethAmount = _sellTokensForEthFromUniswap(from, tokenAmount);\n        return _buyTokensWithEthFromUniswap(to, ethAmount);\n    }\n\n    function getTokenToEthInputPriceFromUniswap(address tokenAddress, uint tokenAmount) public view returns (uint) {\n        return IUniswapExchange(_getUniswapExchange(tokenAddress)).getTokenToEthInputPrice(tokenAmount);\n    }\n\n    function getEthToTokenInputPriceFromUniswap(address tokenAddress, uint ethAmount) public view returns (uint) {\n        return IUniswapExchange(_getUniswapExchange(tokenAddress)).getEthToTokenInputPrice(ethAmount);\n    }\n\n    function getTokenToTokenPriceFromUniswap(address from, address to, uint fromAmount) public view returns (uint) {\n        uint ethAmount = getTokenToEthInputPriceFromUniswap(from, fromAmount);\n        return getEthToTokenInputPriceFromUniswap(to, ethAmount);\n    }\n}\n",
  "sourcePath": "/home/kendrick/Development/Ethereum/dedge/packages/smart-contracts/src/lib/uniswap/UniswapBase.sol",
  "compiler": {
    "name": "solc",
    "version": "0.5.16+commit.9c3226ce.Emscripten.clang"
  },
  "schemaVersion": "3.0.23",
  "updatedAt": "2020-04-08T12:21:13.880Z",
  "devdoc": {
    "methods": {}
  },
  "userdoc": {
    "methods": {}
  }
}